:100000000C94E9800C941A810C941A810C941A8136
:100010000C941A810C941A810C941A810C941A81F4
:100020000C941A810C941A810C941A810C941A81E4
:100030000C941A810C941A810C941A810C941A81D4
:100040000C941A810C941A810C941A810C941A81C4
:100050000C941A810C941A810C941A810C94648863
:100060000C941A810C94D8880C94AE880C941A8144
:100070000C941A810C941A810C941A810C941A8194
:100080000C941A810C941A810C941A810C941A8184
:100090000C941A810C941A810C941A810C941A8174
:1000A0000C941A810C941A810C941A810C941A8164
:1000B0000C941A810C941A810C941A810C941A8154
:1000C0000C941A810C941A810C941A810C941A8144
:1000D0000C941A810C941A810C941A810C941A8134
:1000E0000C941A810C940D830C947A810C948F8754
:1000F0000C94CE870C941C810C94FB870C9479850E
:100100000C941A870C9403840C94F8850C945082F8
:100110000C946C810C943C840C94D0870C94C88310
:100120000C9442880C9426860C9499840C94178322
:100130000C9495830C9464850C9451820C9488865D
:100140000C9459870C945F840C94B2810C94B685FE
:100150000C94E2850C9440870C94FF810C947F876B
:100160000C9410860C945B870C945A820C945A86DB
:100170000C9428860C9444860C94B1830C9490853E
:100180000C9458810C94CE860C9428840C94BD83D6
:100190000C94CC850C94D5830C9422880C942885DF
:1001A0000C94ED840C94CF8A0C943E850C940E86AE
:1001B0000C946B870C94A9870C948E840C946F8696
:1001C0000C9449810C94F4860C9412830C94A787A8
:1001D000000000000000000000000000000000001F
:1001E000000000000000000000000000000000000F
:1001F00000000000000000000000000000000000FF
:1002000000000000000000000000000000000000EE
:1041D0003A00F605080018400400FFFFEA020C0050
:1041E000BA3F04003000B529DE020D0004000A00C9
:1041F0007506E129DE020C0004000100080DF83FFD
:104200000B000000097E7E0064006500660061000E
:1042100075006C0074003F00BA3F04007D00BA29AD
:104220000B00000008C27E00740079007000650079
:104230002D0073006100180004007300BA29080003
:104240003D401700763F0900494018000400610016
:10425000BA290800474017009F3F0900494017004E
:104260002A3E0B0000000ED07E0074007900700022
:1042700065002D0064006900730070006100740027
:1042800063006800180004006400BA290800644054
:104290001700263F09008340180004007500BA2962
:1042A00008006E401700393F0900834018000400E1
:1042B0007800BA290800784017004D3F0900834074
:1042C000180004006300BA290800824017005F3F0D
:1042D0000900834033400B0000000BD87E006600CD
:1042E000690065006C0064002D00740061006900C5
:1042F0006C0004000100080DC6020D0076050800E0
:104300009C4017000900AA40A4180C00620061003C
:104310006400200066002D007300740072006900C4
:104320006E006700BA3F04007D001E00A4180C0058
:10433000620061006400200066002D0073007400BC
:10434000720069006E00670004000100080D5A4009
:104350000B00000006C87E006600690065006C0066
:10436000640004000100080D04000000D2020C00EB
:104370000400FFFFDE020C00C6020D0076050800F7
:10438000DC4017000900EA40A4180C00620061003C
:104390006400200066002D00730074007200690044
:1043A0006E00670024400800F34004000100080D7F
:1043B000263F09004141CD3FC6020D0076050800A9
:1043C000FC40170009000A41A4180C0062006100BB
:1043D0006400200066002D00730074007200690004
:1043E0006E006700BA3F04002E00BA29080032416F
:1043F00004000100080D04000000DE020C000400AF
:104400000000EA020C00F83FEA020D007605080001
:104410002441170009003241A4180C006200610019
:104420006400200066002D007300740072006900B3
:104430006E006700BA3F180004007D00BA2908002A
:104440004041170004000100080D263F09004141CA
:1044500091400B0000000CCA7E00650076006100F0
:104460006C002D006C00620072006100630065004A
:1044700004000100C6020D00BA0508006D41BA0231
:104480000D0004000100E1290F0004007B00BA299F
:1044900008006A4104007B004F0D04000200080D73
:1044A00009006B41C94009006E41C9400B00000082
:1044B0000CCA7E006500760061006C002D00720061
:1044C0006200720061006300650004000100C60222
:1044D0000D00BA0508009A41BA020D00040001005F
:1044E000E1290F0004007D00BA290800974104006B
:1044F0007D004F0D04000200080D090098412A3E7E
:1045000009009B412A3E0B00000005D87E00650093
:10451000760061006C00A8291700BA020C00C602E0
:104520000C001700150DC6020D000800CA41BA3F65
:10453000180004007B00BA290800BA411700504156
:104540000900C841180004007D00BA290800C441D0
:1045500017007D410900C8414F0D04000100080DFE
:104560000900AB41700D0B00000044DC7E007200BE
:1045700075006E00E00C2D07A3410B00CC4143F801
:104580007E0022007C00D2410B00C82D82444600F0
:10459000220031030D000800EE4104002200D20E7B
:1045A000A40DBF16D241F3160900F3410400220006
:1045B000D20EA40DA3410B00E73B0DA04500440023
:1045C000490054002D004C0049004E0045002D00CC
:1045D0004300410050000400A0000B00F4410D8A8C
:1045E00045004400490054002D005200450043009E
:1045F0002D00530049005A0045000400A4000B00A0
:1046000006420F8A45004400490054002D00410035
:10461000520045004E0041002D00530049005A0051
:104620004500040000200B0018420BAE450044007A
:10463000490054002D0054004500580054002D003E
:104640005700040050000B002C420B904500440022
:10465000490054002D0054004500580054002D001E
:104660004800040017000B003C420FAE4500440018
:10467000490054002D0053005400410054005500DF
:1046800053002D0052004F005700040018000B008B
:104690004C420DAE45004400490054002D00480036
:1046A00045004C0050002D0052004F005700040000
:1046B00019000B0060420D8A450044004900540077
:1046C0002D004D00530047002D004E004F004E00BE
:1046D0004500040000000B0072420E8845004400B3
:1046E000490054002D004D00530047002D00530099
:1046F0004100560045004400040001000B008442C4
:104700000FA445004400490054002D004D00530003
:1047100047002D004200550046004600450052006B
:10472000040002000B0097420D8E45004400490032
:1047300054002D004D00530047002D004C004F0049
:104740004E004700040003000B00AB420D9C4500E7
:104750004400490054002D004D00530047002D0037
:104760004F00500045004E00040004000B00BD4205
:104770000D8845004400490054002D004D005300B1
:1047800047002D0052004500410044000400050090
:104790000B00CF420E8A45004400490054002D0012
:1047A0004D00530047002D005700520049005400AF
:1047B0004500040006000B00E1420CAE4500440039
:1047C000490054002D004D00530047002D004E00BD
:1047D00045005700040007000B00F4420D8A450015
:1047E0004400490054002D004D00530047002D00A7
:1047F0004E0041004D004500040008000B00054339
:104800000EA045004400490054002D004D00530007
:1048100047002D0055004E00530055005000040085
:1048200009000B00174310A845004400490054003C
:104830002D0055005300450052002D004F0046004A
:104840004600530045005400040000010B002A43B9
:104850000E8A45004400490054002D0050004100DC
:10486000540048002D00530049005A004500040040
:1048700004010B003F4309964500440049005400E1
:104880002D004D00410052004B0004000001A40423
:104890000D00E1290B005243098A450044004900FC
:1048A00054002D0042004100530045000400010166
:1048B000A4040D00E1290B006343098A450044006C
:1048C000490054002D0048004500520045000400F6
:1048D0000201A4040D00E1290B0074430AA845005D
:1048E0004400490054002D004C0049004D0049008F
:1048F000540004000301A4040D00E1290B008543CA
:10490000098A45004400490054002D004600520029
:104910004500450004000401A4040D00E1290B003A
:104920009743098845004400490054002D00480081
:1049300045004100440004000501A4040D00E129E4
:104940000B00A843099845004400490054002D007D
:104950005400410049004C0004000601A4040D006D
:10496000E1290B00B94308A4450044004900540064
:104970002D0043005500520004000701A4040D005F
:10498000E1290B00CA4308A0450044004900540037
:104990002D0054004F00500004000801A4040D0035
:1049A000E1290B00DA430AA64500440049005400FF
:1049B0002D004C0049004E00450053000400090141
:1049C000A4040D00E1290B00EA4309464500440018
:1049D000490054002D0043005500520023000400FC
:1049E0000A01A4040D00E1290B00FC43094645001F
:1049F0004400490054002D0054004F005000230093
:104A000004000B01A4040D00E1290B000D440898DB
:104A100045004400490054002D0043004F004C0065
:104A200004000C01A4040D00E1290B001E44098CB4
:104A300045004400490054002D005000520045003C
:104A4000460004000D01A4040D00E1290B002E44D2
:104A50000D8845004400490054002D004D004F00D2
:104A600044004900460049004500440004000E018E
:104A7000A4040D00E1290B003F440BA845004400AD
:104A8000490054002D0049004E00530045005200DB
:104A9000540004000F01A4040D00E1290B0054444C
:104AA0000C8E45004400490054002D005200550072
:104AB0004E004E0049004E00470004001001A404BF
:104AC0000D00E1290B006744088E450044004900B1
:104AD00054002D004D005300470004001101A404B0
:104AE0000D00E1290B007B440D9C4500440049006A
:104AF00054002D0050004100540048002D004C008F
:104B000045004E0004001201A4040D00E1290B0031
:104B10008B440E4645004400490054002D005000CF
:104B20004100540048002D0042005500460023007B
:104B300004001301A4040D00E1290B00A0440D9C06
:104B400045004400490054002D0043004C0049003A
:104B500050002D004C0045004E0004001401A40438
:104B60000D00E1290B00B6440E4645004400490003
:104B700054002D0043004C00490050002D0042001D
:104B800055004600230004001501A4040D00E1298E
:104B90000B00CB44036245005400310004001601B1
:104BA000A4040D00E1290B00E14403644500540016
:104BB000320004001701A4040D00E1290B00EC44AD
:104BC000036645005400330004001801A4040D00DE
:104BD000E1290B00F7440368450054003400040049
:104BE0001901A4040D00E1290B0002450EA845009F
:104BF0004400490054002D004C0049004E0045007F
:104C00002D004E004500580054000B000D450EAC21
:104C100045004400490054002D004C0049004E005E
:104C200045002D00500052004500560024000B00A6
:104C30001E450D9C45004400490054002D004C00C9
:104C400049004E0045002D004C0045004E00040078
:104C50000200E1290B0030450FA645004400490041
:104C600054002D004C0049004E0045002D00460028
:104C70004C0041004700530004000300E1290B00F1
:104C800043450EA845004400490054002D004C0047
:104C900049004E0045002D005400450058005400C6
:104CA00004000400E1290B0058450E804500440033
:104CB000490054002D004C0049004E0045002D00D5
:104CC0004C0045004E0040003F450D000B006C4578
:104CD0000E4245004400490054002D004C0049009C
:104CE0004E0045002D004C0045004E0021003F4580
:104CF0000C000B007F450EA4450044004900540001
:104D00002D004C0049004E0045002D00410044009C
:104D10004400520019006845E1290B0092450D8CB2
:104D200045004400490054002D005000410054004B
:104D300048002D00420055004600B0440D000B0015
:104D4000A6450D8C45004400490054002D00430049
:104D50004C00490050002D00420055004600DB4445
:104D60000D000B00B8450A484500440049005400B6
:104D70002D0050004100540048002400B5459A44DD
:104D80000D000B00CA450A4245004400490054008A
:104D90002D005000410054004800210018009A44A2
:104DA0000C00B5451900C3070B00DA450942450060
:104DB0004400490054002D004D00530047002100DD
:104DC00085440C000B00ED450C9C45004400490057
:104DD00054002D004300550052002D004C004500AA
:104DE0004E00D4430D007C450B00FB450DA445004F
:104DF0004400490054002D004300550052002D008E
:104E00004100440044005200D4430D0068450B00AB
:104E10000D460FA845004400490054002D004C00E9
:104E200049004E0045002D0043004F0055004E0044
:104E30005400F6430D000B00204609424500440093
:104E4000490054002D0043004F004C002100180081
:104E500028440C0039440C000B0034460F8A4500EE
:104E60004400490054002D0043004C00450041001F
:104E700052002D004C0049004E0045000400000087
:104E80001A003F450C0017000B00454608864500F8
:104E900044002D0041004C004C004F004300A24351
:104EA0000D0076050800724618000D00A2430C00A4
:104EB000090086467F430D0018001542E129914301
:104EC0000D001900BA050800814617000400000013
:104ED0000B0018001542E1297F430C001800040064
:104EE00000001A000C001900170018002E450400DD
:104EF000000019000C0018003F45040000001900D4
:104F00000C00180054450400000019000C000B00B0
:104F10005D460E8A45004400490054002D004600BD
:104F20005200450045002D004C0049004E00450050
:104F3000A2430D001A000C00A2430C000B00A04677
:104F40000FA445004400490054002D004C004900C6
:104F50004E004B002D004100460054004500520019
:104F6000E6440C00F1440C00E6440D000D00F14451
:104F70000D000C00E6440D00F1440D002E450C0020
:104F8000F1440D000D0076050800E546F1440D00E2
:104F900019002E450C000900E946E6440D00C44303
:104FA0000C00E6440D00F1440D000C000B00B74668
:104FB0000B9645004400490054002D0055004E005A
:104FC0004C0049004E004B0018000D00E6440C0058
:104FD00018002E450D00F1440C00F1440D000800AE
:104FE0001047E6440D00F1440D000C000900144781
:104FF000E6440D00B3430C00E6440D0008002047D2
:10500000F1440D00E6440D002E450C000900244734
:10501000F1440D00C4430C000B00EF4611A4450001
:105020004400490054002D00520045005300450043
:1050300054002D0042005500460046004500520035
:1050400004000000A2430C006E430D007F430C00DF
:10505000040000004E440C000400000085440C00D5
:105060000400000028440C000400000039440C0037
:1050700004000000C5440C00674618002300080027
:105080005E471700A84285440C000B001800B3438C
:105090000C001800C4430C001800D4430C00180086
:1050A000E4430C00170004000100F6430C00040068
:1050B000010007440C000400010018440C000B0020
:1050C000254709A845004400490054002D00490027
:1050D0004E0049005400A5030D005D430C00A503DC
:1050E0000D001800B0440C004F43E1291800DB44C8
:1050F0000C000342E12918006E430C0018007F43A6
:105100000C002942E12991430C0091430D00A503B5
:105110000C000400010061440C00814285440C0035
:10512000040000009A440C0038470B007847098AB5
:1051300045004400490054002D0044004F004E003B
:1051400045005D430D00A5030C00B02E8C2E0B0016
:10515000AE470D9C45004400490054002D0054000A
:10516000520049004D002D004C0045004E00180033
:105170007C45E6440C00E6440D000800EF471800AB
:105180006845E6440D002500E1290F00CB06BA2949
:105190000800E947E6440D002500E6440C0009003C
:1051A000ED471700E6440D000B000900D347170038
:1051B000040000000B00C0470FA445004400490054
:1051C00054002D0045005800540045004E00440096
:1051D0002D0043005500520018000342CD2908005D
:1051E00010481700BA4285440C00040000000B0070
:1051F00018000946D4290800194817000400FFFFC9
:105200000B001800E6440C000946F1440C00D4439E
:105210000D006845F1440D00E129E6440D00F1441C
:105220000D00B529CB06E407E6440D00D4430D007C
:105230003F450C0017000400FFFF0B00F347138AE3
:1052400045004400490054002D0045004E00530025
:105250005500520045002D005600490053004900FA
:1052600042004C00450007440D0018440D00CA05DB
:1052700008005F48E4430D002E450D00E4430C0098
:1052800018440D00250018440C0009004B48074441
:105290000D0018440D004942E129DB29080074483B
:1052A000E4430D000D00E4430C0018440D002400FD
:1052B00018440C0009005F480B0036480CA045005C
:1052C0004400490054002D004D004F005600450099
:1052D0002D0055005000D4430D002E450D007605DD
:1052E00008009648D4430C0007440D0025000744ED
:1052F0000C0039440D0028440C004B480B00754845
:105300000E9C45004400490054002D004D004F0004
:10531000560045002D0044004F0057004E00D44376
:105320000D000D0076050800B948D4430C00074471
:105330000D00240007440C0039440D0028440C00E3
:105340004B480B0097480EA8450044004900540004
:105350002D004D004F00560045002D004C0045002B
:105360004600540028440D000800D74828440D008A
:10537000250028440C0028440D0039440C000B0083
:10538000BA480FA845004400490054002D004D00C4
:105390004F00560045002D005200490047004800CC
:1053A000540028440D002400180028440C003944FF
:1053B0000C000B00D8480E8A4500440049005400F8
:1053C0002D004D004F00560045002D0048004F00B5
:1053D0004D004500040000003F460B00F2480D88D8
:1053E00045004400490054002D004D004F00560078
:1053F00045002D0045004E00440009463F460B0085
:1054000006490CA045004400490054002D005000FE
:105410004100470045002D005500500004000000E9
:10542000E6440C00E6440D004942CA05080038492C
:105430008348E6440D002400E6440C0009002A4994
:105440000B0018490E9C45004400490054002D00F3
:1054500050004100470045002D0044004F00570018
:105460004E0004000000E6440C00E6440D004942F2
:10547000CA0508005B49A748E6440D002400E6443D
:105480000C0009004D490B003949118845004400C2
:10549000490054002D005300450054002D004D00DC
:1054A0004F00440049004600490045004400040004
:1054B000FFFF4E440C00814285440C000B005C4908
:1054C00013A445004400490054002D004F0056002D
:1054D00045005200570052004900540045002D007D
:1054E000430048004100520028440D0024000448B5
:1054F00023000800954917000B0028440D00D443F1
:105500000D00A2450E0028440D0024003F466F49BF
:105510000B00774910A445004400490054002D00B9
:1055200049004E0053004500520054002D00430036
:1055300048004100520028440D00FC440C0009467C
:1055400007450C00FC440D0007450D00DB29080051
:10555000D249FC440D002400044823000800CA4935
:1055600017000B0028440D00D4430D00A2450E0087
:105570000900EF4907450D002400044823000800F6
:10558000DB4917000B00FC440D00D4430D00A2457D
:1055900018002400190007450D00FC440D00B52932
:1055A0002F2828440D00D4430D00A2450E002844A6
:1055B0000D0024003F466F490B00A1490EA845008D
:1055C0004400490054002D004A004F0049004E009D
:1055D0002D004E00450058005400D4430D000D002E
:1055E0007605230008000E4A17000B001800E64459
:1055F0000C000946F1440C00E6440D007C45FC44D7
:105600000C00F1440D00FC440D00E1290342CD29BA
:105610000800264ABA4285440C000B00E6440D00FF
:105620006845D4430D006845F1440D00E129FC4470
:105630000D00C307F1440D00FC440D00E129D443E3
:105640000D003F450C00E6440D00FC46E6440D000D
:10565000B046F6430D002500F6430C006F490B00E1
:10566000F54910A445004400490054002D004400B1
:1056700045004C004500540045002D004300480003
:105680004100520028440D00E6440C000946F14454
:105690000C00E6440D00F1440D00CA050800834AE1
:1056A000D4430D00E6440D002400A245D4430D0070
:1056B000E6440D00A245F1440D00E6440D00B52975
:1056C0002500C307F1440D002500D4430D003F45DC
:1056D0000C006F490B00E6440D00F1440D00BA299F
:1056E00008008B4A054A0B00484A0F8A45004400CF
:1056F000490054002D00530050004C004900540054
:105700002D004C0049004E0045006746180023005C
:105710000800A74A1700A84285440C000B00180097
:10572000E6440C00D4430D00F1440C0028440D0065
:10573000FC440C00F1440D007C4507450C00FC4482
:105740000D0007450D00CA050800DB4A07450D009E
:10575000FC440D00B5291800E6440D003F450C003F
:10576000F1440D006845FC440D00E129E6440D00BC
:1057700068458105C307FC440D00F1440D003F4519
:105780000C000900E14A04000000E6440D003F451A
:105790000C00E6440D00F1440D00C846F6430D0030
:1057A0002400F6430C00E6440D00D4430C000744EB
:1057B0000D00240007440C00040000003F464B4845
:1057C0006F490B008C4A0E8A450044004900540082
:1057D0002D004200410043004B00530050004100A7
:1057E0004300450028440D0023000800274BD44304
:1057F0000D002E450D0076050800264B18007C454F
:10580000E6440C00D4430C0007440D002500074477
:105810000C00E6440D003F46054A4B480B00284467
:105820000D002500180028440C0039440C002844C1
:105830000D000946DB290800364B0B005A4A0B00C5
:10584000FA4A108A45004400490054002D004400E3
:1058500045004C004500540045002D004C00490017
:105860004E004500F6430D0004000100BA2908006F
:10587000594BD4430D005646040000003F466F4983
:105880000B00D4430D00E6440C00E6440D000D006F
:1058900076050800684B1800D4430C000900744BCF
:1058A000E6440D002E450D001800D4430C000744BB
:1058B0000D00250007440C00E6440D00E4430D00F4
:1058C000BA290800834BD4430D00E4430C0007447D
:1058D0000D0018440C00E6440D00FC46E6440D00A3
:1058E000B046F6430D002500F6430C000946284457
:1058F0000D00E6053F464B486F490B00384B0E8ABA
:1059000045004400490054002D0043004F00500062
:1059100059002D004C0049004E004500D4430D00B5
:105920007C451800C5440C00D4430D006845C745AC
:105930008105C307814285440C000B00964B0F8AFA
:1059400045004400490054002D0050004100530020
:10595000540045002D004C0049004E0045006746AC
:10596000180023000800D14B1700A84285440C0002
:105970000B001800E6440C00C5440D001800E64476
:105980000D003F450C00C745E6440D006845810504
:10599000C307E6440D00D4430D00C846E6440D009D
:1059A000D4430C00F6430D002400F6430C000744DA
:1059B0000D00240007440C00040000003F464B4843
:1059C0006F490B00B64B08AE450044004900540037
:1059D0002D004E00450057003847024385440C0017
:1059E0000B00FA4B098845004400490054002D0083
:1059F0004C004F0041004400E6453847D645D313DC
:105A0000F11318000800224C19001700CC428544FD
:105A10000C000B0017001400B3430D00F1440C0000
:105A20000400FFFFFC440C004D07034213001B144D
:105A3000180008003F4C17001700170012000E1442
:105A40001700DE4285440C00040001000B00170023
:105A50000800764CFC440D0023000800654C6746A6
:105A6000180023000800564C170012000E141700EF
:105A7000A84285440C00040002000B001800C44337
:105A80000D00C8461800F1440C00F6430D00240038
:105A9000F6430C0017000900694C04000000FC44A8
:105AA0000C001800F1440D003F450C004D07F14477
:105AB0000D0068458105C30709002C4C1700120032
:105AC0000E141700B3430D00D4430C00B3430D0074
:105AD000E4430C000400010007440C000400010032
:105AE00018440C00040000003F46040000004E442F
:105AF0000C00814285440C00040000000B00094C9E
:105B0000098A45004400490054002D00530041001B
:105B1000560045009A440D0023000800AD4C144384
:105B200085440C00040001000B00D64577141700D3
:105B3000D645E313001418000800BC4C19001700E8
:105B4000F14285440C000B00170007450C00B343DD
:105B50000D0018000800E24C1800CF471800F1446F
:105B60000C001A006845F1440D0007450D0029148A
:105B700018000800DE4C170007450D000E14170032
:105B8000F14285440C00040001000B0017000D00D9
:105B90000900C14C170007450D00681417000745A0
:105BA0000D000E141700040000004E440C00944237
:105BB00085440C00040000000B00974C098E450042
:105BC0004400490054002D002E004D0053004700B2
:105BD00085440D0018009442BA290800114D1700A1
:105BE000FE0C060020005300610076006500640092
:105BF0000B001800A842BA290800264D1700FE0C19
:105C00000C0020004200750066006600650072000E
:105C10002000660075006C006C000B001800BA4292
:105C2000BA2908003D4D1700FE0C0E0020004C0064
:105C300069006E006500200074006F006F00200096
:105C40006C006F006E0067000B001800CC42BA2990
:105C50000800524D1700FE0C0C0020004F00700091
:105C600065006E0020006600610069006C00650040
:105C700064000B001800DE42BA290800674D1700C7
:105C8000FE0C0C0020005200650061006400200042
:105C90006600610069006C00650064000B0018007C
:105CA000F142BA2908007D4D1700FE0C0D002000BE
:105CB00057007200690074006500200066006100F2
:105CC00069006C00650064000B0018000243BA29EB
:105CD0000800914D1700FE0C0B0020004E006500DF
:105CE00077002000620075006600660065007200A3
:105CF0000B0018001443BA290800A64D1700FE0C2B
:105D00000C0020004E006F002000660069006C004F
:105D100065006E0061006D0065000B0018002743F0
:105D2000BA290800BA4D1700FE0C0B0020004E00E7
:105D30006F007400200069006E0020004D005600C6
:105D400050000B0017000B00F54C0DAE4500440051
:105D5000490054002D0044005200410057002D001E
:105D600052004F005700E6440C00F1440C000400C0
:105D70000100E6440D00112E612EF1440D00760560
:105D80000800FB4DF1440D007C453942E605FC441A
:105D90000C000400000007450C0007450D00FC4402
:105DA0000D00CA050800FB4DF1440D00684507458C
:105DB0000D00E1290F00510B07450D002400074598
:105DC0000C000900E54D0B00BC4D0EA84500440039
:105DD000490054002D0044005200410057002D009E
:105DE0005400450058005400E4430D00E6440C0004
:105DF00004000100F1440C00F1440D004942D42993
:105E000008002F4EE6440D00F1440D00CB4DE64452
:105E10000D000800284EE6440D000D00E6440C007D
:105E2000F1440D002400F1440C000900144E0B0055
:105E3000FC4D10A645004400490054002D004400CC
:105E40005200410057002D005300540041005400FF
:105E500055005300002F040001005D42112E612EF9
:105E6000D645A20B4E440D000800544EFE0C020015
:105E700020002A000900584EFE0C020020002D00D0
:105E8000FE0C040020004C006E00200007440D00B2
:105E9000F92DFE0C0500200043006F006C0020006F
:105EA00028440D002400F92D61440D000800784EAF
:105EB000FE0C0400200049004E00530009007E4EF5
:105EC000FE0C040020004F0056005200004DB02E82
:105ED0000B00304E0EA045004400490054002D0038
:105EE00044005200410057002D00480045004C007E
:105EF0005000040001006F42112E612EB02EFE0CE6
:105F0000010031005B30E22DEC30CD2DFE0C06009F
:105F1000200020002000200020002000B02EFE0CD9
:105F2000010032005B30E22DEC30CD2DFE0C06007E
:105F3000530061007600650020002000B02EFE0CAA
:105F4000010033005B30E22DEC30CD2DFE0C06005D
:105F5000200020002000200020002000B02EFE0C99
:105F6000010034005B30E22DEC30CD2DFE0C06003C
:105F70004E0065007700200020002000B02EFE0CAF
:105F8000010035005B30E22DEC30CD2DFE0C06001B
:105F900043006F007000790020002000B02EFE0C3E
:105FA000010036005B30E22DEC30CD2DFE0C0600FA
:105FB000200020002000200020002000B02EFE0C39
:105FC000010037005B30E22DEC30CD2DFE0C0600D9
:105FD000500061007300740065002000B02EFE0CBC
:105FE000010038005B30E22DEC30CD2DFE0C0600B8
:105FF000440065006C004C006E002000B02EFE0CCA
:10600000010039005B30E22DEC30CD2DFE0C060096
:10601000200020002000200020002000B02EFE0CD8
:106020000200310030005B30E22DEC30CD2DFE0C53
:106030000600450078006900740020002000B02EA2
:106040000B00814E11A445004400490054002D006E
:1060500050004C004100430045002D004300550016
:10606000520053004F00520007440D0018440D0029
:10607000B529240004000100DA054942E605E6449A
:106080000C0028440D00240004000100DA05394208
:10609000E605F1440C00F1440D00E6440D00112E1C
:1060A0000B00394F0BAE45004400490054002D0051
:1060B000520045004400520041005700A02E522ECD
:1060C000212E0C4E424E914E4C4F8C2E0B00694FA0
:1060D000158A45004400490054002D004800410045
:1060E0004E0044004C0045002D0050005200490075
:1060F0004E005400410042004C00450018000400CE
:10610000200004007F00F6050800A74F61440D0041
:106110000800A54FB3490900A64F8C490B00170092
:106120000B007F4F10A445004400490054002D008F
:10613000480041004E0044004C0045002D00430043
:10614000480041005200180004000800BA29080065
:10615000C44F17000A4B0B00180004007F00BA2937
:106160000800CD4F17000A4B0B00180004000D006B
:10617000BA290800D64F17009D4A0B0018000400EA
:106180000A00BA290800DF4F17009D4A0B001800CB
:1061900004000900BA290800EB4F1700CB06964F00
:1061A000CB06964F0B00964F0B00A94F10B245003F
:1061B0004400490054002D00480041004E004400B6
:1061C0004C0045002D0045004B00450059001800CB
:1061D000600ABA29080007501700CA480B001800C7
:1061E0006E0ABA2908000F501700E9480B00180082
:1061F000460ABA2908001750170083480B001800F8
:10620000530ABA2908001F501700A7480B001800AE
:106210007B0ABA2908002750170002490B00180012
:10622000870ABA2908002F50170015490B001800DB
:10623000940ABA2908003750170026490B001800A5
:10624000A10ABA2908003F50170049490B0018005D
:10625000CB0ABA290800475017000A4B0B00180058
:10626000B90ABA2908004F5017005A4A0B00180003
:10627000D90ABA290800575017009D4A0B00180088
:10628000AD0ABA2908006350170061440D002300CD
:1062900061440C000B001800EF0ABA2908006C508A
:1062A0001700A24C17000B001800050BBA290800B4
:1062B00074501700044C0B001800100BBA2908008A
:1062C0007C501700A64B0B001800260BBA290800BB
:1062D00084501700C74B0B001800310BBA29080077
:1062E0008C5017004A4B0B001800480BBA290800C5
:1062F000975017000400000075440C000B001700B5
:10630000274385440C000B00ED4F0FA845004400C7
:10631000490054002D0057004100490054002D0051
:1063200049004E00500055005400190A0800B250B0
:10633000FF4F0B00F6090800B750BB4F0B000900D8
:10634000AD500B009C50089C45004400490054008F
:106350002D00520055004E000400FFFF75440C0054
:1063600075440D000800D050764FAD500900C8505C
:10637000B02E8C2E522E212E0B00BA5004A84500B0
:106380004400490054008347A829144C1800080011
:10639000E350B9470B001700C450B9470400000090
:1063A0000B00772F08A84E00450057002D00450030
:1063B0004400490054008347E645044CC450B947A3
:1063C0000B000000000000000000000000000000C2
:1063D00000000000000000000000000000000000BD
:1063E00000000000000000000000000000000000AD
:1063F000000000000000000000000000000000009D
:10640000000000000000000000000000000000008C
:1081D000030041004E0044001C00000002004F005C
:1081E00052001D000000030058004F0052001E0006
:1081F0000000030055004D002B001F00000003008D
:108200003C003C0034002000000003003C003C0027
:1082100038002100000003003C003C00390022002F
:108220000000020030003D00230000000200310089
:108230002B0024000000020031002D00250000006A
:10824000020032002B0026000000020032002D0048
:1082500027000000050048004F00500045004E0078
:10826000280000000700480043005200450041007C
:1082700054004500290000000600480043004C005F
:108280004F00530045002A0000000700480052003C
:108290004500410044004C004E002B000000080047
:1082A0004800570052004900540045004C004E0061
:1082B0002C000000050048005300450045004B001D
:1082C0002D00000005004800540045004C004C0003
:1082D0002E00000005004800530049005A004500E8
:1082E0002F0000000600480046004C0055005300D7
:1082F00048003000000007004800440045004C00E2
:1083000045005400450031000000070048005200BD
:1083100045004E0041004D004500320000000300C2
:1083200055004D002A003300000003004E004F00AE
:108330005400350000000300530055004200360091
:10834000000006004E004500470041005400450073
:1083500037000000030049004E00430038000000D1
:1083600003004400450043003900000004005A00A7
:10837000450052004F003A000000020055002B005B
:108380003B000000020032002A003C000000000018
:108390000000457E5000520049004D003F0018008B
:1083A000A2020C001800B0060F00EC030C0017002E
:1083B0000400481F18000F00080020211800B00614
:1083C0000F00EC030D001E00080004212D07E12919
:1083D000B006B0060900F220A2020D001900180034
:1083E0000F00C10F08001421190017002D07E12903
:1083F000B006B0060900F220190017002D07E12988
:1084000018000D001900B0060D000400FFFF0B005E
:108410001700A2020D00040000000B0003003F0043
:10842000720078000200030074007800210003004D
:10843000010021000C00010040000D00020043007B
:1084400021000E000200430040000F000300520014
:1084500050002100100003005200500040001100A5
:10846000020052003E0012000200520040001300C1
:1084700002003E0052001400030053005000400070
:1084800015000300530050002100160004004400B2
:1084900052004F00500017000300440055005000E8
:1084A0001800040053005700410050001900040058
:1084B0004F005600450052001A00020030003C00F8
:1084C0001B00030041004E0044001C0002004F004E
:1084D00052001D00030058004F0052001E00030010
:1084E00055004D002B001F00020030003D0023000E
:1084F000020031002B002400020031002D00250075
:10850000020032002B002600020032002D0027005E
:10851000050048004F00500045004E0028000700AD
:108520004800430052004500410054004500290026
:108530000600480043004C004F00530045002A004D
:108540000700480052004500410044004C004E0026
:108550002B00080048005700520049005400450015
:108560004C004E002C00050048005300450045001B
:108570004B002D0005004800540045004C004C0005
:108580002E0005004800530049005A0045002F0006
:108590000600480046004C005500530048003000DB
:1085A00007004800440045004C00450054004500C9
:1085B000310007004800520045004E0041004D00C8
:1085C00045003200030055004D002A00330003002F
:1085D0004E004F0054003500030053005500420088
:1085E000360006004E00450047004100540045009B
:1085F0003700030049004E004300380003004400E8
:1086000045004300390004005A00450052004F0065
:108610003A00020055002B003B00020032002A0005
:108620003C0000000000467E490050005200490016
:108630004D003F001800A2020C001800B0060F0009
:10864000EC030C0017000400262118000F0008009E
:1086500065221800B0060F00EC030D001E00080094
:108660004E222D07E129B00609003D2218000F0017
:108670001400A2020D00B0061A00B0061200E60FA8
:10868000080060222D07E1290D000400FFFF0B0008
:108690002D07E129B00609003D221700A2020D00B6
:1086A000040000000B000000488A240043004F0033
:1086B0004D00500049004C004500D61208008022B1
:1086C00040090800802204000400902990290B0032
:1086D000D711760508009C2218000D001800040030
:1086E00080001C00080090221700170014000B00E7
:1086F000040020001C000800992217000D0090299A
:108700000B00170090290B0040090800A422040068
:108710000400902990290B00BF1200004A5849001C
:108720004E005400450052005000520045005400D5
:108730002C00D6120800B92240090800B922870788
:108740000B00D71176050800062318000D00040061
:1087500040001C00A4180D00200063006F006D0095
:10876000700069006C00650020006F006E006C00F6
:1087700079001A00040072161E00080003231A0074
:108780000400EF291E00080003231A0004005D24E2
:108790001E00080003231A00040062251E000800C2
:1087A00003231A00040073251E00080003231A0087
:1087B00004002C271E000800032318000D000400ED
:1087C00020001C000800002317000D0075070B0097
:1087D000170075070B00170014000B00BF120000F4
:1087E0004698520045005600450041004C00C90320
:1087F0000D00180014009A0FB0060F009B030D0027
:10880000B80F7D0F76050800252318000D00130012
:108810000C00120019000C000B00120017000B00D6
:108820004317898A49004D004D0045004400490026
:1088300041005400450004008000C9030D00B0064B
:1088400018000D0081051D0019000C000B00231EEF
:10885000078A50005200490056004100540045006C
:1088600004000001C9030D00B00618000D008105C9
:108870001D0019000C000B00A11E0CB243004F009C
:108880004D00500049004C0045002D004F004E00A7
:108890004C00590004004000C9030D00B006180048
:1088A0000D0081051D0019000C000B00DE0F06A451
:1088B0004D00410052004B004500520031030D00B5
:1088C00008009D23A41820004D00410052004B00D9
:1088D00045005200200063006F006D0070006900C9
:1088E0006C0065002D007300740061007400650069
:1088F000200075006E0073007500700070006F003E
:108900007200740065006400BF12C9030D00A2026A
:108910000C003B07AE020C000C0F191F7D03E71E75
:108920007D03B006E71E7D03B006B006E71E8C038C
:10893000E71E8C03B006E71E8C03B006B006E71EE8
:108940008C03B006B006B006E71E8C03B006B00676
:10895000B006B006E71E8C03B006B006B006B0063F
:10896000B006E71E8C03B006B006B006B006B0062F
:10897000B006E71E8C03B006B006B006B006B0061F
:10898000B006B006E71E8C03B006B006B006B0060F
:10899000B006B006B006B006E71E9B03E71E9B03B9
:1089A000B006E71EA2020D00C903031FAE020D00B0
:1089B000A503031F040004009029AE020D009029B6
:1089C000040065189029A5030D00651804000B002C
:1089D00090290F230B00121706A846004F005200E3
:1089E00047004500540031030D0008003224A4184C
:1089F000200046004F005200470045005400200070
:108A000063006F006D00700069006C0065002D0050
:108A100073007400610074006500200075006E0032
:108A200073007500700070006F00720074006500C4
:108A30006400BF120C0F9B030D00A81176050800FF
:108A4000562414008D051200180004000080BA0599
:108A500008004E24A4180900700072006F00740012
:108A600065006300740065006400BF12A70F180062
:108A7000A5030C009B030D0049180B00BF12DE1864
:108A800004A455005300450052000C0F191FBF16D7
:108A9000AE0490290F230B0000000AB256004F00CD
:108AA00043004100420055004C0041005200590073
:108AB0000C0F191F3B0704000300E1291800A20254
:108AC0000C001700BF164C05A2020D0090290400EF
:108AD0000B009029A2020D0004000300E129902957
:108AE000040000009029040000009029A2020D005B
:108AF00004000300E129180004005F00A516A71771
:108B00007D03B0060D00A2020D00B0060C00A2020B
:108B10000D007D03B0060C000F230B006A140BA69A
:108B200044004500460049004E00490054004900F9
:108B30004F004E0053008C030D00B80F9B03B0068E
:108B40000C009B03B0069B030C000B006E23068AEF
:108B50004D004F00440055004C00450031030D000E
:108B60000800ED24A41820004D004F0044005500DB
:108B70004C004500200063006F006D00700069002C
:108B80006C0065002D0073007400610074006500C6
:108B9000200075006E0073007500700070006F009B
:108BA0007200740065006400BF12C3040D00D80495
:108BB0000D001D0008000425A4180D006D006F00B5
:108BC000640075006C0065002000610063007400A3
:108BD000690076006500BF12B5140400FFFFC304EE
:108BE0000C0004000000D8040C000B00521B0A8A81
:108BF00045004E0044002D004D004F00440055003C
:108C00004C00450031030D0008004525A418240040
:108C100045004E0044002D004D004F00440055001B
:108C20004C004500200063006F006D00700069007B
:108C30006C0065002D007300740061007400650015
:108C4000200075006E0073007500700070006F00EA
:108C50007200740065006400BF12C3040D00D804E4
:108C60000D001D0008004E25E1150B00A418090099
:108C70006E006F0020006D006F00640075006C00D6
:108C80006500BF125423068A43005200450041008C
:108C9000540045000C0F191F0400060090290F23F3
:108CA0000B006424088A560041005200490041002C
:108CB00042004C00450062250400000090290B0092
:108CC0000000508A4D004F00440055004C00450004
:108CD0002D0053004B00490050002D004C0049006E
:108CE0004E0045000C0FD7110800942504001A25EA
:108CF0001E00080096250B0017000B00E115371326
:108D00000B009216058A5F00540059005000450080
:108D10000900AE25190018000F00D506510B0400FC
:108D20000100E12919000400FFFFE12918000800F3
:108D3000B3250900A2258D050B00DB0C035664004A
:108D40006D002B001A0004000400EF08740B3700BC
:108D500014000900CB2518000F0004000300EF08E1
:108D600004000100E1290700C325120017000B00D1
:108D7000A62404A0440055004D00500087020D00B9
:108D80001400B30804001000AE2937001400BA0B19
:108D900004001000A829BA258105810504000200FD
:108DA000990BA025590B35000800F4250700DF2595
:108DB000120017000900F625120017001700120014
:108DC00087020C000B00B31802A62E005300BA0B4A
:108DD000EA06760508001D2604000100E129370097
:108DE0001400090012261300370004000100B52901
:108DF000F806060907000B2612001700FE0C0400F7
:108E000020003C00730070000B0009001626FB25B3
:108E1000058A2E00420041005300450087020D00E4
:108E2000C1081800060987020C000B001F26058ADE
:108E30002E00460052004500450005020D00A50326
:108E40000D00B529FD080B00000004A0210043001F
:108E500053005000150024030C000B00E81804A078
:108E60003F00430053005000150024030D001E0076
:108E7000A418110073007400610063006B002000EF
:108E800064006500700074006800200065007200D6
:108E900072006F0072000B0000004E8658005400F4
:108EA0003E004E0041004D0045002D0049004E009F
:108EB0002D0056004F0043001900A2020C00B80F0D
:108EC00076050800A42604005F003700140018008F
:108ED0000D009A040C009A040D00180008009D264D
:108EE00018006B0FA2020D001E00080094260D0052
:108EF0009A040C000900832617009A040D009A0FAB
:108F000019001700120017000B001700B006070029
:108F10007F26120017001700040000000B0000005D
:108F2000058A3E004E0041004D0045007D031800BB
:108F30000800C3261A001A00742676050800BD260C
:108F400019001700190017000B0019001700B006D0
:108F50000D000900AF261700040000000B00000000
:108F6000068A50003E004E0041004D0045000400BE
:108F7000481F18000F000800E526A8292D07E12941
:108F80000D001E000800E2262D07E129B006B006FC
:108F90000900D126190017000B00190017000B005B
:108FA000000005A650003E004F0050005300040092
:108FB000481F18000F0008000927A8292D07E129DC
:108FC0000D001E00080002272D07E129B006B0069B
:108FD0000900F126190017002D07E129B0060D0040
:108FE0000B0019001700040000000B002E26038858
:108FF0002E0049004400760508001C272D070400B8
:109000001F001C00A0250B00FE0C08007B006E005A
:109010006F004E0061006D0065007D000B00841C38
:10902000038A5300450045000C0FD71118000800B3
:1090300074271700BA0B18000D001800A2020C00CC
:10904000180004000002BA0508004127CF260900D5
:109050004227AE26760508004927740B132709001E
:109060004A27FD08A2020D0004000002BA0508000C
:109070006E27A2020D0004000B001E0008007227DC
:10908000A2020D00EF26760508006E271700590B87
:109090000800642709007227B00618000D00FD08BB
:1090A000B006590B0800332709007227B006590B88
:1090B0000800332717000B00BF12891705A65700B9
:1090C0004F00520044005300BA0B8C030D00B80F40
:1090D00076050800C52704005F003700140018005B
:1090E0000D009A040C009A040D0018000800BE2719
:1090F0009A0F18000D00040040001C000800A02773
:1091000017009A040D000D009A040C0009008B272B
:1091100018000D00040000011C000800AF27170014
:109120009A040D000D009A040C0009008B2718000A
:10913000740B132717009A040D000D009A040C00FD
:10914000590B08008B27170017000B001700B006FB
:10915000070087271200170017000B00692503A4DA
:10916000560045005200040000040B00000002D22B
:1091700068006900BA0BFE0C140050004400520055
:109180002D00310036002F0058005400200046000A
:109190006F007200740068002000760034002E001A
:1091A0003000BA0BFE0C1F006400650072006900FD
:1091B0007600650064002000660072006F006D009C
:1091C0002000650046006F007200740068002000F7
:1091D00062007900200043002E0048002E00540059
:1091E00069006E006700BA0B0B000E2505B2450042
:1091F0004D0050005400590004000080A5030C00ED
:109200000400E950C9030C00040000007D03B0060F
:109210000C000400008065186A05B3240B005A2571
:10922000067C43004D004F00560045003E001800EC
:109230000800482814001A001300E1290400010066
:10924000B5291A001300E12904000100B5290F0017
:1092500019000E0012000400FFFFE12909002F2869
:1092600017008D050B00BE24048A4D004F005600E8
:109270004500A82917001900BA0508005928C30796
:109280000B002F280B002728048843004F004C00B8
:10929000440004007FF9160004007FFE1000040063
:1092A0000200040080FE04003402C3070400E2FE52
:1092B0007D030C00040000007D03B0060C007D134C
:1092C000D2270400E950C9030C006A05B324371300
:1092D00004007FF91600281609006128462623F0AD
:1092E0003F007200780002000B009D0223427400D0
:1092F0007800210003000B000D2824A84500580029
:10930000490054000B000B003C26214221000C00B8
:109310000B000000218040000D000B005B28224262
:10932000430021000E000B00A628228043004000CD
:109330000F000B00BE1B2342520050002100100002
:109340000B00B228238052005000400011000B0097
:10935000B928227C52003E0012000B00C028228057
:109360005200400013000B00C60822A43E00520029
:1093700014000B00272723805300500040001500E5
:109380000B00D228234253005000210016000B008E
:10939000D02524A0440052004F00500017000B00BD
:1093A000E02823A044005500500018000B00D928E5
:1093B00024A0530057004100500019000B00E61391
:1093C00024A44F005600450052001A000B00000074
:1093D000227830003C001B000B00DD1D238841007B
:1093E0004E0044001C000B00F72822A44F0052003E
:1093F0001D000B00211223A458004F0052001E0034
:109400000B005724235655004D002B001F000B0066
:109410005D0823683C003C00340020000B0020293C
:1094200023703C003C00380021000B0027292372E8
:109430003C003C00390022000B00FF28227A30005B
:109440003D0023000B000000225631002B002400B9
:109450000B003B29225A31002D0025000B00190773
:10946000225632002B0026000B004729225A3200D8
:109470002D0027000B001D1723A84E004F0054009D
:1094800035000B00EF2823845300550042003600BE
:109490000B005329268A4E00450047004100540026
:1094A000450037000B002823238649004E00430067
:1094B00038000B00E82823864400450043003900AB
:1094C0000B000000249E5A00450052004F003A0055
:1094D0000B001929225655002B003B000B004D298B
:1094E000225432002A003C000B00000001582C00DE
:1094F0003B071800B006A5030C000C000B00052963
:1095000003A641004200530018001B000800A129D7
:1095100037000B00872904A032004400550050009A
:109520001A001A000B005806015E2F005E06190093
:1095300017000B00F507015A2D0036000B00000044
:10954000017A3D001E000800C029040000000B0045
:109550000400FFFF0B002E29027C3C003E00BA29CC
:1095600035000B00CC28017C3E001900CA050B0019
:10957000C329027A3C003D00CD2935000B00CA29E1
:10958000027A3E003D00CA0535000B000007015677
:109590002B003B000B000000C1763B0004000B00D9
:1095A000902962160F230B00000001743A000C0F83
:1095B000191F6A160B00AC28025843002C003B0709
:1095C0001800B006A5030C000E000B006B290990D3
:1095D00049004D0047002D00570049004400540049
:1095E00048000D000B00FE290AA849004D00470065
:1095F0002D00480045004900470048005400B006CF
:109600000D000B000B2A088249004D0047002D0079
:10961000440041005400410004000200E1290B0015
:109620001A2A844449004D004700220068040C00B7
:1096300004002200D20EA8291900170068040D00AA
:109640000400070075061E0008003F2A410CA829E7
:109650005F0C3B071400A829190012008105C307FD
:10966000A51617000B0094280A8A45004D004900F2
:1096700054002D0049004D004100470045001800EE
:10968000353174040C0018004331190050311900B1
:10969000180008006E2A190074040D00CE0CBA0BD5
:1096A000190004000100B5290900602A8D05830C0A
:1096B0000B004B2A038645005300430004001B00A7
:1096C000510B0B00F3290392430053004900762A03
:1096D000FE0C01005B000B0000000A6043004F001D
:1096E0004C004F0052003E0044003100300030007A
:1096F000060031003100310030003200310031000D
:1097000030003200320031003000320032003100CF
:1097100031003100310031003000320031003100C1
:1097200030003200320031003000320032003200AE
:1097300031003100310031003100320031003100A0
:10974000310032003200310031003200320032008C
:109750003100310031003100300031003100310082
:109760003000310031003100300031003100310073
:109770003000310031003000300031003000300066
:109780003000310030003000300031003000300057
:109790003000310031003000300031003000300046
:1097A0003000310030003000300031003000300037
:1097B0003000310031003000300031003000300026
:1097C0003000310030003000300031003000300017
:1097D0003000310031003000300031003000300006
:1097E00030003100300030003000310030003000F7
:1097F00030003100310030003000310030003000E6
:1098000030003100300030003000310030003000D6
:1098100030003100310030003000310031003000C4
:1098200030003100310030003000310031003000B4
:1098300030003100310031003000320031003100A1
:10984000300032003200310030003200320032008D
:109850003100310031003100300032003100310080
:10986000300032003200310030003200320031006E
:109870003100300030003000300030003000300067
:109880003000300030003000300030003000300058
:109890003000300030003000300030003000300048
:1098A0003000300030003000300030003000300038
:1098B0003000300030003000300030003000300028
:1098C0003000300030003000300030003000300018
:1098D00030003200320032003200320032003200FA
:1098E00032003200320032003200320032003200E8
:1098F00032000000096043004F004C004F0052004E
:109900003E004400310030000600380037003300CC
:1099100038003100360036003800310030003600A3
:109920003800310030003900320038003800330090
:10993000390032003700370039003200310037007B
:109940003900320031003000330038003800340074
:109950003000320038003800300032003200380069
:109960003000320032003200340038003500300060
:10997000360039003400310036003900350031003E
:10998000360039003500310037003500310037002E
:109990003200350037003400320035003800340022
:1099A0003200320038003400330035003100370017
:1099B0003200350037003400320035003800340002
:1099C00032003200380034003300350031003700F7
:1099D00033003500380034003300350038003400DF
:1099E00033003200380035003300350031003600D6
:1099F00032003500370033003200350037003300C5
:109A000032003100370033003200340030003600BD
:109A100031003400360032003100340036003200AC
:109A20003100300036003200310038003400390097
:109A30003500380033003900350038003300390074
:109A40003500370033003900350038003700330067
:109A5000390031003700360039003100300036005F
:109A60003900310030003000320038003700330058
:109A70003800310036003600380031003000360042
:109A8000380031003000390032003100310031003F
:109A9000310031003100310031003100310031003E
:109AA000310031003100310031003100310031002E
:109AB000310031003100310031003100310031001E
:109AC000310031003100310031003100310031000E
:109AD00031003100310031003100310031003100FE
:109AE00031003100310031003100350035003500E2
:109AF00035003400340034003400340034003400C5
:109B000033003300330033003300000008624300A9
:109B10004F004C004F0052003E0044003100060050
:109B20003100340031003800370037003000380091
:109B30003700330030003800300033003600340086
:109B40003700300037003400330039003200340071
:109B50003300350032003400320035003800300068
:109B60003700360033003000390035003400300053
:109B7000390037003400300038003700360032003A
:109B80003700300037003400330039003200340031
:109B90003300350032003400320035003800300028
:109BA0003100340031003800370037003000380011
:109BB0003700330030003800300033003600340006
:109BC00032003500320039003800390032003900E7
:109BD00038003500320039003200350038003500D9
:109BE00032003600330030003900300034003000DD
:109BF00039003700340030003300370031003700BF
:109C000032003000370034003300340032003400BA
:109C100033003500320034003700350033003500A2
:109C20003600340031003800370032003000380090
:109C30003700330030003800350033003100390080
:109C4000320030003700340033003400320034007A
:109C50003300350032003400370035003300350062
:109C6000320036003300300039003000340030005C
:109C7000390037003400300033003700310037003E
:109C80003200350032003900380039003200390026
:109C90003800350032003900320035003800350018
:109CA0003600360036003600360036003600360004
:109CB00036003600360036003600360036003600F4
:109CC00036003600360036003600360036003600E4
:109CD00036003600360036003600360036003600D4
:109CE00036003600360036003600360036003600C4
:109CF00036003600360036003600360036003600B4
:109D000035003300320030003900370036003400AF
:109D100033003100300038003700350034003200A5
:109D200000000680440049004700490054004000FC
:109D30001900E1290F000B000000078843004F00C5
:109D40004C004F0052003E0044001800A72CB02DDC
:109D5000190018009C2BB02D1900902AB02D0B0073
:109D6000032403424600470021007F2AFE0C050021
:109D7000330038003B0035003B00BD2D510B510B2B
:109D8000510B04006D00510B0B00091703424200F8
:109D9000470021007F2AFE0C0500340038003B00FC
:109DA00035003B00BD2D510B510B510B04006D00D4
:109DB000510B0B009729054641004E005300490006
:109DC0002300610881089908A20B0B007A2A066615
:109DD00043004C0041004D005000330004000000DF
:109DE000DA0504000300E6050B00F22D02A841008D
:109DF00054007F2AF92D04003B00510BF92D04007B
:109E00004800510B0B009E13048A48004F004D0080
:109E100045007F2AFE0C010048000B005A290BA4C4
:109E200053004100560045002D00430055005200EC
:109E300053004F0052007F2AFE0C010073000B00FC
:109E4000C6280EA452004500530054004F00520093
:109E500045002D0043005500520053004F005200B2
:109E60007F2AFE0C010075000B00FE2D03A64300A7
:109E70004C0053007F2AFE0C020032004A000B0007
:109E80004D2E078A43004C002D004C0049004E0027
:109E900045007F2AFE0C020032004B000B00582EBA
:109EA000069843004C002D0045004F004C007F2ACF
:109EB000FE0C01004B000B00672E06A643004C0071
:109EC0002D0045004F0053007F2AFE0C01004A0080
:109ED0000B00742E099C43005500520053004F00A4
:109EE00052002D004F004E007F2AFE0C04003F0060
:109EF0003200350068000B00812E0A8C43005500AB
:109F0000520053004F0052002D004F004600460003
:109F10007F2AFE0C04003F00320035006C000B006D
:109F2000612906984E004F0052004D0041004C0040
:109F3000830C0B00DD2D048842004F004C004400D0
:109F40007F2AFE0C020031006D000B007229039A7B
:109F5000440049004D007F2AFE0C020032006D00D3
:109F60000B00B22E059642004C0049004E004B00FB
:109F70007F2AFE0C020035006D000B008129079638
:109F800055004E0042004C0049004E004B007F2A15
:109F9000FE0C0300320035006D000B00D62E098A3E
:109FA00055004E004400450052004C0049004E0050
:109FB00045007F2AFE0C020034006D000B00382E95
:109FC000078A5200450056004500520053004500E4
:109FD0007F2AFE0C020037006D000B00C92E04988A
:109FE000420045004C004C0004000700510B0B00E0
:109FF0001B2E0398480053004C001400040004007A
:10A0000075061900040010007506E1291200E12907
:10A010000B00102F02804800400004001000AE2901
:10A020000B00262E02805300400004000400AE29DD
:10A030000400040068060B00881B02804C004000EE
:10A040000400040068060B00292F0590530045000A
:10A0500054002D0048001900040010006806190083
:10A06000040010007506E1290B003C2F05A65300E3
:10A07000450054002D005300140018000400040093
:10A080006806190004001000AE29040010007506CF
:10A09000E1291200040004007506E1290B004D2F90
:10A0A00005985300450054002D004C001900040091
:10A0B0000400AE29040004007506E1290B00A82E57
:10A0C000087E4E00450055005400520041004C00EF
:10A0D0003F00252F04000F00BA290B00212F025644
:10A0E00048002B001800812F0800902F0900992F9D
:10A0F0001800252F04000100E12904000C00680667
:10A10000432F0B00862F025A48002D001800812F84
:10A110000800A42F0900AD2F1800252F04000B0004
:10A12000E12904000C006806432F0B00672F02563C
:10A1300053002B0018002D2F04000100E129062EEA
:10A14000542F0B00AE2F025A53002D0018002D2F54
:10A1500004000100B529062E542F0B00342F02569F
:10A160004C002B001800382F04000100E129062EB6
:10A170006E2F0B00C62F025A4C002D001800382FEE
:10A1800004000100B529062E6E2F0B009A2F0788B8
:10A19000480053004C005F0052004500440004009A
:10A1A00000000400030004000100152F0B00DE2F47
:10A1B0000A8A480053004C005F004F0052004100E3
:10A1C0004E004700450004000100040003000400A5
:10A1D0000100152F0B00EF2F0AAE480053004C0072
:10A1E0005F00590045004C004C004F005700040030
:10A1F00002000400030004000100152F0B000330CF
:10A200000A9C480053004C005F0059004700520070
:10A21000450045004E000400030004000300040054
:10A220000100152F0B001730099C480053004C000B
:10A230005F0047005200450045004E000400040046
:10A240000400030004000100152F0B002B30099CB3
:10A25000480053004C005F00470043005900410094
:10A260004E00040005000400030004000100152F47
:10A270000B003E30089C480053004C005F00430038
:10A28000590041004E0004000600040003000400D1
:10A290000100152F0B005130098A480053004C0073
:10A2A0005F0041005A0055005200450004000700BD
:10A2B0000400030004000100152F0B006330088A1E
:10A2C000480053004C005F0042004C005500450020
:10A2D000040008000400030004000100152F0B0017
:10A2E00076300AA8480053004C005F005600490031
:10A2F0004F004C0045005400040009000400030016
:10A3000004000100152F0B0088300B824800530019
:10A310004C005F004D004100470045004E005400D6
:10A32000410004000A000400030004000100152F8E
:10A330000B009C30088A480053004C005F0052001C
:10A340004F005300450004000B000400030004000C
:10A350000100152F0B00000004B24700520041001D
:10A36000590004000000DA0504000F00E6050400AF
:10A3700004005E061900140004000F00190012000A
:10A38000152F0B007527058A570048004900540017
:10A39000450004000000C9300B00062F059642005E
:10A3A0004C00410043004B0004000F00C9300B007B
:10A3B000D22F07A44C004900470048005400450034
:10A3C0005200CA2F0B00BE2E06A4440041005200CA
:10A3D0004B0045005200D62F0B00BA2F088A5300BD
:10A3E0004100540055005200410054004500B22F76
:10A3F0000B00FB300A8A4400450053004100540022
:10A4000055005200410054004500BE2F0B00942E11
:10A41000025843002C003B071800B006A5030C00AF
:10A420000E000B00282A099049004D0047002D001E
:10A43000570049004400540048000D000B002A3129
:10A440000AA849004D0047002D004800450049007A
:10A45000470048005400B0060D000B003731088259
:10A4600049004D0047002D004400410054004100C8
:10A4700004000200E1290B004631844449004D00EC
:10A480004700220068040C0004002200D20EA82914
:10A490001900170068040D000400070075061E006F
:10A4A00008006B31410CA8295F0C3B071400A82958
:10A4B000190012008105C307A51617000B00712AA9
:10A4C0000A8A45004D00490054002D0049004D0006
:10A4D0004100470045001800353174040C00180095
:10A4E0004331190050311900180008009A31190041
:10A4F00074040D00CE0CBA0B190004000100B5293C
:10A5000009008C318D05830C0B001F310B8A430031
:10A5100050003400330037002D0048004C00490043
:10A520004E0045000400C4000B009D310B8A43001F
:10A5300050003400330037002D0056004C00490015
:10A540004E0045000400B3000B00AD3108984300F5
:10A5500050003400330037002D0054004C0004003C
:10A56000DA000B00BD3108A4430050003400330072
:10A5700037002D00540052000400BF000B00CA3108
:10A580000898430050003400330037002D0042008B
:10A590004C000400C0000B00D73108A44300500059
:10A5A0003400330037002D00420052000400D9006F
:10A5B0000B00E4310B9C43005000340033003700A3
:10A5C0002D00540044004F0057004E000400C2000C
:10A5D0000B00F13109A04300500034003300370074
:10A5E0002D005400550050000400C1000B00013242
:10A5F0000CA8430050003400330037002D005400F5
:10A60000520049004700480054000400C3000B00FA
:10A610000F320BA8430050003400330037002D00E8
:10A6200054004C004500460054000400B4000B00E8
:10A6300020320BA6430050003400330037002D00B9
:10A64000430052004F00530053000400C5000B00AC
:10A6500000000A8A530049004E0051002D005400AA
:10A66000410042004C00450006000000C900920174
:10A670005B022403ED03B6047F0548061107D907E2
:10A68000A2086A09330AFB0AC40B8C0C540D1C0E79
:10A69000E30EAB0F72103A110112C8128F1355144A
:10A6A0001C15E215A8166E173318F918BE19821A70
:10A6B000471B0B1CCF1C931D571E1A1FDD1F9F200D
:10A6C00061212322E522A62367242825E825A82640
:10A6D00067272628E528A329612A1F2BDC2B992C24
:10A6E000552D112ECC2E872F4130FB30B5316E32D7
:10A6F0002633DF3396344D350436BA366F37243877
:10A70000D9388C39403AF23AA53B563C073DB83D22
:10A71000683E173FC53F73402141CE417A422543F1
:10A72000D0437A442445CD4575461C47C347694804
:10A730000F49B449584AFB4A9D4B3F4CE04C814D70
:10A74000204EBF4E5D4FFB4F97503351CE51685254
:10A7500002539B533254C9546055F5558A561D57C0
:10A76000B0574258D3586459F359825A0F5B9C5BD7
:10A77000285CB35C3E5DC75D4F5ED75E5D5FE35FA7
:10A780006860EB606E61F0617162F1627063EE634C
:10A790006C64E8646365DD655666CF664667BC67D2
:10A7A0003268A66819698B69FD696D6ADC6A4A6B53
:10A7B000B76B236C8E6CF86C616DC96D306E966EE4
:10A7C000FB6E5E6FC16F22708370E27040719D718D
:10A7D000F9715472AE7207735E73B5730A745F7465
:10A7E000B27404755575A575F37541768D76D87676
:10A7F00022776B77B377FA773F788478C7780979CF
:10A800004A798979C879057A417A7C7AB67AEE7A7A
:10A81000267B5C7B917BC57BF87B297C597C887C83
:10A82000B67CE37C0E7D397D627D897DB07DD57DF2
:10A83000FA7D1D7E3E7E5F7E7E7E9C7EB97ED57ECD
:10A84000EF7E097F217F377F4D7F617F747F867F19
:10A85000977FA67FB47FC17FCD7FD87FE17FE97FDF
:10A86000F07FF57FF97FFD7FFE7F00000A8A5000B0
:10A870004F00570032002D005400410042004C00B0
:10A88000450006000100020004000800100020003E
:10A8900040008000000100020004000800100020B9
:10A8A0000040008000000B8A4C004F00470032003F
:10A8B00049002D005400410042004C0045000600B4
:10A8C00000000010002000300040005000600070C8
:10A8D0000080009000A000B000C000D000E000F0B8
:10A8E00000000B8A4C004F004700320046002D004C
:10A8F0005400410042004C004500060000001700D3
:10A900002E0045005C00720089009F00B600CC005C
:10A91000E200F9000F0125013B01500166017C01B5
:10A920009201A701BD01D201E701FC011202270239
:10A930003C02510265027A028F02A302B802CC02E5
:10A94000E102F5020A031E03320346035A036E03B3
:10A9500082039603A903BD03D103E403F8030B04A8
:10A960001E043204450458046B047E049104A404BC
:10A97000B704CA04DC04EF040205140527053905F1
:10A980004B055E05700582059405A605B905CB0546
:10A99000DC05EE05000612062406350647065806B5
:10A9A0006A067B068D069E06B006C106D206E30641
:10A9B000F406050716072707380749075A076B07E4
:10A9C0007B078C079D07AD07BE07CE07DF07EF07A4
:10A9D000FF07100820083008400850086108710877
:10A9E00081089008A008B008C008D008E008EF0867
:10A9F000FF080F091E092E093D094D095C096B0965
:10AA00007B098A099909A809B809C709D609E5097E
:10AA1000F409030A120A210A300A3E0A4D0A5C0AA6
:10AA20006B0A790A880A970AA50AB40AC20AD10AE7
:10AA3000DF0AEE0AFC0A0A0B190B270B350B430B36
:10AA4000510B5F0B6E0B7C0B8A0B980BA60BB30B99
:10AA5000C10BCF0BDD0BEB0BF90B060C140C220C0E
:10AA60002F0C3D0C4A0C580C660C730C800C8E0C91
:10AA70009B0CA90CB60CC30CD00CDE0CEB0CF80C28
:10AA8000050D120D1F0D2D0D3A0D470D540D600DC6
:10AA90006D0D7A0D870D940DA10DAE0DBA0DC70D7C
:10AAA000D40DE00DED0DFA0D060E130E1F0E2C0E3B
:10AAB000380E450E510E5E0E6A0E760E830E8F0E08
:10AAC0009B0EA70EB40EC00ECC0ED80EE40EF00EE8
:10AAD000FC0E090F150F210F2D0F380F440F500FCB
:10AAE0005C0F680F740F800F8B0F970FA30FAF0FC2
:10AAF000BA0FC60FD20FDD0FE90FF40F00100000E0
:10AB00000B8A4C004F004700320044002D005400D7
:10AB1000410042004C0045000600170017001700D6
:10AB20001700160017001600170016001600170071
:10AB30001600160016001500160016001600150067
:10AB4000160015001500150016001500150015005B
:10AB50001400150015001400150014001500140051
:10AB60001500140014001400140014001400140044
:10AB70001300140014001300140013001300140039
:10AB8000130013001300130013001300130013002D
:10AB90001200130013001200130012001200130021
:10ABA0001200120012001200130012001100120015
:10ABB0001200120012001100120011001200110008
:10ABC00012001100120011001100110011001100FB
:10ABD00011001100110011001100110010001100EE
:10ABE00011001000110010001100100010001100E1
:10ABF00010001000100010001100100010000F00D5
:10AC0000100010001000100010000F0010001000C5
:10AC10000F0010000F0010000F000F0010000F00B9
:10AC20000F000F0010000F000F000F000F000F00AB
:10AC30000F000F000F000E000F000F000F000E009E
:10AC40000F000F000E000F000E000F000E000F008F
:10AC50000E000E000F000E000E000E000E000E0083
:10AC60000F000E000E000E000E000D000E000E0074
:10AC70000E000E000E000D000E000E000D000E0066
:10AC80000D000E000E000D000D000E000D000E0058
:10AC90000D000D000D000E000D000D000D000D004B
:10ACA0000D000E000D000D000D000C000D000D003C
:10ACB0000D000D000D000D000C000D000D000C002E
:10ACC0000D000D000C000D000C000D000C000D001F
:10ACD0000C000D000C000C000D000C000C000C0012
:10ACE0000D000C000C000C000C000C000C000D0002
:10ACF0000C000C000C000B000C000C000C000C00F5
:10AD00000C000C000B000C000C000C000B000C00E5
:10AD10000C000B000C000B000C0000000B8A45001F
:10AD200058005000320046002D00540041004200FF
:10AD30004C004500060000100B10161021102D10BD
:10AD4000381043104E105A10651070107C10871088
:10AD500093109E10AA10B510C110CD10D810E41099
:10AD6000F010FB10071113111F112B113711431194
:10AD70004F115B11671173117F118B119711A31183
:10AD8000B011BC11C811D511E111ED11FA11061263
:10AD900013121F122C123812451252125F126B122C
:10ADA0007812851292129F12AC12B812C512D312E9
:10ADB000E012ED12FA120713141321132F133C1390
:10ADC00049135713641372137F138D139A13A81327
:10ADD000B513C313D113DF13EC13FA1308141614AD
:10ADE0002414321440144E145C146A14781487141A
:10ADF0009514A314B114C014CE14DD14EB14FA147A
:10AE000008151715251534154315521560156F15BE
:10AE10007E158D159C15AB15BA15C915D815E715F6
:10AE2000F715061615162416341643165316621611
:10AE3000721681169116A116B016C016D016E0161D
:10AE4000F016FF160F171F1730174017501760170F
:10AE5000701780179117A117B117C217D217E317F0
:10AE6000F4170418151826183618471858186918B2
:10AE70007A188B189C18AD18BE18CF18E018F21865
:10AE8000031914192619371949195A196C197E19F9
:10AE90008F19A119B319C519D619E819FA190C1A7D
:10AEA0001E1A311A431A551A671A7A1A8C1A9E1AE0
:10AEB000B11AC31AD61AE91AFB1A0E1B211B341B2E
:10AEC000471B591B6C1B7F1B931BA61BB91BCC1B61
:10AED000DF1BF31B061C1A1C2D1C411C541C681C78
:10AEE0007C1C8F1CA31CB71CCB1CDF1CF31C071D78
:10AEF0001B1D301D441D581D6C1D811D951DAA1D57
:10AF0000BE1DD31DE81DFD1D111E261E3B1E501E1D
:10AF1000651E7A1E8F1EA51EBA1ECF1EE51EFA1EC6
:10AF2000101F251F3B1F501F661F7C1F921FA81F4D
:10AF3000BE1FD41FEA1F002000000B8A45005800E6
:10AF40005000320044002D005400410042004C00EB
:10AF5000450006000B000B000B000C000B000B0063
:10AF60000B000C000B000B000C000B000C000B0086
:10AF70000C000B000C000C000B000C000C000B0074
:10AF80000C000C000C000C000C000C000C000C0061
:10AF90000C000C000C000C000C000C000D000C0050
:10AFA0000C000D000C000C000D000C000D000C003E
:10AFB0000D000C000D000D000D000C000D000D002B
:10AFC0000D000D000D000C000D000E000D000D0019
:10AFD0000D000D000D000D000E000D000D000E0007
:10AFE0000D000E000D000E000D000E000D000E00F5
:10AFF0000E000E000D000E000E000E000E000E00E2
:10B000000E000E000E000E000E000F000E000E00CF
:10B010000E000F000E000F000E000F000E000F00BC
:10B020000E000F000F000F000E000F000F000F00AA
:10B030000F000F000F000F000F000F0010000F0097
:10B040000F000F0010000F0010000F0010000F0085
:10B05000100010000F0010001000100010000F0072
:10B06000100010001100100010001000100010005F
:10B07000110010001000110010001100110010004C
:10B080001100110010001100110011001100110039
:10B090001100110011001100110012001100110027
:10B0A0001200110012001100120012001100120013
:10B0B0001200120011001200120012001200130000
:10B0C00012001200120013001200120013001200EE
:10B0D00013001300120013001300130013001200DA
:10B0E00013001300140013001300130013001400C6
:10B0F00013001400130014001300140014001300B4
:10B10000140014001400140014001400140015009E
:10B11000140014001400150014001500140015008C
:10B120001500150014001500150015001500150078
:10B130001500160015001500160015001600150064
:10B140001600150016001600160016001600160050
:10B150001600160000000B8A4100540041004E000A
:10B1600046002D005400410042004C0045000600FE
:10B170000000290051007A00A300CC00F4001D015A
:10B1800046016F019701C001E90111023A02620212
:10B190008B02B402DC0205032D0356037E03A703D2
:10B1A000CF03F7032004480470049904C104E904A0
:10B1B0001105390561058905B105D905010629067D
:10B1C00051067806A006C806EF0617073E07660771
:10B1D0008D07B507DC0703082A08510878089F087F
:10B1E000C608ED0814093B0961098809AE09D509AB
:10B1F000FB09220A480A6E0A940ABA0AE00A060BF8
:10B200002C0B510B770B9D0BC20BE70B0D0C320C6B
:10B21000570C7C0CA10CC60CEB0C100D340D590D09
:10B220007D0DA20DC60DEA0D0F0E330E560E7A0ED1
:10B230009E0EC20EE50E090F2C0F500F730F960FC6
:10B24000B90FDC0FFF0F2110441067108910AB10ED
:10B25000CE10F01012113411561177119911BB1143
:10B26000DC11FD111F12401261128212A312C312CF
:10B27000E41205132513451366138613A613C6138C
:10B28000E61305142514441464148314A214C11481
:10B29000E014FF141E153D155B157A159815B715AA
:10B2A000D515F31511162F164C166A168816A51605
:10B2B000C216E016FD161A173717541770178D1798
:10B2C000AA17C617E217FE171B18371853186E185F
:10B2D0008A18A618C118DD18F81813192E1949195B
:10B2E00064197F199A19B419CF19E919041A1E1A89
:10B2F000381A521A6C1A861A9F1AB91AD31AEC1AEB
:10B30000051B1F1B381B511B6A1B831B9C1BB41B7B
:10B31000CD1BE51BFE1B161C2E1C461C5E1C761C42
:10B320008E1CA61CBE1CD51CED1C041D1B1D331D34
:10B330004A1D611D781D8E1DA51DBC1DD31DE91D57
:10B34000FF1D161E2C1E421E581E6E1E841E9A1EA7
:10B35000B01EC51EDB1EF01E061F1B1F301F451F23
:10B360005A1F6F1F841F991FAE1FC31FD71FEC1FCB
:10B37000002000000B8A4100540041004E004400B0
:10B380002D005400410042004C00450006002900F9
:10B390002800290029002900280029002900290067
:10B3A0002800290029002800290028002900290058
:10B3B000280029002800290028002900280028004A
:10B3C000290028002800290028002800280028003B
:10B3D000280028002800280028002800280027002E
:10B3E0002800280027002800270028002700280020
:10B3F0002700270027002700270027002700270015
:10B400002700270026002700260027002600270007
:10B4100026002600260026002600260026002500FD
:10B4200026002600250025002600250025002500F1
:10B4300025002500250025002400250024002500E6
:10B4400024002400250024002300240024002400DC
:10B4500023002400230024002300230023002300D2
:10B4600023002200230023002200220023002200C8
:10B4700022002200220021002200220021002100BF
:10B4800022002100210021002100200021002100B4
:10B4900020002000210020002000200020001F00AC
:10B4A00020001F0020001F001F001F001F001F00A2
:10B4B0001F001F001E001F001E001F001E001E0098
:10B4C0001E001E001D001E001E001D001D001E008F
:10B4D0001D001D001D001D001C001D001D001C0086
:10B4E0001C001C001D001C001C001B001C001C007C
:10B4F0001B001C001B001B001B001B001B001B0073
:10B500001B001A001B001A001B001A001A001A0068
:10B510001A001A0019001A001A00190019001A005E
:10B520001900190019001900190018001900180055
:10B53000190018001800180018001800180018004A
:10B540001800170018001700170018001700170040
:10B550001700160017001700170016001600170036
:10B56000160016001600160016001600160015002C
:10B570001600150016001500150015001500150021
:10B58000150015001500150014001500140000002A
:10B590000580530049004E00510040004C32190014
:10B5A000BC06E1290D000B000000058050004F0093
:10B5B00057003200400059331900BC06E1290D0044
:10B5C0000B00000006804C004F004700320049008D
:10B5D000400077331900BC06E1290D000B00000084
:10B5E00006804C004F004700320046004000953373
:10B5F0001900BC06E1290D000B00000006804C007C
:10B600004F004700320044004000A4341900BC063B
:10B61000E1290D000B000000068045005800500095
:10B62000320046004000B2351900BC06E1290D0089
:10B630000B00000006804500580050003200440016
:10B640004000C1361900BC06E1290D000B000000C6
:10B6500006804100540041004E0046004000CF37B4
:10B660001900BC06E1290D000B0000000680410016
:10B67000540041004E0044004000DE381900BC0672
:10B68000E1290D000B002216047C51003100350029
:10B690003E001800E12914001B0037001200E129C8
:10B6A0000B005B3A05A45100310035003E0052000A
:10B6B0001900040000401F008105E129613A0B00D8
:10B6C000E62E058855002F004D004F004400140061
:10B6D00004000000120005060B00783A025E5500D7
:10B6E0002F007F3A190017000B00853A035E5500C2
:10B6F0002A002F001400330012000506190017005D
:10B700000B00950607882A002F0052004F005500B5
:10B710004E00440018009C291400900619009C2932
:10B720001800E1291300BA0535000800B23A0400F8
:10B730000100E129120017000B005431038C49006D
:10B740002A0046007C06613A0B00E530078E420075
:10B7500049004E003E0044004500470004002D0013
:10B7600004000020A23A0B001131079C4400450060
:10B7700047003E00420049004E0004006801680690
:10B780000400002004002D00A23A0B00BD3A09A6D7
:10B79000420049004E003E004400450047002E0094
:10B7A000530004002D00750604000020A23A0B008F
:10B7B000CC3A099C4400450047002E0053003E004F
:10B7C000420049004E00180004006801750614008C
:10B7D000190013006806190004002D007506040006
:10B7E00000201900A23A120017000B000531066C68
:10B7F00053005400450050003100360004000000A2
:10B8000014001800040008001C000800263B1A0061
:10B8100004000200AE291200E129140018000400FF
:10B8200004001C000800333B1A0004000400AE2989
:10B830001200E12914001800040002001C00080096
:10B84000403B1A0004000800AE291200E129140050
:10B850001800040001001C0008004D3B1A00040001
