:020000040000FA
:100000000C94EB800C941C810C941C810C941C812E
:100010000C941C810C941C810C941C810C941C81EC
:100020000C941C810C941C810C941C810C941C81DC
:100030000C941C810C941C810C941C810C941C81CC
:100040000C941C810C941C810C941C810C941C81BC
:100050000C941C810C941C810C941C810C94AC8815
:100060000C941C810C9420890C94F6880C941C81AF
:100070000C941C810C941C810C941C810C941C818C
:100080000C941C810C941C810C941C810C941C817C
:100090000C941C810C941C810C941C810C941C816C
:1000A0000C941C810C941C810C941C810C941C815C
:1000B0000C941C810C941C810C941C810C941C814C
:1000C0000C941C810C941C810C941C810C941C813C
:1000D0000C941C810C941C810C941C810C941C812C
:1000E0000C941C810C94A3870C94B4810C941983F8
:1000F0000C944B810C94F1870C94B3870C94588624
:100100000C9493850C9414860C9416870C94628737
:100110000C941F8B0C947C810C94E6850C942A869D
:100120000C94A2860C94CA830C943E840C948C8606
:100130000C942A840C9452820C940F830C94EF87B5
:100140000C94A1870C94BF830C94B7860C941688EA
:100150000C9488870C947D850C9405840C944085C0
:100160000C942B850C9470860C9490840C94568679
:100170000C941E810C948A880C94D7870C945A8115
:100180000C9405850C94B3830C9457850C946A8861
:100190000C94D0860C94D7830C9461840C941888AA
:1001A0000C9401820C949B840C946E860C945C825B
:1001B0000C9497830C9414830C9440860C943C8785
:1001C0000C9443880C94C7870C94EF840C946E8134
:1001D0000C945382000000000000000000000000AA
:1001E000000000000000000000000000000000000F
:1001F00000000000000000000000000000000000FF
:1002000000000000000000000000000000000000EE
:1002100000000000000000000000000000000000DE
:1041D000000000006700690074007300C6020D0053
:1041E00008002040F13F0400300004003A00F605CA
:1041F00008002040F13F04003000EC29D2020D00FD
:1042000004000A008606182AD2020C0004000100ED
:10421000190D04400B0000000CE67E0070007200D7
:10422000650063002D006400690067006900740088
:104230007300C6020D0008004F40F13F040030003B
:1042400004003A00F60508004F400400FFFFEA02B0
:104250000C00F13F04003000EC29DE020D000400E8
:104260000A008606182ADE020C0004000100190D5F
:104270002F400B000000097E7E0064006500660090
:10428000610075006C0074003F00F13F04007D0088
:10429000F1290B00000008C27E0074007900700054
:1042A00065002D0073006100180004007300F129FF
:1042B000080074401700AD3F09008040180004005A
:1042C0006100F12908007E401700D63F09008040B8
:1042D0001700613E0B0000000ED07E0074007900D4
:1042E000700065002D0064006900730070006100BB
:1042F000740063006800180004006400F1290800DD
:104300009B4017005D3F0900BA401800040075008B
:10431000F1290800A5401700703F0900BA401800B5
:1043200004007800F1290800AF401700843F09001D
:10433000BA40180004006300F1290800B9401700D2
:10434000963F0900BA406A400B0000000BD87E007F
:104350006600690065006C0064002D007400610057
:1043600069006C0004000100190DC6020D007605FD
:104370000800D34017000900E14098180C006200C3
:1043800061006400200066002D007300740072005C
:1043900069006E006700F13F04007D001E00981860
:1043A0000C00620061006400200066002D007300B4
:1043B0007400720069006E00670004000100190DAE
:1043C00091400B00000006C87E0066006900650091
:1043D0006C00640004000100190D04000000D2020A
:1043E0000C000400FFFFDE020C00C6020D00760583
:1043F0000800134117000900214198180C006200C1
:1044000061006400200066002D00730074007200DB
:1044100069006E0067005B4008002A41040001004B
:10442000190D5D3F090078410440C6020D00760574
:104430000800334117000900414198180C00620040
:1044400061006400200066002D007300740072009B
:1044500069006E006700F13F04002E00F12908009A
:10446000694104000100190D04000000DE020C0087
:1044700004000000EA020C002F40EA020D0076055D
:1044800008005B4117000900694198180C006200A0
:1044900061006400200066002D007300740072004B
:1044A00069006E006700F13F180004007D00F129EB
:1044B00008007741170004000100190D5D3F090055
:1044C0007841C8400B0000000CCA7E0065007600F1
:1044D00061006C002D006C006200720061006300DE
:1044E000650004000100C6020D00BA050800A441E1
:1044F000BA020D0004000100182A0F0004007B001E
:10450000F1290800A14104007B00600D04000200B5
:10451000190D0900A24100410900A54100410B000D
:1045200000000CCA7E006500760061006C002D0062
:104530007200620072006100630065000400010007
:10454000C6020D00BA050800D141BA020D000400F0
:104550000100182A0F0004007D00F1290800CE4157
:1045600004007D00600D04000200190D0900CF4118
:10457000613E0900D241613E0B00000005D87E007B
:104580006500760061006C00DF291700BA020C009C
:10459000C6020C001700260DC6020D0008000142DD
:1045A000F13F180004007B00F1290800F1411700D9
:1045B00087410900FF41180004007D00F12908002F
:1045C000FB411700B4410900FF41600D04000100E8
:1045D000190D0900E241810D0B00000044DC7E0052
:1045E000720075006E00F10C3E07DA410B000342C9
:1045F00043F87E0022007C0009420B00FF2D82441C
:104600004600220031030D0008002542040022006C
:10461000E30EB50DB3160942E71609002A4204005D
:104620002200E30EB50DDA410B001E3C0DA0450043
:104630004400490054002D004C0049004E00450044
:104640002D004300410050000400A0000B002B424D
:104650000D8A45004400490054002D0052004500D9
:1046600043002D00530049005A0045000400A400F7
:104670000B003D420F8A45004400490054002D00C4
:104680004100520045004E0041002D0053004900FA
:104690005A004500040000200B004F420BAE4500BD
:1046A0004400490054002D005400450058005400B7
:1046B0002D005700040050000B0063420B90450092
:1046C0004400490054002D00540045005800540097
:1046D0002D004800040017000B0073420FAE450088
:1046E0004400490054002D00530054004100540080
:1046F000550053002D0052004F00570004001800D1
:104700000B0083420DAE45004400490054002D00CB
:10471000480045004C0050002D0052004F0057004B
:10472000040019000B0097420D8A4500440049001F
:1047300054002D004D00530047002D004E004F0047
:104740004E004500040000000B00A9420E88450001
:104750004400490054002D004D00530047002D0037
:1047600053004100560045004400040001000B00C6
:10477000BB420FA445004400490054002D004D00E9
:10478000530047002D0042005500460046004500FA
:104790005200040002000B00CE420D8E4500440082
:1047A000490054002D004D00530047002D004C00DF
:1047B0004F004E004700040003000B00E2420D9C36
:1047C00045004400490054002D004D0053004700AF
:1047D0002D004F00500045004E00040004000B0067
:1047E000F4420D8845004400490054002D004D005E
:1047F000530047002D0052004500410044000400D2
:1048000005000B0006430E8A450044004900540091
:104810002D004D00530047002D0057005200490065
:1048200054004500040006000B0018430CAE450080
:104830004400490054002D004D00530047002D0056
:104840004E0045005700040007000B002B430D8A63
:1048500045004400490054002D004D00530047001E
:104860002D004E0041004D004500040008000B00E3
:104870003C430EA045004400490054002D004D006B
:10488000530047002D0055004E00530055005000C6
:10489000040009000B004E4310A8450044004900E5
:1048A00054002D0055005300450052002D004F00CC
:1048B00046004600530045005400040000010B0070
:1048C00061430E8A45004400490054002D00500009
:1048D0004100540048002D00530049005A00450093
:1048E000040004010B00764309964500440049008A
:1048F00054002D004D00410052004B000400000107
:10490000A4040D00182A0B008943098A45004400BD
:10491000490054002D0042004100530045000400AE
:104920000101A4040D00182A0B009A43098A4500CE
:104930004400490054002D00480045005200450045
:1049400004000201A4040D00182A0B00AB430AA8BE
:1049500045004400490054002D004C0049004D0022
:104960004900540004000301A4040D00182A0B00A0
:10497000BC43098A45004400490054002D0046000C
:1049800052004500450004000401A4040D00182A4B
:104990000B00CE43098845004400490054002D0017
:1049A000480045004100440004000501A4040D0036
:1049B000182A0B00DF4309984500440049005400C1
:1049C0002D005400410049004C0004000601A404DD
:1049D0000D00182A0B00F04308A4450044004900CC
:1049E00054002D0043005500520004000701A404A8
:1049F0000D00182A0B00014408A04500440049009E
:104A000054002D0054004F00500004000801A4047D
:104A10000D00182A0B0011440AA645004400490065
:104A200054002D004C0049004E0045005300040086
:104A30000901A4040D00182A0B0021440946450071
:104A40004400490054002D0043005500520023004B
:104A500004000A01A4040D00182A0B00334409467F
:104A600045004400490054002D0054004F00500000
:104A7000230004000B01A4040D00182A0B00444479
:104A8000089845004400490054002D0043004F00A1
:104A90004C0004000C01A4040D00182A0B0055441E
:104AA000098C45004400490054002D00500052007C
:104AB0004500460004000D01A4040D00182A0B0057
:104AC00065440D8845004400490054002D004D0008
:104AD0004F004400490046004900450044000400DE
:104AE0000E01A4040D00182A0B0076440BA8450003
:104AF0004400490054002D0049004E005300450079
:104B00005200540004000F01A4040D00182A0B00E9
:104B10008B440C8E45004400490054002D00520087
:104B200055004E004E0049004E00470004001001A1
:104B3000A4040D00182A0B009E44088E4500440072
:104B4000490054002D004D0053004700040011019E
:104B5000A4040D00182A0B00B2440D9C450044002B
:104B6000490054002D0050004100540048002D0021
:104B70004C0045004E0004001201A4040D00182A48
:104B80000B00C2440E4645004400490054002D006D
:104B900050004100540048002D00420055004600DE
:104BA000230004001301A4040D00182A0B00D744AD
:104BB0000D9C45004400490054002D0043004C006A
:104BC000490050002D004C0045004E000400140127
:104BD000A4040D00182A0B00ED440E4645004400C5
:104BE000490054002D0043004C00490050002D00A6
:104BF000420055004600230004001501A4040D00E6
:104C0000182A0B00024503624500540031000400DD
:104C10001601A4040D00182A0B0018450364450072
:104C20005400320004001701A4040D00182A0B00E0
:104C30002345036645005400330004001801A40412
:104C40000D00182A0B002E4503684500540034005F
:104C500004001901A4040D00182A0B0039450EA800
:104C600045004400490054002D004C0049004E000E
:104C700045002D004E004500580054000B004445EF
:104C80000EAC45004400490054002D004C00490082
:104C90004E0045002D0050005200450056002400F3
:104CA0000B0055450D9C45004400490054002D0063
:104CB0004C0049004E0045002D004C0045004E00C0
:104CC00004000200182A0B0067450FA645004400A7
:104CD000490054002D004C0049004E0045002D00B5
:104CE00046004C0041004700530004000300182A0E
:104CF0000B007A450EA845004400490054002D00E1
:104D00004C0049004E0045002D005400450058005D
:104D1000540004000400182A0B008F450E80450043
:104D20004400490054002D004C0049004E0045004D
:104D30002D004C0045004E00400076450D000B0054
:104D4000A3450E4245004400490054002D004C008C
:104D500049004E0045002D004C0045004E0021004A
:104D600076450C000B00B6450EA4450044004900F2
:104D700054002D004C0049004E0045002D0041001C
:104D800044004400520019009F45182A0B00C945F1
:104D90000D8C45004400490054002D005000410096
:104DA000540048002D00420055004600E7440D0025
:104DB0000B00DD450D8C45004400490054002D00DA
:104DC00043004C00490050002D00420055004600B1
:104DD00012450D000B00EF450A484500440049000C
:104DE00054002D0050004100540048002400EC45C0
:104DF000D1440D000B0001460A4245004400490021
:104E000054002D00500041005400480021001800BB
:104E1000D1440C00EC451900D4070B00114609429F
:104E200045004400490054002D004D005300470048
:104E30002100BC440C000B0024460C9C450044009F
:104E4000490054002D004300550052002D004C0035
:104E500045004E000B440D00B3450B0032460DA437
:104E600045004400490054002D0043005500520005
:104E70002D0041004400440052000B440D009F45AA
:104E80000B0044460FA845004400490054002D0083
:104E90004C0049004E0045002D0043004F005500D6
:104EA0004E0054002D440D000B00574609424500AA
:104EB0004400490054002D0043004F004C002100E5
:104EC00018005F440C0070440C000B006B460F8A06
:104ED00045004400490054002D0043004C004500AB
:104EE000410052002D004C0049004E0045000400D6
:104EF00000001A0076450C0017000B007C4608865F
:104F0000450044002D0041004C004C004F00430080
:104F1000D9430D0076050800A94618000D00D943B5
:104F20000C000900BD46B6430D0018004C42182A7B
:104F3000C8430D001900BA050800B8461700040060
:104F400000000B0018004C42182AB6430C00180051
:104F5000040000001A000C00190017001800654535
:104F60000400000019000C00180076450400000041
:104F700019000C0018008B450400000019000C00FB
:104F80000B0094460E8A45004400490054002D0051
:104F900046005200450045002D004C0049004E00DF
:104FA0004500D9430D001A000C00D9430C000B003A
:104FB000D7460FA445004400490054002D004C0082
:104FC00049004E004B002D004100460054004500B2
:104FD00052001D450C0028450C001D450D000D001C
:104FE00028450D000C001D450D0028450D006545A8
:104FF0000C0028450D000D00760508001C472845CB
:105000000D00190065450C00090020471D450D00E5
:10501000FB430C001D450D0028450D000C000B0046
:10502000EE460B9645004400490054002D00550003
:105030004E004C0049004E004B0018000D001D456D
:105040000C00180065450D0028450C0028450D0092
:10505000080047471D450D0028450D000C000900BC
:105060004B471D450D00EA430C001D450D0008008F
:10507000574728450D001D450D0065450C000900EA
:105080005B4728450D00FB430C000B00264711A48D
:1050900045004400490054002D00520045005300D3
:1050A000450054002D0042005500460046004500D2
:1050B000520004000000D9430C00A5430D00B64384
:1050C0000C000400000085440C0004000000BC44F7
:1050D0000C00040000005F440C0004000000704459
:1050E0000C0004000000FC440C009E461800230045
:1050F000080095471700DF42BC440C000B00180065
:10510000EA430C001800FB430C0018000B440C0091
:1051100018001B440C001700040001002D440C0073
:10512000040001003E440C00040001004F440C0048
:105130000B005C4709A845004400490054002D00BD
:1051400049004E0049005400A5030D0094430C0093
:10515000A5030D001800E7440C008643182A180028
:1051600012450C003A42182A1800A5430C001800FA
:10517000B6430C006042182AC8430C00C8430D0017
:10518000A5030C000400010098440C00B842BC4484
:105190000C0004000000D1440C006F470B00AF4727
:1051A000098A45004400490054002D0044004F0086
:1051B0004E00450094430D00A5030C00E72EC32EBE
:1051C0000B00E5470D9C45004400490054002D00AC
:1051D0005400520049004D002D004C0045004E0087
:1051E0001800B3451D450C001D450D00080026485C
:1051F00018009F451D450D002500182A0F00DC06EC
:10520000F129080020481D450D0025001D450C0012
:105210000900244817001D450D000B0009000A482D
:105220001700040000000B00F7470FA445004400DE
:10523000490054002D0045005800540045004E0020
:1052400044002D0043005500520018003A42042A41
:10525000080047481700F142BC440C00040000005D
:105260000B00180040460B2A0800504817000400A5
:10527000FFFF0B0018001D450C00404628450C00A0
:105280000B440D009F4528450D00182A1D450D00B3
:1052900028450D00EC29DC06F5071D450D000B44E3
:1052A0000D0076450C0017000400FFFF0B002A4894
:1052B000138A45004400490054002D0045004E006B
:1052C00053005500520045002D0056004900530080
:1052D000490042004C0045003E440D004F440D0083
:1052E000CA05080096481B440D0065450D001B4487
:1052F0000C004F440D0025004F440C00090082486B
:105300003E440D004F440D008042182A122A080026
:10531000AB481B440D000D001B440C004F440D0016
:1053200024004F440C00090096480B006D480CA067
:1053300045004400490054002D004D004F00560028
:1053400045002D00550050000B440D0065450D0033
:1053500076050800CD480B440C003E440D002500A6
:105360003E440C0070440D005F440C0082480B006A
:10537000AC480E9C45004400490054002D004D00EF
:105380004F00560045002D0044004F0057004E00CE
:105390000B440D000D0076050800F0480B440C008E
:1053A0003E440D0024003E440C0070440D005F4458
:1053B0000C0082480B00CE480EA84500440049006E
:1053C00054002D004D004F00560045002D004C00AC
:1053D0004500460054005F440D0008000E495F443C
:1053E0000D0025005F440C005F440D0070440C006C
:1053F0000B00F1480FA845004400490054002D005F
:105400004D004F00560045002D0052004900470056
:10541000480054005F440D00240018005F440C0055
:1054200070440C000B000F490E8A450044004900EF
:1054300054002D004D004F00560045002D0048003F
:105440004F004D0045000400000076460B0029493E
:105450000D8845004400490054002D004D004F00C8
:10546000560045002D0045004E004400404676465B
:105470000B003D490CA045004400490054002D009C
:1054800050004100470045002D0055005000040029
:1054900000001D450C001D450D008042CA05080096
:1054A0006F49BA481D450D0024001D450C00090038
:1054B00061490B004F490E9C4500440049005400CF
:1054C0002D0050004100470045002D0044004F00D2
:1054D00057004E00040000001D450C001D450D0046
:1054E0008042CA0508009249DE481D450D0024008F
:1054F0001D450C00090084490B00704911884500C6
:105500004400490054002D005300450054002D0074
:105510004D004F004400490046004900450044004A
:105520000400FFFF85440C00B842BC440C000B0093
:10553000934913A445004400490054002D004F0036
:1055400056004500520057005200490054004500E3
:105550002D0043004800410052005F440D0024002C
:105560003B4823000800CC4917000B005F440D00A6
:105570000B440D00D9450E005F440D002400764613
:10558000A6490B00AE4910A4450044004900540050
:105590002D0049004E0053004500520054002D00DC
:1055A00043004800410052005F440D0033450C00A9
:1055B00040463E450C0033450D003E450D00122A85
:1055C0000800094A33450D0024003B482300080029
:1055D000014A17000B005F440D000B440D00D94534
:1055E0000E000900264A3E450D0024003B482300DA
:1055F0000800124A17000B0033450D000B440D0044
:10560000D9451800240019003E450D0033450D0012
:10561000EC2949285F440D000B440D00D9450E00CC
:105620005F440D0024007646A6490B00D8490EA819
:1056300045004400490054002D004A004F00490035
:105640004E002D004E004500580054000B440D0044
:105650000D00760523000800454A17000B001800CE
:105660001D450C00404628450C001D450D00B34566
:1056700033450C0028450D0033450D00182A3A42E9
:10568000042A08005D4AF142BC440C000B001D4591
:105690000D009F450B440D009F4528450D00182A1D
:1056A00033450D00D40728450D0033450D00182A59
:1056B0000B440D0076450C001D450D0033471D457C
:1056C0000D00E7462D440D0025002D440C00A64991
:1056D0000B002C4A10A445004400490054002D0042
:1056E000440045004C004500540045002D00430097
:1056F0004800410052005F440D001D450C0040462B
:1057000028450C001D450D0028450D00CA05080060
:10571000BA4A0B440D001D450D002400D9450B4429
:105720000D001D450D00D94528450D001D450D00F6
:10573000EC292500D40728450D0025000B440D0059
:1057400076450C00A6490B001D450D0028450D00AF
:10575000F1290800C24A3C4A0B007F4A0F8A4500E3
:105760004400490054002D00530050004C004900F3
:1057700054002D004C0049004E0045009E46180084
:1057800023000800DE4A1700DF42BC440C000B0077
:1057900018001D450C000B440D0028450C005F440B
:1057A0000D0033450C0028450D00B3453E450C0067
:1057B00033450D003E450D00CA050800124B3E451D
:1057C0000D0033450D00EC2918001D450D007645F0
:1057D0000C0028450D009F4533450D00182A1D4536
:1057E0000D009F458105D40733450D0028450D0068
:1057F00076450C000900184B040000001D450D0003
:1058000076450C001D450D0028450D00FF462D4432
:105810000D0024002D440C001D450D000B440C0010
:105820003E440D0024003E440C0004000000764677
:105830008248A6490B00C34A0E8A4500440049002D
:1058400054002D004200410043004B005300500023
:105850004100430045005F440D00230008005E4BFB
:105860000B440D0065450D00760508005D4B1800E2
:10587000B3451D450C000B440C003E440D002500B3
:105880003E440C001D450D0076463C4A82480B0004
:105890005F440D00250018005F440C0070440C00AC
:1058A0005F440D004046122A08006D4B0B00914AE0
:1058B0000B00314B108A45004400490054002D0074
:1058C000440045004C004500540045002D004C00AC
:1058D00049004E0045002D440D0004000100F1294F
:1058E0000800904B0B440D008D46040000007646E6
:1058F000A6490B000B440D001D450C001D450D0075
:105900000D00760508009F4B18000B440C000900A1
:10591000AB4B1D450D0065450D0018000B440C00F8
:105920003E440D0025003E440C001D450D001B4467
:105930000D00F1290800BA4B0B440D001B440C006C
:105940003E440D004F440C001D450D0033471D45DE
:105950000D00E7462D440D0025002D440C00404667
:105960005F440D00E60576468248A6490B006F4B62
:105970000E8A45004400490054002D0043004F00AA
:10598000500059002D004C0049004E0045000B44CA
:105990000D00B3451800FC440C000B440D009F455E
:1059A000FE458105D407B842BC440C000B00CD4B2A
:1059B0000F8A45004400490054002D00500041006A
:1059C0005300540045002D004C0049004E00450096
:1059D0009E46180023000800084C1700DF42BC4414
:1059E0000C000B0018001D450C00FC440D001800B5
:1059F0001D450D0076450C00FE451D450D009F45DB
:105A00008105D4071D450D000B440D00FF461D45C3
:105A10000D000B440C002D440D0024002D440C00FF
:105A20003E440D0024003E440C0004000000764675
:105A30008248A6490B00ED4B08AE450044004900E2
:105A400054002D004E00450057006F473943BC44B9
:105A50000C000B00314C09884500440049005400FB
:105A60002D004C004F00410044001D466F470D467D
:105A7000C813E61318000800594C19001700034317
:105A8000BC440C000B0017001400EA430D0028452D
:105A90000C000400FFFF33450C005E073A42130080
:105AA000101418000800764C170017001700120099
:105AB000031417001543BC440C00040001000B0044
:105AC00017000800AD4C33450D00230008009C4C26
:105AD0009E461800230008008D4C17001200031486
:105AE0001700DF42BC440C00040002000B00180049
:105AF000FB430D00FF46180028450C002D440D0007
:105B000024002D440C0017000900A04C04000000E4
:105B100033450C00180028450D0076450C005E0743
:105B200028450D009F458105D4070900634C1700E7
:105B3000120003141700EA430D000B440C00EA4363
:105B40000D001B440C00040001003E440C00040046
:105B500001004F440C0004000000764604000000E1
:105B600085440C00B842BC440C00040000000B004B
:105B7000404C098A45004400490054002D00530060
:105B8000410056004500D1440D0023000800E44CBC
:105B90004B43BC440C00040001000B000D466C1488
:105BA00017000D46D813F51318000800F34C190020
:105BB00017002843BC440C000B0017003E450C00A6
:105BC000EA430D0018000800194D18000648180097
:105BD00028450C001A009F4528450D003E450D0044
:105BE0001E1418000800154D17003E450D00031443
:105BF00017002843BC440C00040001000B001700F0
:105C00000D000900F84C17003E450D005D1417000B
:105C10003E450D00031417000400000085440C00ED
:105C2000CB42BC440C00040000000B00CE4C098E9B
:105C300045004400490054002D002E004D00530043
:105C40004700BC440D001800CB42F1290800484D24
:105C500017000F0D0600200053006100760065005C
:105C600064000B001800DF42F12908005D4D1700A9
:105C70000F0D0C00200042007500660066006500F4
:105C800072002000660075006C006C000B001800AC
:105C9000F142F1290800744D17000F0D0E0020008D
:105CA0004C0069006E006500200074006F006F00FA
:105CB00020006C006F006E0067000B0018000343AB
:105CC000F1290800894D17000F0D0C0020004F002E
:105CD000700065006E0020006600610069006C00C5
:105CE000650064000B0018001543F12908009E4D63
:105CF00017000F0D0C0020005200650061006400C9
:105D000020006600610069006C00650064000B0003
:105D100018002843F1290800B44D17000F0D0D009D
:105D200020005700720069007400650020006600C2
:105D3000610069006C00650064000B0018003943C5
:105D4000F1290800C84D17000F0D0B0020004E0070
:105D5000650077002000620075006600660065003F
:105D600072000B0018004B43F1290800DD4D1700AD
:105D70000F0D0C0020004E006F002000660069002F
:105D80006C0065006E0061006D0065000B0018007E
:105D90005E43F1290800F14D17000F0D0B002000A4
:105DA0004E006F007400200069006E0020004D005E
:105DB000560050000B0017000B002C4D0DAE450097
:105DC0004400490054002D00440052004100570097
:105DD0002D0052004F0057001D450C0028450C00B7
:105DE000040001001D450D00482E982E28450D0089
:105DF00076050800324E28450D00B3457042E60591
:105E000033450C00040000003E450C003E450D00EB
:105E100033450D00CA050800324E28450D009F4548
:105E20003E450D00182A0F00620B3E450D00240070
:105E30003E450C0009001C4E0B00F34D0EA845001A
:105E40004400490054002D00440052004100570016
:105E50002D0054004500580054001B440D001D4502
:105E60000C000400010028450C0028450D0080426C
:105E70000B2A0800664E1D450D0028450D00024EF8
:105E80001D450D0008005F4E1D450D000D001D4510
:105E90000C0028450D00240028450C0009004B4E3D
:105EA0000B00334E10A645004400490054002D005D
:105EB00044005200410057002D005300540041009F
:105EC000540055005300372F040001009442482E1F
:105ED000982E0D46B30B85440D0008008B4E0F0D18
:105EE000020020002A0009008F4E0F0D0200200042
:105EF0002D000F0D040020004C006E0020003E44D9
:105F00000D00302E0F0D0500200043006F006C00C7
:105F100020005F440D002400302E98440D0008003E
:105F2000AF4E0F0D0400200049004E005300090041
:105F3000B54E0F0D040020004F0056005200374DA3
:105F4000E72E0B00674E0EA04500440049005400A8
:105F50002D0044005200410057002D00480045002C
:105F60004C00500004000100A642482E982EE72E57
:105F70000F0D010031009230192E2331042E0F0D28
:105F80000600200020002000200020002000E72E36
:105F90000F0D010032009230192E2331042E0F0D07
:105FA0000600530061007600650020002000E72E07
:105FB0000F0D010033009230192E2331042E0F0DE6
:105FC0000600200020002000200020002000E72EF6
:105FD0000F0D010034009230192E2331042E0F0DC5
:105FE00006004E0065007700200020002000E72E0C
:105FF0000F0D010035009230192E2331042E0F0DA4
:10600000060043006F007000790020002000E72E9A
:106010000F0D010036009230192E2331042E0F0D82
:106020000600200020002000200020002000E72E95
:106030000F0D010037009230192E2331042E0F0D61
:106040000600500061007300740065002000E72E18
:106050000F0D010038009230192E2331042E0F0D40
:106060000600440065006C004C006E002000E72E26
:106070000F0D010039009230192E2331042E0F0D1F
:106080000600200020002000200020002000E72E35
:106090000F0D0200310030009230192E2331042EF2
:1060A0000F0D0600450078006900740020002000F4
:1060B000E72E0B00B84E11A44500440049005400DF
:1060C0002D0050004C004100430045002D004300CE
:1060D0005500520053004F0052003E440D004F4403
:1060E0000D00EC29240004000100DA058042E605D9
:1060F0001D450C005F440D00240004000100DA057A
:106100007042E60528450C0028450D001D450D0090
:10611000482E0B00704F0BAE450044004900540060
:106120002D00520045004400520041005700D72E78
:10613000892E582E434E794EC84E834FC32E0B00E6
:10614000A04F158A45004400490054002D00480026
:1061500041004E0044004C0045002D00500052000C
:1061600049004E005400410042004C004500180018
:106170000400200004007F00F6050800DE4F98446C
:106180000D000800DC4FEA490900DD4FC3490B0050
:1061900017000B00B64F10A44500440049005400FE
:1061A0002D00480041004E0044004C0045002D00E9
:1061B0004300480041005200180004000800F12983
:1061C0000800FB4F1700414B0B00180004007F0034
:1061D000F129080004501700414B0B00180004007F
:1061E0000D00F12908000D501700D44A0B001800CB
:1061F00004000A00F129080016501700D44A0B00C9
:10620000180004000900F129080022501700DC06DC
:10621000CD4FDC06CD4F0B00CD4F0B00E04F10B241
:1062200045004400490054002D00480041004E0044
:1062300044004C0045002D0045004B00450059002E
:106240001800710AF12908003E50170001490B009F
:1062500018007F0AF12908004650170020490B005A
:106260001800570AF12908004E501700BA480B00D1
:106270001800640AF129080056501700DE480B0088
:1062800018008C0AF12908005E50170039490B00EC
:106290001800980AF1290800665017004C490B00B5
:1062A0001800A50AF12908006E5017005D490B007F
:1062B0001800B20AF12908007650170080490B0037
:1062C0001800DC0AF12908007E501700414B0B0032
:1062D0001800CA0AF129080086501700914A0B00DD
:1062E0001800EA0AF12908008E501700D44A0B0062
:1062F0001800BE0AF12908009A50170098440D00B2
:10630000230098440C000B001800000BF129080032
:10631000A3501700D94C17000B001800160BF129D9
:106320000800AB5017003B4C0B001800210BF12963
:106330000800B3501700DD4B0B001800370BF12994
:106340000800BB501700FE4B0B001800420BF12950
:106350000800C3501700814B0B001800590BF1299E
:106360000800CE50170004000000AC440C000B00E5
:1063700017005E43BC440C000B0024500FA84500DE
:106380004400490054002D005700410049005400CA
:106390002D0049004E005000550054002A0A080004
:1063A000E95036500B00070A0800EE50F24F0B0080
:1063B0000900E4500B00D350089C450044004900FC
:1063C00054002D00520055004E000400FFFFAC4465
:1063D0000C00AC440D0008000751AD4FE45009001B
:1063E000FF50E72EC32E892E582E0B00F15004A823
:1063F0004500440049005400BA47DF294B4C1800BF
:1064000008001A51F0470B001700FB50F04704003A
:1064100000000B00AE2F08A84E00450057002D00CD
:106420004500440049005400BA471D463B4CFB5010
:10643000F0470B000000000000000000000000001A
:10644000000000000000000000000000000000004C
:10645000000000000000000000000000000000003C
:10646000000000000000000000000000000000002C
:10647000000000000000000000000000000000001C
:1081D0000000000058004F0052001E000000030085
:1081E00055004D002B001F00000003003C003C0028
:1081F00034002000000003003C003C003800210057
:10820000000003003C003C00390022000000020096
:1082100030003D0023000000020031002B0024004C
:108220000000020031002D00250000000200320095
:108230002B0026000000020032002D002700000065
:10824000050048004F00500045004E002800000087
:10825000070048004300520045004100540045001B
:10826000290000000600480043004C004F00530066
:1082700045002A0000000700480052004500410068
:1082800044004C004E002B0000000800480057003E
:1082900052004900540045004C004E002C000000E4
:1082A000050048005300450045004B002D0000002C
:1082B00005004800540045004C004C002E00000012
:1082C00005004800530049005A0045002F000000F7
:1082D0000600480046004C0055005300480030009E
:1082E000000007004800440045004C0045005400D1
:1082F00045003100000007004800520045004E00D4
:1083000041004D0045003200000009004D005500BD
:108310004C005F00530045005400550050003300EE
:1083200000000C004D0055004C005F00530054004D
:10833000450050005F00410043004300340000004E
:1083400003004E004F0054003500000003005300AE
:10835000550042003600000006004E004500470070
:1083600041005400450037000000030049004E0062
:10837000430038000000030044004500430039007A
:10838000000004005A00450052004F003A0000006F
:10839000020055002B003B000000020032002A00C2
:1083A0003C00000000000000457E500052004900E3
:1083B0004D003F001800A2020C001800C1060F007B
:1083C000EC030C00170004003C1F18000F0008000D
:1083D00029211800C1060F00EC030D001E00080043
:1083E0000D213E07182AC106C1060900FB20A20282
:1083F0000D00190018000F00D20F08001D211900F0
:1084000017003E07182AC106C1060900FB20190003
:1084100017003E07182A18000D001900C1060D00AC
:108420000400FFFF0B001700A2020D000400000073
:108430000B0003003F00720078000200030074008C
:10844000780021000300010021000C000100400021
:108450000D000200430021000E0002004300400016
:108460000F000300520050002100100003005200D2
:10847000500040001100020052003E0012000200B5
:1084800052004000130002003E005200140003009E
:10849000530050004000150003005300500021001D
:1084A00016000400440052004F0050001700030063
:1084B00044005500500018000400530057004100CC
:1084C0005000190004004F005600450052001A00E9
:1084D000020030003C001B00030041004E0044003D
:1084E0001C0002004F0052001D00030058004F0006
:1084F00052001E00030055004D002B001F0002001B
:1085000030003D002300020031002B002400020057
:1085100031002D002500020032002B002600020051
:1085200032002D002700050048004F005000450094
:108530004E0028000700480043005200450041005B
:108540005400450029000600480043004C004F003D
:10855000530045002A000700480052004500410032
:1085600044004C004E002B00080048005700520009
:108570004900540045004C004E002C000500480006
:108580005300450045004B002D00050048005400F5
:1085900045004C004C002E000500480053004900E7
:1085A0005A0045002F000600480046004C005500C8
:1085B00053004800300007004800440045004C00CC
:1085C00045005400450031000700480052004500B6
:1085D0004E0041004D004500320009004D0055009D
:1085E0004C005F005300450054005500500033001C
:1085F0000C004D0055004C005F0053005400450036
:1086000050005F00410043004300340003004E006F
:108610004F0054003500030053005500420036005F
:1086200006004E0045004700410054004500370059
:10863000030049004E004300380003004400450099
:108640004300390004005A00450052004F003A0030
:10865000020055002B003B00020032002A003C00C3
:1086600000000000467E49005000520049004D00C5
:108670003F001800A2020C001800C1060F00EC0316
:108680000C00170004002F2118000F0008008222A0
:108690001800C1060F00EC030D001E0008006B223D
:1086A0003E07182AC10609005A2218000F001400BC
:1086B000A2020D00C1061A00C1061200F70F080041
:1086C0007D223E07182A0D000400FFFF0B003E0725
:1086D000182AC10609005A221700A2020D00040040
:1086E00000000B000000488A240043004F004D00AA
:1086F000500049004C004500CB1208009D22510952
:1087000008009D2204000400C729C7290B00E811B6
:1087100076050800B92218000D001800040080003A
:108720001C000800AD221700170014000B00040005
:1087300020001C000800B62217000D00C7290B00FE
:108740001700C7290B0051090800C12204000400CA
:10875000C729C7290B00B41200004A5849004E002F
:1087600054004500520050005200450054002C00B7
:10877000CB120800D62251090800D62298070B0018
:10878000E81176050800232318000D0004004000BE
:108790001C0098180D00200063006F006D00700031
:1087A00069006C00650020006F006E006C007900AD
:1087B0001A00040066161E00080020231A00040098
:1087C000262A1E00080020231A0004007A241E0016
:1087D000080020231A0004007F251E000800202323
:1087E0001A00040090251E00080020231A0004002F
:1087F00049271E000800202318000D000400200057
:108800001C0008001D2317000D0086070B00170031
:1088100086070B00170014000B00B41200004698E6
:10882000520045005600450041004C00C9030D00B0
:1088300018001400AB0FC1060F009B030D00C90FF9
:108840008E0F76050800422318000D0013000C005F
:10885000120019000C000B00120017000B00371754
:10886000898A49004D004D004500440049004100FF
:108870005400450004008000C9030D00C106180023
:108880000D0081051D0019000C000B00171E078A42
:1088900050005200490056004100540045000400B9
:1088A0000001C9030D00C10618000D0081051D005F
:1088B00019000C000B00951E0CB243004F004D0038
:1088C000500049004C0045002D004F004E004C0068
:1088D000590004004000C9030D00C10618000D0036
:1088E00081051D0019000C000B00EF0F06A44D00C0
:1088F000410052004B004500520031030D000800BA
:10890000BA23981820004D00410052004B0045004A
:108910005200200063006F006D00700069006C0061
:1089200065002D0073007400610074006500200074
:1089300075006E0073007500700070006F007200AB
:10894000740065006400B412C9030D00A2020C009B
:108950004C07AE020C001D0F0D1F7D03DB1E7D03B7
:10896000C106DB1E7D03C106C106DB1E8C03DB1EB8
:108970008C03C106DB1E8C03C106C106DB1E8C0303
:10898000C106C106C106DB1E8C03C106C106C106B5
:10899000C106DB1E8C03C106C106C106C106C106A5
:1089A000DB1E8C03C106C106C106C106C106C10695
:1089B000DB1E8C03C106C106C106C106C106C10685
:1089C000C106DB1E8C03C106C106C106C106C10675
:1089D000C106C106C106DB1E9B03DB1E9B03C1064D
:1089E000DB1EA2020D00C903F71EAE020D00A50397
:1089F000F71E04000400C729AE020D00C7290400B9
:108A00005918C729A5030D00591804000B00C729E0
:108A10002C230B00061706A846004F005200470003
:108A20004500540031030D0008004F249818200021
:108A300046004F00520047004500540020006300EC
:108A40006F006D00700069006C0065002D00730000
:108A50007400610074006500200075006E007300F2
:108A60007500700070006F00720074006500640093
:108A7000B4121D0F9B030D00B91176050800732475
:108A800014008D051200180004000080BA050800CB
:108A90006B2498180900700072006F007400650064
:108AA0006300740065006400B412B80F1800A503D9
:108AB0000C009B030D003D180B00B412D21804A447
:108AC00055005300450052001D0F0D1FB316AE0494
:108AD000C7292C230B0000000AB256004F004300A8
:108AE0004100420055004C004100520059001D0F4A
:108AF0000D1F4C0704000300182A1800A2020C00E6
:108B00001700B3164C05A2020D00C72904000B0084
:108B1000C729A2020D0004000300182AC729040077
:108B20000000C72904000000C729A2020D000400AC
:108B30000300182A180004005F0099169B177D0394
:108B4000C1060D00A2020D00C1060C00A2020D001C
:108B50007D03C1060C002C230B005F140BA6440000
:108B60004500460049004E004900540049004F00AE
:108B70004E0053008C030D00C90F9B03C1060C006F
:108B80009B03C1069B030C000B008B23068A4D0040
:108B90004F00440055004C00450031030D00080013
:108BA0000A25981820004D004F00440055004C0045
:108BB0004500200063006F006D00700069006C00CC
:108BC00065002D00730074006100740065002000D2
:108BD00075006E0073007500700070006F00720009
:108BE000740065006400B412C3040D00D8040D00C5
:108BF0001D000800212598180D006D006F0064000D
:108C000075006C006500200061006300740069005D
:108C100076006500B412AA140400FFFFC3040C0020
:108C200004000000D8040C000B00461B0A8A450013
:108C30004E0044002D004D004F00440055004C00F4
:108C4000450031030D0008006225981824004500F6
:108C50004E0044002D004D004F00440055004C00D4
:108C60004500200063006F006D00700069006C001B
:108C700065002D0073007400610074006500200021
:108C800075006E0073007500700070006F00720058
:108C9000740065006400B412C3040D00D8040D0014
:108CA0001D0008006B25D6150B00981809006E00F2
:108CB0006F0020006D006F00640075006C0065009F
:108CC000B4127123068A430052004500410054004B
:108CD00045001D0F0D1F04000600C7292C230B00A3
:108CE0008124088A56004100520049004100420098
:108CF0004C0045007F2504000000C7290B00000040
:108D0000508A4D004F00440055004C0045002D0096
:108D100053004B00490050002D004C0049004E000C
:108D200045001D0FE8110800B125040037251E007D
:108D30000800B3250B0017000B00D6152C130B00F1
:108D40008616058A5F00540059005000450009004E
:108D5000CB25190018000F00E606620B0400010085
:108D6000182A19000400FFFF182A18000800D0254F
:108D70000900BF258D050B00EC0C035664006D0047
:108D80002B001A00040004000009850B37001400B2
:108D90000900E82518000F00040003000009040082
:108DA0000100182A0700E025120017000B00C32459
:108DB00004A0440055004D00500087020D0014002F
:108DC000C40804001000E52937001400CB0B040090
:108DD0001000DF29D7258105810504000200AA0BB8
:108DE000BD256A0B3500080011260700FC2512007E
:108DF000170009001326120017001700120087023F
:108E00000C000B00A71802A62E005300CB0BFB068C
:108E1000760508003A2604000100182A37001400DD
:108E200009002F261300370004000100EC29090770
:108E3000170907002826120017000F0D0400200054
:108E40003C00730070000B00090033261826058AC9
:108E50002E00420041005300450087020D00D20859
:108E60001800170987020C000B003C26058A2E000B
:108E7000460052004500450005020D00A5030D0007
:108E8000EC290E090B00000004A021004300530050
:108E90005000150024030C000B00DC1804A03F0058
:108EA000430053005000150024030D001E009818C5
:108EB000110073007400610063006B002000640007
:108EC0006500700074006800200065007200720088
:108ED0006F0072000B0000004E86580054003E00E8
:108EE0004E0041004D0045002D0049004E002D0070
:108EF00056004F0043001900A2020C00C90F76056E
:108F00000800C12604005F003700140018000D009F
:108F10009A040C009A040D0018000800BA261800E4
:108F20007C0FA2020D001E000800B1260D009A045D
:108F30000C000900A02617009A040D00AB0F1900C1
:108F40001700120017000B001700C10607009C262F
:108F5000120017001700040000000B000000058A33
:108F60003E004E0041004D0045007D031800080002
:108F7000E0261A001A00912676050800DA26190064
:108F80001700190017000B0019001700C1060D008B
:108F90000900CC261700040000000B000000068A20
:108FA00050003E004E0041004D00450004003C1FB3
:108FB00018000F0008000227DF293E07182A0D00BD
:108FC0001E000800FF263E07182AC106C106090038
:108FD000EE26190017000B00190017000B00000007
:108FE00005A650003E004F005000530004003C1FF7
:108FF00018000F0008002627DF293E07182A0D0059
:109000001E0008001F273E07182AC106C1060900D6
:109010000E27190017003E07182AC1060D000B0085
:1090200019001700040000000B004B2603882E00D7
:10903000490044007605080039273E0704001F0058
:109040001C00BD250B000F0D08007B006E006F009B
:109050004E0061006D0065007D000B00781C038AE6
:109060005300450045001D0FE81118000800912726
:109070001700CB0B18000D001800A2020C001800FE
:1090800004000002BA0508005E27EC2609005F27ED
:10909000CB26760508006627850B30270900672751
:1090A0000E09A2020D0004000002BA0508008B2779
:1090B000A2020D0004000B001E0008008F27A20270
:1090C0000D000C27760508008B2717006A0B080097
:1090D000812709008F27C10618000D000E09C1065F
:1090E0006A0B0800502709008F27C1066A0B080089
:1090F000502717000B00B4127D1705A657004F002C
:10910000520044005300CB0B8C030D00C90F7605B1
:109110000800E22704005F003700140018000D006B
:109120009A040C009A040D0018000800DB27AB0F0E
:1091300018000D00040040001C000800BD271700A7
:109140009A040D000D009A040C000900A8271800CD
:109150000D00040000011C000800CC2717009A0431
:109160000D000D009A040C000900A8271800850BBB
:10917000302717009A040D000D009A040C006A0BAA
:109180000800A827170017000B001700C1060700EA
:10919000A4271200170017000B00862503A4560011
:1091A00045005200040000040B00000002D26800D9
:1091B0006900CB0B0F0D11005000440052002D0030
:1091C00031003600200046006F0072007400680015
:1091D0002000760034002E003000CB0B0F0D1F0056
:1091E000640065007200690076006500640020007C
:1091F000660072006F006D002000650046006F0081
:1092000072007400680020006200790020004300B2
:109210002E0048002E00540069006E006700CB0B42
:109220000B002B2505B245004D005000540059009D
:1092300004000080A5030C0004002051C9030C00A9
:10924000040000007D03C1060C00040000805918D2
:109250006A05D0240B007725067C43004D004F00A3
:10926000560045003E0018000800622814001A004D
:109270001300182A04000100EC291A001300182A10
:1092800004000100EC290F0019000E001200040078
:10929000FFFF182A0900492817008D050B00DB2461
:1092A000048A4D004F0056004500DF2917001900C1
:1092B000BA0508007328D4070B0049280B00412881
:1092C000048843004F004C00440004007FF916005E
:1092D00004007FFE100004000200040080FE040071
:1092E0003402D4070400E2FE7D030C0004000000F9
:1092F0007D03C1060C007213EF2704002051C9033F
:109300000C006A05D0242C1304007FF916001D16EA
:1093100009007B28632623F03F00720078000200DA
:109320000B009D02234274007800210003000B0013
:10933000272824A845005800490054000B000B00C2
:109340005926214221000C000B0000002180400022
:109350000D000B0075282242430021000E000B0077
:10936000C0282280430040000F000B00B21B2342A4
:1093700052005000210010000B00CC282380520026
:109380005000400011000B00D328227C52003E0008
:1093900012000B00DA2822805200400013000B005C
:1093A000D70822A43E00520014000B00442723805B
:1093B00053005000400015000B00EC2823425300DE
:1093C0005000210016000B00ED2524A0440052009F
:1093D0004F00500017000B00FA2823A0440055004E
:1093E000500018000B00F32824A053005700410040
:1093F000500019000B00DB1324A44F005600450059
:1094000052001A000B000000227830003C001B00C4
:109410000B00D11D238841004E0044001C000B00AE
:10942000112922A44F0052001D000B00000023A4AC
:1094300058004F0052001E000B00742423565500A4
:109440004D002B001F000B006E0823683C003C0001
:10945000340020000B003A2923703C003C00380007
:1094600021000B00412923723C003C0039002200FE
:109470000B001929227A30003D0023000B00000068
:10948000225631002B0024000B005529225A3100AE
:109490002D0025000B002A07225632002B00260043
:1094A0000B006129225A32002D0027000B0065288D
:1094B00029A04D0055004C005F00530045005400AA
:1094C0005500500033000B006D292C864D005500CF
:1094D0004C005F0053005400450050005F00410005
:1094E0004300430034000B00111723A84E004F0027
:1094F000540035000B000929238453005500420015
:1095000036000B008A29268A4E004500470041009C
:109510005400450037000B004523238649004E00C8
:10952000430038000B000229238644004500430015
:1095300039000B000000249E5A00450052004F00E5
:109540003A000B003329225655002B003B000B003C
:109550006729225432002A003C000B000000015809
:109560002C004C071800C106A5030C000C000B00D2
:109570001F2903A641004200530018001B000800E9
:10958000D82937000B00BE2904A032004400550042
:1095900050001A001A000B005806015E2F005E06EC
:1095A000190017000B000608015A2D0036000B00A9
:1095B0000000017A3D001E000800F72904000000A9
:1095C0000B000400FFFF0B004829027C3C003E001A
:1095D000F12935000B00E628017C3E001900CA0580
:1095E0000B00FA29027A3C003D00042A35000B00EA
:1095F000012A027A3E003D00CA0535000B00110722
:1096000001562B003B000B000000C1763B0004001C
:109610000B00C72956162C230B00000001743A00DA
:109620001D0F0D1F5E160B00C628025843002C00AC
:109630004C071800C106A5030C000E000B00A22960
:10964000099049004D0047002D0057004900440093
:10965000540048000D000B00352A0AA849004D00AF
:1096600047002D00480045004900470048005400CD
:10967000C1060D000B00422A088249004D00470038
:109680002D00440041005400410004000200182A4B
:109690000B00512A844449004D0047002200680411
:1096A0000C0004002200E30EDF29190017006804F3
:1096B0000D000400070086061E000800762A520CE2
:1096C000DF29700C4C071400DF29190012008105F6
:1096D000D407991617000B00AE280A8A45004D00E2
:1096E000490054002D0049004D004100470045004D
:1096F00018006C3174040C0018007A31190087319D
:10970000190018000800A52A190074040D00DF0CC8
:10971000CB0B190004000100EC290900972A8D05E4
:10972000940C0B00822A038645005300430004007A
:109730001B00620B0B002A2A0392430053004900CE
:10974000AD2A0F0D01005B000B0000000A60430012
:109750004F004C004F0052003E00440031003000EA
:10976000300006003100310031003000320031009D
:10977000310030003200320031003000320032005F
:109780003100310031003100310030003200310051
:10979000310030003200320031003000320032003F
:1097A000320031003100310031003100320031002F
:1097B000310031003200320031003100320032001D
:1097C0003200310031003100310030003100310011
:1097D0003100300031003100310030003100310003
:1097E00031003000310031003000300031003000F5
:1097F00030003000310030003000300031003000E7
:1098000030003000310031003000300031003000D5
:1098100030003000310030003000300031003000C6
:1098200030003000310031003000300031003000B5
:1098300030003000310030003000300031003000A6
:109840003000300031003100300030003100300095
:109850003000300031003000300030003100300086
:109860003000300031003100300030003100300075
:109870003000300031003000300030003100300066
:109880003000300031003100300030003100310054
:109890003000300031003100300030003100310044
:1098A0003000300031003100310030003200310032
:1098B000310030003200320031003000320032001E
:1098C000320031003100310031003000320031000F
:1098D00031003000320032003100300032003200FE
:1098E00031003100300030003000300030003000F6
:1098F00030003000300030003000300030003000E8
:1099000030003000300030003000300030003000D7
:1099100030003000300030003000300030003000C7
:1099200030003000300030003000300030003000B7
:1099300030003000300030003000300030003000A7
:10994000300030003200320032003200320032008B
:109950003200320032003200320032003200320077
:10996000320032000000096043004F004C004F00FD
:1099700052003E004400310030000600380037003D
:109980003300380031003600360038003100300036
:10999000360038003100300039003200380038001D
:1099A000330039003200370037003900320031000F
:1099B0003700390032003100300033003800380001
:1099C00034003000320038003800300032003200FD
:1099D00038003000320032003200340038003500E8
:1099E00030003600390034003100360039003500CF
:1099F00031003600390035003100370035003100C4
:109A000037003200350037003400320035003800AE
:109A100034003200320038003400330035003100A9
:109A2000370032003500370034003200350038008E
:109A30003400320032003800340033003500310089
:109A4000370033003500380034003300350038006B
:109A50003400330032003800350033003500310067
:109A60003600320035003700330032003500370051
:109A70003300320031003700330032003400300050
:109A80003600310034003600320031003400360038
:109A9000320031003000360032003100380034002E
:109AA0003900350038003300390035003800330004
:109AB00039003500370033003900350038003700F1
:109AC00033003900310037003600390031003000F2
:109AD00036003900310030003000320038003700E5
:109AE00033003800310036003600380031003000D5
:109AF00036003800310030003900320031003100CA
:109B000031003100310031003100310031003100CD
:109B100031003100310031003100310031003100BD
:109B200031003100310031003100310031003100AD
:109B3000310031003100310031003100310031009D
:109B4000310031003100310031003100310031008D
:109B50003100310031003100310031003500350075
:109B60003500350034003400340034003400340053
:109B70003400330033003300330033000000086248
:109B800043004F004C004F0052003E0044003100A3
:109B90000600310034003100380037003700300053
:109BA0003800370033003000380030003300360012
:109BB0003400370030003700340033003900320001
:109BC00034003300350032003400320035003800F4
:109BD00030003700360033003000390035003400E3
:109BE00030003900370034003000380037003600CC
:109BF00032003700300037003400330039003200C3
:109C000034003300350032003400320035003800B3
:109C100030003100340031003800370037003000A8
:109C20003800370033003000380030003300360091
:109C3000340032003500320039003800390032007B
:109C40003900380035003200390032003500380064
:109C50003500320036003300300039003000340067
:109C60003000390037003400300033003700310055
:109C70003700320030003700340033003400320047
:109C80003400330035003200340037003500330033
:109C90003500360034003100380037003200300023
:109CA0003800370033003000380035003300310011
:109CB0003900320030003700340033003400320005
:109CC00034003300350032003400370035003300F3
:109CD00035003200360033003000390030003400E7
:109CE00030003900370034003000330037003100D5
:109CF00037003200350032003900380039003200B8
:109D000039003800350032003900320035003800A3
:109D10003500360036003600360036003600360094
:109D20003600360036003600360036003600360083
:109D30003600360036003600360036003600360073
:109D40003600360036003600360036003600360063
:109D50003600360036003600360036003600360053
:109D60003600360036003600360036003600360043
:109D7000360035003300320030003900370036003D
:109D80003400330031003000380037003500340033
:109D9000320000000680440049004700490054009A
:109DA00040001900182A0F000B000000078843002C
:109DB0004F004C004F0052003E0044001800DE2CC3
:109DC000E72D19001800D32BE72D1900C72AE72D1E
:109DD0000B0020240342460047002100B62A0F0D45
:109DE0000500330038003B0035003B00F42D620BCA
:109DF000620B620B04006D00620B0B00FD16034248
:109E0000420047002100B62A0F0D0500340038003B
:109E10003B0035003B00F42D620B620B620B04002B
:109E20006D00620B0B00CE29054641004E00530029
:109E30004900230072089208AA08B30B0B00B12A4C
:109E4000066643004C0041004D0050003300040002
:109E50000000DA0504000300E6050B00292E02A825
:109E600041005400B62A302E04003B00620B302E15
:109E700004004800620B0B009313048A48004F0053
:109E80004D004500B62A0F0D010048000B00912936
:109E90000BA453004100560045002D00430055001F
:109EA000520053004F005200B62A0F0D01007300FC
:109EB0000B00E0280EA452004500530054004F0050
:109EC000520045002D0043005500520053004F0042
:109ED0005200B62A0F0D010075000B00352E03A6A7
:109EE00043004C005300B62A0F0D020032004A0016
:109EF0000B00842E078A43004C002D004C004900C3
:109F00004E004500B62A0F0D020032004B000B0038
:109F10008F2E069843004C002D0045004F004C004A
:109F2000B62A0F0D01004B000B009E2E06A6430023
:109F30004C002D0045004F005300B62A0F0D0100C4
:109F40004A000B00AB2E099C430055005200530001
:109F50004F0052002D004F004E00B62A0F0D040096
:109F60003F003200350068000B00B82E0A8C430019
:109F70005500520053004F0052002D004F00460084
:109F80004600B62A0F0D04003F00320035006C0079
:109F90000B00982906984E004F0052004D004100DA
:109FA0004C00940C0B00142E048842004F004C000F
:109FB0004400B62A0F0D020031006D000B00A929E4
:109FC000039A440049004D00B62A0F0D02003200EA
:109FD0006D000B00E92E059642004C0049004E0032
:109FE0004B00B62A0F0D020035006D000B00B8299A
:109FF000079655004E0042004C0049004E004B00B1
:10A00000B62A0F0D0300320035006D000B000D2F36
:10A01000098A55004E004400450052004C0049009A
:10A020004E004500B62A0F0D020034006D000B00F3
:10A030006F2E078A5200450056004500520053001B
:10A040004500B62A0F0D020037006D000B00002FEF
:10A050000498420045004C004C0004000700620BCD
:10A060000B00522E0398480053004C0014000400CB
:10A07000040086061900040010008606182A120043
:10A08000182A0B00472F02804800400004001000EF
:10A09000E5290B005D2E02805300400004000400FF
:10A0A000E5290400040068060B007C1B02804C00BC
:10A0B00040000400040068060B00602F0590530068
:10A0C000450054002D0048001900040010006806E7
:10A0D0001900040010008606182A0B00732F05A62D
:10A0E0005300450054002D005300140018000400D4
:10A0F00004006806190004001000E529040010009F
:10A100008606182A1200040004008606182A0B008E
:10A11000842F05985300450054002D004C00190071
:10A1200004000400E529040004008606182A0B0038
:10A13000DF2E087E4E0045005500540052004100BD
:10A140004C003F005C2F04000F00F1290B00582F3A
:10A15000025648002B001800B82F0800C72F09002E
:10A16000D02F18005C2F04000100182A04000C00F6
:10A1700068067A2F0B00BD2F025A48002D001800E8
:10A18000B82F0800DB2F0900E42F18005C2F040013
:10A190000B00182A04000C0068067A2F0B009E2F73
:10A1A000025653002B001800642F04000100182AE7
:10A1B0003D2E8B2F0B00E52F025A53002D00180067
:10A1C000642F04000100EC293D2E8B2F0B006B2F18
:10A1D00002564C002B0018006F2F04000100182AB3
:10A1E0003D2EA52F0B00FD2F025A4C002D0018000C
:10A1F0006F2F04000100EC293D2EA52F0B00D12F5D
:10A200000788480053004C005F005200450044009E
:10A210000400000004000300040001004C2F0B00A8
:10A2200015300A8A480053004C005F004F0052006E
:10A2300041004E00470045000400010004000300F7
:10A24000040001004C2F0B0026300AAE48005300DA
:10A250004C005F00590045004C004C004F00570077
:10A260000400020004000300040001004C2F0B0056
:10A270003A300A9C480053004C005F0059004700E8
:10A280005200450045004E00040003000400030096
:10A29000040001004C2F0B004E30099C4800530075
:10A2A0004C005F0047005200450045004E0004008E
:10A2B000040004000300040001004C2F0B00623076
:10A2C000099C480053004C005F00470043005900C0
:10A2D00041004E00040005000400030004000100DA
:10A2E0004C2F0B007530089C480053004C005F0059
:10A2F0004300590041004E00040006000400030022
:10A30000040001004C2F0B008830098A48005300DC
:10A310004C005F0041005A00550052004500040007
:10A32000070004000300040001004C2F0B009A30CA
:10A33000088A480053004C005F0042004C00550062
:10A3400045000400080004000300040001004C2F35
:10A350000B00AD300AA8480053004C005F005600C7
:10A3600049004F004C00450054000400090004005F
:10A370000300040001004C2F0B00BF300B8248008B
:10A3800053004C005F004D004100470045004E0067
:10A390005400410004000A0004000300040001000E
:10A3A0004C2F0B00D330088A480053004C005F004C
:10A3B00052004F005300450004000B00040003004E
:10A3C000040001004C2F0B00000004B247005200B3
:10A3D0004100590004000000DA0504000F00E60502
:10A3E000040004005E061900140004000F001900A8
:10A3F00012004C2F0B009227058A57004800490095
:10A40000540045000400000000310B003D2F05966C
:10A4100042004C00410043004B0004000F0000319B
:10A420000B00093007A44C004900470048005400C5
:10A430004500520001300B00F52E06A444004100F7
:10A4400052004B00450052000D300B00F12F088ADE
:10A450005300410054005500520041005400450093
:10A46000E92F0B0032310A8A4400450053004100B5
:10A47000540055005200410054004500F52F0B00D8
:10A48000CB2E025843002C004C071800C106A50330
:10A490000C000E000B005F2A099049004D00470098
:10A4A0002D00570049004400540048000D000B00E7
:10A4B00061310AA849004D0047002D0048004500C1
:10A4C0004900470048005400C1060D000B006E31E2
:10A4D000088249004D0047002D004400410054000F
:10A4E000410004000200182A0B007D318444490019
:10A4F0004D004700220068040C0004002200E30E17
:10A50000DF291900170068040D0004000700860603
:10A510001E000800A231520CDF29700C4C071400F9
:10A52000DF29190012008105D407991617000B00C6
:10A53000A82A0A8A45004D00490054002D00490010
:10A540004D0041004700450018006C3174040C00B8
:10A5500018007A3119008731190018000800D1312C
:10A56000190074040D00DF0CCB0B1900040001006E
:10A57000EC290900C3318D05940C0B0056310B8A70
:10A58000430050003400330037002D0048004C00D9
:10A5900049004E0045000400C4000B00D4310B8A72
:10A5A000430050003400330037002D0056004C00AB
:10A5B00049004E0045000400B3000B00E431089848
:10A5C000430050003400330037002D0054004C008D
:10A5D0000400DA000B00F43108A4430050003400FA
:10A5E000330037002D00540052000400BF000B0060
:10A5F00001320898430050003400330037002D002A
:10A6000042004C000400C0000B000E3208A44300BE
:10A6100050003400330037002D0042005200040087
:10A62000D9000B001B320B9C430050003400330058
:10A6300037002D00540044004F0057004E00040026
:10A64000C2000B00283209A0430050003400330040
:10A6500037002D005400550050000400C1000B00CD
:10A6600038320CA8430050003400330037002D006E
:10A670005400520049004700480054000400C30041
:10A680000B0046320BA84300500034003300370063
:10A690002D0054004C004500460054000400B40056
:10A6A0000B0057320BA64300500034003300370034
:10A6B0002D00430052004F00530053000400C5001A
:10A6C0000B0000000A8A530049004E0051002D0083
:10A6D0005400410042004C00450006000000C90043
:10A6E00092015B022403ED03B6047F0548061107BF
:10A6F000D907A2086A09330AFB0AC40B8C0C540D53
:10A700001C0EE30EAB0F72103A110112C8128F1318
:10A7100055141C15E215A8166E173318F918BE1932
:10A72000821A471B0B1CCF1C931D571E1A1FDD1FBF
:10A730009F2061212322E522A62367242825E825DE
:10A74000A82667272628E528A329612A1F2BDC2BAA
:10A75000992C552D112ECC2E872F4130FB30B53141
:10A760006E322633DF3396344D350436BA366F37C2
:10A770002438D9388C39403AF23AA53B563C073D4B
:10A78000B83D683E173FC53F73402141CE417A42F4
:10A790002543D0437A442445CD4575461C47C347DD
:10A7A00069480F49B449584AFB4A9D4B3F4CE04C1D
:10A7B000814D204EBF4E5D4FFB4F97503351CE51D0
:10A7C000685202539B533254C9546055F5558A560A
:10A7D0001D57B0574258D3586459F359825A0F5BEA
:10A7E0009C5B285CB35C3E5DC75D4F5ED75E5D5F82
:10A7F000E35F6860EB606E61F0617162F1627063EB
:10A80000EE636C64E8646365DD655666CF66466733
:10A81000BC673268A66819698B69FD696D6ADC6A74
:10A820004A6BB76B236C8E6CF86C616DC96D306EC2
:10A83000966EFB6E5E6FC16F22708370E270407126
:10A840009D71F9715472AE7207735E73B5730A74B9
:10A850005F74B27404755575A575F37541768D7680
:10A86000D87622776B77B377FA773F788478C77892
:10A8700009794A798979C879057A417A7C7AB67AF0
:10A88000EE7A267B5C7B917BC57BF87B297C597CAF
:10A89000887CB67CE37C0E7D397D627D897DB07DD0
:10A8A000D57DFA7D1D7E3E7E5F7E7E7E9C7EB97E5E
:10A8B000D57EEF7E097F217F377F4D7F617F747F5B
:10A8C000867F977FA67FB47FC17FCD7FD87FE17FD2
:10A8D000E97FF07FF57FF97FFD7FFE7F00000A8A28
:10A8E00050004F00570032002D005400410042003C
:10A8F0004C004500060001000200040008001000A2
:10A900002000400080000001000200040008001048
:10A9100000200040008000000B8A4C004F004700E0
:10A92000320049002D005400410042004C00450017
:10A9300006000000001000200030004000500060C1
:10A9400000700080009000A000B000C000D000E0C7
:10A9500000F000000B8A4C004F0047003200460018
:10A960002D005400410042004C004500060000004C
:10A9700017002E0045005C00720089009F00B600A1
:10A98000CC00E200F9000F0125013B0150016601F6
:10A990007C019201A701BD01D201E701FC01120275
:10A9A00027023C02510265027A028F02A302B8021A
:10A9B000CC02E102F5020A031E03320346035A03E6
:10A9C0006E0382039603A903BD03D103E403F803D6
:10A9D0000B041E043204450458046B047E049104E5
:10A9E000A404B704CA04DC04EF0402051405270517
:10A9F00039054B055E05700582059405A605B90568
:10AA0000CB05DC05EE0500061206240635064706D2
:10AA100058066A067B068D069E06B006C106D2065B
:10AA2000E306F406050716072707380749075A07FC
:10AA30006B077B078C079D07AD07BE07CE07DF07B7
:10AA4000EF07FF0710082008300840085008610889
:10AA5000710881089008A008B008C008D008E00874
:10AA6000EF08FF080F091E092E093D094D095C0971
:10AA70006B097B098A099909A809B809C709D60988
:10AA8000E509F409030A120A210A300A3E0A4D0AAE
:10AA90005C0A6B0A790A880A970AA50AB40AC20AEC
:10AAA000D10ADF0AEE0AFC0A0A0B190B270B350B39
:10AAB000430B510B5F0B6E0B7C0B8A0B980BA60B99
:10AAC000B30BC10BCF0BDD0BEB0BF90B060C140C0E
:10AAD000220C2F0C3D0C4A0C580C660C730C800C8D
:10AAE0008E0C9B0CA90CB60CC30CD00CDE0CEB0C22
:10AAF000F80C050D120D1F0D2D0D3A0D470D540DBF
:10AB0000600D6D0D7A0D870D940DA10DAE0DBA0D72
:10AB1000C70DD40DE00DED0DFA0D060E130E1F0E30
:10AB20002C0E380E450E510E5E0E6A0E760E830EFA
:10AB30008F0E9B0EA70EB40EC00ECC0ED80EE40ED8
:10AB4000F00EFC0E090F150F210F2D0F380F440FBB
:10AB5000500F5C0F680F740F800F8B0F970FA30FB0
:10AB6000AF0FBA0FC60FD20FDD0FE90FF40F0010B1
:10AB700000000B8A4C004F004700320044002D00BB
:10AB80005400410042004C00450006001700170029
:10AB90001700170016001700160017001600160001
:10ABA00017001600160016001500160016001600F5
:10ABB00015001600150015001500160015001500EB
:10ABC00015001400150015001400150014001500E0
:10ABD00014001500140014001400140014001400D4
:10ABE00014001300140014001300140013001300C9
:10ABF00014001300130013001300130013001300BC
:10AC000013001200130013001200130012001200B0
:10AC100013001200120012001200130012001100A3
:10AC20001200120012001200110012001100120096
:10AC3000110012001100120011001100110011008A
:10AC4000110011001100110011001100110010007D
:10AC50001100110010001100100011001000100070
:10AC60001100100010001000100011001000100062
:10AC70000F00100010001000100010000F00100056
:10AC800010000F0010000F0010000F000F00100048
:10AC90000F000F000F0010000F000F000F000F003B
:10ACA0000F000F000F000F000E000F000F000F002D
:10ACB0000E000F000F000E000F000E000F000E0020
:10ACC0000F000E000E000F000E000E000E000E0012
:10ACD0000E000F000E000E000E000E000D000E0004
:10ACE0000E000E000E000E000D000E000E000D00F6
:10ACF0000E000D000E000E000D000D000E000D00E8
:10AD00000E000D000D000D000E000D000D000D00D9
:10AD10000D000D000E000D000D000D000C000D00CB
:10AD20000D000D000D000D000D000C000D000D00BC
:10AD30000C000D000D000C000D000C000D000C00AF
:10AD40000D000C000D000C000C000D000C000C00A0
:10AD50000C000D000C000C000C000C000C000C0092
:10AD60000D000C000C000C000B000C000C000C0083
:10AD70000C000C000C000B000C000C000C000B0075
:10AD80000C000C000B000C000B000C0000000B8AE8
:10AD9000450058005000320046002D00540041008C
:10ADA00042004C004500060000100B101610211048
:10ADB0002D10381043104E105A10651070107C1072
:10ADC000871093109E10AA10B510C110CD10D81086
:10ADD000E410F010FB10071113111F112B11371184
:10ADE00043114F115B11671173117F118B11971173
:10ADF000A311B011BC11C811D511E111ED11FA1157
:10AE0000061213121F122C123812451252125F1220
:10AE10006B127812851292129F12AC12B812C512E0
:10AE2000D312E012ED12FA120713141321132F1389
:10AE30003C1349135713641372137F138D139A1322
:10AE4000A813B513C313D113DF13EC13FA130814AB
:10AE500016142414321440144E145C146A1478141A
:10AE600087149514A314B114C014CE14DD14EB147C
:10AE7000FA140815171525153415431552156015C4
:10AE80006F157E158D159C15AB15BA15C915D815FE
:10AE9000E715F7150616151624163416431653161D
:10AEA0006216721681169116A116B016C016D0162B
:10AEB000E016F016FF160F171F1730174017501720
:10AEC0006017701780179117A117B117C217D21703
:10AED000E317F417041815182618361847185818C9
:10AEE00069187A188B189C18AD18BE18CF18E0187E
:10AEF000F218031914192619371949195A196C1916
:10AF00007E198F19A119B319C519D619E819FA199B
:10AF10000C1A1E1A311A431A551A671A7A1A8C1A01
:10AF20009E1AB11AC31AD61AE91AFB1A0E1B211B54
:10AF3000341B471B591B6C1B7F1B931BA61BB91B88
:10AF4000CC1BDF1BF31B061C1A1C2D1C411C541CA4
:10AF5000681C7C1C8F1CA31CB71CCB1CDF1CF31CA7
:10AF6000071D1B1D301D441D581D6C1D811D951D89
:10AF7000AA1DBE1DD31DE81DFD1D111E261E3B1E54
:10AF8000501E651E7A1E8F1EA51EBA1ECF1EE51E00
:10AF9000FA1E101F251F3B1F501F661F7C1F921F8C
:10AFA000A81FBE1FD41FEA1F002000000B8A450007
:10AFB00058005000320044002D005400410042006F
:10AFC0004C00450006000B000B000B000C000B00B2
:10AFD0000B000B000C000B000B000C000B000C0016
:10AFE0000B000C000B000C000C000B000C000C0004
:10AFF0000B000C000C000C000C000C000C000C00F2
:10B000000C000C000C000C000C000C000C000D00DF
:10B010000C000C000D000C000C000D000C000D00CD
:10B020000C000D000C000D000D000D000C000D00BB
:10B030000D000D000D000D000C000D000E000D00A8
:10B040000D000D000D000D000D000E000D000D0097
:10B050000E000D000E000D000E000D000E000D0084
:10B060000E000E000E000D000E000E000E000E0071
:10B070000E000E000E000E000E000E000F000E005F
:10B080000E000E000F000E000F000E000F000E004D
:10B090000F000E000F000F000F000E000F000F003A
:10B0A0000F000F000F000F000F000F000F00100027
:10B0B0000F000F000F0010000F0010000F00100015
:10B0C0000F00100010000F00100010001000100002
:10B0D0000F001000100011001000100010001000F0
:10B0E00010001100100010001100100011001100DC
:10B0F00010001100110010001100110011001100CA
:10B1000011001100110011001100110012001100B6
:10B1100011001200110012001100120012001100A3
:10B120001200120012001100120012001200120090
:10B13000130012001200120013001200120013007C
:10B140001200130013001200130013001300130069
:10B150001200130013001400130013001300130057
:10B160001400130014001300140013001400140042
:10B170001300140014001400140014001400140030
:10B18000150014001400140015001400150014001C
:10B190001500150015001400150015001500150008
:10B1A00015001500160015001500160015001600F4
:10B1B00015001600150016001600160016001600E1
:10B1C00016001600160000000B8A410054004100D2
:10B1D0004E0046002D005400410042004C00450046
:10B1E00006000000290051007A00A300CC00F40002
:10B1F0001D0146016F019701C001E90111023A02E8
:10B2000062028B02B402DC0205032D0356037E03A7
:10B21000A703CF03F7032004480470049904C10472
:10B22000E9041105390561058905B105D90501064E
:10B23000290651067806A006C806EF0617073E073E
:10B2400066078D07B507DC0703082A085108780848
:10B250009F08C608ED0814093B0961098809AE0971
:10B26000D509FB09220A480A6E0A940ABA0AE00ABA
:10B27000060B2C0B510B770B9D0BC20BE70B0D0C28
:10B28000320C570C7C0CA10CC60CEB0C100D340DC1
:10B29000590D7D0DA20DC60DEA0D0F0E330E560E83
:10B2A0007A0E9E0EC20EE50E090F2C0F500F730F73
:10B2B000960FB90FDC0FFF0F211044106710891093
:10B2C000AB10CE10F01012113411561177119911E4
:10B2D000BB11DC11FD111F12401261128212A31268
:10B2E000C312E41205132513451366138613A61320
:10B2F000C613E61305142514441464148314A2140D
:10B30000C114E014FF141E153D155B157A15981530
:10B31000B715D515F31511162F164C166A16881683
:10B32000A516C216E016FD161A1737175417701710
:10B330008D17AA17C617E217FE171B1837185318D0
:10B340006E188A18A618C118DD18F81813192E19C6
:10B35000491964197F199A19B419CF19E919041AEE
:10B360001E1A381A521A6C1A861A9F1AB91AD31A48
:10B37000EC1A051B1F1B381B511B6A1B831B9C1BD4
:10B38000B41BCD1BE51BFE1B161C2E1C461C5E1C95
:10B39000761C8E1CA61CBE1CD51CED1C041D1B1D82
:10B3A000331D4A1D611D781D8E1DA51DBC1DD31D9D
:10B3B000E91DFF1D161E2C1E421E581E6E1E841EE9
:10B3C0009A1EB01EC51EDB1EF01E061F1B1F301F5F
:10B3D000451F5A1F6F1F841F991FAE1FC31FD71F02
:10B3E000EC1F002000000B8A4100540041004E0079
:10B3F00044002D005400410042004C00450006006E
:10B4000029002800290029002900280029002900F6
:10B4100029002800290029002800290028002900E7
:10B4200029002800290028002900280029002800D8
:10B4300028002900280028002900280028002800CA
:10B4400028002800280028002800280028002800BC
:10B4500027002800280027002800270028002700B0
:10B4600028002700270027002700270027002700A3
:10B470002700270027002600270026002700260097
:10B48000270026002600260026002600260026008B
:10B490002500260026002500250026002500250081
:10B4A0002500250025002500250024002500240076
:10B4B000250024002400250024002300240024006B
:10B4C0002400230024002300240023002300230061
:10B4D0002300230022002300230022002200230057
:10B4E000220022002200220021002200220021004E
:10B4F0002100220021002100210021002000210044
:10B500002100200020002100200020002000200039
:10B510001F0020001F0020001F001F001F001F0031
:10B520001F001F001F001E001F001E001F001E0026
:10B530001E001E001E001D001E001E001D001D001E
:10B540001E001D001D001D001D001C001D001D0013
:10B550001C001C001C001D001C001C001B001C000B
:10B560001C001B001C001B001B001B001B001B0001
:10B570001B001B001A001B001A001B001A001A00F7
:10B580001A001A001A0019001A001A0019001900EE
:10B590001A001900190019001900190018001900E3
:10B5A00018001900180018001800180018001800DA
:10B5B00018001800170018001700170018001700CF
:10B5C00017001700160017001700170016001600C6
:10B5D00017001600160016001600160016001600BA
:10B5E00015001600150016001500150015001500B1
:10B5F00015001500150015001500140015001400A5
:10B6000000000580530049004E0051004000833285
:10B610001900CD06182A0D000B000000058050000F
:10B620004F0057003200400090331900CD06182A11
:10B630000D000B00000006804C004F004700320058
:10B6400049004000AE331900CD06182A0D000B004A
:10B65000000006804C004F004700320046004000CA
:10B66000CC331900CD06182A0D000B00000006800F
:10B670004C004F004700320044004000DB3419000A
:10B68000CD06182A0D000B0000000680450058006A
:10B690005000320046004000E9351900CD06182A56
:10B6A0000D000B00000006804500580050003200DD
:10B6B00044004000F8361900CD06182A0D000B0092
:10B6C000000006804100540041004E00460040004A
:10B6D00006381900CD06182A0D000B000000068060
:10B6E0004100540041004E0044004000153919004B
:10B6F000CD06182A0D000B001716047C51003100EE
:10B7000035003E001800182A14001B0037001200F4
:10B71000182A0B00923A05A45100310035003E0072
:10B7200052001900040000401F008105182A983AB1
:10B730000B001D2F058855002F004D004F004400C1
:10B74000140004000000120005060B00AF3A025E70
:10B7500055002F00B63A190017000B00BC3A035EE3
:10B7600055002A002F00140070061200050619006B
:10B7700017000B00A60607882A002F0052004F0072
:10B7800055004E0044001800D3291400A1061900EA
:10B79000D3291800182A1300BA0535000800E93A21
:10B7A00004000100182A120017000B008B31038CD3
:10B7B00049002A0046008D06983A0B001C31078E7E
:10B7C000420049004E003E0044004500470004008E
:10B7D0002D0004000020D93A0B004831079C44009A
