:100000000C94E9800C941A810C941A810C941A8136
:100010000C941A810C941A810C941A810C941A81F4
:100020000C941A810C941A810C941A810C941A81E4
:100030000C941A810C941A810C941A810C941A81D4
:100040000C941A810C941A810C941A810C941A81C4
:100050000C941A810C941A810C941A810C94648863
:100060000C941A810C94D8880C94AE880C941A8144
:100070000C941A810C941A810C941A810C941A8194
:100080000C941A810C941A810C941A810C941A8184
:100090000C941A810C941A810C941A810C941A8174
:1000A0000C941A810C941A810C941A810C941A8164
:1000B0000C941A810C941A810C941A810C941A8154
:1000C0000C941A810C941A810C941A810C941A8144
:1000D0000C941A810C941A810C941A810C941A8134
:1000E0000C941A810C940D830C947A810C948F8754
:1000F0000C94CE870C941C810C94FB870C9479850E
:100100000C941A870C9403840C94F8850C945082F8
:100110000C946C810C943C840C94D0870C94C88310
:100120000C9442880C9426860C9499840C94178322
:100130000C9495830C9464850C9451820C9488865D
:100140000C9459870C945F840C94B2810C94B685FE
:100150000C94E2850C9440870C94FF810C947F876B
:100160000C9410860C945B870C945A820C945A86DB
:100170000C9428860C9444860C94B1830C9490853E
:100180000C9458810C94CE860C9428840C94BD83D6
:100190000C94CC850C94D5830C9422880C942885DF
:1001A0000C94ED840C94CF8A0C943E850C940E86AE
:1001B0000C946B870C94A9870C948E840C946F8696
:1001C0000C9449810C94F4860C9412830C94A787A8
:1001D000000000000000000000000000000000001F
:1001E000000000000000000000000000000000000F
:1001F00000000000000000000000000000000000FF
:1002000000000000000000000000000000000000EE
:1041D0000B000000097E7E0064006500660061003F
:1041E00075006C0074003F00A23F04007D00A2290E
:1041F0000B00000008C27E007400790070006500AA
:104200002D0073006100180004007300A22908004B
:10421000254017005E3F090031401800040061008E
:10422000A22908002F401700873F090031401700DE
:10423000123E0B0000000ED07E007400790070006A
:1042400065002D0064006900730070006100740057
:1042500063006800180004006400A22908004C40B4
:1042600017000E3F09006B40180004007500A229DA
:10427000080056401700213F09006B401800040059
:104280007800A229080060401700353F09006B4004
:10429000180004006300A22908006A401700473F85
:1042A00009006B401B400B0000000BD87E0066002D
:1042B000690065006C0064002D00740061006900F5
:1042C0006C0004000100080DC6020D007605080010
:1042D00084401700090092408F180C0062006100B2
:1042E0006400200066002D007300740072006900F5
:1042F0006E006700A23F04007D001E008F180C00B6
:10430000620061006400200066002D0073007400EC
:10431000720069006E00670004000100080D424051
:104320000B00000006C87E006600690065006C0096
:10433000640004000100080D04000000D2020C001B
:104340000400FFFFDE020C00C6020D007605080027
:10435000C44017000900D2408F180C0062006100B1
:104360006400200066002D00730074007200690074
:104370006E0067000C400800DB4004000100080DDF
:104380000E3F09002941B53FC6020D007605080021
:10439000E44017000900F2408F180C006200610031
:1043A0006400200066002D00730074007200690034
:1043B0006E006700A23F04002E00A22908001A41E7
:1043C00004000100080D04000000DE020C000400DF
:1043D0000000EA020C00E03FEA020D00760508004A
:1043E0000C41170009001A418F180C00620061008F
:1043F0006400200066002D007300740072006900E4
:104400006E006700A23F180004007D00A22908008A
:104410002841170004000100080D0E3F0900294142
:1044200079400B0000000CCA7E0065007600610038
:104430006C002D006C00620072006100630065007A
:1044400004000100C6020D00BA0508005541BA0279
:104450000D0004000100C9290F0004007B00A229FF
:104460000800524104007B004F0D04000200080DBB
:1044700009005341B14009005641B1400B00000012
:104480000CCA7E006500760061006C002D00720091
:104490006200720061006300650004000100C60252
:1044A0000D00BA0508008241BA020D0004000100A7
:1044B000C9290F0004007D00A22908007F410400E3
:1044C0007D004F0D04000200080D09008041123EDE
:1044D00009008341123E0B00000005D87E006500F4
:1044E000760061006C0090291700BA020C00C60229
:1044F0000C001700150DC6020D000800B241A23FC6
:10450000180004007B00A2290800A24117003841CE
:104510000900B041180004007D00A2290800AC4148
:10452000170065410900B0414F0D04000100080D5E
:1045300009009341700D0B00000044DC7E00720006
:1045400075006E00E00C2D078B410B00B44143F861
:104550007E0022007C00BA410B00B02D8244460050
:10456000220031030D000800D64104002200D20EC3
:10457000A40DAA16BA41DE160900DB410400220090
:10458000D20EA40D8B410B00CF3B0DA04500440083
:10459000490054002D004C0049004E0045002D00FC
:1045A0004300410050000400A0000B00DC410D8AD4
:1045B00045004400490054002D00520045004300CE
:1045C0002D00530049005A0045000400A4000B00D0
:1045D000EE410F8A45004400490054002D0041007F
:1045E000520045004E0041002D00530049005A0082
:1045F0004500040000200B0000420BAE45004400C3
:10460000490054002D0054004500580054002D006E
:104610005700040050000B0014420B90450044006A
:10462000490054002D0054004500580054002D004E
:104630004800040017000B0024420FAE4500440060
:10464000490054002D00530054004100540055000F
:1046500053002D0052004F005700040018000B00BB
:1046600034420DAE45004400490054002D0048007E
:1046700045004C0050002D0052004F005700040030
:1046800019000B0048420D8A4500440049005400BF
:104690002D004D00530047002D004E004F004E00EE
:1046A0004500040000000B005A420E8845004400FB
:1046B000490054002D004D00530047002D005300C9
:1046C0004100560045004400040001000B006C420C
:1046D0000FA445004400490054002D004D00530034
:1046E00047002D004200550046004600450052009C
:1046F000040002000B007F420D8E4500440049007B
:1047000054002D004D00530047002D004C004F0079
:104710004E004700040003000B0093420D9C45002F
:104720004400490054002D004D00530047002D0067
:104730004F00500045004E00040004000B00A5424D
:104740000D8845004400490054002D004D005300E1
:1047500047002D00520045004100440004000500C0
:104760000B00B7420E8A45004400490054002D005A
:104770004D00530047002D005700520049005400DF
:104780004500040006000B00C9420CAE4500440081
:10479000490054002D004D00530047002D004E00ED
:1047A00045005700040007000B00DC420D8A45005D
:1047B0004400490054002D004D00530047002D00D7
:1047C0004E0041004D004500040008000B00ED4282
:1047D0000EA045004400490054002D004D00530038
:1047E00047002D0055004E005300550050000400B6
:1047F00009000B00FF4210A8450044004900540086
:104800002D0055005300450052002D004F0046007A
:104810004600530045005400040000010B00124301
:104820000E8A45004400490054002D00500041000C
:10483000540048002D00530049005A004500040070
:1048400004010B0027430996450044004900540029
:104850002D004D00410052004B0004000001A40453
:104860000D00C9290B003A43098A4500440049005C
:1048700054002D0042004100530045000400010196
:10488000A4040D00C9290B004B43098A45004400CC
:10489000490054002D004800450052004500040026
:1048A0000201A4040D00C9290B005C430AA84500BD
:1048B0004400490054002D004C0049004D004900BF
:1048C000540004000301A4040D00C9290B006D432A
:1048D000098A45004400490054002D00460052005A
:1048E0004500450004000401A4040D00C9290B0083
:1048F0007F43098845004400490054002D004800CA
:1049000045004100440004000501A4040D00C9292C
:104910000B009043099845004400490054002D00C5
:104920005400410049004C0004000601A4040D009D
:10493000C9290B00A14308A44500440049005400C4
:104940002D0043005500520004000701A4040D008F
:10495000C9290B00B24308A0450044004900540097
:104960002D0054004F00500004000801A4040D0065
:10497000C9290B00C2430AA645004400490054005F
:104980002D004C0049004E00450053000400090171
:10499000A4040D00C9290B00D24309464500440078
:1049A000490054002D00430055005200230004002C
:1049B0000A01A4040D00C9290B00E443094645007F
:1049C0004400490054002D0054004F0050002300C3
:1049D00004000B01A4040D00C9290B00F54308983D
:1049E00045004400490054002D0043004F004C0096
:1049F00004000C01A4040D00C9290B000644098C15
:104A000045004400490054002D005000520045006C
:104A1000460004000D01A4040D00C9290B00164432
:104A20000D8845004400490054002D004D004F0002
:104A300044004900460049004500440004000E01BE
:104A4000A4040D00C9290B0027440BA8450044000D
:104A5000490054002D0049004E005300450052000B
:104A6000540004000F01A4040D00C9290B003C44AC
:104A70000C8E45004400490054002D0052005500A2
:104A80004E004E0049004E00470004001001A404EF
:104A90000D00C9290B004F44088E45004400490011
:104AA00054002D004D005300470004001101A404E0
:104AB0000D00C9290B0063440D9C450044004900CA
:104AC00054002D0050004100540048002D004C00BF
:104AD00045004E0004001201A4040D00C9290B007A
:104AE00073440E4645004400490054002D00500018
:104AF0004100540048002D004200550046002300AC
:104B000004001301A4040D00C9290B0088440D9C66
:104B100045004400490054002D0043004C0049006A
:104B200050002D004C0045004E0004001401A40468
:104B30000D00C9290B009E440E4645004400490063
:104B400054002D0043004C00490050002D0042004D
:104B500055004600230004001501A4040D00C929D6
:104B60000B00B344036245005400310004001601F9
:104B7000A4040D00C9290B00C94403644500540076
:104B8000320004001701A4040D00C9290B00D4440D
:104B9000036645005400330004001801A4040D000E
:104BA000C9290B00DF4403684500540034000400A9
:104BB0001901A4040D00C9290B00EA440EA8450000
:104BC0004400490054002D004C0049004E004500AF
:104BD0002D004E004500580054000B00F5440EAC6B
:104BE00045004400490054002D004C0049004E008F
:104BF00045002D00500052004500560024000B00D7
:104C000006450D9C45004400490054002D004C0011
:104C100049004E0045002D004C0045004E000400A8
:104C20000200C9290B0018450FA6450044004900A1
:104C300054002D004C0049004E0045002D00460058
:104C40004C0041004700530004000300C9290B0039
:104C50002B450EA845004400490054002D004C008F
:104C600049004E0045002D005400450058005400F6
:104C700004000400C9290B0040450E804500440093
:104C8000490054002D004C0049004E0045002D0005
:104C90004C0045004E00400027450D000B005445D8
:104CA0000E4245004400490054002D004C004900CC
:104CB0004E0045002D004C0045004E0021002745C8
:104CC0000C000B0067450EA4450044004900540049
:104CD0002D004C0049004E0045002D0041004400CD
:104CE0004400520019005045C9290B007A450D8C2B
:104CF00045004400490054002D005000410054007C
:104D000048002D0042005500460098440D000B005D
:104D10008E450D8C45004400490054002D00430091
:104D20004C00490050002D00420055004600C3448D
:104D30000D000B00A0450A484500440049005400FE
:104D40002D00500041005400480024009D4582443D
:104D50000D000B00B2450A424500440049005400D2
:104D60002D005000410054004800210018008244EA
:104D70000C009D451900C3070B00C24509424500C0
:104D80004400490054002D004D005300470021000D
:104D90006D440C000B00D5450C9C450044004900B7
:104DA00054002D004300550052002D004C004500DA
:104DB0004E00BC430D0064450B00E3450DA44500C7
:104DC0004400490054002D004300550052002D00BE
:104DD0004100440044005200BC430D0050450B000C
:104DE000F5450FA845004400490054002D004C0033
:104DF00049004E0045002D0043004F0055004E0075
:104E00005400DE430D000B000846094245004400F3
:104E1000490054002D0043004F004C0021001800B1
:104E200010440C0021440C000B001C460F8A450066
:104E30004400490054002D0043004C00450041004F
:104E400052002D004C0049004E00450004000000B7
:104E50001A0027450C0017000B002D460886450058
:104E600044002D0041004C004C004F0043008A4399
:104E70000D00760508005A4618000D008A430C0004
:104E800009006E4667430D001800FD41C9297943AA
:104E90000D001900BA05080069461700040000005B
:104EA0000B001800FD41C92967430C0018000400DD
:104EB00000001A000C001900170018001645040025
:104EC000000019000C00180027450400000019001C
:104ED0000C0018003C450400000019000C000B00F9
:104EE00045460E8A45004400490054002D00460006
:104EF0005200450045002D004C0049004E00450081
:104F00008A430D001A000C008A430C000B008846EF
:104F10000FA445004400490054002D004C004900F6
:104F20004E004B002D004100460054004500520049
:104F3000CE440C00D9440C00CE440D000D00D944E1
:104F40000D000C00CE440D00D9440D0016450C0098
:104F5000D9440D000D0076050800CD46D9440D005A
:104F6000190016450C000900D146CE440D00AC4393
:104F70000C00CE440D00D9440D000C000B009F46E0
:104F80000B9645004400490054002D0055004E008A
:104F90004C0049004E004B0018000D00CE440C00A0
:104FA000180016450D00D9440C00D9440D00080026
:104FB000F846CE440D00D9440D000C000900FC4613
:104FC000CE440D009B430C00CE440D000800084762
:104FD000D9440D00CE440D0016450C0009000C47C5
:104FE000D9440D00AC430C000B00D74611A445007A
:104FF0004400490054002D00520045005300450074
:1050000054002D0042005500460046004500520065
:10501000040000008A430C0056430D0067430C0057
:105020000400000036440C00040000006D440C0035
:105030000400000010440C000400000021440C0097
:1050400004000000AD440C004F4618002300080087
:105050004647170090426D440C000B0018009B431C
:105060000C001800AC430C001800BC430C001800E6
:10507000CC430C00170004000100DE430C000400C8
:105080000100EF430C000400010000440C000B0081
:105090000D4709A845004400490054002D0049006F
:1050A0004E0049005400A5030D0045430C00A50324
:1050B0000D00180098440C003743C9291800C34458
:1050C0000C00EB41C929180056430C001800674337
:1050D0000C001142C92979430C0079430D00A50346
:1050E0000C000400010049440C0069426D440C00AE
:1050F0000400000082440C0020470B006047098A2E
:1051000045004400490054002D0044004F004E006B
:10511000450045430D00A5030C00982E742E0B008E
:1051200096470D9C45004400490054002D00540052
:10513000520049004D002D004C0045004E00180063
:105140006445CE440C00CE440D000800D74718003B
:105150005045CE440D002500C9290F00CB06A229D9
:105160000800D147CE440D002500CE440C000900B4
:10517000D5471700CE440D000B000900BB471700B0
:10518000040000000B00A8470FA44500440049009C
:1051900054002D0045005800540045004E004400C6
:1051A0002D004300550052001800EB41B5290800BE
:1051B000F8471700A2426D440C00040000000B00E9
:1051C0001800F145BC290800014817000400FFFF42
:1051D0000B001800CE440C00F145D9440C00BC4330
:1051E0000D005045D9440D00C929CE440D00D944C5
:1051F0000D009D29CB06E407CE440D00BC430D00F5
:1052000027450C0017000400FFFF0B00DB47138A43
:1052100045004400490054002D0045004E00530055
:105220005500520045002D0056004900530049002A
:1052300042004C004500EF430D0000440D00CA053C
:1052400008004748CC430D0016450D00CC430C0028
:1052500000440D00250000440C0009003348EF43D2
:105260000D0000440D003142C929C32908005C48E3
:10527000CC430D000D00CC430C0000440D00240075
:1052800000440C00090047480B001E480CA04500D4
:105290004400490054002D004D004F0056004500C9
:1052A0002D0055005000BC430D0016450D0076053D
:1052B00008007E48BC430C00EF430D002500EF437F
:1052C0000C0021440D0010440C0033480B005D48D5
:1052D0000E9C45004400490054002D004D004F0035
:1052E000560045002D0044004F0057004E00BC43BF
:1052F0000D000D0076050800A148BC430C00EF43EB
:105300000D002400EF430C0021440D0010440C005C
:1053100033480B007F480EA8450044004900540064
:105320002D004D004F00560045002D004C0045005B
:105330004600540010440D000800BF4810440D0002
:10534000250010440C0010440D0021440C000B00FB
:10535000A2480FA845004400490054002D004D000C
:105360004F00560045002D005200490047004800FC
:10537000540010440D002400180010440C00214477
:105380000C000B00C0480E8A450044004900540040
:105390002D004D004F00560045002D0048004F00E5
:1053A0004D0045000400000027460B00DA480D8838
:1053B00045004400490054002D004D004F005600A8
:1053C00045002D0045004E004400F14527460B00E6
:1053D000EE480CA045004400490054002D00500048
:1053E0004100470045002D0055005000040000001A
:1053F000CE440C00CE440D003142CA0508002049BD
:105400006B48CE440D002400CE440C000900124924
:105410000B0000490E9C45004400490054002D003B
:1054200050004100470045002D0044004F00570048
:105430004E0004000000CE440C00CE440D0031426A
:10544000CA05080043498F48CE440D002400CE44CD
:105450000C00090035490B00214911884500440022
:10546000490054002D005300450054002D004D000C
:105470004F00440049004600490045004400040034
:10548000FFFF36440C0069426D440C000B00444998
:1054900013A445004400490054002D004F0056005D
:1054A00045005200570052004900540045002D00AD
:1054B000430048004100520010440D002400EC4716
:1054C000230008007D4917000B0010440D00BC4369
:1054D0000D008A450E0010440D0024002746574950
:1054E0000B005F4910A445004400490054002D0002
:1054F00049004E0053004500520054002D00430067
:1055000048004100520010440D00E4440C00F145F5
:10551000EF440C00E4440D00EF440D00C3290800E3
:10552000BA49E4440D002400EC4723000800B249C6
:1055300017000B0010440D00BC430D008A450E00FF
:105540000900D749EF440D002400EC472300080070
:10555000C34917000B00E4440D00BC430D008A450D
:10556000180024001900EF440D00E4440D009D29AB
:10557000172810440D00BC430D008A450E0010444E
:105580000D002400274657490B0089490EA8450005
:105590004400490054002D004A004F0049004E00CD
:1055A0002D004E00450058005400BC430D000D0076
:1055B000760523000800F64917000B001800CE44BA
:1055C0000C00F145D9440C00CE440D006445E44480
:1055D0000C00D9440D00E4440D00C929EB41B52964
:1055E00008000E4AA2426D440C000B00CE440D0090
:1055F0005045BC430D005045D9440D00C929E44431
:105600000D00C307D9440D00E4440D00C929BC4373
:105610000D0027450C00CE440D00E446CE440D009D
:105620009846DE430D002500DE430C0057490B0071
:10563000DD4910A445004400490054002D004400F9
:1056400045004C004500540045002D004300480033
:105650004100520010440D00CE440C00F145D944E5
:105660000C00CE440D00D9440D00CA0508006B4A59
:10567000BC430D00CE440D0024008A45BC430D0000
:10568000CE440D008A45D9440D00CE440D009D291D
:105690002500C307D9440D002500BC430D00274554
:1056A0000C0057490B00CE440D00D9440D00A2292F
:1056B0000800734AED490B00304A0F8A4500440048
:1056C000490054002D00530050004C004900540084
:1056D0002D004C0049004E0045004F4618002300A5
:1056E00008008F4A170090426D440C000B00180010
:1056F000CE440C00BC430D00D9440C0010440D00F6
:10570000E4440C00D9440D006445EF440C00E4442B
:105710000D00EF440D00CA050800C34AEF440D0018
:10572000E4440D009D291800CE440D0027450C00CF
:10573000D9440D005045E4440D00C929CE440D0064
:1057400050458105C307E4440D00D9440D002745A9
:105750000C000900C94A04000000CE440D00274592
:105760000C00CE440D00D9440D00B046DE430D00C0
:105770002400DE430C00CE440D00BC430C00EF437C
:105780000D002400EF430C000400000027463348BE
:1057900057490B00744A0E8A4500440049005400E2
:1057A0002D004200410043004B00530050004100D7
:1057B0004300450010440D00230008000F4BBC437C
:1057C0000D0016450D00760508000E4B18006445C7
:1057D000CE440C00BC430C00EF430D002500EF430A
:1057E0000C00CE440D002746ED4933480B00104411
:1057F0000D002500180010440C0021440C0010443A
:105800000D00F145C32908001E4B0B00424A0B0056
:10581000E24A108A45004400490054002D0044002B
:1058200045004C004500540045002D004C00490047
:105830004E004500DE430D0004000100A2290800CF
:10584000414BBC430D003E4604000000274657492B
:105850000B00BC430D00CE440C00CE440D000D00E7
:1058600076050800504B1800BC430C0009005C4B47
:10587000CE440D0016450D001800BC430C00EF434C
:105880000D002500EF430C00CE440D00CC430D006D
:10589000A22908006B4BBC430D00CC430C00EF4326
:1058A0000D0000440C00CE440D00E446CE440D0033
:1058B0009846DE430D002500DE430C00F145104400
:1058C0000D00E6052746334857490B00204B0E8A4A
:1058D00045004400490054002D0043004F00500093
:1058E00059002D004C0049004E004500BC430D00FE
:1058F00064451800AD440C00BC430D005045AF4555
:105900008105C30769426D440C000B007E4B0F8A72
:1059100045004400490054002D0050004100530050
:10592000540045002D004C0049004E0045004F46F4
:10593000180023000800B94B170090426D440C007A
:105940000B001800CE440C00AD440D001800CE44EE
:105950000D0027450C00AF45CE440D005045810594
:10596000C307CE440D00BC430D00B046CE440D002D
:10597000BC430C00DE430D002400DE430C00EF436B
:105980000D002400EF430C000400000027463348BC
:1059900057490B009E4B08AE450044004900540097
:1059A0002D004E00450057002047EA426D440C0090
:1059B0000B00E24B098845004400490054002D00CB
:1059C0004C004F0041004400CE452047BE45BF1368
:1059D000DD13180008000A4C19001700B4426D448A
:1059E0000C000B00170014009B430D00D9440C0061
:1059F0000400FFFFE4440C004D07EB4113000714C3
:105A000018000800274C1700170017001200FA139F
:105A10001700C6426D440C00040001000B00170083
:105A200008005E4CE4440D00230008004D4C4F4636
:105A30001800230008003E4C17001200FA1317004C
:105A400090426D440C00040002000B001800AC43AF
:105A50000D00B0461800D9440C00DE430D002400B0
:105A6000DE430C0017000900514C04000000E44420
:105A70000C001800D9440D0027450C004D07D944EF
:105A80000D0050458105C3070900144C1700120092
:105A9000FA1317009B430D00BC430C009B430D0001
:105AA000CC430C0004000100EF430C000400010093
:105AB00000440C00040000002746040000003644A7
:105AC0000C0069426D440C00040000000B00F14B17
:105AD000098A45004400490054002D00530041004C
:105AE0005600450082440D0023000800954CFC42FE
:105AF0006D440C00040001000B00BE456314170048
:105B0000BE45CF13EC1318000800A44C1900170071
:105B1000D9426D440C000B001700EF440C009B436E
:105B20000D0018000800CA4C1800B7471800D944E7
:105B30000C001A005045D9440D00EF440D00151417
:105B400018000800C64C1700EF440D00FA131700A8
:105B5000D9426D440C00040001000B0017000D0039
:105B60000900A94C1700EF440D0054141700EF442E
:105B70000D00FA1317000400000036440C007C42AC
:105B80006D440C00040000000B007F4C098E4500A2
:105B90004400490054002D002E004D0053004700E2
:105BA0006D440D0018007C42A2290800F94C170032
:105BB000FE0C0600200053006100760065006400C2
:105BC0000B0018009042A22908000E4D1700FE0C91
:105BD0000C0020004200750066006600650072003F
:105BE0002000660075006C006C000B001800A242DB
:105BF000A2290800254D1700FE0C0E0020004C00C5
:105C000069006E006500200074006F006F002000C6
:105C10006C006F006E0067000B001800B442A229F0
:105C200008003A4D1700FE0C0C0020004F007000D9
:105C300065006E0020006600610069006C00650070
:105C400064000B001800C642A22908004F4D17003F
:105C5000FE0C0C0020005200650061006400200072
:105C60006600610069006C00650064000B001800AC
:105C7000D942A2290800654D1700FE0C0D00200036
:105C80005700720069007400650020006600610022
:105C900069006C00650064000B001800EA42A2294C
:105CA0000800794D1700FE0C0B0020004E00650027
:105CB00077002000620075006600660065007200D3
:105CC0000B001800FC42A22908008E4D1700FE0CA4
:105CD0000C0020004E006F002000660069006C0080
:105CE00065006E0061006D0065000B0018000F4339
:105CF000A2290800A24D1700FE0C0B0020004E0048
:105D00006F007400200069006E0020004D005600F6
:105D100050000B0017000B00DD4C0DAE4500440099
:105D2000490054002D0044005200410057002D004E
:105D300052004F005700CE440C00D9440C00040020
:105D40000100CE440D00F92D492ED9440D007605F1
:105D50000800E34DD9440D0064452142E605E444C2
:105D60000C0004000000EF440C00EF440D00E4447C
:105D70000D00CA050800E34DD9440D005045EF441D
:105D80000D00C9290F00510BEF440D002400EF4412
:105D90000C000900CD4D0B00A44D0EA84500440099
:105DA000490054002D0044005200410057002D00CE
:105DB0005400450058005400CC430D00CE440C0064
:105DC00004000100D9440C00D9440D003142BC2923
:105DD0000800174ECE440D00D9440D00B34DCE44FB
:105DE0000D000800104ECE440D000D00CE440C00F6
:105DF000D9440D002400D9440C000900FC4D0B00CF
:105E0000E44D10A645004400490054002D00440014
:105E10005200410057002D0053005400410054002F
:105E200055005300E82E040001004542F92D492E8B
:105E3000BE45A20B36440D0008003C4EFE0C02008D
:105E400020002A000900404EFE0C020020002D0018
:105E5000FE0C040020004C006E002000EF430D00FB
:105E6000E12DFE0C0500200043006F006C002000B7
:105E700010440D002400E12D49440D000800604E3F
:105E8000FE0C0400200049004E0053000900664E3D
:105E9000FE0C040020004F0056005200E84C982EE3
:105EA0000B00184E0EA045004400490054002D0080
:105EB00044005200410057002D00480045004C00AE
:105EC0005000040001005742F92D492E982EFE0C77
:105ED000010031004330CA2DD430B52DFE0C060030
:105EE000200020002000200020002000982EFE0C22
:105EF000010032004330CA2DD430B52DFE0C06000F
:105F0000530061007600650020002000982EFE0CF2
:105F1000010033004330CA2DD430B52DFE0C0600ED
:105F2000200020002000200020002000982EFE0CE1
:105F3000010034004330CA2DD430B52DFE0C0600CC
:105F40004E0065007700200020002000982EFE0CF7
:105F5000010035004330CA2DD430B52DFE0C0600AB
:105F600043006F007000790020002000982EFE0C86
:105F7000010036004330CA2DD430B52DFE0C06008A
:105F8000200020002000200020002000982EFE0C81
:105F9000010037004330CA2DD430B52DFE0C060069
:105FA000500061007300740065002000982EFE0C04
:105FB000010038004330CA2DD430B52DFE0C060048
:105FC000440065006C004C006E002000982EFE0C12
:105FD000010039004330CA2DD430B52DFE0C060027
:105FE000200020002000200020002000982EFE0C21
:105FF0000200310030004330CA2DD430B52DFE0CE4
:106000000600450078006900740020002000982EEA
:106010000B00694E11A445004400490054002D00B6
:1060200050004C004100430045002D004300550046
:10603000520053004F005200EF430D0000440D008A
:106040009D29240004000100DA053142E605CE4412
:106050000C0010440D00240004000100DA05214268
:10606000E605D9440C00D9440D00CE440D00F92DAD
:106070000B00214F0BAE45004400490054002D0099
:10608000520045004400520041005700882E3A2E2D
:10609000092EF44D2A4E794E344F742E0B00514F79
:1060A000158A45004400490054002D004800410075
:1060B0004E0044004C0045002D00500052004900A5
:1060C0004E005400410042004C00450018000400FE
:1060D000200004007F00F60508008F4F49440D00A2
:1060E00008008D4F9B4909008E4F74490B00170023
:1060F0000B00674F10A445004400490054002D00D8
:10610000480041004E0044004C0045002D00430073
:10611000480041005200180004000800A2290800AD
:10612000AC4F1700F24A0B00180004007F00A229B0
:106130000800B54F1700F24A0B00180004000D00CC
:10614000A2290800BE4F1700854A0B001800040062
:106150000A00A2290800C74F1700854A0B00180043
:1061600004000900A2290800D34F1700CB067E4F78
:10617000CB067E4F0B007E4F0B00914F10B24500B7
:106180004400490054002D00480041004E004400E6
:106190004C0045002D0045004B00450059001800FB
:1061A000600AA2290800EF4F1700B2480B00180040
:1061B0006E0AA2290800F74F1700D1480B001800FB
:1061C000460AA2290800FF4F17006B480B00180071
:1061D000530AA2290800075017008F480B00180027
:1061E0007B0AA22908000F501700EA480B0018008C
:1061F000870AA229080017501700FD480B00180055
:10620000940AA22908001F5017000E490B0018001D
:10621000A10AA22908002750170031490B001800D5
:10622000CB0AA22908002F501700F24A0B001800D1
:10623000B90AA229080037501700424A0B0018007B
:10624000D90AA22908003F501700854A0B00180000
:10625000AD0AA22908004B50170049440D00230045
:1062600049440C000B001800EF0AA2290800545002
:1062700017008A4C17000B001800050BA229080014
:106280005C501700EC4B0B001800100BA229080003
:10629000645017008E4B0B001800260BA229080033
:1062A0006C501700AF4B0B001800310BA2290800EF
:1062B00074501700324B0B001800480BA22908003D
:1062C0007F501700040000005D440C000B00170015
:1062D0000F436D440C000B00D54F0FA84500440040
:1062E000490054002D0057004100490054002D0082
:1062F00049004E00500055005400190A08009A50F9
:10630000E74F0B00F60908009F50A34F0B00090050
:1063100095500B008450089C4500440049005400EF
:106320002D00520055004E000400FFFF5D440C009C
:106330005D440D000800B8505E4F95500900B05004
:10634000982E742E3A2E092E0B00A25004A8450058
:106350004400490054006B479029FC4B180008008A
:10636000CB50A1470B001700AC50A1470400000020
:106370000B005F2F08A84E00450057002D00450078
:106380004400490054006B47CE45EC4BAC50A1474C
:106390000B000000000000000000000000000000F2
:1063A00000000000000000000000000000000000ED
:1063B00000000000000000000000000000000000DD
:1063C00000000000000000000000000000000000CD
:1063D00000000000000000000000000000000000BD
:1081D0001F00000003003C003C00340020000000B1
:1081E00003003C003C0038002100000003003C007C
:1081F0003C00390022000000020030003D00230056
:108200000000020031002B002400000002003100B9
:108210002D0025000000020032002B002600000087
:10822000020032002D0027000000050048004F002A
:10823000500045004E0028000000070048004300A1
:10824000520045004100540045002900000006008E
:10825000480043004C004F00530045002A00000036
:108260000700480052004500410044004C004E0009
:108270002B0000000800480057005200490054003D
:1082800045004C004E002C00000005004800530043
:10829000450045004B002D0000000500480054003B
:1082A00045004C004C002E00000005004800530023
:1082B00049005A0045002F00000006004800460013
:1082C0004C005500530048003000000007004800F3
:1082D000440045004C0045005400450031000000BA
:1082E00007004800520045004E0041004D00450087
:1082F00032000000030055004D002A00330000004A
:1083000003004E004F0054003500000003005300EE
:10831000550042003600000006004E0045004700B0
:1083200041005400450037000000030049004E00A2
:1083300043003800000003004400450043003900BA
:10834000000004005A00450052004F003A000000AF
:10835000020055002B003B000000020032002A0002
:108360003C00000000000000457E50005200490023
:108370004D003F001800A2020C001800B0060F00CC
:10838000EC030C0017000400331F18000F00080056
:108390000B211800B0060F00EC030D001E000800B2
:1083A000EF202D07C929B006B0060900DD20A20282
:1083B0000D00190018000F00C10F0800FF20190060
:1083C00017002D07C929B006B0060900DD201900E5
:1083D00017002D07C92918000D001900B0060D005F
:1083E0000400FFFF0B001700A2020D0004000000B4
:1083F0000B0003003F0072007800020003007400CD
:10840000780021000300010021000C000100400061
:108410000D000200430021000E0002004300400056
:108420000F00030052005000210010000300520012
:10843000500040001100020052003E0012000200F5
:1084400052004000130002003E00520014000300DE
:10845000530050004000150003005300500021005D
:1084600016000400440052004F00500017000300A3
:10847000440055005000180004005300570041000C
:108480005000190004004F005600450052001A0029
:10849000020030003C001B00030041004E0044007D
:1084A0001C0002004F0052001D00030058004F0046
:1084B00052001E00030055004D002B001F0002005B
:1084C00030003D002300020031002B002400020098
:1084D00031002D002500020032002B002600020092
:1084E00032002D002700050048004F0050004500D5
:1084F0004E0028000700480043005200450041009C
:108500005400450029000600480043004C004F007D
:10851000530045002A000700480052004500410072
:1085200044004C004E002B00080048005700520049
:108530004900540045004C004E002C000500480046
:108540005300450045004B002D0005004800540035
:1085500045004C004C002E00050048005300490027
:108560005A0045002F000600480046004C00550008
:1085700053004800300007004800440045004C000C
:1085800045005400450031000700480052004500F6
:108590004E0041004D0045003200030055004D00E3
:1085A0002A00330003004E004F0054003500030042
:1085B000530055004200360006004E0045004700BB
:1085C0004100540045003700030049004E004300BD
:1085D00038000300440045004300390004005A00FD
:1085E000450052004F003A00020055002B003B00AE
:1085F000020032002A003C0000000000467E4900D4
:108600005000520049004D003F001800A2020C002B
:108610001800B0060F00EC030C0017000400112135
:1086200018000F00080050221800B0060F00EC03DD
:108630000D001E00080039222D07C929B0060900C7
:10864000282218000F001400A2020D00B0061A0024
:10865000B0061200E60F08004B222D07C9290D00B5
:108660000400FFFF0B002D07C929B00609002822CE
:108670001700A2020D00040000000B000000488A51
:10868000240043004F004D00500049004C004500BD
:10869000C21208006B22400908006B22040004008B
:1086A000782978290B00D711760508008722180051
:1086B0000D001800040080001C0008007B22170039
:1086C000170014000B00040020001C000800842286
:1086D00017000D0078290B00170078290B004009BE
:1086E00008008F2204000400782978290B00AB12BF
:1086F00000004A5849004E00540045005200500006
:108700005200450054002C00C2120800A422400967
:108710000800A42287070B00D71176050800F12274
:1087200018000D00040040001C008F180D002000F0
:1087300063006F006D00700069006C006500200030
:108740006F006E006C0079001A0004005D161E00B8
:108750000800EE221A000400D7291E000800EE22AD
:108760001A00040048241E000800EE221A0004002B
:108770004D251E000800EE221A0004005E251E0092
:108780000800EE221A00040017271E000800EE223F
:1087900018000D00040020001C000800EB22170048
:1087A0000D0075070B00170075070B00170014006C
:1087B0000B00AB12000046985200450056004500E1
:1087C00041004C00C9030D00180014009A0FB006B8
:1087D0000F009B030D00B80F7D0F760508001023D6
:1087E00018000D0013000C00120019000C000B0003
:1087F000120017000B002E17898A49004D004D000A
:108800004500440049004100540045000400800038
:10881000C9030D00B00618000D0081051D001900E8
:108820000C000B000E1E078A500052004900560033
:1088300041005400450004000001C9030D00B006CA
:1088400018000D0081051D0019000C000B008C1E86
:108850000CB243004F004D00500049004C00450051
:108860002D004F004E004C00590004004000C90389
:108870000D00B00618000D0081051D0019000C0048
:108880000B00DE0F06A44D00410052004B004500D6
:10889000520031030D00080088238F1820004D007E
:1088A000410052004B0045005200200063006F0061
:1088B0006D00700069006C0065002D00730074008D
:1088C000610074006500200075006E007300750083
:1088D000700070006F007200740065006400AB12DD
:1088E000C9030D00A2020C003B07AE020C000C0FE6
:1088F000041F7D03D21E7D03B006D21E7D03B00689
:10890000B006D21E8C03D21E8C03B006D21E8C037E
:10891000B006B006D21E8C03B006B006B006D21E5A
:108920008C03B006B006B006B006D21E8C03B006AB
:10893000B006B006B006B006D21E8C03B006B00674
:10894000B006B006B006B006D21E8C03B006B00664
:10895000B006B006B006B006B006D21E8C03B00654
:10896000B006B006B006B006B006B006B006D21E1D
:108970009B03D21E9B03B006D21EA2020D00C903A8
:10898000EE1EAE020D00A503EE1E040004007829C1
:10899000AE020D007829040050187829A5030D00B7
:1089A000501804000B007829FA220B00FD1606A8C7
:1089B00046004F00520047004500540031030D00AF
:1089C00008001D248F18200046004F005200470069
:1089D00045005400200063006F006D0070006900C6
:1089E0006C0065002D007300740061007400650068
:1089F000200075006E0073007500700070006F003D
:108A00007200740065006400AB120C0F9B030D0034
:108A1000A81176050800412414008D0512001800E5
:108A200004000080BA05080039248F18090070007E
:108A300072006F00740065006300740065006400DC
:108A4000AB12A70F1800A5030C009B030D003418F0
:108A50000B00AB12C91804A4550053004500520086
:108A60000C0F041FAA16AE047829FA220B0000008E
:108A70000AB256004F0043004100420055004C002E
:108A80004100520059000C0F041F3B070400030073
:108A9000C9291800A2020C001700AA164C05A20250
:108AA0000D00782904000B007829A2020D000400B3
:108AB0000300C92978290400000078290400000077
:108AC0007829A2020D0004000300C929180004003F
:108AD0005F00901692177D03B0060D00A2020D00F4
:108AE000B0060C00A2020D007D03B0060C00FA22B5
:108AF0000B0056140BA644004500460049004E00EA
:108B00004900540049004F004E0053008C030D00F3
:108B1000B80F9B03B0060C009B03B0069B030C0030
:108B20000B005923068A4D004F00440055004C00AD
:108B3000450031030D000800D8248F1820004D0097
:108B40004F00440055004C004500200063006F00BA
:108B50006D00700069006C0065002D0073007400EA
:108B6000610074006500200075006E0073007500E0
:108B7000700070006F007200740065006400AB123A
:108B8000C3040D00D8040D001D000800EF248F1849
:108B90000D006D006F00640075006C006500200022
:108BA000610063007400690076006500AB12A114D7
:108BB0000400FFFFC3040C0004000000D8040C00F4
:108BC0000B003D1B0A8A45004E0044002D004D005D
:108BD0004F00440055004C00450031030D000800D3
:108BE00030258F18240045004E0044002D004D0014
:108BF0004F00440055004C004500200063006F000A
:108C00006D00700069006C0065002D007300740039
:108C1000610074006500200075006E00730075002F
:108C2000700070006F007200740065006400AB1289
:108C3000C3040D00D8040D001D0008003925CD1512
:108C40000B008F1809006E006F0020006D006F0090
:108C5000640075006C006500AB123F23068A430078
:108C6000520045004100540045000C0F041F040051
:108C700006007829FA220B004F24088A560041008A
:108C800052004900410042004C0045004D250400BF
:108C9000000078290B000000508A4D004F0044006E
:108CA00055004C0045002D0053004B00490050007A
:108CB0002D004C0049004E0045000C0FD711080054
:108CC0007F25040005251E00080081250B001700E4
:108CD0000B00CD1523130B007D16058A5F00540091
:108CE00059005000450009009925190018000F008F
:108CF000D506510B04000100C92919000400FFFF2B
:108D0000C929180008009E2509008D258D050B0036
:108D1000DB0C035664006D002B001A0004000400F5
:108D2000EF08740B370014000900B62518000F0077
:108D300004000300EF0804000100C9290700AE2564
:108D4000120017000B00912404A0440055004D00B0
:108D5000500087020D001400B3080400100096298B
:108D600037001400BA0B040010009029A5258105D6
:108D7000810504000200990B8B25590B3500080072
:108D8000DF250700CA25120017000900E12512009F
:108D900017001700120087020C000B009E1802A695
:108DA0002E005300BA0BEA067605080008260400D8
:108DB0000100C929370014000900FD251300370000
:108DC000040001009D29F80606090700F625120097
:108DD0001700FE0C040020003C00730070000B0024
:108DE00009000126E625058A2E00420041005300B5
:108DF000450087020D00C1081800060987020C0013
:108E00000B000A26058A2E00460052004500450048
:108E100005020D00A5030D009D29FD080B000000B3
:108E200004A02100430053005000150024030C004F
:108E30000B00D31804A03F0043005300500015005E
:108E400024030D001E008F181100730074006100D0
:108E500063006B002000640065007000740068000F
:108E600020006500720072006F0072000B000000AD
:108E70004E86580054003E004E0041004D00450013
:108E80002D0049004E002D0056004F0043001900F0
:108E9000A2020C00B80F760508008F2604005F00C0
:108EA0003700140018000D009A040C009A040D00FD
:108EB00018000800882618006B0FA2020D001E0083
:108EC00008007F260D009A040C0009006E2617008A
:108ED0009A040D009A0F19001700120017000B00DA
:108EE0001700B00607006A261200170017000400DA
:108EF00000000B000000058A3E004E0041004D00BE
:108F000045007D0318000800AE261A001A005F26EF
:108F100076050800A82619001700190017000B0095
:108F200019001700B0060D0009009A26170004006A
:108F300000000B000000068A50003E004E00410079
:108F40004D0045000400331F18000F000800D02614
:108F500090292D07C9290D001E000800CD262D07D8
:108F6000C929B006B0060900BC26190017000B007D
:108F7000190017000B00000005A650003E004F002E
:108F8000500053000400331F18000F000800F4269F
:108F900090292D07C9290D001E000800ED262D0778
:108FA000C929B006B0060900DC26190017002D07F4
:108FB000C929B0060D000B001900170004000000BD
:108FC0000B00192603882E0049004400760508008E
:108FD00007272D0704001F001C008B250B00FE0C2B
:108FE00008007B006E006F004E0061006D006500A0
:108FF0007D000B006F1C038A5300450045000C0FD9
:10900000D711180008005F271700BA0B18000D00D1
:109010001800A2020C00180004000002BA050800A3
:109020002C27BA2609002D27992676050800342713
:10903000740BFE2609003527FD08A2020D0004006E
:109040000002BA0508005927A2020D0004000B0017
:109050001E0008005D27A2020D00DA267605080032
:1090600059271700590B08004F2709005D27B00644
:1090700018000D00FD08B006590B08001E27090056
:109080005D27B006590B08001E2717000B00AB1216
:10909000741705A657004F00520044005300BA0B46
:1090A0008C030D00B80F76050800B02704005F00A0
:1090B0003700140018000D009A040C009A040D00EB
:1090C00018000800A9279A0F18000D00040040009E
:1090D0001C0008008B2717009A040D000D009A044D
:1090E0000C000900762718000D00040000011C0088
:1090F00008009A2717009A040D000D009A040C002E
:10910000090076271800740BFE2617009A040D003C
:109110000D009A040C00590B080076271700170061
:109120000B001700B0060700722712001700170087
:109130000B00542503A4560045005200040000040F
:109140000B00000002D268006900BA0BFE0C11008F
:109150005000440052002D0031003600200046002F
:109160006F007200740068002000760034002E004A
:109170003000BA0BFE0C1F0064006500720069002D
:109180007600650064002000660072006F006D00CC
:109190002000650046006F00720074006800200027
:1091A00062007900200043002E0048002E00540089
:1091B00069006E006700BA0B0B00F92405B2450088
:1091C0004D0050005400590004000080A5030C001D
:1091D0000400D150C9030C00040000007D03B00658
:1091E0000C000400008050186A059E240B004525E1
:1091F000067C43004D004F00560045003E0018001D
:109200000800302814001A001300C92904000100C6
:109210009D291A001300C929040001009D290F008F
:1092200019000E0012000400FFFFC92909001728C9
:1092300017008D050B00A924048A4D004F0056002D
:109240004500902917001900BA0508004128C307F6
:109250000B0017280B000F28048843004F004C0018
:10926000440004007FF9160004007FFE1000040093
:109270000200040080FE04003402C3070400E2FE82
:109280007D030C00040000007D03B0060C00691390
:10929000BD270400D150C9030C006A059E24231386
:1092A00004007FF91600141609004928312623F01E
:1092B0003F007200780002000B009D022342740000
:1092C0007800210003000B00F52724A84500580072
:1092D000490054000B000B002726214221000C00FE
:1092E0000B000000218040000D000B0043282242AB
:1092F000430021000E000B008E2822804300400016
:109300000F000B00A91B2342520050002100100047
:109310000B009A28238052005000400011000B00DF
:10932000A128227C52003E0012000B00A8282280B7
:109330005200400013000B00C60822A43E00520059
:1093400014000B001227238053005000400015002A
:109350000B00BA28234253005000210016000B00D6
:10936000BB2524A0440052004F00500017000B0002
:10937000C82823A044005500500018000B00C12845
:1093800024A0530057004100500019000B00D213D5
:1093900024A44F005600450052001A000B000000A4
:1093A000227830003C001B000B00C81D23884100C0
:1093B0004E0044001C000B00DF2822A44F00520086
:1093C0001D000B00000023A458004F0052001E0097
:1093D0000B004224235655004D002B001F000B00AC
:1093E0005D0823683C003C00340020000B00082985
:1093F00023703C003C00380021000B000F29237231
:109400003C003C00390022000B00E728227A3000A3
:109410003D0023000B000000225631002B002400E9
:109420000B002329225A31002D0025000B001907BB
:10943000225632002B0026000B002F29225A320020
:109440002D0027000B00081723A84E004F005400E2
:1094500035000B00D7282384530055004200360006
:109460000B003B29268A4E0045004700410054006E
:10947000450037000B001323238649004E004300AC
:1094800038000B00D02823864400450043003900F3
:109490000B000000249E5A00450052004F003A0085
:1094A0000B000129225655002B003B000B003529EB
:1094B000225432002A003C000B00000001582C000E
:1094C0003B071800B006A5030C000C000B00ED28AC
:1094D00003A641004200530018001B000800892920
:1094E00037000B006F2904A03200440055005000E3
:1094F0001A001A000B005806015E2F005E061900C4
:1095000017000B00F507015A2D0036000B00000074
:10951000017A3D001E000800A829040000000B008D
:109520000400FFFF0B001629027C3C003E00A2292C
:1095300035000B00B428017C3E001900CA050B0061
:10954000AB29027A3C003D00B52935000B00B22959
:10955000027A3E003D00CA0535000B0000070156A7
:109560002B003B000B000000C1763B0004000B0009
:1095700078294D16FA220B00000001743A000C0FF6
:10958000041F55160B009428025843002C003B077B
:109590001800B006A5030C000E000B00532909901B
:1095A00049004D0047002D00570049004400540079
:1095B00048000D000B00E6290AA849004D004700AD
:1095C0002D00480045004900470048005400B006FF
:1095D0000D000B00F329088249004D0047002D00C3
:1095E000440041005400410004000200C9290B005E
:1095F000022A844449004D004700220068040C0000
:1096000004002200D20E90291900170068040D00F2
:109610000400070075061E000800272A410C902947
:109620005F0C3B0714009029190012008105C30745
:10963000901617000B007C280A8A45004D0049004F
:1096400054002D0049004D0041004700450018001E
:109650001D3174040C0018002B3119003831190029
:1096600018000800562A190074040D00CE0CBA0B1D
:109670001900040001009D290900482A8D05830C6A
:109680000B00332A038645005300430004001B00EF
:10969000510B0B00DB2903924300530049005E2A63
:1096A000FE0C01005B000B0000000A6043004F004D
:1096B0004C004F0052003E004400310030003000AA
:1096C000060031003100310030003200310031003D
:1096D0003000320032003100300032003200310000
:1096E00031003100310031003000320031003100F2
:1096F00030003200320031003000320032003200DF
:1097000031003100310031003100320031003100D0
:1097100031003200320031003100320032003200BC
:1097200031003100310031003000310031003100B2
:1097300030003100310031003000310031003100A3
:109740003000310031003000300031003000300096
:109750003000310030003000300031003000300087
:109760003000310031003000300031003000300076
:109770003000310030003000300031003000300067
:109780003000310031003000300031003000300056
:109790003000310030003000300031003000300047
:1097A0003000310031003000300031003000300036
:1097B0003000310030003000300031003000300027
:1097C0003000310031003000300031003000300016
:1097D0003000310030003000300031003000300007
:1097E00030003100310030003000310031003000F5
:1097F00030003100310030003000310031003000E5
:1098000030003100310031003000320031003100D1
:1098100030003200320031003000320032003200BD
:1098200031003100310031003000320031003100B0
:10983000300032003200310030003200320031009E
:109840003100300030003000300030003000300097
:109850003000300030003000300030003000300088
:109860003000300030003000300030003000300078
:109870003000300030003000300030003000300068
:109880003000300030003000300030003000300058
:109890003000300030003000300030003000300048
:1098A000300032003200320032003200320032002A
:1098B0003200320032003200320032003200320018
:1098C00032000000096043004F004C004F0052007E
:1098D0003E004400310030000600380037003300FD
:1098E00038003100360036003800310030003600D4
:1098F00038003100300039003200380038003300C1
:1099000039003200370037003900320031003700AB
:1099100039003200310030003300380038003400A4
:109920003000320038003800300032003200380099
:109930003000320032003200340038003500300090
:10994000360039003400310036003900350031006E
:10995000360039003500310037003500310037005E
:109960003200350037003400320035003800340052
:109970003200320038003400330035003100370047
:109980003200350037003400320035003800340032
:109990003200320038003400330035003100370027
:1099A000330035003800340033003500380034000F
:1099B0003300320038003500330035003100360006
:1099C00032003500370033003200350037003300F5
:1099D00032003100370033003200340030003600EE
:1099E00031003400360032003100340036003200DD
:1099F00031003000360032003100380034003900C8
:109A000035003800330039003500380033003900A4
:109A10003500370033003900350038003700330097
:109A2000390031003700360039003100300036008F
:109A30003900310030003000320038003700330088
:109A40003800310036003600380031003000360072
:109A5000380031003000390032003100310031006F
:109A6000310031003100310031003100310031006E
:109A7000310031003100310031003100310031005E
:109A8000310031003100310031003100310031004E
:109A9000310031003100310031003100310031003E
:109AA000310031003100310031003100310031002E
:109AB0003100310031003100310035003500350012
:109AC00035003400340034003400340034003400F5
:109AD00033003300330033003300000008624300DA
:109AE0004F004C004F0052003E0044003100060081
:109AF00031003400310038003700370030003800C2
:109B000037003300300038003000330036003400B6
:109B100037003000370034003300390032003400A1
:109B20003300350032003400320035003800300098
:109B30003700360033003000390035003400300083
:109B4000390037003400300038003700360032006A
:109B50003700300037003400330039003200340061
:109B60003300350032003400320035003800300058
:109B70003100340031003800370037003000380041
:109B80003700330030003800300033003600340036
:109B90003200350032003900380039003200390017
:109BA0003800350032003900320035003800350009
:109BB000320036003300300039003000340030000D
:109BC00039003700340030003300370031003700EF
:109BD00032003000370034003300340032003400EB
:109BE00033003500320034003700350033003500D3
:109BF00036003400310038003700320030003800C1
:109C000037003300300038003500330031003900B0
:109C100032003000370034003300340032003400AA
:109C20003300350032003400370035003300350092
:109C3000320036003300300039003000340030008C
:109C4000390037003400300033003700310037006E
:109C50003200350032003900380039003200390056
:109C60003800350032003900320035003800350048
:109C70003600360036003600360036003600360034
:109C80003600360036003600360036003600360024
:109C90003600360036003600360036003600360014
:109CA0003600360036003600360036003600360004
:109CB00036003600360036003600360036003600F4
:109CC00036003600360036003600360036003600E4
:109CD00035003300320030003900370036003400E0
:109CE00033003100300038003700350034003200D6
:109CF000000006804400490047004900540040002D
:109D00001900C9290F000B000000078843004F000D
:109D10004C004F0052003E00440018008F2C982D3C
:109D200019001800842B982D1900782A982D0B0003
:109D3000EE230342460047002100672AFE0C05007F
:109D4000330038003B0035003B00A52D510B510B73
:109D5000510B04006D00510B0B00F416034242003E
:109D600047002100672AFE0C0500340038003B0044
:109D700035003B00A52D510B510B510B04006D001C
:109D8000510B0B007F29054641004E00530049004E
:109D90002300610881089908A20B0B00622A06665D
:109DA00043004C0041004D0050003300040000000F
:109DB000DA0504000300E6050B00DA2D02A84100D5
:109DC0005400672AE12D04003B00510BE12D0400F3
:109DD0004800510B0B008A13048A48004F004D00C5
:109DE0004500672AFE0C010048000B0042290BA425
:109DF00053004100560045002D004300550052001D
:109E000053004F005200672AFE0C010073000B0044
:109E1000AE280EA452004500530054004F005200DB
:109E200045002D0043005500520053004F005200E2
:109E3000672AFE0C010075000B00E62D03A6430007
:109E40004C005300672AFE0C020032004A000B004F
:109E5000352E078A43004C002D004C0049004E006F
:109E60004500672AFE0C020032004B000B00402E1A
:109E7000069843004C002D0045004F004C00672A17
:109E8000FE0C01004B000B004F2E06A643004C00B9
:109E90002D0045004F005300672AFE0C01004A00C8
:109EA0000B005C2E099C43005500520053004F00EC
:109EB00052002D004F004E00672AFE0C04003F00A8
:109EC0003200350068000B00692E0A8C43005500F3
:109ED000520053004F0052002D004F004600460034
:109EE000672AFE0C04003F00320035006C000B00B6
:109EF000492906984E004F0052004D0041004C0089
:109F0000830C0B00C52D048842004F004C00440018
:109F1000672AFE0C020031006D000B005A29039ADB
:109F2000440049004D00672AFE0C020032006D001B
:109F30000B009A2E059642004C0049004E004B0043
:109F4000672AFE0C020035006D000B006929079698
:109F500055004E0042004C0049004E004B00672A5D
:109F6000FE0C0300320035006D000B00BE2E098A86
:109F700055004E004400450052004C0049004E0080
:109F80004500672AFE0C020034006D000B00202EF5
:109F9000078A520045005600450052005300450014
:109FA000672AFE0C020037006D000B00B12E0498EA
:109FB000420045004C004C0004000700510B0B0010
:109FC000032E0398480053004C00140004000400C2
:109FD00075061900040010007506C9291200C92968
:109FE0000B00F82E02804800400004001000962963
:109FF0000B000E2E0280530040000400040096293E
:10A000000400040068060B00731B02804C00400033
:10A010000400040068060B00112F05905300450052
:10A0200054002D00480019000400100068061900B3
:10A03000040010007506C9290B00242F05A6530043
:10A04000450054002D0053001400180004000400C3
:10A050006806190004001000962904001000750617
:10A06000C9291200040004007506C9290B00352F08
:10A0700005985300450054002D004C0019000400C1
:10A0800004009629040004007506C9290B00902ECF
:10A09000087E4E00450055005400520041004C001F
:10A0A0003F000D2F04000F00A2290B00092F0256BC
:10A0B00048002B001800692F0800782F0900812F15
:10A0C00018000D2F04000100C92904000C006806C7
:10A0D0002B2F0B006E2F025A48002D001800692FFD
:10A0E00008008C2F0900952F18000D2F04000B007D
:10A0F000C92904000C0068062B2F0B004F2F0256B5
:10A1000053002B001800152F04000100C929EE2D63
:10A110003C2F0B00962F025A53002D001800152FCC
:10A12000040001009D29EE2D3C2F0B001C2F025630
:10A130004C002B001800202F04000100C929EE2D2F
:10A14000562F0B00AE2F025A4C002D001800202F66
:10A15000040001009D29EE2D562F0B00822F078849
:10A16000480053004C005F005200450044000400CA
:10A1700000000400030004000100FD2E0B00C62FA8
:10A180000A8A480053004C005F004F005200410013
:10A190004E004700450004000100040003000400D5
:10A1A0000100FD2E0B00D72F0AAE480053004C00D3
:10A1B0005F00590045004C004C004F005700040060
:10A1C00002000400030004000100FD2E0B00EB2F31
:10A1D0000A9C480053004C005F00590047005200A1
:10A1E000450045004E000400030004000300040085
:10A1F0000100FD2E0B00FF2F099C480053004C006E
:10A200005F0047005200450045004E000400040076
:10A210000400030004000100FD2E0B001330099C14
:10A22000480053004C005F004700430059004100C4
:10A230004E00040005000400030004000100FD2E90
:10A240000B002630089C480053004C005F00430080
:10A25000590041004E000400060004000300040001
:10A260000100FD2E0B003930098A480053004C00D4
:10A270005F0041005A0055005200450004000700ED
:10A280000400030004000100FD2E0B004B30088A7F
:10A29000480053004C005F0042004C005500450050
:10A2A000040008000400030004000100FD2E0B0060
:10A2B0005E300AA8480053004C005F005600490079
:10A2C0004F004C0045005400040009000400030046
:10A2D00004000100FD2E0B0070300B82480053007B
:10A2E0004C005F004D004100470045004E00540007
:10A2F000410004000A000400030004000100FD2ED8
:10A300000B008430088A480053004C005F00520064
:10A310004F005300450004000B000400030004003C
:10A320000100FD2E0B00000004B247005200410066
:10A33000590004000000DA0504000F00E6050400DF
:10A3400004005E061900140004000F00190012003A
:10A35000FD2E0B006027058A570048004900540075
:10A36000450004000000B1300B00EE2E05964200BF
:10A370004C00410043004B0004000F00B1300B00C3
:10A38000BA2F07A44C00490047004800540045007C
:10A390005200B22F0B00A62E06A44400410052002A
:10A3A0004B0045005200BE2F0B00A22F088A53001D
:10A3B00041005400550052004100540045009A2FBE
:10A3C0000B00E3300A8A440045005300410054006A
:10A3D00055005200410054004500A62F0B007C2E72
:10A3E000025843002C003B071800B006A5030C00E0
:10A3F0000E000B00102A099049004D0047002D0067
:10A40000570049004400540048000D000B00123171
:10A410000AA849004D0047002D00480045004900AA
:10A42000470048005400B0060D000B001F310882A1
:10A4300049004D0047002D004400410054004100F8
:10A4400004000200C9290B002E31844449004D004C
:10A450004700220068040C0004002200D20E90295C
:10A460001900170068040D000400070075061E009F
:10A4700008005331410C90295F0C3B0714009029D0
:10A48000190012008105C307901617000B00592A06
:10A490000A8A45004D00490054002D0049004D0036
:10A4A00041004700450018001D3174040C001800DD
:10A4B0002B311900383119001800080082311900B9
:10A4C00074040D00CE0CBA0B1900040001009D2984
:10A4D000090074318D05830C0B0007310B8A430092
:10A4E00050003400330037002D0048004C00490074
:10A4F0004E0045000400C4000B0085310B8A430068
:10A5000050003400330037002D0056004C00490045
:10A510004E0045000400B3000B009531089843003D
:10A5200050003400330037002D0054004C0004006C
:10A53000DA000B00A53108A44300500034003300BA
:10A5400037002D00540052000400BF000B00B23150
:10A550000898430050003400330037002D004200BB
:10A560004C000400C0000B00BF3108A443005000A1
:10A570003400330037002D00420052000400D9009F
:10A580000B00CC310B9C43005000340033003700EB
:10A590002D00540044004F0057004E000400C2003C
:10A5A0000B00D93109A043005000340033003700BC
:10A5B0002D005400550050000400C1000B00E9318B
:10A5C0000CA8430050003400330037002D00540025
:10A5D000520049004700480054000400C3000B002B
:10A5E000F7310BA8430050003400330037002D0032
:10A5F00054004C004500460054000400B4000B0019
:10A6000008320BA6430050003400330037002D0001
:10A61000430052004F00530053000400C5000B00DC
:10A6200000000A8A530049004E0051002D005400DA
:10A63000410042004C00450006000000C9009201A4
:10A640005B022403ED03B6047F0548061107D90712
:10A65000A2086A09330AFB0AC40B8C0C540D1C0EA9
:10A66000E30EAB0F72103A110112C8128F1355147A
:10A670001C15E215A8166E173318F918BE19821AA0
:10A68000471B0B1CCF1C931D571E1A1FDD1F9F203D
:10A6900061212322E522A62367242825E825A82670
:10A6A00067272628E528A329612A1F2BDC2B992C54
:10A6B000552D112ECC2E872F4130FB30B5316E3207
:10A6C0002633DF3396344D350436BA366F372438A7
:10A6D000D9388C39403AF23AA53B563C073DB83D53
:10A6E000683E173FC53F73402141CE417A42254322
:10A6F000D0437A442445CD4575461C47C347694835
:10A700000F49B449584AFB4A9D4B3F4CE04C814DA0
:10A71000204EBF4E5D4FFB4F97503351CE51685284
:10A7200002539B533254C9546055F5558A561D57F0
:10A73000B0574258D3586459F359825A0F5B9C5B07
:10A74000285CB35C3E5DC75D4F5ED75E5D5FE35FD7
:10A750006860EB606E61F0617162F1627063EE637C
:10A760006C64E8646365DD655666CF664667BC6702
:10A770003268A66819698B69FD696D6ADC6A4A6B83
:10A78000B76B236C8E6CF86C616DC96D306E966E14
:10A79000FB6E5E6FC16F22708370E27040719D71BD
:10A7A000F9715472AE7207735E73B5730A745F7495
:10A7B000B27404755575A575F37541768D76D876A6
:10A7C00022776B77B377FA773F788478C7780979FF
:10A7D0004A798979C879057A417A7C7AB67AEE7AAB
:10A7E000267B5C7B917BC57BF87B297C597C887CB4
:10A7F000B67CE37C0E7D397D627D897DB07DD57D23
:10A80000FA7D1D7E3E7E5F7E7E7E9C7EB97ED57EFD
:10A81000EF7E097F217F377F4D7F617F747F867F49
:10A82000977FA67FB47FC17FCD7FD87FE17FE97F0F
:10A83000F07FF57FF97FFD7FFE7F00000A8A5000E0
:10A840004F00570032002D005400410042004C00E0
:10A85000450006000100020004000800100020006E
:10A8600040008000000100020004000800100020E9
:10A870000040008000000B8A4C004F00470032006F
:10A8800049002D005400410042004C0045000600E4
:10A8900000000010002000300040005000600070F8
:10A8A0000080009000A000B000C000D000E000F0E8
:10A8B00000000B8A4C004F004700320046002D007C
:10A8C0005400410042004C00450006000000170003
:10A8D0002E0045005C00720089009F00B600CC008D
:10A8E000E200F9000F0125013B01500166017C01E6
:10A8F0009201A701BD01D201E701FC01120227026A
:10A900003C02510265027A028F02A302B802CC0215
:10A91000E102F5020A031E03320346035A036E03E3
:10A9200082039603A903BD03D103E403F8030B04D8
:10A930001E043204450458046B047E049104A404EC
:10A94000B704CA04DC04EF04020514052705390521
:10A950004B055E05700582059405A605B905CB0576
:10A96000DC05EE05000612062406350647065806E5
:10A970006A067B068D069E06B006C106D206E30671
:10A98000F406050716072707380749075A076B0714
:10A990007B078C079D07AD07BE07CE07DF07EF07D4
:10A9A000FF071008200830084008500861087108A7
:10A9B00081089008A008B008C008D008E008EF0897
:10A9C000FF080F091E092E093D094D095C096B0995
:10A9D0007B098A099909A809B809C709D609E509AF
:10A9E000F409030A120A210A300A3E0A4D0A5C0AD7
:10A9F0006B0A790A880A970AA50AB40AC20AD10A18
:10AA0000DF0AEE0AFC0A0A0B190B270B350B430B66
:10AA1000510B5F0B6E0B7C0B8A0B980BA60BB30BC9
:10AA2000C10BCF0BDD0BEB0BF90B060C140C220C3E
:10AA30002F0C3D0C4A0C580C660C730C800C8E0CC1
:10AA40009B0CA90CB60CC30CD00CDE0CEB0CF80C58
:10AA5000050D120D1F0D2D0D3A0D470D540D600DF6
:10AA60006D0D7A0D870D940DA10DAE0DBA0DC70DAC
:10AA7000D40DE00DED0DFA0D060E130E1F0E2C0E6B
:10AA8000380E450E510E5E0E6A0E760E830E8F0E38
:10AA90009B0EA70EB40EC00ECC0ED80EE40EF00E18
:10AAA000FC0E090F150F210F2D0F380F440F500FFB
:10AAB0005C0F680F740F800F8B0F970FA30FAF0FF2
:10AAC000BA0FC60FD20FDD0FE90FF40F0010000010
:10AAD0000B8A4C004F004700320044002D00540008
:10AAE000410042004C004500060017001700170007
:10AAF00017001600170016001700160016001700A2
:10AB00001600160016001500160016001600150097
:10AB1000160015001500150016001500150015008B
:10AB20001400150015001400150014001500140081
:10AB30001500140014001400140014001400140074
:10AB40001300140014001300140013001300140069
:10AB5000130013001300130013001300130013005D
:10AB60001200130013001200130012001200130051
:10AB70001200120012001200130012001100120045
:10AB80001200120012001100120011001200110038
:10AB9000120011001200110011001100110011002B
:10ABA000110011001100110011001100100011001E
:10ABB0001100100011001000110010001000110011
:10ABC00010001000100010001100100010000F0005
:10ABD000100010001000100010000F0010001000F6
:10ABE0000F0010000F0010000F000F0010000F00EA
:10ABF0000F000F0010000F000F000F000F000F00DC
:10AC00000F000F000F000E000F000F000F000E00CE
:10AC10000F000F000E000F000E000F000E000F00BF
:10AC20000E000E000F000E000E000E000E000E00B3
:10AC30000F000E000E000E000E000D000E000E00A4
:10AC40000E000E000E000D000E000E000D000E0096
:10AC50000D000E000E000D000D000E000D000E0088
:10AC60000D000D000D000E000D000D000D000D007B
:10AC70000D000E000D000D000D000C000D000D006C
:10AC80000D000D000D000D000C000D000D000C005E
:10AC90000D000D000C000D000C000D000C000D004F
:10ACA0000C000D000C000C000D000C000C000C0042
:10ACB0000D000C000C000C000C000C000C000D0032
:10ACC0000C000C000C000B000C000C000C000C0025
:10ACD0000C000C000B000C000C000C000B000C0016
:10ACE0000C000B000C000B000C0000000B8A450050
:10ACF00058005000320046002D0054004100420030
:10AD00004C004500060000100B10161021102D10ED
:10AD1000381043104E105A10651070107C108710B8
:10AD200093109E10AA10B510C110CD10D810E410C9
:10AD3000F010FB10071113111F112B1137114311C4
:10AD40004F115B11671173117F118B119711A311B3
:10AD5000B011BC11C811D511E111ED11FA11061293
:10AD600013121F122C123812451252125F126B125C
:10AD70007812851292129F12AC12B812C512D31219
:10AD8000E012ED12FA120713141321132F133C13C0
:10AD900049135713641372137F138D139A13A81357
:10ADA000B513C313D113DF13EC13FA1308141614DD
:10ADB0002414321440144E145C146A14781487144A
:10ADC0009514A314B114C014CE14DD14EB14FA14AA
:10ADD00008151715251534154315521560156F15EF
:10ADE0007E158D159C15AB15BA15C915D815E71527
:10ADF000F715061615162416341643165316621642
:10AE0000721681169116A116B016C016D016E0164D
:10AE1000F016FF160F171F1730174017501760173F
:10AE2000701780179117A117B117C217D217E31720
:10AE3000F4170418151826183618471858186918E2
:10AE40007A188B189C18AD18BE18CF18E018F21895
:10AE5000031914192619371949195A196C197E1929
:10AE60008F19A119B319C519D619E819FA190C1AAD
:10AE70001E1A311A431A551A671A7A1A8C1A9E1A10
:10AE8000B11AC31AD61AE91AFB1A0E1B211B341B5E
:10AE9000471B591B6C1B7F1B931BA61BB91BCC1B91
:10AEA000DF1BF31B061C1A1C2D1C411C541C681CA8
:10AEB0007C1C8F1CA31CB71CCB1CDF1CF31C071DA8
:10AEC0001B1D301D441D581D6C1D811D951DAA1D87
:10AED000BE1DD31DE81DFD1D111E261E3B1E501E4E
:10AEE000651E7A1E8F1EA51EBA1ECF1EE51EFA1EF7
:10AEF000101F251F3B1F501F661F7C1F921FA81F7E
:10AF0000BE1FD41FEA1F002000000B8A4500580016
:10AF10005000320044002D005400410042004C001B
:10AF2000450006000B000B000B000C000B000B0093
:10AF30000B000C000B000B000C000B000C000B00B6
:10AF40000C000B000C000C000B000C000C000B00A4
:10AF50000C000C000C000C000C000C000C000C0091
:10AF60000C000C000C000C000C000C000D000C0080
:10AF70000C000D000C000C000D000C000D000C006E
:10AF80000D000C000D000D000D000C000D000D005B
:10AF90000D000D000D000C000D000E000D000D0049
:10AFA0000D000D000D000D000E000D000D000E0037
:10AFB0000D000E000D000E000D000E000D000E0025
:10AFC0000E000E000D000E000E000E000E000E0012
:10AFD0000E000E000E000E000E000F000E000E0000
:10AFE0000E000F000E000F000E000F000E000F00ED
:10AFF0000E000F000F000F000E000F000F000F00DB
:10B000000F000F000F000F000F000F0010000F00C7
:10B010000F000F0010000F0010000F0010000F00B5
:10B02000100010000F0010001000100010000F00A2
:10B03000100010001100100010001000100010008F
:10B04000110010001000110010001100110010007C
:10B050001100110010001100110011001100110069
:10B060001100110011001100110012001100110057
:10B070001200110012001100120012001100120043
:10B080001200120011001200120012001200130030
:10B09000120012001200130012001200130012001E
:10B0A000130013001200130013001300130012000A
:10B0B00013001300140013001300130013001400F6
:10B0C00013001400130014001300140014001300E4
:10B0D00014001400140014001400140014001500CF
:10B0E00014001400140015001400150014001500BD
:10B0F00015001500140015001500150015001500A9
:10B100001500160015001500160015001600150094
:10B110001600150016001600160016001600160080
:10B120001600160000000B8A4100540041004E003A
:10B1300046002D005400410042004C00450006002E
:10B140000000290051007A00A300CC00F4001D018A
:10B1500046016F019701C001E90111023A02620242
:10B160008B02B402DC0205032D0356037E03A70302
:10B17000CF03F7032004480470049904C104E904D0
:10B180001105390561058905B105D90501062906AD
:10B1900051067806A006C806EF0617073E076607A1
:10B1A0008D07B507DC0703082A08510878089F08AF
:10B1B000C608ED0814093B0961098809AE09D509DB
:10B1C000FB09220A480A6E0A940ABA0AE00A060B28
:10B1D0002C0B510B770B9D0BC20BE70B0D0C320C9C
:10B1E000570C7C0CA10CC60CEB0C100D340D590D3A
:10B1F0007D0DA20DC60DEA0D0F0E330E560E7A0E02
:10B200009E0EC20EE50E090F2C0F500F730F960FF6
:10B21000B90FDC0FFF0F2110441067108910AB101D
:10B22000CE10F01012113411561177119911BB1173
:10B23000DC11FD111F12401261128212A312C312FF
:10B24000E41205132513451366138613A613C613BC
:10B25000E61305142514441464148314A214C114B1
:10B26000E014FF141E153D155B157A159815B715DA
:10B27000D515F31511162F164C166A168816A51635
:10B28000C216E016FD161A173717541770178D17C8
:10B29000AA17C617E217FE171B18371853186E188F
:10B2A0008A18A618C118DD18F81813192E1949198B
:10B2B00064197F199A19B419CF19E919041A1E1AB9
:10B2C000381A521A6C1A861A9F1AB91AD31AEC1A1B
:10B2D000051B1F1B381B511B6A1B831B9C1BB41BAC
:10B2E000CD1BE51BFE1B161C2E1C461C5E1C761C73
:10B2F0008E1CA61CBE1CD51CED1C041D1B1D331D65
:10B300004A1D611D781D8E1DA51DBC1DD31DE91D87
:10B31000FF1D161E2C1E421E581E6E1E841E9A1ED7
:10B32000B01EC51EDB1EF01E061F1B1F301F451F53
:10B330005A1F6F1F841F991FAE1FC31FD71FEC1FFB
:10B34000002000000B8A4100540041004E004400E0
:10B350002D005400410042004C0045000600290029
:10B360002800290029002900280029002900290097
:10B370002800290029002800290028002900290088
:10B38000280029002800290028002900280028007A
:10B39000290028002800290028002800280028006B
:10B3A000280028002800280028002800280027005E
:10B3B0002800280027002800270028002700280050
:10B3C0002700270027002700270027002700270045
:10B3D0002700270026002700260027002600270038
:10B3E000260026002600260026002600260025002E
:10B3F0002600260025002500260025002500250022
:10B400002500250025002500240025002400250016
:10B41000240024002500240023002400240024000C
:10B420002300240023002400230023002300230002
:10B4300023002200230023002200220023002200F8
:10B4400022002200220021002200220021002100EF
:10B4500022002100210021002100200021002100E4
:10B4600020002000210020002000200020001F00DC
:10B4700020001F0020001F001F001F001F001F00D2
:10B480001F001F001E001F001E001F001E001E00C8
:10B490001E001E001D001E001E001D001D001E00BF
:10B4A0001D001D001D001D001C001D001D001C00B6
:10B4B0001C001C001D001C001C001B001C001C00AC
:10B4C0001B001C001B001B001B001B001B001B00A3
:10B4D0001B001A001B001A001B001A001A001A0099
:10B4E0001A001A0019001A001A00190019001A008F
:10B4F0001900190019001900190018001900180086
:10B50000190018001800180018001800180018007A
:10B510001800170018001700170018001700170070
:10B520001700160017001700170016001600170066
:10B53000160016001600160016001600160015005C
:10B540001600150016001500150015001500150051
:10B55000150015001500150014001500140000005A
:10B560000580530049004E0051004000343219005C
:10B57000BC06C9290D000B000000058050004F00DB
:10B5800057003200400041331900BC06C9290D00A4
:10B590000B00000006804C004F00470032004900BD
:10B5A00040005F331900BC06C9290D000B000000E4
:10B5B00006804C004F0047003200460040007D33BB
:10B5C0001900BC06C9290D000B00000006804C00C4
:10B5D0004F0047003200440040008C341900BC0684
:10B5E000C9290D000B0000000680450058005000DE
:10B5F0003200460040009A351900BC06C9290D00EA
:10B600000B00000006804500580050003200440046
:10B610004000A9361900BC06C9290D000B00000026
:10B6200006804100540041004E0046004000B737FC
:10B630001900BC06C9290D000B000000068041005E
:10B64000540041004E0044004000C6381900BC06BA
:10B65000C9290D000B000E16047C51003100350085
:10B660003E001800C92914001B0037001200C92928
:10B670000B00433A05A45100310035003E00520052
:10B680001900040000401F008105C929493A0B0038
:10B69000CE2E058855002F004D004F0044001400A9
:10B6A00004000000120005060B00603A025E55001F
:10B6B0002F00673A190017000B006D3A035E550022
:10B6C0002A002F001400330012000506190017008D
:10B6D0000B00950607882A002F0052004F005500E6
:10B6E0004E00440018008429140090061900842993
:10B6F0001800C9291300BA05350008009A3A040059
:10B700000100C929120017000B003C31038C4900CD
:10B710002A0046007C06493A0B00CD30078E4200D5
:10B7200049004E003E0044004500470004002D0043
:10B73000040000208A3A0B00F930079C44004500C1
:10B7400047003E00420049004E00040068016806C0
:10B750000400002004002D008A3A0B00A53A09A637
:10B76000420049004E003E004400450047002E00C4
:10B77000530004002D007506040000208A3A0B00D7
:10B78000B43A099C4400450047002E0053003E0097
:10B79000420049004E0018000400680175061400BC
:10B7A000190013006806190004002D007506040036
:10B7B000002019008A3A120017000B00ED30066CC9
:10B7C00053005400450050003100360004000000D2
:10B7D00014001800040008001C0008000E3B1A00AA
:10B7E0000400020096291200C92914001800040060
:10B7F00004001C0008001B3B1A00040004009629EA
:10B800001200C92914001800040002001C000800DE
:10B81000283B1A000400080096291200C9291400C8
:10B820001800040001001C000800353B1A00040049
:10B83000100096291200C9291400170017001200E1
:10B840000B00DF2E086452004100540049004F00F5
:10B8500051003100320019000400001081057A3ACD
:10B860000B00D830099A4C004F00470032002D00E1
:10B870004E004F0052004D0004000C00190018004B
:10B8800004000020BA0504000000A22908006A3B59
