:100000000C94E9800C941A810C941A810C941A8136
:100010000C941A810C941A810C941A810C941A81F4
:100020000C941A810C941A810C941A810C941A81E4
:100030000C941A810C941A810C941A810C941A81D4
:100040000C941A810C941A810C941A810C941A81C4
:100050000C941A810C941A810C941A810C94648863
:100060000C941A810C94D8880C94AE880C941A8144
:100070000C941A810C941A810C941A810C941A8194
:100080000C941A810C941A810C941A810C941A8184
:100090000C941A810C941A810C941A810C941A8174
:1000A0000C941A810C941A810C941A810C941A8164
:1000B0000C941A810C941A810C941A810C941A8154
:1000C0000C941A810C941A810C941A810C941A8144
:1000D0000C941A810C941A810C941A810C941A8134
:1000E0000C941A810C940D830C947A810C948F8754
:1000F0000C94CE870C941C810C94FB870C9479850E
:100100000C941A870C9403840C94F8850C945082F8
:100110000C946C810C943C840C94D0870C94C88310
:100120000C9442880C9426860C9499840C94178322
:100130000C9495830C9464850C9451820C9488865D
:100140000C9459870C945F840C94B2810C94B685FE
:100150000C94E2850C9440870C94FF810C947F876B
:100160000C9410860C945B870C945A820C945A86DB
:100170000C9428860C9444860C94B1830C9490853E
:100180000C9458810C94CE860C9428840C94BD83D6
:100190000C94CC850C94D5830C9422880C942885DF
:1001A0000C94ED840C94CF8A0C943E850C940E86AE
:1001B0000C946B870C94A9870C948E840C946F8696
:1001C0000C9449810C94F4860C9412830C94A787A8
:1001D000000000000000000000000000000000001F
:1001E000000000000000000000000000000000000F
:1001F00000000000000000000000000000000000FF
:1002000000000000000000000000000000000000EE
:1041D0000100080DE33F0B000000097E7E00640033
:1041E00065006600610075006C0074003F00A53F2B
:1041F00004007D00A5290B00000008C27E007400A9
:104200007900700065002D00730061001800040043
:104210007300A529080028401700613F09003440B9
:10422000180004006100A5290800324017008A3FE9
:10423000090034401700153E0B0000000ED07E0030
:1042400074007900700065002D006400690073003F
:1042500070006100740063006800180004006400CE
:10426000A52908004F401700113F09006E401800B3
:1042700004007500A529080059401700243F0900D3
:104280006E40180004007800A5290800634017005C
:10429000383F09006E40180004006300A52908009B
:1042A0006D4017004A3F09006E401E400B000000A1
:1042B0000BD87E006600690065006C0064002D006C
:1042C0007400610069006C0004000100080DC60262
:1042D0000D007605080087401700090095408F18EB
:1042E0000C00620061006400200066002D00730075
:1042F0007400720069006E006700A53F04007D0035
:104300001E008F180C00620061006400200066002F
:104310002D0073007400720069006E0067000400D5
:104320000100080D45400B00000006C87E00660035
:10433000690065006C00640004000100080D0400C1
:104340000000D2020C000400FFFFDE020C00C602D7
:104350000D0076050800C74017000900D5408F18EA
:104360000C00620061006400200066002D007300F4
:104370007400720069006E0067000F400800DE40A4
:1043800004000100080D113F09002C41B83FC6028E
:104390000D0076050800E74017000900F5408F186A
:1043A0000C00620061006400200066002D007300B4
:1043B0007400720069006E006700A53F04002E00C3
:1043C000A52908001D4104000100080D040000009B
:1043D000DE020C0004000000EA020C00E33FEA02E7
:1043E0000D00760508000F41170009001D418F18C8
:1043F0000C00620061006400200066002D00730064
:104400007400720069006E006700A53F1800040088
:104410007D00A52908002B41170004000100080DAC
:10442000113F09002C417C400B0000000CCA7E00AB
:104430006500760061006C002D006C006200720067
:1044400061006300650004000100C6020D00BA05AA
:1044500008005841BA020D0004000100CC290F00E9
:1044600004007B00A5290800554104007B004F0D86
:1044700004000200080D09005641B44009005941EA
:10448000B4400B0000000CCA7E006500760061009D
:104490006C002D0072006200720061006300650014
:1044A00004000100C6020D00BA0508008541BA02E9
:1044B0000D0004000100CC290F0004007D00A52997
:1044C0000800824104007D004F0D04000200080D29
:1044D00009008341153E09008641153E0B0000008E
:1044E00005D87E006500760061006C0093291700F6
:1044F000BA020C00C6020C001700150DC6020D0012
:104500000800B541A53F180004007B00A52908005C
:10451000A54117003B410900B341180004007D008C
:10452000A5290800AF41170068410900B3414F0DAC
:1045300004000100080D09009641700D0B000000F9
:1045400044DC7E00720075006E00E00C2D078E4189
:104550000B00B74143F87E0022007C00BD410B00F8
:10456000B32D82444600220031030D000800D941DA
:1045700004002200D20EA40DAA16BD41DE160900C9
:10458000DE4104002200D20EA40D8E410B00D23B6E
:104590000DA045004400490054002D004C00490086
:1045A0004E0045002D004300410050000400A000D3
:1045B0000B00DF410D8A45004400490054002D00E6
:1045C0005200450043002D00530049005A004500A9
:1045D0000400A4000B00F1410F8A4500440049008B
:1045E00054002D004100520045004E0041002D00B6
:1045F000530049005A004500040000200B0003420C
:104600000BAE45004400490054002D005400450005
:10461000580054002D005700040050000B001742B2
:104620000B9045004400490054002D005400450003
:10463000580054002D004800040017000B002742CA
:104640000FAE45004400490054002D0053005400B3
:1046500041005400550053002D0052004F005700F8
:10466000040018000B0037420DAE4500440049001D
:1046700054002D00480045004C0050002D00520011
:104680004F005700040019000B004B420D8A4500F3
:104690004400490054002D004D00530047002D00F8
:1046A0004E004F004E004500040000000B005D422C
:1046B0000E8845004400490054002D004D00530071
:1046C00047002D00530041005600450044000400FF
:1046D00001000B006F420FA4450044004900540044
:1046E0002D004D00530047002D00420055004600AC
:1046F000460045005200040002000B0082420D8E6D
:1047000045004400490054002D004D00530047006F
:104710002D004C004F004E004700040003000B002A
:1047200096420D9C45004400490054002D004D0068
:10473000530047002D004F00500045004E0004007C
:1047400004000B00A8420D884500440049005400B5
:104750002D004D00530047002D0052004500410040
:104760004400040005000B00BA420E8A45004400D4
:10477000490054002D004D00530047002D00570004
:104780005200490054004500040006000B00CC42D2
:104790000CAE45004400490054002D004D0053006C
:1047A00047002D004E0045005700040007000B0095
:1047B000DF420D8A45004400490054002D004D00A1
:1047C000530047002D004E0041004D0045000400FD
:1047D00008000B00F0420EA04500440049005400C0
:1047E0002D004D00530047002D0055004E00530092
:1047F00055005000040009000B00024310A84500BA
:104800004400490054002D0055005300450052005B
:104810002D004F00460046005300450054000400A0
:1048200000010B0015430E8A450044004900540066
:104830002D0050004100540048002D005300490055
:104840005A004500040004010B002A430996450064
:104850004400490054002D004D00410052004B001F
:1048600004000001A4040D00CC290B003D43098A7B
:1048700045004400490054002D004200410053000F
:10488000450004000101A4040D00CC290B004E4397
:10489000098A45004400490054002D0048004500A5
:1048A0005200450004000201A4040D00CC290B00B5
:1048B0005F430AA845004400490054002D004C0005
:1048C00049004D004900540004000301A4040D00F8
:1048D000CC290B007043098A45004400490054006C
:1048E0002D00460052004500450004000401A404C8
:1048F0000D00CC290B008243098845004400490083
:1049000054002D004800450041004400040005010A
:10491000A4040D00CC290B009343099845004400E2
:10492000490054002D005400410049004C0004008F
:104930000601A4040D00CC290B00A44308A44500E3
:104940004400490054002D0043005500520004006B
:104950000701A4040D00CC290B00B54308A04500B5
:104960004400490054002D0054004F005000040042
:104970000801A4040D00CC290B00C5430AA645007C
:104980004400490054002D004C0049004E004500F1
:10499000530004000901A4040D00CC290B00D543E9
:1049A000094645004400490054002D0043005500CD
:1049B0005200230004000A01A4040D00CC290B00BE
:1049C000E743094645004400490054002D005400C7
:1049D0004F005000230004000B01A4040D00CC295B
:1049E0000B00F843089845004400490054002D008E
:1049F00043004F004C0004000C01A4040D00CC291E
:104A00000B000944098C45004400490054002D0066
:104A1000500052004500460004000D01A4040D00A2
:104A2000CC290B0019440D8845004400490054006E
:104A30002D004D004F00440049004600490045004C
:104A4000440004000E01A4040D00CC290B002A44EC
:104A50000BA845004400490054002D0049004E00B9
:104A6000530045005200540004000F01A4040D003F
:104A7000CC290B003F440C8E4500440049005400F3
:104A80002D00520055004E004E0049004E004700D8
:104A900004001001A4040D00CC290B005244088E20
:104AA00045004400490054002D004D0053004700CC
:104AB00004001101A4040D00CC290B0066440D9CD8
:104AC00045004400490054002D00500041005400AE
:104AD00048002D004C0045004E0004001201A404C3
:104AE0000D00CC290B0076440E46450044004900D9
:104AF00054002D0050004100540048002D00420099
:104B000055004600230004001301A4040D00CC2925
:104B10000B008B440D9C45004400490054002D00BF
:104B200043004C00490050002D004C0045004E0051
:104B300004001401A4040D00CC290B00A1440E466E
:104B400045004400490054002D0043004C0049003A
:104B500050002D00420055004600230004001501BE
:104B6000A4040D00CC290B00B64403624500540098
:104B7000310004001601A4040D00CC290B00CC4424
:104B8000036445005400320004001701A4040D0022
:104B9000CC290B00D74403664500540033000400C1
:104BA0001801A4040D00CC290B00E2440368450061
:104BB0005400340004001901A4040D00CC290B009A
:104BC000ED440EA845004400490054002D004C005F
:104BD00049004E0045002D004E004500580054008D
:104BE0000B00F8440EAC45004400490054002D0071
:104BF0004C0049004E0045002D0050005200450079
:104C0000560024000B0009450D9C45004400490056
:104C100054002D004C0049004E0045002D004C0072
:104C200045004E0004000200CC290B001B450FA6D6
:104C300045004400490054002D004C0049004E003E
:104C400045002D0046004C00410047005300040081
:104C50000300CC290B002E450EA845004400490056
:104C600054002D004C0049004E0045002D0054001A
:104C700045005800540004000400CC290B004345B3
:104C80000E8045004400490054002D004C004900AE
:104C90004E0045002D004C0045004E0040002A45C6
:104CA0000D000B0057450E424500440049005400DA
:104CB0002D004C0049004E0045002D004C004500E1
:104CC0004E0021002A450C000B006A450EA4450049
:104CD0004400490054002D004C0049004E0045009E
:104CE0002D00410044004400520019005345CC29D6
:104CF0000B007D450D8C45004400490054002D00FB
:104D000050004100540048002D004200550046006C
:104D10009B440D000B0091450D8C4500440049005B
:104D200054002D0043004C00490050002D0042006B
:104D300055004600C6440D000B00A3450A48450037
:104D40004400490054002D00500041005400480028
:104D50002400A04585440D000B00B5450A424500DE
:104D60004400490054002D00500041005400480008
:104D70002100180085440C00A0451900C3070B0052
:104D8000C545094245004400490054002D004D002E
:104D900053004700210070440C000B00D8450C9CC8
:104DA00045004400490054002D00430055005200C6
:104DB0002D004C0045004E00BF430D0067450B0021
:104DC000E6450DA445004400490054002D00430071
:104DD000550052002D004100440044005200BF43E2
:104DE0000D0053450B00F8450FA84500440049004D
:104DF00054002D004C0049004E0045002D0043009A
:104E00004F0055004E005400E1430D000B000B46CF
:104E1000094245004400490054002D0043004F0062
:104E20004C002100180013440C0024440C000B001B
:104E30001F460F8A45004400490054002D004300DE
:104E40004C004500410052002D004C0049004E002E
:104E50004500040000001A002A450C0017000B0052
:104E600030460886450044002D0041004C004C00AF
:104E70004F0043008D430D00760508005D46180085
:104E80000D008D430C00090071466A430D001800A7
:104E90000042CC297C430D001900BA0508006C467D
:104EA0001700040000000B0018000042CC296A43E0
:104EB0000C001800040000001A000C001900170074
:104EC000180019450400000019000C0018002A45BC
:104ED0000400000019000C0018003F450400000009
:104EE00019000C000B0048460E8A4500440049009A
:104EF00054002D0046005200450045002D004C0096
:104F000049004E0045008D430D001A000C008D43F2
:104F10000C000B008B460FA44500440049005400D0
:104F20002D004C0049004E004B002D004100460072
:104F3000540045005200D1440C00DC440C00D14424
:104F40000D000D00DC440D000C00D1440D00DC44CC
:104F50000D0019450C00DC440D000D00760508001D
:104F6000D046DC440D00190019450C000900D44658
:104F7000D1440D00AF430C00D1440D00DC440D00C2
:104F80000C000B00A2460B9645004400490054005B
:104F90002D0055004E004C0049004E004B001800FB
:104FA0000D00D1440C00180019450D00DC440C0024
:104FB000DC440D000800FB46D1440D00DC440D002C
:104FC0000C000900FF46D1440D009E430C00D14463
:104FD0000D0008000B47DC440D00D1440D001945BD
:104FE0000C0009000F47DC440D00AF430C000B0020
:104FF000DA4611A445004400490054002D00520037
:1050000045005300450054002D0042005500460065
:10501000460045005200040000008D430C00594337
:105020000D006A430C000400000039440C00040029
:10503000000070440C000400000013440C00040045
:10504000000024440C0004000000B0440C00524650
:1050500018002300080049471700934270440C00D1
:105060000B0018009E430C001800AF430C00180002
:10507000BF430C001800CF430C00170004000100D0
:10508000E1430C0004000100F2430C0004000100A5
:1050900003440C000B00104709A8450044004900D8
:1050A00054002D0049004E0049005400A5030D0096
:1050B00048430C00A5030D0018009B440C003A4324
:1050C000CC291800C6440C00EE41CC2918005943E5
:1050D0000C0018006A430C001442CC297C430C00DD
:1050E0007C430D00A5030C00040001004C440C009F
:1050F0006C4270440C000400000085440C002347FF
:105100000B006347098A45004400490054002D0004
:1051100044004F004E00450048430D00A5030C001D
:105120009B2E772E0B0099470D9C450044004900AB
:1051300054002D005400520049004D002D004C0039
:1051400045004E0018006745D1440C00D1440D00C5
:105150000800DA4718005345D1440D002500CC293A
:105160000F00CB06A5290800D447D1440D00250027
:10517000D1440C000900D8471700D1440D000B00A2
:105180000900BE471700040000000B00AB470FA446
:1051900045004400490054002D00450058005400CB
:1051A00045004E0044002D004300550052001800F9
:1051B000EE41B8290800FB471700A54270440C00D7
:1051C000040000000B001800F445BF290800044843
:1051D00017000400FFFF0B001800D1440C00F44539
:1051E000DC440C00BF430D005345DC440D00CC29CA
:1051F000D1440D00DC440D00A029CB06E407D144C6
:105200000D00BF430D002A450C0017000400FFFFEE
:105210000B00DE47138A45004400490054002D006E
:1052200045004E0053005500520045002D00560029
:1052300049005300490042004C004500F2430D0074
:1052400003440D00CA0508004A48CF430D00194524
:105250000D00CF430C0003440D00250003440C0057
:1052600009003648F2430D0003440D003442CC29B6
:10527000C62908005F48CF430D000D00CF430C0046
:1052800003440D00240003440C0009004A480B00AD
:1052900021480CA045004400490054002D004D0059
:1052A0004F00560045002D0055005000BF430D0033
:1052B00019450D00760508008148BF430C00F243F4
:1052C0000D002500F2430C0024440D0013440C0093
:1052D00036480B0060480E9C4500440049005400CD
:1052E0002D004D004F00560045002D0044004F009A
:1052F00057004E00BF430D000D0076050800A4487E
:10530000BF430C00F2430D002400F2430C00244480
:105310000D0013440C0036480B0082480EA84500CF
:105320004400490054002D004D004F005600450038
:105330002D004C0045004600540013440D000800A9
:10534000C24813440D00250013440C0013440D0003
:1053500024440C000B00A5480FA845004400490058
:1053600054002D004D004F00560045002D00520006
:10537000490047004800540013440D002400180061
:1053800013440C0024440C000B00C3480E8A450053
:105390004400490054002D004D004F0056004500C8
:1053A0002D0048004F004D004500040000002A4633
:1053B0000B00DD480D8845004400490054002D00D5
:1053C0004D004F00560045002D0045004E004400A2
:1053D000F4452A460B00F1480CA045004400490062
:1053E00054002D0050004100470045002D0055009D
:1053F000500004000000D1440C00D1440D003442A0
:10540000CA05080023496E48D1440D002400D14448
:105410000C00090015490B0003490E9C450044008F
:10542000490054002D0050004100470045002D0068
:1054300044004F0057004E0004000000D1440C000F
:10544000D1440D003442CA05080046499248D1446F
:105450000D002400D1440C00090038490B002449F8
:10546000118845004400490054002D0053004500B8
:1054700054002D004D004F004400490046004900F3
:10548000450044000400FFFF39440C006C427044A6
:105490000C000B00474913A4450044004900540088
:1054A0002D004F00560045005200570052004900A1
:1054B000540045002D0043004800410052001344B1
:1054C0000D002400EF4723000800804917000B005F
:1054D00013440D00BF430D008D450E0013440D0015
:1054E00024002A465A490B00624910A44500440092
:1054F000490054002D0049004E0053004500520061
:1055000054002D00430048004100520013440D0098
:10551000E7440C00F445F2440C00E7440D00F2446B
:105520000D00C6290800BD49E7440D002400EF47DF
:1055300023000800B54917000B0013440D00BF43BA
:105540000D008D450E000900DA49F2440D002400DB
:10555000EF4723000800C64917000B00E7440D0081
:10556000BF430D008D45180024001900F2440D00C2
:10557000E7440D00A0291A2813440D00BF430D0075
:105580008D450E0013440D0024002A465A490B0095
:105590008C490EA845004400490054002D004A00E3
:1055A0004F0049004E002D004E00450058005400A9
:1055B000BF430D000D00760523000800F9491700D0
:1055C0000B001800D1440C00F445DC440C00D1441D
:1055D0000D006745E7440C00DC440D00E7440D0076
:1055E000CC29EE41B8290800114AA54270440C00AC
:1055F0000B00D1440D005345BF430D005345DC441F
:105600000D00CC29E7440D00C307DC440D00E7443E
:105610000D00CC29BF430D002A450C00D1440D00DC
:10562000E746D1440D009B46E1430D002500E143D0
:105630000C005A490B00E04910A445004400490001
:1056400054002D00440045004C0045005400450026
:105650002D00430048004100520013440D00D14486
:105660000C00F445DC440C00D1440D00DC440D007A
:10567000CA0508006E4ABF430D00D1440D00240046
:105680008D45BF430D00D1440D008D45DC440D0018
:10569000D1440D00A0292500C307DC440D002500DE
:1056A000BF430D002A450C005A490B00D1440D00A0
:1056B000DC440D00A5290800764AF0490B00334A66
:1056C0000F8A45004400490054002D00530050004B
:1056D0004C00490054002D004C0049004E0045008C
:1056E0005246180023000800924A17009342704463
:1056F0000C000B001800D1440C00BF430D00DC442B
:105700000C0013440D00E7440C00DC440D00674519
:10571000F2440C00E7440D00F2440D00CA050800F5
:10572000C64AF2440D00E7440D00A0291800D144F8
:105730000D002A450C00DC440D005345E7440D00E4
:10574000CC29D1440D0053458105C307E7440D0022
:10575000DC440D002A450C000900CC4A040000007E
:10576000D1440D002A450C00D1440D00DC440D004D
:10577000B346E1430D002400E1430C00D1440D0089
:10578000BF430C00F2430D002400F2430C00040060
:1057900000002A4636485A490B00774A0E8A4500CF
:1057A0004400490054002D004200410043004B00DA
:1057B0005300500041004300450013440D002300F6
:1057C0000800124BBF430D0019450D007605080077
:1057D000114B18006745D1440C00BF430C00F24345
:1057E0000D002500F2430C00D1440D002A46F0497B
:1057F00036480B0013440D002500180013440C001C
:1058000024440C0013440D00F445C6290800214B24
:105810000B00454A0B00E54A108A45004400490048
:1058200054002D00440045004C0045005400450044
:105830002D004C0049004E004500E1430D000400DE
:105840000100A5290800444BBF430D004146040058
:1058500000002A465A490B00BF430D00D1440C00FA
:10586000D1440D000D0076050800534B1800BF43CE
:105870000C0009005F4BD1440D0019450D001800C4
:10588000BF430C00F2430D002500F2430C00D1444D
:105890000D00CF430D00A52908006E4BBF430D003E
:1058A000CF430C00F2430D0003440C00D1440D0023
:1058B000E746D1440D009B46E1430D002500E1433E
:1058C0000C00F44513440D00E6052A4636485A49B3
:1058D0000B00234B0E8A45004400490054002D0064
:1058E00043004F00500059002D004C0049004E006D
:1058F0004500BF430D0067451800B0440C00BF438E
:105900000D005345B2458105C3076C4270440C003D
:105910000B00814B0F8A45004400490054002D00C4
:10592000500041005300540045002D004C00490038
:105930004E0045005246180023000800BC4B1700DB
:10594000934270440C000B001800D1440C00B0448A
:105950000D001800D1440D002A450C00B245D14479
:105960000D0053458105C307D1440D00BF430D0011
:10597000B346D1440D00BF430C00E1430D002400A9
:10598000E1430C00F2430D002400F2430C0004003C
:1059900000002A4636485A490B00A14B08AE450084
:1059A0004400490054002D004E0045005700234795
:1059B000ED4270440C000B00E54B098845004400A3
:1059C000490054002D004C004F0041004400D145D7
:1059D0002347C145BF13DD13180008000D4C190003
:1059E0001700B74270440C000B00170014009E43D0
:1059F0000D00DC440C000400FFFFE7440C004D07E1
:105A0000EE4113000714180008002A4C1700170075
:105A100017001200FA131700C94270440C0004006A
:105A200001000B0017000800614CE7440D00230043
:105A30000800504C5246180023000800414C170043
:105A40001200FA131700934270440C000400020085
:105A50000B001800AF430D00B3461800DC440C00E7
:105A6000E1430D002400E1430C0017000900544CF1
:105A700004000000E7440C001800DC440D002A4537
:105A80000C004D07DC440D0053458105C307090098
:105A9000174C17001200FA1317009E430D00BF4366
:105AA0000C009E430D00CF430C0004000100F243A4
:105AB0000C000400010003440C00040000002A460E
:105AC0000400000039440C006C4270440C000400D7
:105AD00000000B00F44B098A4500440049005400C3
:105AE0002D00530041005600450085440D00230061
:105AF0000800984CFF4270440C00040001000B00A9
:105B0000C14563141700C145CF13EC1318000800FA
:105B1000A74C19001700DC4270440C000B00170062
:105B2000F2440C009E430D0018000800CD4C1800F4
:105B3000BA471800DC440C001A005345DC440D0041
:105B4000F2440D00151418000800C94C1700F24467
:105B50000D00FA131700DC4270440C000400010031
:105B60000B0017000D000900AC4C1700F2440D00AB
:105B700054141700F2440D00FA131700040000003B
:105B800039440C007F4270440C00040000000B00FC
:105B9000824C098E45004400490054002D002E001F
:105BA0004D005300470070440D0018007F42A529A6
:105BB0000800FC4C1700FE0C06002000530061009A
:105BC0007600650064000B0018009342A5290800C8
:105BD000114D1700FE0C0C002000420075006600FD
:105BE0006600650072002000660075006C006C00A5
:105BF0000B001800A542A5290800284D1700FE0C2F
:105C00000E0020004C0069006E006500200074004A
:105C10006F006F0020006C006F006E0067000B00CB
:105C20001800B742A52908003D4D1700FE0C0C00D6
:105C300020004F00700065006E00200066006100CB
:105C400069006C00650064000B001800C942A529BA
:105C50000800524D1700FE0C0C0020005200650099
:105C60006100640020006600610069006C0065004E
:105C700064000B001800DC42A5290800684D1700DD
:105C8000FE0C0D00200057007200690074006500D2
:105C900020006600610069006C00650064000B0074
:105CA0001800ED42A52908007C4D1700FE0C0B00E2
:105CB00020004E006500770020006200750066003D
:105CC0006600650072000B001800FF42A52908005D
:105CD000914D1700FE0C0C0020004E006F002000BC
:105CE000660069006C0065006E0061006D00650073
:105CF0000B0018001243A5290800A54D1700FE0C43
:105D00000B0020004E006F007400200069006E0040
:105D100020004D00560050000B0017000B00E04C17
:105D20000DAE45004400490054002D0044005200CF
:105D3000410057002D0052004F005700D1440C0085
:105D4000DC440C0004000100D1440D00FC2D4C2E5D
:105D5000DC440D0076050800E64DDC440D00674587
:105D60002442E605E7440C0004000000F2440C0065
:105D7000F2440D00E7440D00CA050800E64DDC447E
:105D80000D005345F2440D00CC290F00510BF24495
:105D90000D002400F2440C000900D04D0B00A74D6B
:105DA0000EA845004400490054002D004400520054
:105DB000410057002D005400450058005400CF43C7
:105DC0000D00D1440C0004000100DC440C00DC4454
:105DD0000D003442BF2908001A4ED1440D00DC44A6
:105DE0000D00B64DD1440D000800134ED1440D00F6
:105DF0000D00D1440C00DC440D002400DC440C00F8
:105E00000900FF4D0B00E74D10A645004400490076
:105E100054002D0044005200410057002D00530053
:105E200054004100540055005300EB2E04000100C3
:105E30004842FC2D4C2EC145A20B39440D000800F0
:105E40003F4EFE0C020020002A000900434EFE0CCB
:105E5000020020002D00FE0C040020004C006E000B
:105E60002000F2430D00E42DFE0C0500200043004D
:105E70006F006C00200013440D002400E42D4C44FE
:105E80000D000800634EFE0C0400200049004E0087
:105E900053000900694EFE0C040020004F0056001C
:105EA0005200EB4C9B2E0B001B4E0EA045004400F5
:105EB000490054002D0044005200410057002D00BD
:105EC000480045004C005000040001005A42FC2DDF
:105ED0004C2E9B2EFE0C010031004630CD2DD730CC
:105EE000B82DFE0C0600200020002000200020001D
:105EF00020009B2EFE0C010032004630CD2DD73005
:105F0000B82DFE0C060053006100760065002000ED
:105F100020009B2EFE0C010033004630CD2DD730E3
:105F2000B82DFE0C060020002000200020002000DC
:105F300020009B2EFE0C010034004630CD2DD730C2
:105F4000B82DFE0C06004E006500770020002000F2
:105F500020009B2EFE0C010035004630CD2DD730A1
:105F6000B82DFE0C060043006F0070007900200081
:105F700020009B2EFE0C010036004630CD2DD73080
:105F8000B82DFE0C0600200020002000200020007C
:105F900020009B2EFE0C010037004630CD2DD7305F
:105FA000B82DFE0C060050006100730074006500FF
:105FB00020009B2EFE0C010038004630CD2DD7303E
:105FC000B82DFE0C0600440065006C004C006E000D
:105FD00020009B2EFE0C010039004630CD2DD7301D
:105FE000B82DFE0C0600200020002000200020001C
:105FF00020009B2EFE0C0200310030004630CD2DDB
:10600000D730B82DFE0C06004500780069007400FA
:10601000200020009B2E0B006C4E11A44500440074
:10602000490054002D0050004C0041004300450041
:106030002D0043005500520053004F005200F24320
:106040000D0003440D00A029240004000100DA051E
:106050003442E605D1440C0013440D002400040032
:106060000100DA052442E605DC440C00DC440D00A6
:10607000D1440D00FC2D0B00244F0BAE4500440015
:10608000490054002D0052004500440052004100D8
:1060900057008B2E3D2E0C2EF74D2D4E7C4E374F3C
:1060A000772E0B00544F158A4500440049005400D8
:1060B0002D00480041004E0044004C0045002D00DA
:1060C0005000520049004E005400410042004C0074
:1060D000450018000400200004007F00F6050800B9
:1060E000924F4C440D000800904F9E490900914F7B
:1060F00077490B0017000B006A4F10A445004400BD
:10610000490054002D00480041004E0044004C005E
:1061100045002D00430048004100520018000400D3
:106120000800A5290800AF4F1700F54A0B0018001A
:1061300004007F00A5290800B84F1700F54A0B009E
:10614000180004000D00A5290800C14F1700884A57
:106150000B00180004000A00A5290800CA4F170008
:10616000884A0B00180004000900A5290800D64F32
:106170001700CB06814FCB06814F0B00814F0B00E0
:10618000944F10B245004400490054002D004800CF
:1061900041004E0044004C0045002D0045004B00DE
:1061A000450059001800600AA5290800F24F1700A1
:1061B000B5480B0018006E0AA5290800FA4F170011
:1061C000D4480B001800460AA52908000250170001
:1061D0006E480B001800530AA52908000A50170042
:1061E00092480B0018007B0AA529080012501700DE
:1061F000ED480B001800870AA52908001A5017005F
:1062000000490B001800940AA52908002250170025
:1062100011490B001800A10AA52908002A501700EF
:1062200034490B001800CB0AA5290800325017008A
:10623000F54A0B001800B90AA52908003A501700C2
:10624000454A0B001800D90AA5290800425017003A
:10625000884A0B001800AD0AA52908004E50170007
:106260004C440D0023004C440C000B001800EF0AB6
:10627000A5290800575017008D4C17000B00180077
:10628000050BA52908005F501700EF4B0B00180005
:10629000100BA529080067501700914B0B00180040
:1062A000260BA52908006F501700B24B0B001800F1
:1062B000310BA529080077501700354B0B0018004B
:1062C000480BA52908008250170004000000604414
:1062D0000C000B001700124370440C000B00D84F49
:1062E0000FA845004400490054002D00570041000C
:1062F000490054002D0049004E0050005500540044
:10630000190A08009D50EA4F0B00F6090800A25038
:10631000A64F0B00090098500B008750089C4500C1
:106320004400490054002D00520055004E00040066
:10633000FFFF60440C0060440D000800BB50614F3B
:1063400098500900B3509B2E772E3D2E0C2E0B003B
:10635000A55004A845004400490054006E47932905
:10636000FF4B18000800CE50A4470B001700AF5099
:10637000A447040000000B00622F08A84E0045004F
:1063800057002D0045004400490054006E47D14598
:10639000EF4BAF50A4470B000000000000000000CE
:1063A00000000000000000000000000000000000ED
:1063B00000000000000000000000000000000000DD
:1063C00000000000000000000000000000000000CD
:1063D00000000000000000000000000000000000BD
:1081D0001F00000003003C003C00340020000000B1
:1081E00003003C003C0038002100000003003C007C
:1081F0003C00390022000000020030003D00230056
:108200000000020031002B002400000002003100B9
:108210002D0025000000020032002B002600000087
:10822000020032002D0027000000050048004F002A
:10823000500045004E0028000000070048004300A1
:10824000520045004100540045002900000006008E
:10825000480043004C004F00530045002A00000036
:108260000700480052004500410044004C004E0009
:108270002B0000000800480057005200490054003D
:1082800045004C004E002C00000005004800530043
:10829000450045004B002D0000000500480054003B
:1082A00045004C004C002E00000005004800530023
:1082B00049005A0045002F00000006004800460013
:1082C0004C005500530048003000000007004800F3
:1082D000440045004C0045005400450031000000BA
:1082E00007004800520045004E0041004D00450087
:1082F00032000000030055004D002A00330000004A
:1083000003004E004F0054003500000003005300EE
:10831000550042003600000006004E0045004700B0
:1083200041005400450037000000030049004E00A2
:1083300043003800000003004400450043003900BA
:10834000000004005A00450052004F003A000000AF
:10835000020055002B003B000000020032002A0002
:108360003C00000000000000457E50005200490023
:108370004D003F001800A2020C001800B0060F00CC
:10838000EC030C0017000400331F18000F00080056
:108390000B211800B0060F00EC030D001E000800B2
:1083A000EF202D07CC29B006B0060900DD20A2027F
:1083B0000D00190018000F00C10F0800FF20190060
:1083C00017002D07CC29B006B0060900DD201900E2
:1083D00017002D07CC2918000D001900B0060D005C
:1083E0000400FFFF0B001700A2020D0004000000B4
:1083F0000B0003003F0072007800020003007400CD
:10840000780021000300010021000C000100400061
:108410000D000200430021000E0002004300400056
:108420000F00030052005000210010000300520012
:10843000500040001100020052003E0012000200F5
:1084400052004000130002003E00520014000300DE
:10845000530050004000150003005300500021005D
:1084600016000400440052004F00500017000300A3
:10847000440055005000180004005300570041000C
:108480005000190004004F005600450052001A0029
:10849000020030003C001B00030041004E0044007D
:1084A0001C0002004F0052001D00030058004F0046
:1084B00052001E00030055004D002B001F0002005B
:1084C00030003D002300020031002B002400020098
:1084D00031002D002500020032002B002600020092
:1084E00032002D002700050048004F0050004500D5
:1084F0004E0028000700480043005200450041009C
:108500005400450029000600480043004C004F007D
:10851000530045002A000700480052004500410072
:1085200044004C004E002B00080048005700520049
:108530004900540045004C004E002C000500480046
:108540005300450045004B002D0005004800540035
:1085500045004C004C002E00050048005300490027
:108560005A0045002F000600480046004C00550008
:1085700053004800300007004800440045004C000C
:1085800045005400450031000700480052004500F6
:108590004E0041004D0045003200030055004D00E3
:1085A0002A00330003004E004F0054003500030042
:1085B000530055004200360006004E0045004700BB
:1085C0004100540045003700030049004E004300BD
:1085D00038000300440045004300390004005A00FD
:1085E000450052004F003A00020055002B003B00AE
:1085F000020032002A003C0000000000467E4900D4
:108600005000520049004D003F001800A2020C002B
:108610001800B0060F00EC030C0017000400112135
:1086200018000F00080050221800B0060F00EC03DD
:108630000D001E00080039222D07CC29B0060900C4
:10864000282218000F001400A2020D00B0061A0024
:10865000B0061200E60F08004B222D07CC290D00B2
:108660000400FFFF0B002D07CC29B00609002822CB
:108670001700A2020D00040000000B000000488A51
:10868000240043004F004D00500049004C004500BD
:10869000C21208006B22400908006B22040004008B
:1086A0007B297B290B00D71176050800872218004B
:1086B0000D001800040080001C0008007B22170039
:1086C000170014000B00040020001C000800842286
:1086D00017000D007B290B0017007B290B004009B8
:1086E00008008F22040004007B297B290B00AB12B9
:1086F00000004A5849004E00540045005200500006
:108700005200450054002C00C2120800A422400967
:108710000800A42287070B00D71176050800F12274
:1087200018000D00040040001C008F180D002000F0
:1087300063006F006D00700069006C006500200030
:108740006F006E006C0079001A0004005D161E00B8
:108750000800EE221A000400DA291E000800EE22AA
:108760001A00040048241E000800EE221A0004002B
:108770004D251E000800EE221A0004005E251E0092
:108780000800EE221A00040017271E000800EE223F
:1087900018000D00040020001C000800EB22170048
:1087A0000D0075070B00170075070B00170014006C
:1087B0000B00AB12000046985200450056004500E1
:1087C00041004C00C9030D00180014009A0FB006B8
:1087D0000F009B030D00B80F7D0F760508001023D6
:1087E00018000D0013000C00120019000C000B0003
:1087F000120017000B002E17898A49004D004D000A
:108800004500440049004100540045000400800038
:10881000C9030D00B00618000D0081051D001900E8
:108820000C000B000E1E078A500052004900560033
:1088300041005400450004000001C9030D00B006CA
:1088400018000D0081051D0019000C000B008C1E86
:108850000CB243004F004D00500049004C00450051
:108860002D004F004E004C00590004004000C90389
:108870000D00B00618000D0081051D0019000C0048
:108880000B00DE0F06A44D00410052004B004500D6
:10889000520031030D00080088238F1820004D007E
:1088A000410052004B0045005200200063006F0061
:1088B0006D00700069006C0065002D00730074008D
:1088C000610074006500200075006E007300750083
:1088D000700070006F007200740065006400AB12DD
:1088E000C9030D00A2020C003B07AE020C000C0FE6
:1088F000041F7D03D21E7D03B006D21E7D03B00689
:10890000B006D21E8C03D21E8C03B006D21E8C037E
:10891000B006B006D21E8C03B006B006B006D21E5A
:108920008C03B006B006B006B006D21E8C03B006AB
:10893000B006B006B006B006D21E8C03B006B00674
:10894000B006B006B006B006D21E8C03B006B00664
:10895000B006B006B006B006B006D21E8C03B00654
:10896000B006B006B006B006B006B006B006D21E1D
:108970009B03D21E9B03B006D21EA2020D00C903A8
:10898000EE1EAE020D00A503EE1E040004007B29BE
:10899000AE020D007B29040050187B29A5030D00B1
:1089A000501804000B007B29FA220B00FD1606A8C4
:1089B00046004F00520047004500540031030D00AF
:1089C00008001D248F18200046004F005200470069
:1089D00045005400200063006F006D0070006900C6
:1089E0006C0065002D007300740061007400650068
:1089F000200075006E0073007500700070006F003D
:108A00007200740065006400AB120C0F9B030D0034
:108A1000A81176050800412414008D0512001800E5
:108A200004000080BA05080039248F18090070007E
:108A300072006F00740065006300740065006400DC
:108A4000AB12A70F1800A5030C009B030D003418F0
:108A50000B00AB12C91804A4550053004500520086
:108A60000C0F041FAA16AE047B29FA220B0000008B
:108A70000AB256004F0043004100420055004C002E
:108A80004100520059000C0F041F3B070400030073
:108A9000CC291800A2020C001700AA164C05A2024D
:108AA0000D007B2904000B007B29A2020D000400AD
:108AB0000300CC297B29040000007B29040000006E
:108AC0007B29A2020D0004000300CC291800040039
:108AD0005F00901692177D03B0060D00A2020D00F4
:108AE000B0060C00A2020D007D03B0060C00FA22B5
:108AF0000B0056140BA644004500460049004E00EA
:108B00004900540049004F004E0053008C030D00F3
:108B1000B80F9B03B0060C009B03B0069B030C0030
:108B20000B005923068A4D004F00440055004C00AD
:108B3000450031030D000800D8248F1820004D0097
:108B40004F00440055004C004500200063006F00BA
:108B50006D00700069006C0065002D0073007400EA
:108B6000610074006500200075006E0073007500E0
:108B7000700070006F007200740065006400AB123A
:108B8000C3040D00D8040D001D000800EF248F1849
:108B90000D006D006F00640075006C006500200022
:108BA000610063007400690076006500AB12A114D7
:108BB0000400FFFFC3040C0004000000D8040C00F4
:108BC0000B003D1B0A8A45004E0044002D004D005D
:108BD0004F00440055004C00450031030D000800D3
:108BE00030258F18240045004E0044002D004D0014
:108BF0004F00440055004C004500200063006F000A
:108C00006D00700069006C0065002D007300740039
:108C1000610074006500200075006E00730075002F
:108C2000700070006F007200740065006400AB1289
:108C3000C3040D00D8040D001D0008003925CD1512
:108C40000B008F1809006E006F0020006D006F0090
:108C5000640075006C006500AB123F23068A430078
:108C6000520045004100540045000C0F041F040051
:108C700006007B29FA220B004F24088A5600410087
:108C800052004900410042004C0045004D250400BF
:108C900000007B290B000000508A4D004F0044006B
:108CA00055004C0045002D0053004B00490050007A
:108CB0002D004C0049004E0045000C0FD711080054
:108CC0007F25040005251E00080081250B001700E4
:108CD0000B00CD1523130B007D16058A5F00540091
:108CE00059005000450009009925190018000F008F
:108CF000D506510B04000100CC2919000400FFFF28
:108D0000CC29180008009E2509008D258D050B0033
:108D1000DB0C035664006D002B001A0004000400F5
:108D2000EF08740B370014000900B62518000F0077
:108D300004000300EF0804000100CC290700AE2561
:108D4000120017000B00912404A0440055004D00B0
:108D5000500087020D001400B30804001000992988
:108D600037001400BA0B040010009329A5258105D3
:108D7000810504000200990B8B25590B3500080072
:108D8000DF250700CA25120017000900E12512009F
:108D900017001700120087020C000B009E1802A695
:108DA0002E005300BA0BEA067605080008260400D8
:108DB0000100CC29370014000900FD2513003700FD
:108DC00004000100A029F80606090700F625120094
:108DD0001700FE0C040020003C00730070000B0024
:108DE00009000126E625058A2E00420041005300B5
:108DF000450087020D00C1081800060987020C0013
:108E00000B000A26058A2E00460052004500450048
:108E100005020D00A5030D00A029FD080B000000B0
:108E200004A02100430053005000150024030C004F
:108E30000B00D31804A03F0043005300500015005E
:108E400024030D001E008F181100730074006100D0
:108E500063006B002000640065007000740068000F
:108E600020006500720072006F0072000B000000AD
:108E70004E86580054003E004E0041004D00450013
:108E80002D0049004E002D0056004F0043001900F0
:108E9000A2020C00B80F760508008F2604005F00C0
:108EA0003700140018000D009A040C009A040D00FD
:108EB00018000800882618006B0FA2020D001E0083
:108EC00008007F260D009A040C0009006E2617008A
:108ED0009A040D009A0F19001700120017000B00DA
:108EE0001700B00607006A261200170017000400DA
:108EF00000000B000000058A3E004E0041004D00BE
:108F000045007D0318000800AE261A001A005F26EF
:108F100076050800A82619001700190017000B0095
:108F200019001700B0060D0009009A26170004006A
:108F300000000B000000068A50003E004E00410079
:108F40004D0045000400331F18000F000800D02614
:108F500093292D07CC290D001E000800CD262D07D2
:108F6000CC29B006B0060900BC26190017000B007A
:108F7000190017000B00000005A650003E004F002E
:108F8000500053000400331F18000F000800F4269F
:108F900093292D07CC290D001E000800ED262D0772
:108FA000CC29B006B0060900DC26190017002D07F1
:108FB000CC29B0060D000B001900170004000000BA
:108FC0000B00192603882E0049004400760508008E
:108FD00007272D0704001F001C008B250B00FE0C2B
:108FE00008007B006E006F004E0061006D006500A0
:108FF0007D000B006F1C038A5300450045000C0FD9
:10900000D711180008005F271700BA0B18000D00D1
:109010001800A2020C00180004000002BA050800A3
:109020002C27BA2609002D27992676050800342713
:10903000740BFE2609003527FD08A2020D0004006E
:109040000002BA0508005927A2020D0004000B0017
:109050001E0008005D27A2020D00DA267605080032
:1090600059271700590B08004F2709005D27B00644
:1090700018000D00FD08B006590B08001E27090056
:109080005D27B006590B08001E2717000B00AB1216
:10909000741705A657004F00520044005300BA0B46
:1090A0008C030D00B80F76050800B02704005F00A0
:1090B0003700140018000D009A040C009A040D00EB
:1090C00018000800A9279A0F18000D00040040009E
:1090D0001C0008008B2717009A040D000D009A044D
:1090E0000C000900762718000D00040000011C0088
:1090F00008009A2717009A040D000D009A040C002E
:10910000090076271800740BFE2617009A040D003C
:109110000D009A040C00590B080076271700170061
:109120000B001700B0060700722712001700170087
:109130000B00542503A4560045005200040000040F
:109140000B00000002D268006900BA0BFE0C14008C
:109150005000440052002D00310036002F0058000E
:109160005400200046006F00720074006800200068
:10917000760034002E003000BA0BFE0C1F00640095
:1091800065007200690076006500640020006600DA
:1091900072006F006D002000650046006F007200D5
:1091A00074006800200062007900200043002E0057
:1091B00048002E00540069006E006700BA0B0B00D7
:1091C000F92405B245004D00500054005900040038
:1091D0000080A5030C000400D450C9030C00040057
:1091E00000007D03B0060C000400008050186A05E2
:1091F0009E240B004525067C43004D004F00560081
:1092000045003E0018000800332814001A0013001F
:10921000CC2904000100A0291A001300CC29040065
:109220000100A0290F0019000E0012000400FFFF2A
:10923000CC2909001A2817008D050B00A924048ADF
:109240004D004F0056004500932917001900BA053C
:1092500008004428C3070B001A280B0012280488B2
:1092600043004F004C00440004007FF91600040046
:109270007FFE100004000200040080FE040034029F
:10928000C3070400E2FE7D030C00040000007D0320
:10929000B0060C006913BD270400D450C9030C00AC
:1092A0006A059E24231304007FF916001416090092
:1092B0004C28312623F03F007200780002000B009A
:1092C0009D02234274007800210003000B00F82760
:1092D00024A845005800490054000B000B00272625
:1092E000214221000C000B000000218040000D00F5
:1092F0000B0046282242430021000E000B0091285B
:109300002280430040000F000B00A91B23425200A3
:109310005000210010000B009D28238052005000B7
:10932000400011000B00A428227C52003E001200D5
:109330000B00AB2822805200400013000B00C6082F
:1093400022A43E00520014000B0012272380530079
:109350005000400015000B00BD2823425300500070
:10936000210016000B00BB2524A0440052004F0032
:10937000500017000B00CB2823A0440055005000DC
:1093800018000B00C42824A05300570041005000CF
:1093900019000B00D21324A44F00560045005200C0
:1093A0001A000B000000227830003C001B000B006C
:1093B000C81D238841004E0044001C000B00E22819
:1093C00022A44F0052001D000B00000023A45800EF
:1093D0004F0052001E000B004224235655004D0042
:1093E0002B001F000B005D0823683C003C0034008C
:1093F00020000B000B2923703C003C0038002100AA
:109400000B00122923723C003C00390022000B00A3
:10941000EA28227A30003D0023000B00000022568B
:1094200031002B0024000B002629225A31002D0088
:1094300025000B001907225632002B0026000B00D6
:109440003229225A32002D0027000B00081723A8CA
:109450004E004F00540035000B00DA2823845300DF
:109460005500420036000B003E29268A4E0045007A
:10947000470041005400450037000B0013232386AA
:1094800049004E00430038000B00D32823864400D7
:109490004500430039000B000000249E5A0045009F
:1094A00052004F003A000B000429225655002B00B1
:1094B0003B000B003829225432002A003C000B00EC
:1094C000000001582C003B071800B006A5030C0053
:1094D0000C000B00F02803A64100420053001800C6
:1094E0001B0008008C2937000B00722904A03200F1
:1094F0004400550050001A001A000B005806015E87
:109500002F005E06190017000B00F507015A2D0009
:1095100036000B000000017A3D001E000800AB2958
:10952000040000000B000400FFFF0B001929027C5F
:109530003C003E00A52935000B00B728017C3E0009
:109540001900CA050B00AE29027A3C003D00B8297B
:1095500035000B00B529027A3E003D00CA053500F2
:109560000B00000701562B003B000B000000C176EA
:109570003B0004000B007B294D16FA220B00000073
:1095800001743A000C0F041F55160B00972802585F
:1095900043002C003B071800B006A5030C000E008A
:1095A0000B005629099049004D0047002D00570037
:1095B00049004400540048000D000B00E9290AA8A6
:1095C00049004D0047002D00480045004900470074
:1095D00048005400B0060D000B00F629088249002F
:1095E0004D0047002D00440041005400410004009C
:1095F0000200CC290B00052A844449004D00470095
:10960000220068040C0004002200D20E93291900E5
:10961000170068040D000400070075061E0008000E
:109620002A2A410C93295F0C3B0714009329190047
:1096300012008105C307901617000B007F280A8AC5
:1096400045004D00490054002D0049004D004100E7
:10965000470045001800203174040C0018002E311A
:1096600019003B31190018000800592A1900740428
:109670000D00CE0CBA0B190004000100A02909004E
:109680004B2A8D05830C0B00362A038645005300B8
:10969000430004001B00510B0B00DE290392430022
:1096A00053004900612AFE0C01005B000B00000022
:1096B0000A6043004F004C004F0052003E0044003F
:1096C0003100300030000600310031003100300040
:1096D0003200310031003000320032003100300001
:1096E00032003200310031003100310031003000F1
:1096F00032003100310030003200320031003000E1
:1097000032003200320031003100310031003100CE
:1097100032003100310031003200320031003100BE
:1097200032003200320031003100310031003000AF
:1097300031003100310030003100310031003000A3
:109740003100310031003000310031003000300094
:109750003100300030003000310030003000300087
:109760003100300030003000310031003000300076
:109770003100300030003000310030003000300067
:109780003100300030003000310031003000300056
:109790003100300030003000310030003000300047
:1097A0003100300030003000310031003000300036
:1097B0003100300030003000310030003000300027
:1097C0003100300030003000310031003000300016
:1097D0003100300030003000310030003000300007
:1097E00031003000300030003100310030003000F6
:1097F00031003100300030003100310030003000E5
:1098000031003100300030003100310031003000D3
:1098100032003100310030003200320031003000BF
:1098200032003200320031003100310031003000AE
:10983000320031003100300032003200310030009F
:109840003200320031003100300030003000300092
:109850003000300030003000300030003000300088
:109860003000300030003000300030003000300078
:109870003000300030003000300030003000300068
:109880003000300030003000300030003000300058
:109890003000300030003000300030003000300048
:1098A0003000300030003000320032003200320030
:1098B0003200320032003200320032003200320018
:1098C00032003200320032000000096043004F00D5
:1098D0004C004F0052003E004400310030000600B2
:1098E00038003700330038003100360036003800C9
:1098F00031003000360038003100300039003200CD
:1099000038003800330039003200370037003900A2
:1099100032003100370039003200310030003300AE
:109920003800380034003000320038003800300091
:109930003200320038003000320032003200340091
:109940003800350030003600390034003100360070
:10995000390035003100360039003500310037005C
:109960003500310037003200350037003400320056
:109970003500380034003200320038003400330043
:109980003500310037003200350037003400320036
:109990003500380034003200320038003400330023
:1099A0003500310037003300350038003400330013
:1099B0003500380034003300320038003500330001
:1099C00035003100360032003500370033003200F8
:1099D00035003700330032003100370033003200E9
:1099E00034003000360031003400360032003100DF
:1099F00034003600320031003000360032003100D1
:109A000038003400390035003800330039003500A3
:109A10003800330039003500370033003900350095
:109A20003800370033003900310037003600390084
:109A30003100300036003900310030003000320093
:109A40003800370033003800310036003600380067
:109A5000310030003600380031003000390032006B
:109A6000310031003100310031003100310031006E
:109A7000310031003100310031003100310031005E
:109A8000310031003100310031003100310031004E
:109A9000310031003100310031003100310031003E
:109AA000310031003100310031003100310031002E
:109AB000310031003100310031003100310031001E
:109AC00035003500350035003400340034003400F2
:109AD00034003400340033003300330033003300EB
:109AE0000000086243004F004C004F0052003E004F
:109AF00044003100060031003400310038003700E6
:109B000037003000380037003300300038003000B4
:109B100033003600340037003000370034003300A3
:109B20003900320034003300350032003400320096
:109B3000350038003000370036003300300039007F
:109B40003500340030003900370034003000380070
:109B50003700360032003700300037003400330061
:109B60003900320034003300350032003400320056
:109B70003500380030003100340031003800370043
:109B80003700300038003700330030003800300034
:109B9000330036003400320035003200390038001E
:109BA0003900320039003800350032003900320007
:109BB00035003800350032003600330030003900FF
:109BC00030003400300039003700340030003300FA
:109BD00037003100370032003000370034003300E6
:109BE00034003200340033003500320034003700D6
:109BF00035003300350036003400310038003700BE
:109C000032003000380037003300300038003500B3
:109C100033003100390032003000370034003300A7
:109C20003400320034003300350032003400370095
:109C30003500330035003200360033003000390083
:109C40003000340030003900370034003000330079
:109C5000370031003700320035003200390038005B
:109C60003900320039003800350032003900320046
:109C70003500380035003600360036003600360034
:109C80003600360036003600360036003600360024
:109C90003600360036003600360036003600360014
:109CA0003600360036003600360036003600360004
:109CB00036003600360036003600360036003600F4
:109CC00036003600360036003600360036003600E4
:109CD00036003600360035003300320030003900DF
:109CE00037003600340033003100300038003700D0
:109CF000350034003200000006804400490047006F
:109D00004900540040001900CC290F000B0000004E
:109D1000078843004F004C004F0052003E004400B3
:109D20001800922C9B2D19001800872B9B2D1900D1
:109D30007B2A9B2D0B00EE230342460047002100A7
:109D40006A2AFE0C0500330038003B0035003B005A
:109D5000A82D510B510B510B04006D00510B0B0042
:109D6000F41603424200470021006A2AFE0C050057
:109D7000340038003B0035003B00A82D510B510B3F
:109D8000510B04006D00510B0B0082290546410068
:109D90004E00530049002300610881089908A20B76
:109DA0000B00652A066643004C0041004D00500040
:109DB000330004000000DA0504000300E6050B0090
:109DC000DD2D02A8410054006A2AE42D04003B0066
:109DD000510BE42D04004800510B0B008A13048A38
:109DE00048004F004D0045006A2AFE0C0100480063
:109DF0000B0045290BA453004100560045002D00DF
:109E000043005500520053004F0052006A2AFE0CD6
:109E1000010073000B00B1280EA45200450053004E
:109E200054004F00520045002D00430055005200E1
:109E300053004F0052006A2AFE0C010075000B000F
:109E4000E92D03A643004C0053006A2AFE0C0200D1
:109E500032004A000B00382E078A43004C002D00C8
:109E60004C0049004E0045006A2AFE0C02003200F8
:109E70004B000B00432E069843004C002D0045007C
:109E80004F004C006A2AFE0C01004B000B00522EC2
:109E900006A643004C002D0045004F0053006A2ADF
:109EA000FE0C01004A000B005F2E099C4300550088
:109EB000520053004F0052002D004F004E006A2AFE
:109EC000FE0C04003F003200350068000B006C2ED1
:109ED0000A8C43005500520053004F0052002D00E1
:109EE0004F00460046006A2AFE0C04003F00320084
:109EF00035006C000B004C2906984E004F005200B4
:109F00004D0041004C00830C0B00C82D048842001A
:109F10004F004C0044006A2AFE0C020031006D0024
:109F20000B005D29039A440049004D006A2AFE0C8B
:109F3000020032006D000B009D2E059642004C0081
:109F400049004E004B006A2AFE0C020035006D00ED
:109F50000B006C29079655004E0042004C0049004A
:109F60004E004B006A2AFE0C0300320035006D00E3
:109F70000B00C12E098A55004E00440045005200D6
:109F80004C0049004E0045006A2AFE0C02003400D5
:109F90006D000B00232E078A520045005600450035
:109FA0005200530045006A2AFE0C020037006D0083
:109FB0000B00B42E0498420045004C004C000400F5
:109FC0000700510B0B00062E0398480053004C006D
:109FD0001400040004007506190004001000750642
:109FE000CC291200CC290B00FB2E02804800400037
:109FF0000400100099290B00112E0280530040002C
:10A000000400040099290400040068060B00731B77
:10A0100002804C0040000400040068060B00142F6E
:10A0200005905300450054002D004800190004001D
:10A03000100068061900040010007506CC290B00FA
:10A04000272F05A65300450054002D00530014008F
:10A050001800040004006806190004001000992983
:10A06000040010007506CC291200040004007506D7
:10A07000CC290B00382F05985300450054002D00C3
:10A080004C0019000400040099290400040075061E
:10A09000CC290B00932E087E4E004500550054003D
:10A0A000520041004C003F00102F04000F00A52972
:10A0B0000B000C2F025648002B0018006C2F0800D4
:10A0C0007B2F0900842F1800102F04000100CC29D9
:10A0D00004000C0068062E2F0B00712F025A480056
:10A0E0002D0018006C2F08008F2F0900982F1800E2
:10A0F000102F04000B00CC2904000C0068062E2F42
:10A100000B00522F025653002B001800182F04008A
:10A110000100CC29F12D3F2F0B00992F025A53003B
:10A120002D001800182F04000100A029F12D3F2F49
:10A130000B001F2F02564C002B001800232F040089
:10A140000100CC29F12D592F0B00B12F025A4C00E0
:10A150002D001800232F04000100A029F12D592FF4
:10A160000B00852F0788480053004C005F00520009
:10A170004500440004000000040003000400010046
:10A18000002F0B00C92F0A8A480053004C005F00C3
:10A190004F00520041004E004700450004000100FE
:10A1A0000400030004000100002F0B00DA2F0AAEA8
:10A1B000480053004C005F00590045004C004C0023
:10A1C0004F005700040002000400030004000100D7
:10A1D000002F0B00EE2F0A9C480053004C005F003C
:10A1E000590047005200450045004E00040003009E
:10A1F0000400030004000100002F0B000230099C42
:10A20000480053004C005F004700520045004500E5
:10A210004E00040004000400030004000100002FAD
:10A220000B001630099C480053004C005F004700AB
:10A230004300590041004E000400050004000300E3
:10A2400004000100002F0B002930089C4800530037
:10A250004C005F004300590041004E00040006001E
:10A260000400030004000100002F0B003C30098AA9
:10A27000480053004C005F0041005A005500520056
:10A280004500040007000400030004000100002F43
:10A290000B004E30088A480053004C005F0042001B
:10A2A0004C005500450004000800040003000400B1
:10A2B0000100002F0B0061300AA8480053004C0039
:10A2C0005F00560049004F004C0045005400040058
:10A2D00009000400030004000100002F0B0073308C
:10A2E0000B82480053004C005F004D0041004700C6
:10A2F00045004E005400410004000A000400030021
:10A3000004000100002F0B008730088A480053002A
:10A310004C005F0052004F005300450004000B004A
:10A320000400030004000100002F0B00000004B231
:10A33000470052004100590004000000DA05040003
:10A340000F00E605040004005E0619001400040076
:10A350000F0019001200002F0B006027058A57001C
:10A36000480049005400450004000000B4300B00D0
:10A37000F12E059642004C00410043004B000400C2
:10A380000F00B4300B00BD2F07A44C00490047005C
:10A390004800540045005200B52F0B00A92E06A41A
:10A3A0004400410052004B0045005200C12F0B00F9
:10A3B000A52F088A53004100540055005200410067
:10A3C000540045009D2F0B00E6300A8A44004500EA
:10A3D0005300410054005500520041005400450014
:10A3E000A92F0B007F2E025843002C003B071800BA
:10A3F000B006A5030C000E000B00132A09904900BB
:10A400004D0047002D00570049004400540048000B
:10A410000D000B0015310AA849004D0047002D0022
:10A42000480045004900470048005400B0060D00B0
:10A430000B002231088249004D0047002D004400E6
:10A4400041005400410004000200CC290B003131CE
:10A45000844449004D004700220068040C000400B9
:10A460002200D20E93291900170068040D00040081
:10A47000070075061E0008005631410C93295F0C39
:10A480003B0714009329190012008105C307901699
:10A4900017000B005C2A0A8A45004D004900540051
:10A4A0002D0049004D0041004700450018002031B3
:10A4B00074040C0018002E3119003B3119001800EB
:10A4C00008008531190074040D00CE0CBA0B190078
:10A4D00004000100A029090077318D05830C0B00D1
:10A4E0000A310B8A430050003400330037002D003E
:10A4F00048004C0049004E0045000400C4000B0019
:10A5000088310B8A430050003400330037002D009F
:10A5100056004C0049004E0045000400B3000B00FB
:10A5200098310898430050003400330037002D0064
:10A5300054004C000400DA000B00A83108A44300CA
:10A5400050003400330037002D0054005200040046
:10A55000BF000B00B53108984300500034003300B1
:10A5600037002D0042004C000400C0000B00C23137
:10A5700008A4430050003400330037002D0042008F
:10A5800052000400D9000B00CF310B9C4300500057
:10A590003400330037002D00540044004F005700B2
:10A5A0004E000400C2000B00DC3109A04300500043
:10A5B0003400330037002D005400550050000400D3
:10A5C000C1000B00EC310CA84300500034003300F4
:10A5D00037002D0054005200490047004800540045
:10A5E0000400C3000B00FA310BA8430050003400F4
:10A5F000330037002D0054004C0045004600540045
:10A600000400B4000B000B320BA6430050003400D2
:10A61000330037002D00430052004F005300530019
:10A620000400C5000B0000000A8A530049004E00D8
:10A6300051002D005400410042004C00450006002E
:10A640000000C90092015B022403ED03B6047F05FC
:10A6500048061107D907A2086A09330AFB0AC40B86
:10A660008C0C540D1C0EE30EAB0F72103A1101123C
:10A67000C8128F1355141C15E215A8166E1733183F
:10A68000F918BE19821A471B0B1CCF1C931D571EAD
:10A690001A1FDD1F9F2061212322E522A6236724A4
:10A6A0002825E825A82667272628E528A329612A42
:10A6B0001F2BDC2B992C552D112ECC2E872F4130A2
:10A6C000FB30B5316E322633DF3396344D350436E8
:10A6D000BA366F372438D9388C39403AF23AA53B2C
:10A6E000563C073DB83D683E173FC53F734021418A
:10A6F000CE417A422543D0437A442445CD45754620
:10A700001C47C34769480F49B449584AFB4A9D4B07
:10A710003F4CE04C814D204EBF4E5D4FFB4F97505C
:10A720003351CE51685202539B533254C954605531
:10A73000F5558A561D57B0574258D3586459F359A6
:10A74000825A0F5B9C5B285CB35C3E5DC75D4F5ECD
:10A75000D75E5D5FE35F6860EB606E61F0617162C0
:10A76000F1627063EE636C64E8646365DD65566690
:10A77000CF664667BC673268A66819698B69FD6950
:10A780006D6ADC6A4A6BB76B236C8E6CF86C616D1A
:10A79000C96D306E966EFB6E5E6FC16F22708370F6
:10A7A000E27040719D71F9715472AE7207735E73FD
:10A7B000B5730A745F74B27404755575A575F37535
:10A7C00041768D76D87622776B77B377FA773F78B4
:10A7D0008478C77809794A798979C879057A417A7C
:10A7E0007C7AB67AEE7A267B5C7B917BC57BF87BA4
:10A7F000297C597C887CB67CE37C0E7D397D627D2A
:10A80000897DB07DD57DFA7D1D7E3E7E5F7E7E7E1C
:10A810009C7EB97ED57EEF7E097F217F377F4D7F7D
:10A82000617F747F867F977FA67FB47FC17FCD7F56
:10A83000D87FE17FE97FF07FF57FF97FFD7FFE7FA5
:10A8400000000A8A50004F00570032002D005400CB
:10A85000410042004C0045000600010002000400D7
:10A8600008001000200040008000000100020004E9
:10A870000008001000200040008000000B8A4C00FF
:10A880004F004700320049002D00540041004200B3
:10A890004C00450006000000001000200030004081
:10A8A0000050006000700080009000A000B000C068
:10A8B00000D000E000F000000B8A4C004F00470081
:10A8C000320046002D005400410042004C0045007B
:10A8D0000600000017002E0045005C007200890091
:10A8E0009F00B600CC00E200F9000F0125013B01FA
:10A8F000500166017C019201A701BD01D201E7016F
:10A90000FC01120227023C02510265027A028F0208
:10A91000A302B802CC02E102F5020A031E033203CD
:10A9200046035A036E0382039603A903BD03D103B2
:10A93000E403F8030B041E043204450458046B04BA
:10A940007E049104A404B704CA04DC04EF040205E5
:10A950001405270539054B055E057005820594052C
:10A96000A605B905CB05DC05EE0500061206240692
:10A970003506470658066A067B068D069E06B00613
:10A98000C106D206E306F4060507160727073807AF
:10A9900049075A076B077B078C079D07AD07BE0762
:10A9A000CE07DF07EF07FF07100820083008400830
:10A9B00050086108710881089008A008B008C00814
:10A9C000D008E008EF08FF080F091E092E093D090D
:10A9D0004D095C096B097B098A099909A809B8091D
:10A9E000C709D609E509F409030A120A210A300A3F
:10A9F0003E0A4D0A5C0A6B0A790A880A970AA50A78
:10AA0000B40AC20AD10ADF0AEE0AFC0A0A0B190BC1
:10AA1000270B350B430B510B5F0B6E0B7C0B8A0B1B
:10AA2000980BA60BB30BC10BCF0BDD0BEB0BF90B8C
:10AA3000060C140C220C2F0C3D0C4A0C580C660C06
:10AA4000730C800C8E0C9B0CA90CB60CC30CD00C98
:10AA5000DE0CEB0CF80C050D120D1F0D2D0D3A0D33
:10AA6000470D540D600D6D0D7A0D870D940DA10DE0
:10AA7000AE0DBA0DC70DD40DE00DED0DFA0D060E9D
:10AA8000130E1F0E2C0E380E450E510E5E0E6A0E62
:10AA9000760E830E8F0E9B0EA70EB40EC00ECC0E3C
:10AAA000D80EE40EF00EFC0E090F150F210F2D0F1E
:10AAB000380F440F500F5C0F680F740F800F8B0F0F
:10AAC000970FA30FAF0FBA0FC60FD20FDD0FE90F0D
:10AAD000F40F001000000B8A4C004F0047003200BA
:10AAE00044002D005400410042004C004500060087
:10AAF00017001700170017001600170016001700A0
:10AB00001600160017001600160016001500160095
:10AB10001600160015001600150015001500160089
:10AB2000150015001500140015001500140015007F
:10AB30001400150014001500140014001400140073
:10AB40001400140014001300140014001300140067
:10AB5000130013001400130013001300130013005C
:10AB6000130013001300120013001300120013004F
:10AB70001200120013001200120012001200130043
:10AB80001200110012001200120012001100120037
:10AB9000110012001100120011001200110011002A
:10ABA000110011001100110011001100110011001D
:10ABB0001100100011001100100011001000110010
:10ABC0001000100011001000100010001000110003
:10ABD000100010000F0010001000100010001000F6
:10ABE0000F00100010000F0010000F0010000F00E9
:10ABF0000F0010000F000F000F0010000F000F00DB
:10AC00000F000F000F000F000F000F000E000F00CD
:10AC10000F000F000E000F000F000E000F000E00BF
:10AC20000F000E000F000E000E000F000E000E00B1
:10AC30000E000E000E000F000E000E000E000E00A3
:10AC40000D000E000E000E000E000E000D000E0096
:10AC50000E000D000E000D000E000E000D000D0088
:10AC60000E000D000E000D000D000D000E000D0079
:10AC70000D000D000D000D000E000D000D000D006B
:10AC80000C000D000D000D000D000D000D000C005E
:10AC90000D000D000C000D000D000C000D000C004F
:10ACA0000D000C000D000C000D000C000C000D0040
:10ACB0000C000C000C000D000C000C000C000C0033
:10ACC0000C000C000D000C000C000C000B000C0024
:10ACD0000C000C000C000C000C000B000C000C0015
:10ACE0000C000B000C000C000B000C000B000C0007
:10ACF00000000B8A450058005000320046002D002D
:10AD00005400410042004C004500060000100B10AA
:10AD1000161021102D10381043104E105A106510C7
:10AD200070107C10871093109E10AA10B510C110DF
:10AD3000CD10D810E410F010FB10071113111F11E3
:10AD40002B11371143114F115B11671173117F11D3
:10AD50008B119711A311B011BC11C811D511E111BC
:10AD6000ED11FA11061213121F122C12381245128D
:10AD700052125F126B127812851292129F12AC124D
:10AD8000B812C512D312E012ED12FA1207131413FF
:10AD900021132F133C1349135713641372137F139A
:10ADA0008D139A13A813B513C313D113DF13EC1328
:10ADB000FA13081416142414321440144E145C149C
:10ADC0006A14781487149514A314B114C014CE1403
:10ADD000DD14EB14FA140815171525153415431551
:10ADE000521560156F157E158D159C15AB15BA158E
:10ADF000C915D815E715F7150616151624163416B5
:10AE0000431653166216721681169116A116B016C5
:10AE1000C016D016E016F016FF160F171F173017C2
:10AE2000401750176017701780179117A117B117A7
:10AE3000C217D217E317F417041815182618361876
:10AE40004718581869187A188B189C18AD18BE182E
:10AE5000CF18E018F21803191419261937194919CF
:10AE60005A196C197E198F19A119B319C519D61958
:10AE7000E819FA190C1A1E1A311A431A551A671AC8
:10AE80007A1A8C1A9E1AB11AC31AD61AE91AFB1A20
:10AE90000E1B211B341B471B591B6C1B7F1B931B59
:10AEA000A61BB91BCC1BDF1BF31B061C1A1C2D1C7D
:10AEB000411C541C681C7C1C8F1CA31CB71CCB1C85
:10AEC000DF1CF31C071D1B1D301D441D581D6C1D70
:10AED000811D951DAA1DBE1DD31DE81DFD1D111E42
:10AEE000261E3B1E501E651E7A1E8F1EA51EBA1EF4
:10AEF000CF1EE51EFA1E101F251F3B1F501F661F89
:10AF00007C1F921FA81FBE1FD41FEA1F0020000035
:10AF10000B8A450058005000320044002D005400B8
:10AF2000410042004C00450006000B000B000B00E6
:10AF30000C000B000B000B000C000B000B000C00B6
:10AF40000B000C000B000C000B000C000C000B00A5
:10AF50000C000C000B000C000C000C000C000C0092
:10AF60000C000C000C000C000C000C000C000C0081
:10AF70000C000D000C000C000D000C000C000D006E
:10AF80000C000D000C000D000C000D000D000D005C
:10AF90000C000D000D000D000D000D000C000D004B
:10AFA0000E000D000D000D000D000D000D000E0037
:10AFB0000D000D000E000D000E000D000E000D0026
:10AFC0000E000D000E000E000E000D000E000E0013
:10AFD0000E000E000E000E000E000E000E000E0001
:10AFE0000F000E000E000E000F000E000F000E00EE
:10AFF0000F000E000F000E000F000F000F000E00DC
:10B000000F000F000F000F000F000F000F000F00C8
:10B010000F0010000F000F000F0010000F001000B5
:10B020000F0010000F00100010000F0010001000A3
:10B03000100010000F001000100011001000100090
:10B04000100010001000110010001000110010007E
:10B05000110011001000110011001000110011006A
:10B060001100110011001100110011001100110058
:10B070001200110011001200110012001100120044
:10B080001200110012001200120011001200120032
:10B09000120012001300120012001200130012001E
:10B0A000120013001200130013001200130013000B
:10B0B00013001300120013001300140013001300F8
:10B0C00013001300140013001400130014001300E5
:10B0D00014001400130014001400140014001400D1
:10B0E00014001400150014001400140015001400BE
:10B0F00015001400150015001500140015001500AA
:10B100001500150015001500160015001500160095
:10B110001500160015001600150016001600160082
:10B120001600160016001600160000000B8A4100DB
:10B13000540041004E0046002D00540041004200E2
:10B140004C00450006000000290051007A00A300D1
:10B15000CC00F4001D0146016F019701C001E90117
:10B1600011023A0262028B02B402DC0205032D03D3
:10B1700056037E03A703CF03F7032004480470049B
:10B180009904C104E9041105390561058905B10572
:10B19000D9050106290651067806A006C806EF065D
:10B1A00017073E0766078D07B507DC0703082A085F
:10B1B000510878089F08C608ED0814093B09610981
:10B1C0008809AE09D509FB09220A480A6E0A940AC1
:10B1D000BA0AE00A060B2C0B510B770B9D0BC20B26
:10B1E000E70B0D0C320C570C7C0CA10CC60CEB0CB5
:10B1F000100D340D590D7D0DA20DC60DEA0D0F0E6B
:10B20000330E560E7A0E9E0EC20EE50E090F2C0F4F
:10B21000500F730F960FB90FDC0FFF0F2110441062
:10B2200067108910AB10CE10F010121134115611A6
:10B2300077119911BB11DC11FD111F12401261121F
:10B240008212A312C312E4120513251345136613C9
:10B250008613A613C613E6130514251444146414A8
:10B260008314A214C114E014FF141E153D155B15C0
:10B270007A159815B715D515F31511162F164C1606
:10B280006A168816A516C216E016FD161A17371785
:10B29000541770178D17AA17C617E217FE171B1839
:10B2A000371853186E188A18A618C118DD18F81820
:10B2B00013192E19491964197F199A19B419CF193C
:10B2C000E919041A1E1A381A521A6C1A861A9F1A89
:10B2D000B91AD31AEC1A051B1F1B381B511B6A1B0A
:10B2E000831B9C1BB41BCD1BE51BFE1B161C2E1CBD
:10B2F000461C5E1C761C8E1CA61CBE1CD51CED1CA0
:10B30000041D1B1D331D4A1D611D781D8E1DA51DAD
:10B31000BC1DD31DE91DFF1D161E2C1E421E581EEE
:10B320006E1E841E9A1EB01EC51EDB1EF01E061F5A
:10B330001B1F301F451F5A1F6F1F841F991FAE1FF1
:10B34000C31FD71FEC1F002000000B8A41005400D0
:10B3500041004E0044002D005400410042004C00CA
:10B36000450006002900280029002900290028009E
:10B370002900290029002800290029002800290087
:10B380002800290029002800290028002900280079
:10B39000290028002800290028002800290028006A
:10B3A000280028002800280028002800280028005D
:10B3B0002800280027002800280027002800270050
:10B3C0002800270028002700270027002700270043
:10B3D0002700270027002700270026002700260037
:10B3E000270026002700260026002600260026002B
:10B3F0002600260025002600260025002500260020
:10B400002500250025002500250025002500240015
:10B41000250024002500240024002500240023000A
:10B4200024002400240023002400230024002300FF
:10B4300023002300230023002200230023002200F6
:10B4400022002300220022002200220021002200EC
:10B4500022002100210022002100210021002100E2
:10B4600020002100210020002000210020002000D9
:10B47000200020001F0020001F0020001F001F00D0
:10B480001F001F001F001F001F001E001F001E00C6
:10B490001F001E001E001E001E001D001E001E00BC
:10B4A0001D001D001E001D001D001D001D001C00B4
:10B4B0001D001D001C001C001C001D001C001C00A9
:10B4C0001B001C001C001B001C001B001B001B00A1
:10B4D0001B001B001B001B001A001B001A001B0096
:10B4E0001A001A001A001A001A0019001A001A008D
:10B4F000190019001A001900190019001900190083
:10B500001800190018001900180018001800180079
:10B51000180018001800180017001800170017006E
:10B520001800170017001700160017001700170063
:10B53000160016001700160016001600160016005A
:10B54000160016001500160015001600150015004F
:10B550001500150015001500150015001500140044
:10B560001500140000000580530049004E005100F2
:10B57000400037321900BC06CC290D000B0000003A
:10B58000058050004F00570032004000443319003E
:10B59000BC06CC290D000B00000006804C004F00BB
:10B5A000470032004900400062331900BC06CC2934
:10B5B0000D000B00000006804C004F0047003200D9
:10B5C0004600400080331900BC06CC290D000B005A
:10B5D000000006804C004F0047003200440040004D
:10B5E0008F341900BC06CC290D000B00000006802A
:10B5F0004500580050003200460040009D351900BB
:10B60000BC06CC290D000B00000006804500580048
:10B610005000320044004000AC361900BC06CC2972
:10B620000D000B00000006804100540041004E0058
:10B6300046004000BA371900BC06CC290D000B00AB
:10B64000000006804100540041004E0044004000CC
:10B65000C9381900BC06CC290D000B000E16047C5D
:10B660005100310035003E001800CC2914001B00A9
:10B6700037001200CC290B00463A05A451003100D6
:10B6800035003E0052001900040000401F008105F3
:10B69000CC294C3A0B00D12E058855002F004D00C7
:10B6A0004F004400140004000000120005060B00C7
:10B6B000633A025E55002F006A3A190017000B002A
:10B6C000703A035E55002A002F0014003300120068
:10B6D0000506190017000B00950607882A002F00A1
:10B6E00052004F0055004E004400180087291400F6
:10B6F0009006190087291800CC291300BA053500D7
:10B7000008009D3A04000100CC29120017000B002C
:10B710003F31038C49002A0046007C064C3A0B005E
:10B72000D030078E420049004E003E0044004500E4
:10B73000470004002D00040000208D3A0B00FC306F
:10B74000079C4400450047003E00420049004E006F
:10B750000400680168060400002004002D008D3AF2
:10B760000B00A83A09A6420049004E003E004400E2
:10B77000450047002E00530004002D00750604000C
:10B7800000208D3A0B00B73A099C44004500470061
:10B790002E0053003E00420049004E0018000400F5
:10B7A00068017506140019001300680619000400EA
:10B7B0002D0075060400002019008D3A12001700B4
:10B7C0000B00F030066C530054004500500031006F
:10B7D00036000400000014001800040008001C00DB
:10B7E0000800113B1A000400020099291200CC291C
:10B7F00014001800040004001C0008001E3B1A007E
:10B800000400040099291200CC2914001800040037
:10B8100002001C0008002B3B1A00040008009929B4
:10B820001200CC2914001800040001001C000800BC
:10B83000383B1A000400100099291200CC2914008A
:10B840001700170012000B00E22E0864520041009E
:10B85000540049004F00510031003200190004002B
:10B86000001081057D3A0B00DB30099A4C004F0037
:10B87000470032002D004E004F0052004D000400E2
:10B880000C001900180004000020BA050400000094
