:020000040000FA
:100000000C94EB800C941C810C941C810C941C812E
:100010000C941C810C941C810C941C810C941C81EC
:100020000C941C810C941C810C941C810C941C81DC
:100030000C941C810C941C810C941C810C941C81CC
:100040000C941C810C941C810C941C810C941C81BC
:100050000C941C810C941C810C941C810C94AC8815
:100060000C941C810C9420890C94F6880C941C81AF
:100070000C941C810C941C810C941C810C941C818C
:100080000C941C810C941C810C941C810C941C817C
:100090000C941C810C941C810C941C810C941C816C
:1000A0000C941C810C941C810C941C810C941C815C
:1000B0000C941C810C941C810C941C810C941C814C
:1000C0000C941C810C941C810C941C810C941C813C
:1000D0000C941C810C941C810C941C810C941C812C
:1000E0000C941C810C94A3870C94B4810C941983F8
:1000F0000C944B810C94F1870C94B3870C94588624
:100100000C9493850C9414860C9416870C94628737
:100110000C941F8B0C947C810C94E6850C942A869D
:100120000C94A2860C94CA830C943E840C948C8606
:100130000C942A840C9452820C940F830C94EF87B5
:100140000C94A1870C94BF830C94B7860C941688EA
:100150000C9488870C947D850C9405840C944085C0
:100160000C942B850C9470860C9490840C94568679
:100170000C941E810C948A880C94D7870C945A8115
:100180000C9405850C94B3830C9457850C946A8861
:100190000C94D0860C94D7830C9461840C941888AA
:1001A0000C9401820C949B840C946E860C945C825B
:1001B0000C9497830C9414830C9440860C943C8785
:1001C0000C9443880C94C7870C94EF840C946E8134
:1001D0000C945382000000000000000000000000AA
:1001E000000000000000000000000000000000000F
:1001F00000000000000000000000000000000000FF
:1002000000000000000000000000000000000000EE
:1002100000000000000000000000000000000000DE
:1041D00000000000770069006400740068002D0092
:1041E000640069006700690074007300C6020D0076
:1041F00008002840F93F0400300004003A00F605AA
:1042000008002840F93F04003000F429D2020D00D4
:1042100004000A008606202AD2020C0004000100D5
:10422000190D0C400B0000000CE67E0070007200BF
:10423000650063002D006400690067006900740078
:104240007300C6020D0008005740F93F040030001B
:1042500004003A00F605080057400400FFFFEA0298
:104260000C00F93F04003000F429DE020D000400C8
:104270000A008606202ADE020C0004000100190D47
:1042800037400B000000097E7E0064006500660078
:10429000610075006C0074003F00F93F04007D0070
:1042A000F9290B00000008C27E007400790070003C
:1042B00065002D0073006100180004007300F929E7
:1042C00008007C401700B53F090088401800040032
:1042D0006100F929080086401700DE3F0900884088
:1042E0001700693E0B0000000ED07E0074007900BC
:1042F000700065002D0064006900730070006100AB
:10430000740063006800180004006400F9290800C4
:10431000A3401700653F0900C24018000400750063
:10432000F9290800AD401700783F0900C240180085
:1043300004007800F9290800B74017008C3F0900F5
:10434000C240180004006300F9290800C1401700AA
:104350009E3F0900C24072400B0000000BD87E0057
:104360006600690065006C0064002D007400610047
:1043700069006C0004000100190DC6020D007605ED
:104380000800DB4017000900E940A0180C0062009B
:1043900061006400200066002D007300740072004C
:1043A00069006E006700F93F04007D001E00A01840
:1043B0000C00620061006400200066002D007300A4
:1043C0007400720069006E00670004000100190D9E
:1043D00099400B00000006C87E0066006900650079
:1043E0006C00640004000100190D04000000D202FA
:1043F0000C000400FFFFDE020C00C6020D00760573
:1044000008001B41170009002941A0180C00620098
:1044100061006400200066002D00730074007200CB
:1044200069006E006700634008003241040001002B
:10443000190D653F090080410C40C6020D0076054C
:1044400008003B41170009004941A0180C00620018
:1044500061006400200066002D007300740072008B
:1044600069006E006700F93F04002E00F92908007A
:10447000714104000100190D04000000DE020C006F
:1044800004000000EA020C003740EA020D00760545
:1044900008006341170009007141A0180C00620078
:1044A00061006400200066002D007300740072003B
:1044B00069006E006700F93F180004007D00F929CB
:1044C00008007F41170004000100190D653F090035
:1044D0008041D0400B0000000CCA7E0065007600D1
:1044E00061006C002D006C006200720061006300CE
:1044F000650004000100C6020D00BA050800AC41C9
:10450000BA020D0004000100202A0F0004007B0005
:10451000F9290800A94104007B00600D0400020095
:10452000190D0900AA4108410900AD4108410B00DD
:1045300000000CCA7E006500760061006C002D0052
:1045400072006200720061006300650004000100F7
:10455000C6020D00BA050800D941BA020D000400D8
:104560000100202A0F0004007D00F9290800D6412F
:1045700004007D00600D04000200190D0900D74100
:10458000693E0900DA41693E0B00000005D87E0053
:104590006500760061006C00E7291700BA020C0084
:1045A000C6020C001700260DC6020D0008000942C5
:1045B000F93F180004007B00F9290800F9411700B1
:1045C0008F4109000742180004007D00F929080006
:1045D00003421700BC4109000742600D04000100BE
:1045E000190D0900EA41810D0B00000044DC7E003A
:1045F000720075006E00F10C3E07E2410B000B42A9
:1046000043F87E0022007C0011420B00072E8244FA
:104610004600220031030D0008002D420400220054
:10462000E30EB50DBB161142EF160900324204002D
:104630002200E30EB50DE2410B00263C0DA0450023
:104640004400490054002D004C0049004E00450034
:104650002D004300410050000400A0000B00334235
:104660000D8A45004400490054002D0052004500C9
:1046700043002D00530049005A0045000400A400E7
:104680000B0045420F8A45004400490054002D00AC
:104690004100520045004E0041002D0053004900EA
:1046A0005A004500040000200B0057420BAE4500A5
:1046B0004400490054002D005400450058005400A7
:1046C0002D005700040050000B006B420B9045007A
:1046D0004400490054002D00540045005800540087
:1046E0002D004800040017000B007B420FAE450070
:1046F0004400490054002D00530054004100540070
:10470000550053002D0052004F00570004001800C0
:104710000B008B420DAE45004400490054002D00B3
:10472000480045004C0050002D0052004F0057003B
:10473000040019000B009F420D8A45004400490007
:1047400054002D004D00530047002D004E004F0037
:104750004E004500040000000B00B1420E884500E9
:104760004400490054002D004D00530047002D0027
:1047700053004100560045004400040001000B00B6
:10478000C3420FA445004400490054002D004D00D1
:10479000530047002D0042005500460046004500EA
:1047A0005200040002000B00D6420D8E450044006A
:1047B000490054002D004D00530047002D004C00CF
:1047C0004F004E004700040003000B00EA420D9C1E
:1047D00045004400490054002D004D00530047009F
:1047E0002D004F00500045004E00040004000B0057
:1047F000FC420D8845004400490054002D004D0046
:10480000530047002D0052004500410044000400C1
:1048100005000B000E430E8A450044004900540079
:104820002D004D00530047002D0057005200490055
:1048300054004500040006000B0020430CAE450068
:104840004400490054002D004D00530047002D0046
:104850004E0045005700040007000B0033430D8A4B
:1048600045004400490054002D004D00530047000E
:104870002D004E0041004D004500040008000B00D3
:1048800044430EA045004400490054002D004D0053
:10489000530047002D0055004E00530055005000B6
:1048A000040009000B00564310A8450044004900CD
:1048B00054002D0055005300450052002D004F00BC
:1048C00046004600530045005400040000010B0060
:1048D00069430E8A45004400490054002D005000F1
:1048E0004100540048002D00530049005A00450083
:1048F000040004010B007E43099645004400490072
:1049000054002D004D00410052004B0004000001F6
:10491000A4040D00202A0B009143098A450044009D
:10492000490054002D00420041005300450004009E
:104930000101A4040D00202A0B00A243098A4500AE
:104940004400490054002D00480045005200450035
:1049500004000201A4040D00202A0B00B3430AA89E
:1049600045004400490054002D004C0049004D0012
:104970004900540004000301A4040D00202A0B0088
:10498000C443098A45004400490054002D004600F4
:1049900052004500450004000401A4040D00202A33
:1049A0000B00D643098845004400490054002D00FF
:1049B000480045004100440004000501A4040D0026
:1049C000202A0B00E74309984500440049005400A1
:1049D0002D005400410049004C0004000601A404CD
:1049E0000D00202A0B00F84308A4450044004900AC
:1049F00054002D0043005500520004000701A40498
:104A00000D00202A0B00094408A04500440049007D
:104A100054002D0054004F00500004000801A4046D
:104A20000D00202A0B0019440AA645004400490045
:104A300054002D004C0049004E0045005300040076
:104A40000901A4040D00202A0B0029440946450051
:104A50004400490054002D0043005500520023003B
:104A600004000A01A4040D00202A0B003B4409465F
:104A700045004400490054002D0054004F005000F0
:104A8000230004000B01A4040D00202A0B004C4459
:104A9000089845004400490054002D0043004F0091
:104AA0004C0004000C01A4040D00202A0B005D44FE
:104AB000098C45004400490054002D00500052006C
:104AC0004500460004000D01A4040D00202A0B003F
:104AD0006D440D8845004400490054002D004D00F0
:104AE0004F004400490046004900450044000400CE
:104AF0000E01A4040D00202A0B007E440BA84500E3
:104B00004400490054002D0049004E005300450068
:104B10005200540004000F01A4040D00202A0B00D1
:104B200093440C8E45004400490054002D0052006F
:104B300055004E004E0049004E0047000400100191
:104B4000A4040D00202A0B00A644088E4500440052
:104B5000490054002D004D0053004700040011018E
:104B6000A4040D00202A0B00BA440D9C450044000B
:104B7000490054002D0050004100540048002D0011
:104B80004C0045004E0004001201A4040D00202A30
:104B90000B00CA440E4645004400490054002D0055
:104BA00050004100540048002D00420055004600CE
:104BB000230004001301A4040D00202A0B00DF448D
:104BC0000D9C45004400490054002D0043004C005A
:104BD000490050002D004C0045004E000400140117
:104BE000A4040D00202A0B00F5440E4645004400A5
:104BF000490054002D0043004C00490050002D0096
:104C0000420055004600230004001501A4040D00D5
:104C1000202A0B000A4503624500540031000400BD
:104C20001601A4040D00202A0B0020450364450052
:104C30005400320004001701A4040D00202A0B00C8
:104C40002B45036645005400330004001801A404FA
:104C50000D00202A0B00364503684500540034003F
:104C600004001901A4040D00202A0B0041450EA8E0
:104C700045004400490054002D004C0049004E00FE
:104C800045002D004E004500580054000B004C45D7
:104C90000EAC45004400490054002D004C00490072
:104CA0004E0045002D0050005200450056002400E3
:104CB0000B005D450D9C45004400490054002D004B
:104CC0004C0049004E0045002D004C0045004E00B0
:104CD00004000200202A0B006F450FA64500440087
:104CE000490054002D004C0049004E0045002D00A5
:104CF00046004C0041004700530004000300202AF6
:104D00000B0082450EA845004400490054002D00C8
:104D10004C0049004E0045002D005400450058004D
:104D2000540004000400202A0B0097450E80450023
:104D30004400490054002D004C0049004E0045003D
:104D40002D004C0045004E0040007E450D000B003C
:104D5000AB450E4245004400490054002D004C0074
:104D600049004E0045002D004C0045004E0021003A
:104D70007E450C000B00BE450EA4450044004900D2
:104D800054002D004C0049004E0045002D0041000C
:104D90004400440052001900A745202A0B00D145C9
:104DA0000D8C45004400490054002D005000410086
:104DB000540048002D00420055004600EF440D000D
:104DC0000B00E5450D8C45004400490054002D00C2
:104DD00043004C00490050002D00420055004600A1
:104DE0001A450D000B00F7450A48450044004900EC
:104DF00054002D0050004100540048002400F445A8
:104E0000D9440D000B0009460A4245004400490000
:104E100054002D00500041005400480021001800AB
:104E2000D9440C00F4451900D4070B001946094277
:104E300045004400490054002D004D005300470038
:104E40002100C4440C000B002C460C9C450044007F
:104E5000490054002D004300550052002D004C0025
:104E600045004E0013440D00BB450B003A460DA40F
:104E700045004400490054002D00430055005200F5
:104E80002D00410044004400520013440D00A7458A
:104E90000B004C460FA845004400490054002D006B
:104EA0004C0049004E0045002D0043004F005500C6
:104EB0004E00540035440D000B005F46094245008A
:104EC0004400490054002D0043004F004C002100D5
:104ED000180067440C0078440C000B0073460F8ADE
:104EE00045004400490054002D0043004C0045009B
:104EF000410052002D004C0049004E0045000400C6
:104F000000001A007E450C0017000B00844608863E
:104F1000450044002D0041004C004C004F00430070
:104F2000E1430D0076050800B14618000D00E1438D
:104F30000C000900C546BE430D0018005442202A4B
:104F4000D0430D001900BA050800C0461700040040
:104F500000000B0018005442202ABE430C00180029
:104F6000040000001A000C001900170018006D451D
:104F70000400000019000C0018007E450400000029
:104F800019000C00180093450400000019000C00E3
:104F90000B009C460E8A45004400490054002D0039
:104FA00046005200450045002D004C0049004E00CF
:104FB0004500E1430D001A000C00E1430C000B001A
:104FC000DF460FA445004400490054002D004C006A
:104FD00049004E004B002D004100460054004500A2
:104FE000520025450C0030450C0025450D000D00F4
:104FF00030450D000C0025450D0030450D006D4578
:105000000C0030450D000D007605080024473045A2
:105010000D0019006D450C000900284725450D00BD
:1050200003440C0025450D0030450D000C000B001D
:10503000F6460B9645004400490054002D005500EB
:105040004E004C0049004E004B0018000D00254555
:105050000C0018006D450D0030450C0030450D006A
:1050600008004F4725450D0030450D000C00090094
:10507000534725450D00F2430C0025450D0008005F
:105080005F4730450D0025450D006D450C000900BA
:10509000634730450D0003440C000B002E4711A45C
:1050A00045004400490054002D00520045005300C3
:1050B000450054002D0042005500460046004500C2
:1050C000520004000000E1430C00AD430D00BE435C
:1050D0000C00040000008D440C0004000000C444D7
:1050E0000C000400000067440C0004000000784439
:1050F0000C000400000004450C00A6461800230024
:1051000008009D471700E742C4440C000B0018003C
:10511000F2430C00180003440C00180013440C0068
:10512000180023440C0017000400010035440C0053
:105130000400010046440C000400010057440C0028
:105140000B00644709A845004400490054002D00A5
:1051500049004E0049005400A5030D009C430C007B
:10516000A5030D001800EF440C008E43202A180000
:105170001A450C004242202A1800AD430C001800CA
:10518000BE430C006842202AD0430C00D0430D00DF
:10519000A5030C0004000100A0440C00C042C4445C
:1051A0000C0004000000D9440C0077470B00B747FF
:1051B000098A45004400490054002D0044004F0076
:1051C0004E0045009C430D00A5030C00EF2ECB2E96
:1051D0000B00ED470D9C45004400490054002D0094
:1051E0005400520049004D002D004C0045004E0077
:1051F0001800BB4525450C0025450D0008002E482C
:105200001800A74525450D002500202A0F00DC06C3
:10521000F9290800284825450D00250025450C00E2
:1052200009002C48170025450D000B000900124805
:105230001700040000000B00FF470FA445004400C6
:10524000490054002D0045005800540045004E0010
:1052500044002D00430055005200180042420C2A21
:1052600008004F481700F942C4440C000400000035
:105270000B0018004846132A08005848170004007D
:10528000FFFF0B00180025450C00484630450C0078
:1052900013440D00A74530450D00202A25450D007B
:1052A00030450D00F429DC06F50725450D001344B3
:1052B0000D007E450C0017000400FFFF0B00324874
:1052C000138A45004400490054002D0045004E005B
:1052D00053005500520045002D0056004900530070
:1052E000490042004C00450046440D0057440D0063
:1052F000CA0508009E4823440D006D450D00234457
:105300000C0057440D00250057440C0009008A4842
:1053100046440D0057440D008842202A1A2A0800EE
:10532000B34823440D000D0023440C0057440D00E6
:10533000240057440C0009009E480B0075480CA03F
:1053400045004400490054002D004D004F00560018
:1053500045002D005500500013440D006D450D0013
:1053600076050800D54813440C0046440D0025007E
:1053700046440C0078440D0067440C008A480B003A
:10538000B4480E9C45004400490054002D004D00D7
:105390004F00560045002D0044004F0057004E00BE
:1053A00013440D000D0076050800F84813440C0066
:1053B00046440D00240046440C0078440D00674428
:1053C0000C008A480B00D6480EA84500440049004E
:1053D00054002D004D004F00560045002D004C009C
:1053E00045004600540067440D0008001649674414
:1053F0000D00250067440C0067440D0078440C0044
:105400000B00F9480FA845004400490054002D0046
:105410004D004F00560045002D0052004900470046
:105420004800540067440D002400180067440C0035
:1054300078440C000B0017490E8A450044004900CF
:1054400054002D004D004F00560045002D0048002F
:105450004F004D004500040000007E460B0031491E
:105460000D8845004400490054002D004D004F00B8
:10547000560045002D0045004E00440048467E463B
:105480000B0045490CA045004400490054002D0084
:1054900050004100470045002D0055005000040019
:1054A000000025450C0025450D008842CA0508006E
:1054B0007749C24825450D00240025450C00090008
:1054C00069490B0057490E9C4500440049005400AF
:1054D0002D0050004100470045002D0044004F00C2
:1054E00057004E000400000025450C0025450D0026
:1054F0008842CA0508009A49E64825450D0024005F
:1055000025450C0009008C490B007849118845009D
:105510004400490054002D005300450054002D0064
:105520004D004F004400490046004900450044003A
:105530000400FFFF8D440C00C042C4440C000B006B
:105540009B4913A445004400490054002D004F001E
:1055500056004500520057005200490054004500D3
:105560002D00430048004100520067440D00240014
:10557000434823000800D44917000B0067440D007E
:1055800013440D00E1450E0067440D0024007E46E3
:10559000AE490B00B64910A4450044004900540030
:1055A0002D0049004E0053004500520054002D00CC
:1055B000430048004100520067440D003B450C0089
:1055C000484646450C003B450D0046450D001A2A4D
:1055D0000800114A3B450D00240043482300080001
:1055E000094A17000B0067440D0013440D00E14504
:1055F0000E0009002E4A46450D00240043482300B2
:1056000008001A4A17000B003B450D0013440D001B
:10561000E14518002400190046450D003B450D00EA
:10562000F429512867440D0013440D00E1450E0094
:1056300067440D0024007E46AE490B00E0490EA8E9
:1056400045004400490054002D004A004F00490025
:105650004E002D004E0045005800540013440D002C
:105660000D007605230008004D4A17000B001800B6
:1056700025450C00484630450C0025450D00BB452E
:105680003B450C0030450D003B450D00202A4242B1
:105690000C2A0800654AF942C4440C000B00254559
:1056A0000D00A74513440D00A74530450D00202AE5
:1056B0003B450D00D40730450D003B450D00202A29
:1056C00013440D007E450C0025450D003B47254544
:1056D0000D00EF4635440D00250035440C00AE4961
:1056E0000B00344A10A445004400490054002D002A
:1056F000440045004C004500540045002D00430087
:1057000048004100520067440D0025450C00484602
:1057100030450C0025450D0030450D00CA05080038
:10572000C24A13440D0025450D002400E1451344F1
:105730000D0025450D00E14530450D0025450D00C6
:10574000F4292500D40730450D00250013440D0031
:105750007E450C00AE490B0025450D0030450D007F
:10576000F9290800CA4A444A0B00874A0F8A4500B3
:105770004400490054002D00530050004C004900E3
:1057800054002D004C0049004E004500A64618006C
:1057900023000800E64A1700E742C4440C000B004F
:1057A000180025450C0013440D0030450C006744DB
:1057B0000D003B450C0030450D00BB4546450C0037
:1057C0003B450D0046450D00CA0508001A4B4645ED
:1057D0000D003B450D00F429180025450D007E45C0
:1057E0000C0030450D00A7453B450D00202A2545FE
:1057F0000D00A7458105D4073B450D0030450D0040
:105800007E450C000900204B0400000025450D00DA
:105810007E450C0025450D0030450D0007473544F9
:105820000D00240035440C0025450D0013440C00E8
:1058300046440D00240046440C00040000007E464F
:105840008A48AE490B00CB4A0E8A45004400490005
:1058500054002D004200410043004B005300500013
:1058600041004300450067440D0023000800664BDB
:1058700013440D006D450D0076050800654B1800BA
:10588000BB4525450C0013440C0046440D00250083
:1058900046440C0025450D007E46444A8A480B00CC
:1058A00067440D002500180067440C0078440C0084
:1058B00067440D0048461A2A0800754B0B00994AA8
:1058C0000B00394B108A45004400490054002D005C
:1058D000440045004C004500540045002D004C009C
:1058E00049004E00450035440D0004000100F9292F
:1058F0000800984B13440D009546040000007E46B6
:10590000AE490B0013440D0025450C0025450D0044
:105910000D0076050800A74B180013440C00090081
:10592000B34B25450D006D450D00180013440C00C8
:1059300046440D00250046440C0025450D00234437
:105940000D00F9290800C24B13440D0023440C003C
:1059500046440D0057440C0025450D003B472545A6
:105960000D00EF4635440D00250035440C00484637
:1059700067440D00E6057E468A48AE490B00774B2A
:105980000E8A45004400490054002D0043004F009A
:10599000500059002D004C0049004E0045001344B2
:1059A0000D00BB45180004450C0013440D00A7452D
:1059B00006468105D407C042C4440C000B00D54BF9
:1059C0000F8A45004400490054002D00500041005A
:1059D0005300540045002D004C0049004E00450086
:1059E000A646180023000800104C1700E742C444E4
:1059F0000C000B00180025450C0004450D00180094
:105A000025450D007E450C00064625450D00A745A1
:105A10008105D40725450D0013440D000747254592
:105A20000D0013440C0035440D00240035440C00D7
:105A300046440D00240046440C00040000007E464D
:105A40008A48AE490B00F54B08AE450044004900BA
:105A500054002D004E004500570077474143C44491
:105A60000C000B00394C09884500440049005400E3
:105A70002D004C004F004100440025467747154655
:105A8000D013EE1318000800614C190017000B43E7
:105A9000C4440C000B0017001400F2430D00304505
:105AA0000C000400FFFF3B450C005E074242130060
:105AB0001814180008007E4C170017001700120079
:105AC0000B1417001D43C4440C00040001000B001C
:105AD00017000800B54C3B450D0023000800A44CFE
:105AE000A646180023000800954C170012000B145E
:105AF0001700E742C4440C00040002000B00180029
:105B000003440D000747180030450C0035440D00D4
:105B1000240035440C0017000900A84C04000000C4
:105B20003B450C00180030450D007E450C005E071B
:105B300030450D00A7458105D40709006B4C1700BF
:105B400012000B141700F2430D0013440C00F24333
:105B50000D0023440C000400010046440C00040026
:105B6000010057440C00040000007E4604000000C1
:105B70008D440C00C042C4440C00040000000B0023
:105B8000484C098A45004400490054002D00530048
:105B9000410056004500D9440D0023000800EC4C9C
:105BA0005343C4440C00040001000B001546741458
:105BB00017001546E013FD1318000800FB4C1900F0
:105BC00017003043C4440C000B00170046450C007E
:105BD000F2430D0018000800214D18000E4818006F
:105BE00030450C001A00A74530450D0046450D0014
:105BF0002614180008001D4D170046450D000B1413
:105C000017003043C4440C00040001000B001700CF
:105C10000D000900004D170046450D0065141700E2
:105C200046450D000B141700040000008D440C00C5
:105C3000D342C4440C00040000000B00D64C098E73
:105C400045004400490054002D002E004D00530033
:105C50004700C4440D001800D342F9290800504DF4
:105C600017000F0D0600200053006100760065004C
:105C700064000B001800E742F9290800654D170081
:105C80000F0D0C00200042007500660066006500E4
:105C900072002000660075006C006C000B0018009C
:105CA000F942F92908007C4D17000F0D0E00200065
:105CB0004C0069006E006500200074006F006F00EA
:105CC00020006C006F006E0067000B0018000B4393
:105CD000F9290800914D17000F0D0C0020004F000E
:105CE000700065006E0020006600610069006C00B5
:105CF000650064000B0018001D43F9290800A64D3B
:105D000017000F0D0C0020005200650061006400B8
:105D100020006600610069006C00650064000B00F3
:105D200018003043F9290800BC4D17000F0D0D0075
:105D300020005700720069007400650020006600B2
:105D4000610069006C00650064000B0018004143AD
:105D5000F9290800D04D17000F0D0B0020004E0050
:105D6000650077002000620075006600660065002F
:105D700072000B0018005343F9290800E54D170085
:105D80000F0D0C0020004E006F002000660069001F
:105D90006C0065006E0061006D0065000B0018006E
:105DA0006643F9290800F94D17000F0D0B0020007C
:105DB0004E006F007400200069006E0020004D004E
:105DC000560050000B0017000B00344D0DAE45007F
:105DD0004400490054002D00440052004100570087
:105DE0002D0052004F00570025450C0030450C0097
:105DF0000400010025450D00502EA02E30450D0059
:105E0000760508003A4E30450D00BB457842E60560
:105E10003B450C000400000046450C0046450D00C3
:105E20003B450D00CA0508003A4E30450D00A74518
:105E300046450D00202A0F00620B46450D00240048
:105E400046450C000900244E0B00FB4D0EA84500F2
:105E50004400490054002D00440052004100570006
:105E60002D00540045005800540023440D002545E2
:105E70000C000400010030450C0030450D00884244
:105E8000132A08006E4E25450D0030450D000A4EC0
:105E900025450D000800674E25450D000D002545E0
:105EA0000C0030450D00240030450C000900534E15
:105EB0000B003B4E10A645004400490054002D0045
:105EC00044005200410057002D005300540041008F
:105ED0005400550053003F2F040001009C42502EF7
:105EE000A02E1546B30B8D440D000800934E0F0DE8
:105EF000020020002A000900974E0F0D020020002A
:105F00002D000F0D040020004C006E0020004644C0
:105F10000D00382E0F0D0500200043006F006C00AF
:105F2000200067440D002400382EA0440D00080016
:105F3000B74E0F0D0400200049004E005300090029
:105F4000BD4E0F0D040020004F00560052003F4D83
:105F5000EF2E0B006F4E0EA0450044004900540088
:105F60002D0044005200410057002D00480045001C
:105F70004C00500004000100AE42502EA02EEF2E27
:105F80000F0D010031009A30212E2B310C2E0F0DF8
:105F90000600200020002000200020002000EF2E1E
:105FA0000F0D010032009A30212E2B310C2E0F0DD7
:105FB0000600530061007600650020002000EF2EEF
:105FC0000F0D010033009A30212E2B310C2E0F0DB6
:105FD0000600200020002000200020002000EF2EDE
:105FE0000F0D010034009A30212E2B310C2E0F0D95
:105FF00006004E0065007700200020002000EF2EF4
:106000000F0D010035009A30212E2B310C2E0F0D73
:10601000060043006F007000790020002000EF2E82
:106020000F0D010036009A30212E2B310C2E0F0D52
:106030000600200020002000200020002000EF2E7D
:106040000F0D010037009A30212E2B310C2E0F0D31
:106050000600500061007300740065002000EF2E00
:106060000F0D010038009A30212E2B310C2E0F0D10
:106070000600440065006C004C006E002000EF2E0E
:106080000F0D010039009A30212E2B310C2E0F0DEF
:106090000600200020002000200020002000EF2E1D
:1060A0000F0D0200310030009A30212E2B310C2EC2
:1060B0000F0D0600450078006900740020002000E4
:1060C000EF2E0B00C04E11A44500440049005400BF
:1060D0002D0050004C004100430045002D004300BE
:1060E0005500520053004F00520046440D005744E3
:1060F0000D00F429240004000100DA058842E605B9
:1061000025450C0067440D00240004000100DA0559
:106110007842E60530450C0030450D0025450D0060
:10612000502E0B00784F0BAE450044004900540040
:106130002D00520045004400520041005700DF2E60
:10614000912E602E4B4E814ED04E8B4FCB2E0B009E
:10615000A84F158A45004400490054002D0048000E
:1061600041004E0044004C0045002D0050005200FC
:1061700049004E005400410042004C004500180008
:106180000400200004007F00F6050800E64FA0444C
:106190000D000800E44FF2490900E54FCB490B0020
:1061A00017000B00BE4F10A44500440049005400E6
:1061B0002D00480041004E0044004C0045002D00D9
:1061C0004300480041005200180004000800F9296B
:1061D000080003501700494B0B00180004007F0013
:1061E000F92908000C501700494B0B001800040057
:1061F0000D00F929080015501700DC4A0B001800A3
:1062000004000A00F92908001E501700DC4A0B00A0
:10621000180004000900F92908002A501700DC06BC
:10622000D54FDC06D54F0B00D54F0B00E84F10B211
:1062300045004400490054002D00480041004E0034
:1062400044004C0045002D0045004B00450059001E
:106250001800710AF92908004650170009490B0077
:1062600018007F0AF92908004E50170028490B0032
:106270001800570AF929080056501700C2480B00A9
:106280001800640AF92908005E501700E6480B0060
:1062900018008C0AF92908006650170041490B00C4
:1062A0001800980AF92908006E50170054490B008D
:1062B0001800A50AF92908007650170065490B0057
:1062C0001800B20AF92908007E50170088490B000F
:1062D0001800DC0AF929080086501700494B0B000A
:1062E0001800CA0AF92908008E501700994A0B00B5
:1062F0001800EA0AF929080096501700DC4A0B003A
:106300001800BE0AF9290800A2501700A0440D0089
:106310002300A0440C000B001800000BF929080012
:10632000AB501700E14C17000B001800160BF929B1
:106330000800B3501700434C0B001800210BF9293B
:106340000800BB501700E54B0B001800370BF9296C
:106350000800C3501700064C0B001800420BF92927
:106360000800CB501700894B0B001800590BF92976
:106370000800D650170004000000B4440C000B00C5
:1063800017006643C4440C000B002C500FA84500B6
:106390004400490054002D005700410049005400BA
:1063A0002D0049004E005000550054002A0A0800F4
:1063B000F1503E500B00070A0800F650FA4F0B0050
:1063C0000900EC500B00DB50089C450044004900DC
:1063D00054002D00520055004E000400FFFFB4444D
:1063E0000C00B4440D0008000F51B54FEC500900EB
:1063F0000751EF2ECB2E912E602E0B00F95004A8E2
:106400004500440049005400C247E729534C180096
:1064100008002251F8470B0017000351F847040009
:1064200000000B00B62F08A84E00450057002D00B5
:106430004500440049005400C2472546434C0351DF
:10644000F8470B0000000000000000000000000002
:10645000000000000000000000000000000000003C
:10646000000000000000000000000000000000002C
:10647000000000000000000000000000000000001C
:10648000000000000000000000000000000000000C
:1081D000000000001C00000002004F0052001D00C3
:1081E0000000030058004F0052001E000000030072
:1081F00055004D002B001F00000003003C003C0018
:1082000034002000000003003C003C003800210046
:10821000000003003C003C00390022000000020086
:1082200030003D0023000000020031002B0024003C
:108230000000020031002D00250000000200320085
:108240002B0026000000020032002D002700000055
:10825000050048004F00500045004E002800000077
:10826000070048004300520045004100540045000B
:10827000290000000600480043004C004F00530056
:1082800045002A0000000700480052004500410058
:1082900044004C004E002B0000000800480057002E
:1082A00052004900540045004C004E002C000000D4
:1082B000050048005300450045004B002D0000001C
:1082C00005004800540045004C004C002E00000002
:1082D00005004800530049005A0045002F000000E7
:1082E0000600480046004C0055005300480030008E
:1082F000000007004800440045004C0045005400C1
:1083000045003100000007004800520045004E00C3
:1083100041004D0045003200000009004D005500AD
:108320004C005F00530045005400550050003300DE
:1083300000000C004D0055004C005F00530054003D
:10834000450050005F00410043004300340000003E
:1083500003004E004F00540035000000030053009E
:10836000550042003600000006004E004500470060
:1083700041005400450037000000030049004E0052
:10838000430038000000030044004500430039006A
:10839000000004005A00450052004F003A0000005F
:1083A000020055002B003B000000020032002A00B2
:1083B0003C00000000000000457E500052004900D3
:1083C0004D003F001800A2020C001800C1060F006B
:1083D000EC030C0017000400441F18000F000800F5
:1083E00031211800C1060F00EC030D001E0008002B
:1083F00015213E07202AC106C10609000321A20259
:108400000D00190018000F00D20F080025211900D7
:1084100017003E07202AC106C106090003211900E2
:1084200017003E07202A18000D001900C1060D0094
:108430000400FFFF0B001700A2020D000400000063
:108440000B0003003F00720078000200030074007C
:10845000780021000300010021000C000100400011
:108460000D000200430021000E0002004300400006
:108470000F000300520050002100100003005200C2
:10848000500040001100020052003E0012000200A5
:1084900052004000130002003E005200140003008E
:1084A000530050004000150003005300500021000D
:1084B00016000400440052004F0050001700030053
:1084C00044005500500018000400530057004100BC
:1084D0005000190004004F005600450052001A00D9
:1084E000020030003C001B00030041004E0044002D
:1084F0001C0002004F0052001D00030058004F00F6
:1085000052001E00030055004D002B001F0002000A
:1085100030003D002300020031002B002400020047
:1085200031002D002500020032002B002600020041
:1085300032002D002700050048004F005000450084
:108540004E0028000700480043005200450041004B
:108550005400450029000600480043004C004F002D
:10856000530045002A000700480052004500410022
:1085700044004C004E002B000800480057005200F9
:108580004900540045004C004E002C0005004800F6
:108590005300450045004B002D00050048005400E5
:1085A00045004C004C002E000500480053004900D7
:1085B0005A0045002F000600480046004C005500B8
:1085C00053004800300007004800440045004C00BC
:1085D00045005400450031000700480052004500A6
:1085E0004E0041004D004500320009004D0055008D
:1085F0004C005F005300450054005500500033000C
:108600000C004D0055004C005F0053005400450025
:1086100050005F00410043004300340003004E005F
:108620004F0054003500030053005500420036004F
:1086300006004E0045004700410054004500370049
:10864000030049004E004300380003004400450089
:108650004300390004005A00450052004F003A0020
:10866000020055002B003B00020032002A003C00B3
:1086700000000000467E49005000520049004D00B5
:108680003F001800A2020C001800C1060F00EC0306
:108690000C0017000400372118000F0008008A2280
:1086A0001800C1060F00EC030D001E000800732225
:1086B0003E07202AC1060900622218000F0014009C
:1086C000A2020D00C1061A00C1061200F70F080031
:1086D00085223E07202A0D000400FFFF0B003E0705
:1086E000202AC106090062221700A2020D00040020
:1086F00000000B000000488A240043004F004D009A
:10870000500049004C004500D3120800A522510931
:108710000800A52204000400CF29CF290B00E8118E
:1087200076050800C12218000D0018000400800022
:108730001C000800B5221700170014000B000400ED
:1087400020001C000800BE2217000D00CF290B00DE
:108750001700CF290B0051090800C92204000400AA
:10876000CF29CF290B00BC1200004A5849004E0007
:1087700054004500520050005200450054002C00A7
:10878000D3120800DE2251090800DE2298070B00F0
:10879000E811760508002B2318000D0004004000A6
:1087A0001C00A0180D00200063006F006D00700019
:1087B00069006C00650020006F006E006C0079009D
:1087C0001A0004006E161E00080028231A00040078
:1087D0002E2A1E00080028231A00040082241E00EE
:1087E000080028231A00040087251E0008002823FB
:1087F0001A00040098251E00080028231A0004000F
:1088000051271E000800282318000D000400200036
:108810001C000800252317000D0086070B00170019
:1088200086070B00170014000B00BC1200004698CE
:10883000520045005600450041004C00C9030D00A0
:1088400018001400AB0FC1060F009B030D00C90FE9
:108850008E0F760508004A2318000D0013000C0047
:10886000120019000C000B00120017000B003F173C
:10887000898A49004D004D004500440049004100EF
:108880005400450004008000C9030D00C106180013
:108890000D0081051D0019000C000B001F1E078A2A
:1088A00050005200490056004100540045000400A9
:1088B0000001C9030D00C10618000D0081051D004F
:1088C00019000C000B009D1E0CB243004F004D0020
:1088D000500049004C0045002D004F004E004C0058
:1088E000590004004000C9030D00C10618000D0026
:1088F00081051D0019000C000B00EF0F06A44D00B0
:10890000410052004B004500520031030D000800A9
:10891000C223A01820004D00410052004B0045002A
:108920005200200063006F006D00700069006C0051
:1089300065002D0073007400610074006500200064
:1089400075006E0073007500700070006F0072009B
:10895000740065006400BC12C9030D00A2020C0083
:108960004C07AE020C001D0F151F7D03E31E7D0397
:10897000C106E31E7D03C106C106E31E8C03E31E90
:108980008C03C106E31E8C03C106C106E31E8C03E3
:10899000C106C106C106E31E8C03C106C106C1069D
:1089A000C106E31E8C03C106C106C106C106C1068D
:1089B000E31E8C03C106C106C106C106C106C1067D
:1089C000E31E8C03C106C106C106C106C106C1066D
:1089D000C106E31E8C03C106C106C106C106C1065D
:1089E000C106C106C106E31E9B03E31E9B03C1062D
:1089F000E31EA2020D00C903FF1EAE020D00A50377
:108A0000FF1E04000400CF29AE020D00CF29040090
:108A10006118CF29A5030D00611804000B00CF29B0
:108A200034230B000E1706A846004F0052004700E3
:108A30004500540031030D0008005724A018200001
:108A400046004F00520047004500540020006300DC
:108A50006F006D00700069006C0065002D007300F0
:108A60007400610074006500200075006E007300E2
:108A70007500700070006F00720074006500640083
:108A8000BC121D0F9B030D00B911760508007B2455
:108A900014008D051200180004000080BA050800BB
:108AA0007324A0180900700072006F007400650044
:108AB0006300740065006400BC12B80F1800A503C1
:108AC0000C009B030D0045180B00BC12DA1804A41F
:108AD00055005300450052001D0F151FBB16AE0474
:108AE000CF2934230B0000000AB256004F00430088
:108AF0004100420055004C004100520059001D0F3A
:108B0000151F4C0704000300202A1800A2020C00C5
:108B10001700BB164C05A2020D00CF2904000B0064
:108B2000CF29A2020D0004000300202ACF2904004F
:108B30000000CF2904000000CF29A2020D0004008C
:108B40000300202A180004005F00A116A3177D036C
:108B5000C1060D00A2020D00C1060C00A2020D000C
:108B60007D03C1060C0034230B0067140BA64400E0
:108B70004500460049004E004900540049004F009E
:108B80004E0053008C030D00C90F9B03C1060C005F
:108B90009B03C1069B030C000B009323068A4D0028
:108BA0004F00440055004C00450031030D00080003
:108BB0001225A01820004D004F00440055004C0025
:108BC0004500200063006F006D00700069006C00BC
:108BD00065002D00730074006100740065002000C2
:108BE00075006E0073007500700070006F007200F9
:108BF000740065006400BC12C3040D00D8040D00AD
:108C00001D0008002925A0180D006D006F006400EC
:108C100075006C006500200061006300740069004D
:108C200076006500BC12B2140400FFFFC3040C0000
:108C300004000000D8040C000B004E1B0A8A4500FB
:108C40004E0044002D004D004F00440055004C00E4
:108C5000450031030D0008006A25A01824004500D6
:108C60004E0044002D004D004F00440055004C00C4
:108C70004500200063006F006D00700069006C000B
:108C800065002D0073007400610074006500200011
:108C900075006E0073007500700070006F00720048
:108CA000740065006400BC12C3040D00D8040D00FC
:108CB0001D0008007325DE150B00A01809006E00CA
:108CC0006F0020006D006F00640075006C0065008F
:108CD000BC127923068A430052004500410054002B
:108CE00045001D0F151F04000600CF2934230B007B
:108CF0008924088A56004100520049004100420080
:108D00004C004500872504000000CF290B0000001F
:108D1000508A4D004F00440055004C0045002D0086
:108D200053004B00490050002D004C0049004E00FC
:108D300045001D0FE8110800B92504003F251E005D
:108D40000800BB250B0017000B00DE1534130B00C9
:108D50008E16058A5F005400590050004500090036
:108D6000D325190018000F00E606620B040001006D
:108D7000202A19000400FFFF202A18000800D82527
:108D80000900C7258D050B00EC0C035664006D002F
:108D90002B001A00040004000009850B37001400A2
:108DA0000900F02518000F0004000300000904006A
:108DB0000100202A0700E825120017000B00CB2431
:108DC00004A0440055004D00500087020D0014001F
:108DD000C40804001000ED2937001400CB0B040078
:108DE0001000E729DF258105810504000200AA0B98
:108DF000C5256A0B35000800192607000426120055
:108E0000170009001B261200170017001200870226
:108E10000C000B00AF1802A62E005300CB0BFB0674
:108E200076050800422604000100202A37001400BD
:108E3000090037261300370004000100F429090750
:108E4000170907003026120017000F0D040020003C
:108E50003C00730070000B0009003B262026058AA9
:108E60002E00420041005300450087020D00D20849
:108E70001800170987020C000B004426058A2E00F3
:108E8000460052004500450005020D00A5030D00F7
:108E9000F4290E090B00000004A021004300530038
:108EA0005000150024030C000B00E41804A03F0040
:108EB000430053005000150024030D001E00A018AD
:108EC000110073007400610063006B0020006400F7
:108ED0006500700074006800200065007200720078
:108EE0006F0072000B0000004E86580054003E00D8
:108EF0004E0041004D0045002D0049004E002D0060
:108F000056004F0043001900A2020C00C90F76055D
:108F10000800C92604005F003700140018000D0087
:108F20009A040C009A040D0018000800C2261800CC
:108F30007C0FA2020D001E000800B9260D009A0445
:108F40000C000900A82617009A040D00AB0F1900A9
:108F50001700120017000B001700C1060700A42617
:108F6000120017001700040000000B000000058A23
:108F70003E004E0041004D0045007D0318000800F2
:108F8000E8261A001A00992676050800E22619003C
:108F90001700190017000B0019001700C1060D007B
:108FA0000900D4261700040000000B000000068A08
:108FB00050003E004E0041004D0045000400441F9B
:108FC00018000F0008000A27E7293E07202A0D0095
:108FD0001E00080007273E07202AC106C106090017
:108FE000F626190017000B00190017000B000000EF
:108FF00005A650003E004F00500053000400441FDF
:1090000018000F0008002E27E7293E07202A0D0030
:109010001E00080027273E07202AC106C1060900B6
:109020001627190017003E07202AC1060D000B0065
:1090300019001700040000000B00532603882E00BF
:10904000490044007605080041273E0704001F0040
:109050001C00C5250B000F0D08007B006E006F0083
:109060004E0061006D0065007D000B00801C038ACE
:109070005300450045001D0FE8111800080099270E
:109080001700CB0B18000D001800A2020C001800EE
:1090900004000002BA0508006627F42609006727C5
:1090A000D326760508006E27850B382709006F2721
:1090B0000E09A2020D0004000002BA050800932761
:1090C000A2020D0004000B001E0008009727A20258
:1090D0000D00142776050800932717006A0B080077
:1090E000892709009727C10618000D000E09C1063F
:1090F0006A0B0800582709009727C1066A0B080069
:10910000582717000B00BC12851705A657004F0003
:10911000520044005300CB0B8C030D00C90F7605A1
:109120000800EA2704005F003700140018000D0053
:109130009A040C009A040D0018000800E327AB0FF6
:1091400018000D00040040001C000800C52717008F
:109150009A040D000D009A040C000900B0271800B5
:109160000D00040000011C000800D42717009A0419
:109170000D000D009A040C000900B0271800850BA3
:10918000382717009A040D000D009A040C006A0B92
:109190000800B027170017000B001700C1060700D2
:1091A000AC271200170017000B008E2503A45600F1
:1091B00045005200040000040B00000002D26800C9
:1091C0006900CB0B0F0D11005000440052002D0020
:1091D00031003600200046006F0072007400680005
:1091E0002000760034002E003000CB0B0F0D1F0046
:1091F000640065007200690076006500640020006C
:10920000660072006F006D002000650046006F0070
:1092100072007400680020006200790020004300A2
:109220002E0048002E00540069006E006700CB0B32
:109230000B00332505B245004D0050005400590085
:1092400004000080A5030C0004002851C9030C0091
:10925000040000007D03C1060C00040000806118BA
:109260006A05D8240B007F25067C43004D004F0083
:10927000560045003E00180008006A2814001A0035
:109280001300202A04000100F4291A001300202AE8
:1092900004000100F4290F0019000E001200040060
:1092A000FFFF202A0900512817008D050B00E32439
:1092B000048A4D004F0056004500E72917001900A9
:1092C000BA0508007B28D4070B0051280B00492859
:1092D000048843004F004C00440004007FF916004E
:1092E00004007FFE100004000200040080FE040061
:1092F0003402D4070400E2FE7D030C0004000000E9
:109300007D03C1060C007A13F72704002851C90316
:109310000C006A05D824341304007FF916002516C2
:10932000090083286B2623F03F00720078000200BA
:109330000B009D02234274007800210003000B0003
:109340002F2824A845005800490054000B000B00AA
:109350006126214221000C000B000000218040000A
:109360000D000B007D282242430021000E000B005F
:10937000C8282280430040000F000B00BA1B234284
:1093800052005000210010000B00D428238052000E
:109390005000400011000B00DB28227C52003E00F0
:1093A00012000B00E22822805200400013000B0044
:1093B000D70822A43E00520014000B004C27238043
:1093C00053005000400015000B00F42823425300C6
:1093D0005000210016000B00F52524A04400520087
:1093E0004F00500017000B00022923A04400550035
:1093F000500018000B00FB2824A053005700410028
:10940000500019000B00E31324A44F005600450040
:1094100052001A000B000000227830003C001B00B4
:109420000B00D91D238841004E0044001C000B0096
:10943000192922A44F0052001D000B00000023A494
:1094400058004F0052001E000B007C24235655008C
:109450004D002B001F000B006E0823683C003C00F1
:10946000340020000B00422923703C003C003800EF
:1094700021000B00492923723C003C0039002200E6
:109480000B002129227A30003D0023000B00000050
:10949000225631002B0024000B005D29225A310096
:1094A0002D0025000B002A07225632002B00260033
:1094B0000B006929225A32002D0027000B006D286D
:1094C00029A04D0055004C005F005300450054009A
:1094D0005500500033000B0075292C864D005500B7
:1094E0004C005F0053005400450050005F004100F5
:1094F0004300430034000B00191723A84E004F000F
:10950000540035000B0011292384530055004200FC
:1095100036000B009229268A4E0045004700410084
:109520005400450037000B004D23238649004E00B0
:10953000430038000B000A292386440045004300FD
:1095400039000B000000249E5A00450052004F00D5
:109550003A000B003B29225655002B003B000B0024
:109560006F29225432002A003C000B0000000158F1
:109570002C004C071800C106A5030C000C000B00C2
:10958000272903A641004200530018001B000800D1
:10959000E02937000B00C62904A032004400550022
:1095A00050001A001A000B005806015E2F005E06DC
:1095B000190017000B000608015A2D0036000B0099
:1095C0000000017A3D001E000800FF290400000091
:1095D0000B000400FFFF0B005029027C3C003E0002
:1095E000F92935000B00EE28017C3E001900CA0560
:1095F0000B00022A027A3C003D000C2A35000B00C9
:10960000092A027A3E003D00CA0535000B00110709
:1096100001562B003B000B000000C1763B0004000C
:109620000B00CF295E1634230B00000001743A00B2
:109630001D0F151F66160B00CE28025843002C0084
:109640004C071800C106A5030C000E000B00AA2948
:10965000099049004D0047002D0057004900440083
:10966000540048000D000B003D2A0AA849004D0097
:1096700047002D00480045004900470048005400BD
:10968000C1060D000B004A2A088249004D00470020
:109690002D00440041005400410004000200202A33
:1096A0000B00592A844449004D00470022006804F9
:1096B0000C0004002200E30EE729190017006804DB
:1096C0000D000400070086061E0008007E2A520CCA
:1096D000E729700C4C071400E729190012008105D6
:1096E000D407A11617000B00B6280A8A45004D00C2
:1096F000490054002D0049004D004100470045003D
:109700001800743174040C001800823119008F3174
:10971000190018000800AD2A190074040D00DF0CB0
:10972000CB0B190004000100F42909009F2A8D05C4
:10973000940C0B008A2A0386450053004300040062
:109740001B00620B0B00322A0392430053004900B6
:10975000B52A0F0D01005B000B0000000A604300FA
:109760004F004C004F0052003E00440031003000DA
:10977000300006003100310031003000320031008D
:10978000310030003200320031003000320032004F
:109790003100310031003100310030003200310041
:1097A000310030003200320031003000320032002F
:1097B000320031003100310031003100320031001F
:1097C000310031003200320031003100320032000D
:1097D0003200310031003100310030003100310001
:1097E00031003000310031003100300031003100F3
:1097F00031003000310031003000300031003000E5
:1098000030003000310030003000300031003000D6
:1098100030003000310031003000300031003000C5
:1098200030003000310030003000300031003000B6
:1098300030003000310031003000300031003000A5
:109840003000300031003000300030003100300096
:109850003000300031003100300030003100300085
:109860003000300031003000300030003100300076
:109870003000300031003100300030003100300065
:109880003000300031003000300030003100300056
:109890003000300031003100300030003100310044
:1098A0003000300031003100300030003100310034
:1098B0003000300031003100310030003200310022
:1098C000310030003200320031003000320032000E
:1098D00032003100310031003100300032003100FF
:1098E00031003000320032003100300032003200EE
:1098F00031003100300030003000300030003000E6
:1099000030003000300030003000300030003000D7
:1099100030003000300030003000300030003000C7
:1099200030003000300030003000300030003000B7
:1099300030003000300030003000300030003000A7
:109940003000300030003000300030003000300097
:10995000300030003200320032003200320032007B
:109960003200320032003200320032003200320067
:10997000320032000000096043004F004C004F00ED
:1099800052003E004400310030000600380037002D
:109990003300380031003600360038003100300026
:1099A000360038003100300039003200380038000D
:1099B00033003900320037003700390032003100FF
:1099C00037003900320031003000330038003800F1
:1099D00034003000320038003800300032003200ED
:1099E00038003000320032003200340038003500D8
:1099F00030003600390034003100360039003500BF
:109A000031003600390035003100370035003100B3
:109A1000370032003500370034003200350038009E
:109A20003400320032003800340033003500310099
:109A3000370032003500370034003200350038007E
:109A40003400320032003800340033003500310079
:109A5000370033003500380034003300350038005B
:109A60003400330032003800350033003500310057
:109A70003600320035003700330032003500370041
:109A80003300320031003700330032003400300040
:109A90003600310034003600320031003400360028
:109AA000320031003000360032003100380034001E
:109AB00039003500380033003900350038003300F4
:109AC00039003500370033003900350038003700E1
:109AD00033003900310037003600390031003000E2
:109AE00036003900310030003000320038003700D5
:109AF00033003800310036003600380031003000C5
:109B000036003800310030003900320031003100B9
:109B100031003100310031003100310031003100BD
:109B200031003100310031003100310031003100AD
:109B3000310031003100310031003100310031009D
:109B4000310031003100310031003100310031008D
:109B5000310031003100310031003100310031007D
:109B60003100310031003100310031003500350065
:109B70003500350034003400340034003400340043
:109B80003400330033003300330033000000086238
:109B900043004F004C004F0052003E004400310093
:109BA0000600310034003100380037003700300043
:109BB0003800370033003000380030003300360002
:109BC00034003700300037003400330039003200F1
:109BD00034003300350032003400320035003800E4
:109BE00030003700360033003000390035003400D3
:109BF00030003900370034003000380037003600BC
:109C000032003700300037003400330039003200B2
:109C100034003300350032003400320035003800A3
:109C20003000310034003100380037003700300098
:109C30003800370033003000380030003300360081
:109C4000340032003500320039003800390032006B
:109C50003900380035003200390032003500380054
:109C60003500320036003300300039003000340057
:109C70003000390037003400300033003700310045
:109C80003700320030003700340033003400320037
:109C90003400330035003200340037003500330023
:109CA0003500360034003100380037003200300013
:109CB0003800370033003000380035003300310001
:109CC00039003200300037003400330034003200F5
:109CD00034003300350032003400370035003300E3
:109CE00035003200360033003000390030003400D7
:109CF00030003900370034003000330037003100C5
:109D000037003200350032003900380039003200A7
:109D10003900380035003200390032003500380093
:109D20003500360036003600360036003600360084
:109D30003600360036003600360036003600360073
:109D40003600360036003600360036003600360063
:109D50003600360036003600360036003600360053
:109D60003600360036003600360036003600360043
:109D70003600360036003600360036003600360033
:109D8000360035003300320030003900370036002D
:109D90003400330031003000380037003500340023
:109DA000320000000680440049004700490054008A
:109DB00040001900202A0F000B0000000788430014
:109DC0004F004C004F0052003E0044001800E62CAB
:109DD000EF2D19001800DB2BEF2D1900CF2AEF2DE6
:109DE0000B0028240342460047002100BE2A0F0D25
:109DF0000500330038003B0035003B00FC2D620BB2
:109E0000620B620B04006D00620B0B00051703422E
:109E1000420047002100BE2A0F0D05003400380023
:109E20003B0035003B00FC2D620B620B620B040013
:109E30006D00620B0B00D629054641004E00530011
:109E40004900230072089208AA08B30B0B00B92A34
:109E5000066643004C0041004D00500033000400F2
:109E60000000DA0504000300E6050B00312E02A80D
:109E700041005400BE2A382E04003B00620B382EED
:109E800004004800620B0B009B13048A48004F003B
:109E90004D004500BE2A0F0D010048000B00992916
:109EA0000BA453004100560045002D00430055000F
:109EB000520053004F005200BE2A0F0D01007300E4
:109EC0000B00E8280EA452004500530054004F0038
:109ED000520045002D0043005500520053004F0032
:109EE0005200BE2A0F0D010075000B003D2E03A687
:109EF00043004C005300BE2A0F0D020032004A00FE
:109F00000B008C2E078A43004C002D004C004900AA
:109F10004E004500BE2A0F0D020032004B000B0020
:109F2000972E069843004C002D0045004F004C0032
:109F3000BE2A0F0D01004B000B00A62E06A6430003
:109F40004C002D0045004F005300BE2A0F0D0100AC
:109F50004A000B00B32E099C4300550052005300E9
:109F60004F0052002D004F004E00BE2A0F0D04007E
:109F70003F003200350068000B00C02E0A8C430001
:109F80005500520053004F0052002D004F00460074
:109F90004600BE2A0F0D04003F00320035006C0061
:109FA0000B00A02906984E004F0052004D004100C2
:109FB0004C00940C0B001C2E048842004F004C00F7
:109FC0004400BE2A0F0D020031006D000B00B129C4
:109FD000039A440049004D00BE2A0F0D02003200D2
:109FE0006D000B00F12E059642004C0049004E001A
:109FF0004B00BE2A0F0D020035006D000B00C0297A
:10A00000079655004E0042004C0049004E004B00A0
:10A01000BE2A0F0D0300320035006D000B00152F16
:10A02000098A55004E004400450052004C0049008A
:10A030004E004500BE2A0F0D020034006D000B00DB
:10A04000772E078A52004500560045005200530003
:10A050004500BE2A0F0D020037006D000B00082FCF
:10A060000498420045004C004C0004000700620BBD
:10A070000B005A2E0398480053004C0014000400B3
:10A08000040086061900040010008606202A12002B
:10A09000202A0B004F2F02804800400004001000CF
:10A0A000ED290B00652E02805300400004000400DF
:10A0B000ED290400040068060B00841B02804C009C
:10A0C00040000400040068060B00682F0590530050
:10A0D000450054002D0048001900040010006806D7
:10A0E0001900040010008606202A0B007B2F05A60D
:10A0F0005300450054002D005300140018000400C4
:10A1000004006806190004001000ED290400100086
:10A110008606202A1200040004008606202A0B006E
:10A120008C2F05985300450054002D004C00190059
:10A1300004000400ED29040004008606202A0B0018
:10A14000E72E087E4E0045005500540052004100A5
:10A150004C003F00642F04000F00F9290B00602F12
:10A16000025648002B001800C02F0800CF2F09000E
:10A17000D82F1800642F04000100202A04000C00CE
:10A180006806822F0B00C52F025A48002D001800C8
:10A19000C02F0800E32F0900EC2F1800642F0400E3
:10A1A0000B00202A04000C006806822F0B00A62F4B
:10A1B000025653002B0018006C2F04000100202AC7
:10A1C000452E932F0B00ED2F025A53002D0018003F
:10A1D0006C2F04000100F429452E932F0B00732FE0
:10A1E00002564C002B001800772F04000100202A93
:10A1F000452EAD2F0B000530025A4C002D001800E3
:10A20000772F04000100F429452EAD2F0B00D92F24
:10A210000788480053004C005F005200450044008E
:10A22000040000000400030004000100542F0B0090
:10A230001D300A8A480053004C005F004F00520056
:10A2400041004E00470045000400010004000300E7
:10A2500004000100542F0B002E300AAE48005300BA
:10A260004C005F00590045004C004C004F00570067
:10A27000040002000400030004000100542F0B003E
:10A2800042300A9C480053004C005F0059004700D0
:10A290005200450045004E00040003000400030086
:10A2A00004000100542F0B005630099C4800530055
:10A2B0004C005F0047005200450045004E0004007E
:10A2C00004000400030004000100542F0B006A3056
:10A2D000099C480053004C005F00470043005900B0
:10A2E00041004E00040005000400030004000100CA
:10A2F000542F0B007D30089C480053004C005F0039
:10A300004300590041004E00040006000400030011
:10A3100004000100542F0B009030098A48005300BC
:10A320004C005F0041005A005500520045000400F7
:10A3300007000400030004000100542F0B00A230AA
:10A34000088A480053004C005F0042004C00550052
:10A350004500040008000400030004000100542F1D
:10A360000B00B5300AA8480053004C005F005600AF
:10A3700049004F004C00450054000400090004004F
:10A38000030004000100542F0B00C7300B8248006B
:10A3900053004C005F004D004100470045004E0057
:10A3A0005400410004000A000400030004000100FE
:10A3B000542F0B00DB30088A480053004C005F002C
:10A3C00052004F005300450004000B00040003003E
:10A3D00004000100542F0B00000004B2470052009B
:10A3E0004100590004000000DA0504000F00E605F2
:10A3F000040004005E061900140004000F00190098
:10A400001200542F0B009A27058A57004800490074
:10A41000540045000400000008310B00452F05964C
:10A4200042004C00410043004B0004000F00083183
:10A430000B00113007A44C004900470048005400AD
:10A440004500520009300B00FD2E06A444004100D7
:10A4500052004B004500520015300B00F92F088ABE
:10A460005300410054005500520041005400450083
:10A47000F12F0B003A310A8A440045005300410095
:10A48000540055005200410054004500FD2F0B00C0
:10A49000D32E025843002C004C071800C106A50318
:10A4A0000C000E000B00672A099049004D00470080
:10A4B0002D00570049004400540048000D000B00D7
:10A4C00069310AA849004D0047002D0048004500A9
:10A4D0004900470048005400C1060D000B007631CA
:10A4E000088249004D0047002D00440041005400FF
:10A4F000410004000200202A0B00853184444900F9
:10A500004D004700220068040C0004002200E30E06
:10A51000E7291900170068040D00040007008606EB
:10A520001E000800AA31520CE729700C4C071400D9
:10A53000E729190012008105D407A11617000B00A6
:10A54000B02A0A8A45004D00490054002D004900F8
:10A550004D004100470045001800743174040C00A0
:10A560001800823119008F31190018000800D93104
:10A57000190074040D00DF0CCB0B1900040001005E
:10A58000F4290900CB318D05940C0B005E310B8A48
:10A59000430050003400330037002D0048004C00C9
:10A5A00049004E0045000400C4000B00DC310B8A5A
:10A5B000430050003400330037002D0056004C009B
:10A5C00049004E0045000400B3000B00EC31089830
:10A5D000430050003400330037002D0054004C007D
:10A5E0000400DA000B00FC3108A4430050003400E2
:10A5F000330037002D00540052000400BF000B0050
:10A6000009320898430050003400330037002D0011
:10A6100042004C000400C0000B00163208A44300A6
:10A6200050003400330037002D0042005200040077
:10A63000D9000B0023320B9C430050003400330040
:10A6400037002D00540044004F0057004E00040016
:10A65000C2000B00303209A0430050003400330028
:10A6600037002D005400550050000400C1000B00BD
:10A6700040320CA8430050003400330037002D0056
:10A680005400520049004700480054000400C30031
:10A690000B004E320BA8430050003400330037004B
:10A6A0002D0054004C004500460054000400B40046
:10A6B0000B005F320BA6430050003400330037001C
:10A6C0002D00430052004F00530053000400C5000A
:10A6D0000B0000000A8A530049004E0051002D0073
:10A6E0005400410042004C00450006000000C90033
:10A6F00092015B022403ED03B6047F0548061107AF
:10A70000D907A2086A09330AFB0AC40B8C0C540D42
:10A710001C0EE30EAB0F72103A110112C8128F1308
:10A7200055141C15E215A8166E173318F918BE1922
:10A73000821A471B0B1CCF1C931D571E1A1FDD1FAF
:10A740009F2061212322E522A62367242825E825CE
:10A75000A82667272628E528A329612A1F2BDC2B9A
:10A76000992C552D112ECC2E872F4130FB30B53131
:10A770006E322633DF3396344D350436BA366F37B2
:10A780002438D9388C39403AF23AA53B563C073D3B
:10A79000B83D683E173FC53F73402141CE417A42E4
:10A7A0002543D0437A442445CD4575461C47C347CD
:10A7B00069480F49B449584AFB4A9D4B3F4CE04C0D
:10A7C000814D204EBF4E5D4FFB4F97503351CE51C0
:10A7D000685202539B533254C9546055F5558A56FA
:10A7E0001D57B0574258D3586459F359825A0F5BDA
:10A7F0009C5B285CB35C3E5DC75D4F5ED75E5D5F72
:10A80000E35F6860EB606E61F0617162F1627063DA
:10A81000EE636C64E8646365DD655666CF66466723
:10A82000BC673268A66819698B69FD696D6ADC6A64
:10A830004A6BB76B236C8E6CF86C616DC96D306EB2
:10A84000966EFB6E5E6FC16F22708370E270407116
:10A850009D71F9715472AE7207735E73B5730A74A9
:10A860005F74B27404755575A575F37541768D7670
:10A87000D87622776B77B377FA773F788478C77882
:10A8800009794A798979C879057A417A7C7AB67AE0
:10A89000EE7A267B5C7B917BC57BF87B297C597C9F
:10A8A000887CB67CE37C0E7D397D627D897DB07DC0
:10A8B000D57DFA7D1D7E3E7E5F7E7E7E9C7EB97E4E
:10A8C000D57EEF7E097F217F377F4D7F617F747F4B
:10A8D000867F977FA67FB47FC17FCD7FD87FE17FC2
:10A8E000E97FF07FF57FF97FFD7FFE7F00000A8A18
:10A8F00050004F00570032002D005400410042002C
:10A900004C00450006000100020004000800100091
:10A910002000400080000001000200040008001038
:10A9200000200040008000000B8A4C004F004700D0
:10A93000320049002D005400410042004C00450007
:10A9400006000000001000200030004000500060B1
:10A9500000700080009000A000B000C000D000E0B7
:10A9600000F000000B8A4C004F0047003200460008
:10A970002D005400410042004C004500060000003C
:10A9800017002E0045005C00720089009F00B60091
:10A99000CC00E200F9000F0125013B0150016601E6
:10A9A0007C019201A701BD01D201E701FC01120265
:10A9B00027023C02510265027A028F02A302B8020A
:10A9C000CC02E102F5020A031E03320346035A03D6
:10A9D0006E0382039603A903BD03D103E403F803C6
:10A9E0000B041E043204450458046B047E049104D5
:10A9F000A404B704CA04DC04EF0402051405270507
:10AA000039054B055E05700582059405A605B90557
:10AA1000CB05DC05EE0500061206240635064706C2
:10AA200058066A067B068D069E06B006C106D2064B
:10AA3000E306F406050716072707380749075A07EC
:10AA40006B077B078C079D07AD07BE07CE07DF07A7
:10AA5000EF07FF0710082008300840085008610879
:10AA6000710881089008A008B008C008D008E00864
:10AA7000EF08FF080F091E092E093D094D095C0961
:10AA80006B097B098A099909A809B809C709D60978
:10AA9000E509F409030A120A210A300A3E0A4D0A9E
:10AAA0005C0A6B0A790A880A970AA50AB40AC20ADC
:10AAB000D10ADF0AEE0AFC0A0A0B190B270B350B29
:10AAC000430B510B5F0B6E0B7C0B8A0B980BA60B89
:10AAD000B30BC10BCF0BDD0BEB0BF90B060C140CFE
:10AAE000220C2F0C3D0C4A0C580C660C730C800C7D
:10AAF0008E0C9B0CA90CB60CC30CD00CDE0CEB0C12
:10AB0000F80C050D120D1F0D2D0D3A0D470D540DAE
:10AB1000600D6D0D7A0D870D940DA10DAE0DBA0D62
:10AB2000C70DD40DE00DED0DFA0D060E130E1F0E20
:10AB30002C0E380E450E510E5E0E6A0E760E830EEA
:10AB40008F0E9B0EA70EB40EC00ECC0ED80EE40EC8
:10AB5000F00EFC0E090F150F210F2D0F380F440FAB
:10AB6000500F5C0F680F740F800F8B0F970FA30FA0
:10AB7000AF0FBA0FC60FD20FDD0FE90FF40F0010A1
:10AB800000000B8A4C004F004700320044002D00AB
:10AB90005400410042004C00450006001700170019
:10ABA00017001700160017001600170016001600F1
:10ABB00017001600160016001500160016001600E5
:10ABC00015001600150015001500160015001500DB
:10ABD00015001400150015001400150014001500D0
:10ABE00014001500140014001400140014001400C4
:10ABF00014001300140014001300140013001300B9
:10AC000014001300130013001300130013001300AB
:10AC100013001200130013001200130012001200A0
:10AC20001300120012001200120013001200110093
:10AC30001200120012001200110012001100120086
:10AC4000110012001100120011001100110011007A
:10AC5000110011001100110011001100110010006D
:10AC60001100110010001100100011001000100060
:10AC70001100100010001000100011001000100052
:10AC80000F00100010001000100010000F00100046
:10AC900010000F0010000F0010000F000F00100038
:10ACA0000F000F000F0010000F000F000F000F002B
:10ACB0000F000F000F000F000E000F000F000F001D
:10ACC0000E000F000F000E000F000E000F000E0010
:10ACD0000F000E000E000F000E000E000E000E0002
:10ACE0000E000F000E000E000E000E000D000E00F4
:10ACF0000E000E000E000E000D000E000E000D00E6
:10AD00000E000D000E000E000D000D000E000D00D7
:10AD10000E000D000D000D000E000D000D000D00C9
:10AD20000D000D000E000D000D000D000C000D00BB
:10AD30000D000D000D000D000D000C000D000D00AC
:10AD40000C000D000D000C000D000C000D000C009F
:10AD50000D000C000D000C000C000D000C000C0090
:10AD60000C000D000C000C000C000C000C000C0082
:10AD70000D000C000C000C000B000C000C000C0073
:10AD80000C000C000C000B000C000C000C000B0065
:10AD90000C000C000B000C000B000C0000000B8AD8
:10ADA000450058005000320046002D00540041007C
:10ADB00042004C004500060000100B101610211038
:10ADC0002D10381043104E105A10651070107C1062
:10ADD000871093109E10AA10B510C110CD10D81076
:10ADE000E410F010FB10071113111F112B11371174
:10ADF00043114F115B11671173117F118B11971163
:10AE0000A311B011BC11C811D511E111ED11FA1146
:10AE1000061213121F122C123812451252125F1210
:10AE20006B127812851292129F12AC12B812C512D0
:10AE3000D312E012ED12FA120713141321132F1379
:10AE40003C1349135713641372137F138D139A1312
:10AE5000A813B513C313D113DF13EC13FA1308149B
:10AE600016142414321440144E145C146A1478140A
:10AE700087149514A314B114C014CE14DD14EB146C
:10AE8000FA140815171525153415431552156015B4
:10AE90006F157E158D159C15AB15BA15C915D815EE
:10AEA000E715F7150616151624163416431653160D
:10AEB0006216721681169116A116B016C016D0161B
:10AEC000E016F016FF160F171F1730174017501710
:10AED0006017701780179117A117B117C217D217F3
:10AEE000E317F417041815182618361847185818B9
:10AEF00069187A188B189C18AD18BE18CF18E0186E
:10AF0000F218031914192619371949195A196C1905
:10AF10007E198F19A119B319C519D619E819FA198B
:10AF20000C1A1E1A311A431A551A671A7A1A8C1AF1
:10AF30009E1AB11AC31AD61AE91AFB1A0E1B211B44
:10AF4000341B471B591B6C1B7F1B931BA61BB91B78
:10AF5000CC1BDF1BF31B061C1A1C2D1C411C541C94
:10AF6000681C7C1C8F1CA31CB71CCB1CDF1CF31C97
:10AF7000071D1B1D301D441D581D6C1D811D951D79
:10AF8000AA1DBE1DD31DE81DFD1D111E261E3B1E44
:10AF9000501E651E7A1E8F1EA51EBA1ECF1EE51EF0
:10AFA000FA1E101F251F3B1F501F661F7C1F921F7C
:10AFB000A81FBE1FD41FEA1F002000000B8A4500F7
:10AFC00058005000320044002D005400410042005F
:10AFD0004C00450006000B000B000B000C000B00A2
:10AFE0000B000B000C000B000B000C000B000C0006
:10AFF0000B000C000B000C000C000B000C000C00F4
:10B000000B000C000C000C000C000C000C000C00E1
:10B010000C000C000C000C000C000C000C000D00CF
:10B020000C000C000D000C000C000D000C000D00BD
:10B030000C000D000C000D000D000D000C000D00AB
:10B040000D000D000D000D000C000D000E000D0098
:10B050000D000D000D000D000D000E000D000D0087
:10B060000E000D000E000D000E000D000E000D0074
:10B070000E000E000E000D000E000E000E000E0061
:10B080000E000E000E000E000E000E000F000E004F
:10B090000E000E000F000E000F000E000F000E003D
:10B0A0000F000E000F000F000F000E000F000F002A
:10B0B0000F000F000F000F000F000F000F00100017
:10B0C0000F000F000F0010000F0010000F00100005
:10B0D0000F00100010000F001000100010001000F2
:10B0E0000F001000100011001000100010001000E0
:10B0F00010001100100010001100100011001100CC
:10B1000010001100110010001100110011001100B9
:10B1100011001100110011001100110012001100A6
:10B120001100120011001200110012001200110093
:10B130001200120012001100120012001200120080
:10B14000130012001200120013001200120013006C
:10B150001200130013001200130013001300130059
:10B160001200130013001400130013001300130047
:10B170001400130014001300140013001400140032
:10B180001300140014001400140014001400140020
:10B19000150014001400140015001400150014000C
:10B1A00015001500150014001500150015001500F8
:10B1B00015001500160015001500160015001600E4
:10B1C00015001600150016001600160016001600D1
:10B1D00016001600160000000B8A410054004100C2
:10B1E0004E0046002D005400410042004C00450036
:10B1F00006000000290051007A00A300CC00F400F2
:10B200001D0146016F019701C001E90111023A02D7
:10B2100062028B02B402DC0205032D0356037E0397
:10B22000A703CF03F7032004480470049904C10462
:10B23000E9041105390561058905B105D90501063E
:10B24000290651067806A006C806EF0617073E072E
:10B2500066078D07B507DC0703082A085108780838
:10B260009F08C608ED0814093B0961098809AE0961
:10B27000D509FB09220A480A6E0A940ABA0AE00AAA
:10B28000060B2C0B510B770B9D0BC20BE70B0D0C18
:10B29000320C570C7C0CA10CC60CEB0C100D340DB1
:10B2A000590D7D0DA20DC60DEA0D0F0E330E560E73
:10B2B0007A0E9E0EC20EE50E090F2C0F500F730F63
:10B2C000960FB90FDC0FFF0F211044106710891083
:10B2D000AB10CE10F01012113411561177119911D4
:10B2E000BB11DC11FD111F12401261128212A31258
:10B2F000C312E41205132513451366138613A61310
:10B30000C613E61305142514441464148314A214FC
:10B31000C114E014FF141E153D155B157A15981520
:10B32000B715D515F31511162F164C166A16881673
:10B33000A516C216E016FD161A1737175417701700
:10B340008D17AA17C617E217FE171B1837185318C0
:10B350006E188A18A618C118DD18F81813192E19B6
:10B36000491964197F199A19B419CF19E919041ADE
:10B370001E1A381A521A6C1A861A9F1AB91AD31A38
:10B38000EC1A051B1F1B381B511B6A1B831B9C1BC4
:10B39000B41BCD1BE51BFE1B161C2E1C461C5E1C85
:10B3A000761C8E1CA61CBE1CD51CED1C041D1B1D72
:10B3B000331D4A1D611D781D8E1DA51DBC1DD31D8D
:10B3C000E91DFF1D161E2C1E421E581E6E1E841ED9
:10B3D0009A1EB01EC51EDB1EF01E061F1B1F301F4F
:10B3E000451F5A1F6F1F841F991FAE1FC31FD71FF2
:10B3F000EC1F002000000B8A4100540041004E0069
:10B4000044002D005400410042004C00450006005D
:10B4100029002800290029002900280029002900E6
:10B4200029002800290029002800290028002900D7
:10B4300029002800290028002900280029002800C8
:10B4400028002900280028002900280028002800BA
:10B4500028002800280028002800280028002800AC
:10B4600027002800280027002800270028002700A0
:10B470002800270027002700270027002700270093
:10B480002700270027002600270026002700260087
:10B49000270026002600260026002600260026007B
:10B4A0002500260026002500250026002500250071
:10B4B0002500250025002500250024002500240066
:10B4C000250024002400250024002300240024005B
:10B4D0002400230024002300240023002300230051
:10B4E0002300230022002300230022002200230047
:10B4F000220022002200220021002200220021003E
:10B500002100220021002100210021002000210033
:10B510002100200020002100200020002000200029
:10B520001F0020001F0020001F001F001F001F0021
:10B530001F001F001F001E001F001E001F001E0016
:10B540001E001E001E001D001E001E001D001D000E
:10B550001E001D001D001D001D001C001D001D0003
:10B560001C001C001C001D001C001C001B001C00FB
:10B570001C001B001C001B001B001B001B001B00F1
:10B580001B001B001A001B001A001B001A001A00E7
:10B590001A001A001A0019001A001A0019001900DE
:10B5A0001A001900190019001900190018001900D3
:10B5B00018001900180018001800180018001800CA
:10B5C00018001800170018001700170018001700BF
:10B5D00017001700160017001700170016001600B6
:10B5E00017001600160016001600160016001600AA
:10B5F00015001600150016001500150015001500A1
:10B600001500150015001500150014001500140094
:10B6100000000580530049004E00510040008B326D
:10B620001900CD06202A0D000B00000005805000F7
:10B630004F0057003200400098331900CD06202AF1
:10B640000D000B00000006804C004F004700320048
:10B6500049004000B6331900CD06202A0D000B002A
:10B66000000006804C004F004700320046004000BA
:10B67000D4331900CD06202A0D000B0000000680EF
:10B680004C004F004700320044004000E3341900F2
:10B69000CD06202A0D000B00000006804500580052
:10B6A0005000320046004000F1351900CD06202A36
:10B6B0000D000B00000006804500580050003200CD
:10B6C0004400400000371900CD06202A0D000B0071
:10B6D000000006804100540041004E00460040003A
:10B6E0000E381900CD06202A0D000B000000068040
:10B6F0004100540041004E00440040001D39190033
:10B70000CD06202A0D000B001F16047C51003100CD
:10B7100035003E001800202A14001B0037001200DC
:10B72000202A0B009A3A05A45100310035003E0052
:10B7300052001900040000401F008105202AA03A91
:10B740000B00252F058855002F004D004F004400A9
:10B75000140004000000120005060B00B73A025E58
:10B7600055002F00BE3A190017000B00C43A035EC3
:10B7700055002A002F00140070061200050619005B
:10B7800017000B00A60607882A002F0052004F0062
:10B7900055004E0044001800DB291400A1061900D2
:10B7A000DB291800202A1300BA0535000800F13AF9
:10B7B00004000100202A120017000B009331038CB3
:10B7C00049002A0046008D06A03A0B002431078E5E
