:100000000C94E9800C941A810C941A810C941A8136
:100010000C941A810C941A810C941A810C941A81F4
:100020000C941A810C941A810C941A810C941A81E4
:100030000C941A810C941A810C941A810C941A81D4
:100040000C941A810C941A810C941A810C941A81C4
:100050000C941A810C941A810C941A810C94C48803
:100060000C941A810C948E880C9464880C941A81D8
:100070000C941A810C941A810C941A810C941A8194
:100080000C941A810C941A810C941A810C941A8184
:100090000C941A810C941A810C941A810C941A8174
:1000A0000C941A810C941A810C941A810C941A8164
:1000B0000C941A810C941A810C941A810C941A8154
:1000C0000C941A810C941A810C941A810C941A8144
:1000D0000C941A810C941A810C941A810C941A8134
:1000E0000C941A810C9479850C94D5830C943C84DF
:1000F0000C9440870C94CE860C945A820C948E8477
:100100000C945A860C9449810C94D0870C944288A4
:100110000C9495830C94FF810C946B870C94C8838A
:100120000C94E2850C94CC850C9417830C94108667
:100130000C9451820C94A9870C943E850C94908564
:100140000C9459870C9444860C9422880C945B87F9
:100150000C9426860C94ED840C94FB870C946F868B
:100160000C9499840C940E860C94CE870C940D8379
:100170000C9428860C9412830C94B1830C941C81EB
:100180000C947F870C94F4860C9458810C942884EA
:100190000C9450820C94B2810C941A870C947A813E
:1001A0000C945F840C94B6850C94A7870C94888675
:1001B0000C948F870C946C810C94BD830C94648593
:1001C0000C94CF8A0C94F8850C9403840C942885A5
:1001D000000000000000000000000000000000001F
:1001E000000000000000000000000000000000000F
:1001F00000000000000000000000000000000000FF
:1002000000000000000000000000000000000000EE
:1041D00004003A00F605080019400400FFFFEA0257
:1041E0000C00BB3F04003000B629DE020D000400C5
:1041F0000A007506E229DE020C0004000100080D29
:10420000F93F0B000000097E7E0064006500660037
:10421000610075006C0074003F00BB3F04007D002E
:10422000BB290B00000008C27E00740079007000FA
:1042300065002D0073006100180004007300BB29A5
:1042400008003E401700773F09004A40180004006C
:104250006100BB29080048401700A03F09004A4000
:1042600017002B3E0B0000000ED07E00740079007A
:10427000700065002D00640069007300700061002B
:10428000740063006800180004006400BB29080083
:1042900065401700273F090084401800040075009E
:1042A000BB2908006F4017003A3F090084401800FE
:1042B00004007800BB290800794017004E3F090030
:1042C0008440180004006300BB29080083401700E5
:1042D000603F0900844034400B0000000BD87E0092
:1042E0006600690065006C0064002D0074006100C8
:1042F00069006C0004000100080DC6020D0076057F
:1043000008009D4017000900AB40A5180C00620092
:1043100061006400200066002D00730074007200CC
:1043200069006E006700BB3F04007D001E00A518F9
:104330000C00620061006400200066002D00730024
:104340007400720069006E00670004000100080D2F
:104350005B400B00000006C87E0066006900650037
:104360006C00640004000100080D04000000D2028B
:104370000C000400FFFFDE020C00C6020D007605F3
:104380000800DD4017000900EB40A5180C00620092
:1043900061006400200066002D007300740072004C
:1043A00069006E00670025400800F4400400010029
:1043B000080D273F09004241CE3FC6020D00760599
:1043C0000800FD40170009000B41A5180C00620011
:1043D00061006400200066002D007300740072000C
:1043E00069006E006700BB3F04002E00BB29080077
:1043F000334104000100080D04000000DE020C003F
:1044000004000000EA020C00F93FEA020D00760504
:1044100008002541170009003341A5180C0062006F
:1044200061006400200066002D00730074007200BB
:1044300069006E006700BB3F180004007D00BB29C7
:1044400008004141170004000100080D273F090042
:10445000424192400B0000000CCA7E0065007600CD
:1044600061006C002D006C0062007200610063004E
:10447000650004000100C6020D00BA0508006E4187
:10448000BA020D0004000100E2290F0004007B00C5
:10449000BB2908006B4104007B004F0D04000200A3
:1044A000080D09006C41CA4009006F41CA400B0069
:1044B00000000CCA7E006500760061006C002D00D3
:1044C0007200620072006100630065000400010078
:1044D000C6020D00BA0508009B41BA020D00040097
:1044E0000100E2290F0004007D00BB29080098416B
:1044F00004007D004F0D04000200080D09009941E1
:104500002B3E09009C412B3E0B00000005D87E008D
:104510006500760061006C00A9291700BA020C0042
:10452000C6020C001700150DC6020D000800CB4195
:10453000BB3F180004007B00BB290800BB411700EB
:1045400051410900C941180004007D00BB29080041
:10455000C54117007E410900C9414F0D040001000B
:10456000080D0900AC41700D0B00000044DC7E001A
:10457000720075006E00E00C2D07A4410B00CD41C8
:1045800043F87E0022007C00D3410B00C92D8244F9
:104590004600220031030D000800EF410400220014
:1045A000D20EA40DC016D341F4160900F441040044
:1045B0002200D20EA40DA4410B00E83B0DA0450043
:1045C0004400490054002D004C0049004E004500B5
:1045D0002D004300410050000400A0000B00F541F5
:1045E0000D8A45004400490054002D00520045004A
:1045F00043002D00530049005A0045000400A40068
:104600000B0007420F8A45004400490054002D006A
:104610004100520045004E0041002D00530049006A
:104620005A004500040000200B0019420BAE450063
:104630004400490054002D00540045005800540027
:104640002D005700040050000B002D420B90450038
:104650004400490054002D00540045005800540007
:104660002D004800040017000B003D420FAE45002E
:104670004400490054002D005300540041005400F0
:10468000550053002D0052004F0057000400180041
:104690000B004D420DAE45004400490054002D0072
:1046A000480045004C0050002D0052004F005700BC
:1046B000040019000B0061420D8A450044004900C6
:1046C00054002D004D00530047002D004E004F00B8
:1046D0004E004500040000000B0073420E884500A8
:1046E0004400490054002D004D00530047002D00A8
:1046F00053004100560045004400040001000B0037
:1047000085420FA445004400490054002D004D008F
:10471000530047002D00420055004600460045006A
:104720005200040002000B0098420D8E4500440028
:10473000490054002D004D00530047002D004C004F
:104740004F004E004700040003000B00AC420D9CDC
:1047500045004400490054002D004D00530047001F
:104760002D004F00500045004E00040004000B00D7
:10477000BE420D8845004400490054002D004D0004
:10478000530047002D005200450041004400040042
:1047900005000B00D0420E8A450044004900540039
:1047A0002D004D00530047002D00570052004900D6
:1047B00054004500040006000B00E2420CAE450028
:1047C0004400490054002D004D00530047002D00C7
:1047D0004E0045005700040007000B00F5420D8A0B
:1047E00045004400490054002D004D00530047008F
:1047F0002D004E0041004D004500040008000B0054
:1048000006430EA045004400490054002D004D0011
:10481000530047002D0055004E0053005500500036
:10482000040009000B00184310A84500440049008B
:1048300054002D0055005300450052002D004F003C
:1048400046004600530045005400040000010B00E0
:104850002B430E8A45004400490054002D005000AF
:104860004100540048002D00530049005A00450003
:10487000040004010B004043099645004400490030
:1048800054002D004D00410052004B000400000177
:10489000A4040D00E2290B005343098A450044009B
:1048A000490054002D00420041005300450004001F
:1048B0000101A4040D00E2290B006443098A4500AC
:1048C0004400490054002D004800450052004500B6
:1048D00004000201A4040D00E2290B0075430AA89C
:1048E00045004400490054002D004C0049004D0093
:1048F0004900540004000301A4040D00E2290B0048
:104900008643098A45004400490054002D004600B2
:1049100052004500450004000401A4040D00E229F2
:104920000B009843098845004400490054002D00BD
:10493000480045004100440004000501A4040D00A6
:10494000E2290B00A943099845004400490054009E
:104950002D005400410049004C0004000601A4044D
:104960000D00E2290B00BA4308A4450044004900A9
:1049700054002D0043005500520004000701A40418
:104980000D00E2290B00CB4308A04500440049007C
:1049900054002D0054004F00500004000801A404EE
:1049A0000D00E2290B00DB430AA645004400490044
:1049B00054002D004C0049004E00450053000400F7
:1049C0000901A4040D00E2290B00EB430946450050
:1049D0004400490054002D004300550052002300BC
:1049E00004000A01A4040D00E2290B00FD4309465E
:1049F00045004400490054002D0054004F00500071
:104A0000230004000B01A4040D00E2290B000E4456
:104A1000089845004400490054002D0043004F0011
:104A20004C0004000C01A4040D00E2290B001F44FB
:104A3000098C45004400490054002D0050005200EC
:104A40004500460004000D01A4040D00E2290B00FE
:104A50002F440D8845004400490054002D004D00AE
:104A60004F0044004900460049004500440004004E
:104A70000E01A4040D00E2290B0040440BA84500E0
:104A80004400490054002D0049004E0053004500E9
:104A90005200540004000F01A4040D00E2290B0091
:104AA00055440C8E45004400490054002D0052002E
:104AB00055004E004E0049004E0047000400100112
:104AC000A4040D00E2290B006844088E4500440050
:104AD000490054002D004D0053004700040011010F
:104AE000A4040D00E2290B007C440D9C4500440009
:104AF000490054002D0050004100540048002D0092
:104B00004C0045004E0004001201A4040D00E229EF
:104B10000B008C440E4645004400490054002D0013
:104B200050004100540048002D004200550046004E
:104B3000230004001301A4040D00E2290B00A1448A
:104B40000D9C45004400490054002D0043004C00DA
:104B5000490050002D004C0045004E000400140197
:104B6000A4040D00E2290B00B7440E4645004400A2
:104B7000490054002D0043004C00490050002D0016
:104B8000420055004600230004001501A4040D0056
:104B9000E2290B00CC4403624500540031000400BC
:104BA0001601A4040D00E2290B00E2440364450051
:104BB0005400320004001701A4040D00E2290B0088
:104BC000ED44036645005400330004001801A404BA
:104BD0000D00E2290B00F84403684500540034003E
:104BE00004001901A4040D00E2290B0003450EA8DE
:104BF00045004400490054002D004C0049004E007F
:104C000045002D004E004500580054000B000E4595
:104C10000EAC45004400490054002D004C004900F2
:104C20004E0045002D005000520045005600240063
:104C30000B001F450D9C45004400490054002D0009
:104C40004C0049004E0045002D004C0045004E0030
:104C500004000200E2290B0031450FA64500440084
:104C6000490054002D004C0049004E0045002D0025
:104C700046004C0041004700530004000300E229B5
:104C80000B0044450EA845004400490054002D0087
:104C90004C0049004E0045002D00540045005800CE
:104CA000540004000400E2290B0059450E80450021
:104CB0004400490054002D004C0049004E004500BE
:104CC0002D004C0045004E00400040450D000B00FB
:104CD0006D450E4245004400490054002D004C0033
:104CE00049004E0045002D004C0045004E002100BB
:104CF00040450C000B0080450EA4450044004900CF
:104D000054002D004C0049004E0045002D0041008C
:104D100044004400520019006945E2290B00934504
:104D20000D8C45004400490054002D005000410006
:104D3000540048002D00420055004600B1440D00CB
:104D40000B00A7450D8C45004400490054002D0080
:104D500043004C00490050002D0042005500460021
:104D6000DC440D000B00B9450A48450044004900E9
:104D700054002D0050004100540048002400B64566
:104D80009B440D000B00CB450A42450044004900FE
:104D900054002D005000410054004800210018002C
:104DA0009B440C00B6451900C3070B00DB450942C4
:104DB00045004400490054002D004D0053004700B9
:104DC000210086440C000B00EE450C9C450044007D
:104DD000490054002D004300550052002D004C00A6
:104DE00045004E00D5430D007D450B00FC450DA44C
:104DF00045004400490054002D0043005500520076
:104E00002D004100440044005200D5430D00694587
:104E10000B000E460FA845004400490054002D0029
:104E20004C0049004E0045002D0043004F00550046
:104E30004E005400F7430D000B0021460942450087
:104E40004400490054002D0043004F004C00210055
:104E5000180029440C003A440C000B0035460F8A18
:104E600045004400490054002D0043004C0045001B
:104E7000410052002D004C0049004E004500040046
:104E800000001A0040450C0017000B00464608863B
:104E9000450044002D0041004C004C004F004300F1
:104EA000A3430D0076050800734618000D00A343C8
:104EB0000C000900874680430D0018001642E229C5
:104EC00092430D001900BA0508008246170004003D
:104ED00000000B0018001642E22980430C00180065
:104EE000040000001A000C001900170018002F45DC
:104EF0000400000019000C001800404504000000E8
:104F000019000C00180055450400000019000C00A1
:104F10000B005E460E8A45004400490054002D00F7
:104F200046005200450045002D004C0049004E004F
:104F30004500A3430D001A000C00A3430C000B0016
:104F4000A1460FA445004400490054002D004C0028
:104F500049004E004B002D00410046005400450022
:104F60005200E7440C00F2440C00E7440D000D0031
:104F7000F2440D000C00E7440D00F2440D002F45F3
:104F80000C00F2440D000D0076050800E646F244E0
:104F90000D0019002F450C000900EA46E7440D00FA
:104FA000C5430C00E7440D00F2440D000C000B005B
:104FB000B8460B9645004400490054002D005500AA
:104FC0004E004C0049004E004B0018000D00E74415
:104FD0000C0018002F450D00F2440C00F2440D00A7
:104FE00008001147E7440D00F2440D000C000900D1
:104FF0001547E7440D00B4430C00E7440D000800DA
:105000002147F2440D00E7440D002F450C00090034
:105010002547F2440D00C5430C000B00F04611A4D7
:1050200045004400490054002D0052004500530043
:10503000450054002D004200550046004600450042
:10504000520004000000A3430C006F430D00804396
:105050000C00040000004F440C00040000008644D3
:105060000C000400000029440C00040000003A4435
:105070000C0004000000C6440C0068461800230021
:1050800008005F471700A94286440C000B00180077
:10509000B4430C001800C5430C001800D5430C00A5
:1050A0001800E5430C00170004000100F7430C0052
:1050B0000400010008440C000400010019440C0025
:1050C0000B00264709A845004400490054002D0064
:1050D00049004E0049005400A5030D005E430C003A
:1050E000A5030D001800B1440C005043E22918003C
:1050F000DC440C000442E22918006F430C00180045
:1051000080430C002A42E22992430C0092430D0096
:10511000A5030C000400010062440C008242864496
:105120000C00040000009B440C0039470B00794739
:10513000098A45004400490054002D0044004F00F6
:105140004E0045005E430D00A5030C00B12E8D2ED0
:105150000B00AF470D9C45004400490054002D0052
:105160005400520049004D002D004C0045004E00F7
:1051700018007D45E7440C00E7440D000800F047A7
:1051800018006945E7440D002500E2290F00CB0611
:10519000BB290800EA47E7440D002500E7440C005E
:1051A0000900EE471700E7440D000B000900D44743
:1051B0001700040000000B00C1470FA44500440085
:1051C000490054002D0045005800540045004E0091
:1051D00044002D0043005500520018000442CE291F
:1051E000080011481700BB4286440C000400000070
:1051F0000B0018000A46D52908001A4817000400B9
:10520000FFFF0B001800E7440C000A46F2440C00B4
:10521000D5430D006945F2440D00E229E7440D0035
:10522000F2440D00B629CB06E407E7440D00D54350
:105230000D0040450C0017000400FFFF0B00F44771
:10524000138A45004400490054002D0045004E00DB
:1052500053005500520045002D00560049005300F0
:10526000490042004C00450008440D0019440D005F
:10527000CA0508006048E5430D002F450D00E543D1
:105280000C0019440D00250019440C0009004C487D
:1052900008440D0019440D004A42E229DC290800A7
:1052A0007548E5430D000D00E5430C0019440D0061
:1052B000240019440C00090060480B0037480CA07A
:1052C00045004400490054002D004D004F00560099
:1052D00045002D0055005000D5430D002F450D0011
:1052E000760508009748D5430C0008440D002500BA
:1052F00008440C003A440D0029440C004C480B00B3
:1053000076480E9C45004400490054002D004D0095
:105310004F00560045002D0044004F0057004E003E
:10532000D5430D000D0076050800BA48D5430C00A2
:1053300008440D00240008440C003A440D002944A0
:105340000C004C480B0098480EA84500440049004A
:1053500054002D004D004F00560045002D004C001C
:1053600045004600540029440D000800D84829444F
:105370000D00250029440C0029440D003A440C007E
:105380000B00BB480FA845004400490054002D0005
:105390004D004F00560045002D00520049004700C7
:1053A0004800540029440D002400180029440C0032
:1053B0003A440C000B00D9480E8A450044004900CD
:1053C00054002D004D004F00560045002D004800B0
:1053D0004F004D0045000400000040460B00F3481C
:1053E0000D8845004400490054002D004D004F0039
:1053F000560045002D0045004E0044000A46404638
:105400000B0007490CA045004400490054002D0042
:1054100050004100470045002D0055005000040099
:105420000000E7440C00E7440D004A42CA050800AA
:1054300039498448E7440D002400E7440C00090082
:105440002B490B0019490E9C4500440049005400AB
:105450002D0050004100470045002D0044004F0042
:1054600057004E0004000000E7440C00E7440D0024
:105470004A42CA0508005C49A848E7440D002400D8
:10548000E7440C0009004E490B003A4911884500D9
:105490004400490054002D005300450054002D00E5
:1054A0004D004F00440049004600490045004400BB
:1054B0000400FFFF4F440C00824286440C000B00A6
:1054C0005D4913A445004400490054002D004F00DD
:1054D0005600450052005700520049005400450054
:1054E0002D00430048004100520029440D002400D3
:1054F000054823000800964917000B0029440D00B9
:10550000D5430D00A3450E0029440D00240040465C
:1055100070490B00784910A445004400490054002C
:105520002D0049004E0053004500520054002D004C
:10553000430048004100520029440D00FD440C0086
:105540000A4608450C00FD440D0008450D00DC2905
:105550000800D349FD440D0024000548230008003D
:10556000CB4917000B0029440D00D5430D00A3457E
:105570000E000900F04908450D00240005482300ED
:105580000800DC4917000B00FD440D00D5430D0059
:10559000A34518002400190008450D00FD440D0026
:1055A000B629302829440D00D5430D00A3450E002F
:1055B00029440D002400404670490B00A2490EA862
:1055C00045004400490054002D004A004F004900A6
:1055D0004E002D004E00450058005400D5430D00EC
:1055E0000D007605230008000F4A17000B00180075
:1055F000E7440C000A46F2440C00E7440D007D45E8
:10560000FD440C00F2440D00FD440D00E22904426B
:10561000CE290800274ABB4286440C000B00E74411
:105620000D006945D5430D006945F2440D00E2299E
:10563000FD440D00C307F2440D00FD440D00E229B6
:10564000D5430D0040450C00E7440D00FD46E744FE
:105650000D00B146F7430D002500F7430C007049DB
:105660000B00F64910A445004400490054002D00E9
:10567000440045004C004500540045002D00430007
:1056800048004100520029440D00E7440C000A463E
:10569000F2440C00E7440D00F2440D00CA05080076
:1056A000844AD5430D00E7440D002400A345D543AB
:1056B0000D00E7440D00A345F2440D00E7440D0042
:1056C000B6292500C307F2440D002500D5430D007F
:1056D00040450C0070490B00E7440D00F2440D00FA
:1056E000BB2908008C4A064A0B00494A0F8A45002C
:1056F0004400490054002D00530050004C00490064
:1057000054002D004C0049004E004500684618002A
:1057100023000800A84A1700A94286440C000B0089
:105720001800E7440C00D5430D00F2440C00294456
:105730000D00FD440C00F2440D007D4508450C00B1
:10574000FD440D0008450D00CA050800DC4A084567
:105750000D00FD440D00B6291800E7440D0040453A
:105760000C00F2440D006945FD440D00E229E744B8
:105770000D0069458105C307FD440D00F2440D008D
:1057800040450C000900E24A04000000E7440D0017
:1057900040450C00E7440D00F2440D00C946F743B4
:1057A0000D002400F7430C00E7440D00D5430C0026
:1057B00008440D00240008440C000400000040468A
:1057C0004C4870490B008D4A0E8A45004400490040
:1057D00054002D004200410043004B005300500094
:1057E00041004300450029440D0023000800284BD8
:1057F000D5430D002F450D0076050800274B1800F6
:105800007D45E7440C00D5430C0008440D002500FD
:1058100008440C00E7440D004046064A4C480B0083
:1058200029440D002500180029440C003A440C00BE
:1058300029440D000A46DC290800374B0B005B4A5F
:105840000B00FB4A108A45004400490054002D001B
:10585000440045004C004500540045002D004C001C
:1058600049004E004500F7430D0004000100BB292C
:1058700008005A4BD5430D0057460400000040462F
:1058800070490B00D5430D00E7440C00E7440D00C0
:105890000D0076050800694B1800D5430C0009007F
:1058A000754BE7440D002F450D001800D5430C0043
:1058B00008440D00250008440C00E7440D00E543B2
:1058C0000D00BB290800844BD5430D00E5430C00B7
:1058D00008440D0019440C00E7440D00FD46E74460
:1058E0000D00B146F7430D002500F7430C000A46B2
:1058F00029440D00E60540464C4870490B00394BE1
:105900000E8A45004400490054002D0043004F001A
:10591000500059002D004C0049004E004500D54371
:105920000D007D451800C6440C00D5430D006945A7
:10593000C8458105C307824286440C000B00974B83
:105940000F8A45004400490054002D0050004100DA
:105950005300540045002D004C0049004E00450006
:105960006846180023000800D24B1700A94286445D
:105970000C000B001800E7440C00C6440D00180092
:10598000E7440D0040450C00C845E7440D0069455B
:105990008105C307E7440D00D5430D00C946E74420
:1059A0000D00D5430C00F7430D002400F7430C0015
:1059B00008440D00240008440C0004000000404688
:1059C0004C4870490B00B74B08AE450044004900F5
:1059D00054002D004E0045005700394703438644CC
:1059E0000C000B00FB4B09884500440049005400A3
:1059F0002D004C004F0041004400E7453947D74592
:105A0000D413F21318000800234C19001700CD42DC
:105A100086440C000B0017001400B4430D00F24440
:105A20000C000400FFFFFD440C004D07044213006E
:105A30001C1418000800404C170017001700120033
:105A40000F141700DF4286440C00040001000B0015
:105A500017000800774CFD440D0023000800664C39
:105A60006846180023000800574C170012000F1456
:105A70001700A94286440C00040002000B00180025
:105A8000C5430D00C9461800F2440C00F7430D0051
:105A90002400F7430C00170009006A4C04000000C2
:105AA000FD440C001800F2440D0040450C004D0769
:105AB000F2440D0069458105C30709002D4C17000C
:105AC00012000F141700B4430D00D5430C00B4436B
:105AD0000D00E5430C000400010008440C00040024
:105AE000010019440C0004000000404604000000BE
:105AF0004F440C00824286440C00040000000B005E
:105B00000A4C098A45004400490054002D00530006
:105B10004100560045009B440D0023000800AE4C98
:105B2000154386440C00040001000B00D74578148F
:105B30001700D745E413011418000800BD4C1900E4
:105B40001700F24286440C000B00170008450C00B9
:105B5000B4430D0018000800E34C1800D0471800AB
:105B6000F2440C001A006945F2440D0008450D008E
:105B70002A1418000800DF4C170008450D000F1408
:105B80001700F24286440C00040001000B001700CD
:105B90000D000900C24C170008450D0069141700DC
:105BA00008450D000F141700040000004F440C00BE
:105BB000954286440C00040000000B00984C098EAE
:105BC00045004400490054002D002E004D005300B4
:105BD000470086440D0018009542BB290800124D6D
:105BE0001700FE0C060020005300610076006500DF
:105BF00064000B001800A942BB290800274D1700BC
:105C0000FE0C0C0020004200750066006600650076
:105C100072002000660075006C006C000B0018001C
:105C2000BB42BB2908003E4D1700FE0C0E002000B1
:105C30004C0069006E006500200074006F006F006A
:105C400020006C006F006E0067000B001800CD4252
:105C5000BB290800534D1700FE0C0C0020004F001C
:105C6000700065006E0020006600610069006C0035
:105C7000650064000B001800DF42BB290800684D76
:105C80001700FE0C0C00200052006500610064004B
:105C900020006600610069006C00650064000B0074
:105CA0001800F242BB2908007E4D1700FE0C0D00C3
:105CB0002000570072006900740065002000660033
:105CC000610069006C00650064000B00180003436C
:105CD000BB290800924D1700FE0C0B0020004E005F
:105CE00065007700200062007500660066006500B0
:105CF00072000B0018001543BB290800A74D1700C0
:105D0000FE0C0C0020004E006F00200066006900B1
:105D10006C0065006E0061006D0065000B001800EE
:105D20002843BB290800BB4D1700FE0C0B002000C8
:105D30004E006F007400200069006E0020004D00CE
:105D4000560050000B0017000B00F64C0DAE45003E
:105D50004400490054002D00440052004100570007
:105D60002D0052004F005700E7440C00F2440C0095
:105D700004000100E7440D00122E622EF2440D00D3
:105D800076050800FC4DF2440D007D453A42E605DB
:105D9000FD440C000400000008450C0008450D00FF
:105DA000FD440D00CA050800FC4DF2440D00694594
:105DB00008450D00E2290F00510B08450D00240095
:105DC00008450C000900E64D0B00BD4D0EA845002E
:105DD0004400490054002D00440052004100570087
:105DE0002D005400450058005400E5430D00E744E1
:105DF0000C0004000100F2440C00F2440D004A4281
:105E0000D5290800304EE7440D00F2440D00CC4D7A
:105E1000E7440D000800294EE7440D000D00E7445B
:105E20000C00F2440D002400F2440C000900154E51
:105E30000B00FD4D10A645004400490054002D0004
:105E400044005200410057002D005300540041000F
:105E5000540055005300012F040001005E42122E31
:105E6000622ED745A20B4F440D000800554EFE0C84
:105E7000020020002A000900594EFE0C02002000FA
:105E80002D00FE0C040020004C006E002000084491
:105E90000D00FA2DFE0C0500200043006F006C0081
:105EA000200029440D002400FA2D62440D00080052
:105EB000794EFE0C0400200049004E0053000900FA
:105EC0007F4EFE0C040020004F0056005200014D92
:105ED000B12E0B00314E0EA0450044004900540085
:105EE0002D0044005200410057002D00480045009D
:105EF0004C005000040001007042122E622EB12EA0
:105F0000FE0C010031005C30E32DED30CE2DFE0C97
:105F10000600200020002000200020002000B12EDC
:105F2000FE0C010032005C30E32DED30CE2DFE0C76
:105F30000600530061007600650020002000B12EAD
:105F4000FE0C010033005C30E32DED30CE2DFE0C55
:105F50000600200020002000200020002000B12E9C
:105F6000FE0C010034005C30E32DED30CE2DFE0C34
:105F700006004E0065007700200020002000B12EB2
:105F8000FE0C010035005C30E32DED30CE2DFE0C13
:105F9000060043006F007000790020002000B12E41
:105FA000FE0C010036005C30E32DED30CE2DFE0CF2
:105FB0000600200020002000200020002000B12E3C
:105FC000FE0C010037005C30E32DED30CE2DFE0CD1
:105FD0000600500061007300740065002000B12EBF
:105FE000FE0C010038005C30E32DED30CE2DFE0CB0
:105FF0000600440065006C004C006E002000B12ECD
:10600000FE0C010039005C30E32DED30CE2DFE0C8E
:106010000600200020002000200020002000B12EDB
:10602000FE0C0200310030005C30E32DED30CE2D4F
:10603000FE0C060045007800690074002000200076
:10604000B12E0B00824E11A44500440049005400BB
:106050002D0050004C004100430045002D0043003E
:106060005500520053004F00520008440D001944DF
:106070000D00B629240004000100DA054A42E605B5
:10608000E7440C0029440D00240004000100DA0557
:106090003A42E605F2440C00F2440D00E7440D00DC
:1060A000122E0B003A4F0BAE45004400490054003D
:1060B0002D00520045004400520041005700A12E1F
:1060C000532E222E0D4E434E924E4D4F8D2E0B00D1
:1060D0006A4F158A45004400490054002D004800CD
:1060E00041004E0044004C0045002D00500052007D
:1060F00049004E005400410042004C004500180089
:106100000400200004007F00F6050800A84F624448
:106110000D000800A64FB4490900A74F8D490B0098
:1061200017000B00804F10A44500440049005400A4
:106130002D00480041004E0044004C0045002D0059
:106140004300480041005200180004000800BB2929
:106150000800C54F17000B4B0B00180004007F0010
:10616000BB290800CE4F17000B4B0B001800040092
:106170000D00BB290800D74F17009E4A0B001800DE
:1061800004000A00BB290800E04F17009E4A0B00DC
:10619000180004000900BB290800EC4F1700CB06CB
:1061A000974FCB06974F0B00974F0B00AA4F10B29B
:1061B00045004400490054002D00480041004E00B5
:1061C00044004C0045002D0045004B00450059009F
:1061D0001800600ABB29080008501700CB480B00C4
:1061E00018006E0ABB29080010501700EA480B007F
:1061F0001800460ABB2908001850170084480B00F5
:106200001800530ABB29080020501700A8480B00AB
:1062100018007B0ABB2908002850170003490B000F
:106220001800870ABB2908003050170016490B00D8
:106230001800940ABB2908003850170027490B00A2
:106240001800A10ABB290800405017004A490B005A
:106250001800CB0ABB290800485017000B4B0B0055
:106260001800B90ABB290800505017005B4A0B0000
:106270001800D90ABB290800585017009E4A0B0085
:106280001800AD0ABB2908006450170062440D00D5
:10629000230062440C000B001800EF0ABB29080021
:1062A0006D501700A34C17000B001800050BBB29FD
:1062B000080075501700054C0B001800100BBB2987
:1062C00008007D501700A74B0B001800260BBB29B8
:1062D000080085501700C84B0B001800310BBB2974
:1062E00008008D5017004B4B0B001800480BBB29C2
:1062F0000800985017000400000076440C000B00C2
:106300001700284386440C000B00EE4F0FA84500F1
:106310004400490054002D0057004100490054003A
:106320002D0049004E00500055005400190A080085
:10633000B35000500B00F6090800B850BC4F0B00DA
:106340000900AE500B009D50089C450044004900D8
:1063500054002D00520055004E000400FFFF76440B
:106360000C0076440D000800D150774FAE50090064
:10637000C950B12E8D2E532E222E0B00BB5004A8D7
:1063800045004400490054008447A929154C1800D1
:106390000800E450BA470B001700C550BA47040084
:1063A00000000B00782F08A84E00450057002D0074
:1063B00045004400490054008447E745054CC5505A
:1063C000BA470B00000000000000000000000000C1
:1063D00000000000000000000000000000000000BD
:1063E00000000000000000000000000000000000AD
:1063F000000000000000000000000000000000009D
:10640000000000000000000000000000000000008C
:1081D0000000030041004E0044001C0000000200AB
:1081E0004F0052001D000000030058004F005200D5
:1081F0001E000000030055004D002B001F00000072
:1082000003003C003C0034002000000003003C0060
:108210003C0038002100000003003C003C00390015
:1082200022000000020030003D0023000000020098
:1082300031002B0024000000020031002D00250039
:108240000000020032002B00260000000200320075
:108250002D0027000000050048004F005000450099
:108260004E0028000000070048004300520045006F
:10827000410054004500290000000600480043006A
:108280004C004F00530045002A0000000700480042
:1082900052004500410044004C004E002B000000FD
:1082A00008004800570052004900540045004C00A7
:1082B0004E002C000000050048005300450045001A
:1082C0004B002D00000005004800540045004C0004
:1082D0004C002E00000005004800530049005A00E1
:1082E00045002F0000000600480046004C005500E5
:1082F00053004800300000000700480044004500DB
:108300004C004500540045003100000007004800C3
:10831000520045004E0041004D0045003200000073
:10832000030055004D002A003300000003004E00FA
:108330004F00540035000000030053005500420078
:108340003600000006004E00450047004100540082
:10835000450037000000030049004E00430038008C
:108360000000030044004500430039000000040001
:108370005A00450052004F003A000000020055002C
:108380002B003B000000020032002A003C000000ED
:1083900000000000457E5000520049004D003F00A3
:1083A0001800A2020C001800B0060F00EC030C002D
:1083B00017000400491F18000F00080021211800B1
:1083C000B0060F00EC030D001E00080005212D076C
:1083D000E229B006B0060900F320A2020D00190040
:1083E00018000F00C10F08001521190017002D07F4
:1083F000E229B006B0060900F320190017002D0786
:10840000E22918000D001900B0060D000400FFFF5E
:108410000B001700A2020D00040000000B00030077
:108420003F00720078000200030074007800210011
:108430000300010021000C00010040000D000200BB
:10844000430021000E000200430040000F00030023
:108450005200500021001000030052005000400064
:108460001100020052003E001200020052004000C3
:10847000130002003E00520014000300530050009D
:1084800040001500030053005000210016000400B6
:10849000440052004F0050001700030044005500F4
:1084A000500018000400530057004100500019000C
:1084B00004004F005600450052001A000200300030
:1084C0003C001B00030041004E0044001C00020061
:1084D0004F0052001D00030058004F0052001E00C4
:1084E000030055004D002B001F00020030003D002E
:1084F0002300020031002B002400020031002D0077
:108500002500020032002B002600020032002D0060
:108510002700050048004F00500045004E0028008D
:108520000700480043005200450041005400450048
:1085300029000600480043004C004F00530045004E
:108540002A000700480052004500410044004C004A
:108550004E002B000800480057005200490054000C
:1085600045004C004E002C0005004800530045001B
:1085700045004B002D0005004800540045004C000C
:108580004C002E0005004800530049005A004500E9
:108590002F000600480046004C00550053004800DC
:1085A000300007004800440045004C0045005400DE
:1085B0004500310007004800520045004E004100D0
:1085C0004D0045003200030055004D002A003300E5
:1085D00003004E004F0054003500030053005500C7
:1085E0004200360006004E0045004700410054009E
:1085F00045003700030049004E00430038000300E7
:10860000440045004300390004005A004500520070
:108610004F003A00020055002B003B0002003200E0
:108620002A003C0000000000467E49005000520035
:1086300049004D003F001800A2020C001800B006CF
:108640000F00EC030C0017000400272118000F0096
:10865000080066221800B0060F00EC030D001E0093
:1086600008004F222D07E229B00609003E2218001B
:108670000F001400A2020D00B0061A00B00612008E
:10868000E60F080061222D07E2290D000400FFFF1C
:108690000B002D07E229B00609003E221700A202B6
:1086A0000D00040000000B000000488A2400430075
:1086B0004F004D00500049004C004500D712080003
:1086C0008122400908008122040004009129912997
:1086D0000B00D711760508009D2218000D00180028
:1086E000040080001C0008009122170017001400ED
:1086F0000B00040020001C0008009A2217000D0047
:1087000091290B00170091290B0040090800A522B0
:1087100004000400912991290B00C01200004A585E
:1087200049004E00540045005200500052004500E0
:1087300054002C00D7120800BA2240090800BA22BF
:1087400087070B00D71176050800072318000D00D6
:10875000040040001C00A5180D00200063006F00FD
:108760006D00700069006C00650020006F006E00F5
:108770006C0079001A00040073161E000800042320
:108780001A000400F0291E00080004231A00040047
:108790005E241E00080004231A00040063251E0046
:1087A000080004231A00040074251E000800042396
:1087B0001A0004002D271E000800042318000D00D5
:1087C000040020001C000800012317000D0075079D
:1087D0000B00170075070B00170014000B00C012E8
:1087E00000004698520045005600450041004C00EC
:1087F000C9030D00180014009A0FB0060F009B0368
:108800000D00B80F7D0F76050800262318000D0017
:1088100013000C00120019000C000B0012001700CE
:108820000B004417898A49004D004D004500440063
:10883000490041005400450004008000C9030D00B8
:10884000B00618000D0081051D0019000C000B007A
:10885000241E078A5000520049005600410054006F
:10886000450004000001C9030D00B00618000D000A
:1088700081051D0019000C000B00A21E0CB2430064
:108880004F004D00500049004C0045002D004F00A6
:108890004E004C00590004004000C9030D00B00612
:1088A00018000D0081051D0019000C000B00DE0FE3
:1088B00006A44D00410052004B0045005200310318
:1088C0000D0008009E23A51820004D004100520015
:1088D0004B0045005200200063006F006D007000E7
:1088E00069006C0065002D00730074006100740065
:1088F0006500200075006E00730075007000700048
:108900006F007200740065006400C012C9030D009E
:10891000A2020C003B07AE020C000C0F1A1F7D03D5
:10892000E81E7D03B006E81E7D03B006B006E81E13
:108930008C03E81E8C03B006E81E8C03B006B0065C
:10894000E81E8C03B006B006B006E81E8C03B00625
:10895000B006B006B006E81E8C03B006B006B0063E
:10896000B006B006E81E8C03B006B006B006B0062E
:10897000B006B006E81E8C03B006B006B006B0061E
:10898000B006B006B006E81E8C03B006B006B0060E
:10899000B006B006B006B006B006E81E9B03E81E9F
:1089A0009B03B006E81EA2020D00C903041FAE021D
:1089B0000D00A503041F040004009129AE020D0060
:1089C0009129040066189129A5030D00661804007A
:1089D0000B00912910230B00131706A846004F0027
:1089E000520047004500540031030D0008003324B5
:1089F000A518200046004F005200470045005400D3
:108A0000200063006F006D00700069006C0065005D
:108A10002D00730074006100740065002000750073
:108A20006E0073007500700070006F0072007400BB
:108A300065006400C0120C0F9B030D00A8117605A1
:108A40000800572414008D0512001800040000804F
:108A5000BA0508004F24A5180900700072006F00C5
:108A6000740065006300740065006400C012A70F05
:108A70001800A5030C009B030D004A180B00C01240
:108A8000DF1804A455005300450052000C0F1A1FB4
:108A9000C016AE04912910230B0000000AB2560044
:108AA0004F0043004100420055004C00410052007D
:108AB00059000C0F1A1F3B0704000300E22918009D
:108AC000A2020C001700C0164C05A2020D0091294D
:108AD00004000B009129A2020D0004000300E2290A
:108AE0009129040000009129040000009129A202AC
:108AF0000D0004000300E229180004005F00A61620
:108B0000A8177D03B0060D00A2020D00B0060C00F0
:108B1000A2020D007D03B0060C0010230B006B14A5
:108B20000BA644004500460049004E004900540091
:108B300049004F004E0053008C030D00B80F9B03FB
:108B4000B0060C009B03B0069B030C000B006F23C8
:108B5000068A4D004F00440055004C00450031038B
:108B60000D000800EE24A51820004D004F00440021
:108B700055004C004500200063006F006D00700040
:108B800069006C0065002D007300740061007400C2
:108B90006500200075006E007300750070007000A5
:108BA0006F007200740065006400C012C3040D0001
:108BB000D8040D001D0008000525A5180D006D0046
:108BC0006F00640075006C006500200061006300A8
:108BD0007400690076006500C012B6140400FFFF3F
:108BE000C3040C0004000000D8040C000B00531B4D
:108BF0000A8A45004E0044002D004D004F004400FD
:108C000055004C00450031030D0008004625A5180D
:108C1000240045004E0044002D004D004F0044004C
:108C200055004C004500200063006F006D0070008F
:108C300069006C0065002D00730074006100740011
:108C40006500200075006E007300750070007000F4
:108C50006F007200740065006400C012C3040D0050
:108C6000D8040D001D0008004F25E2150B00A518C3
:108C700009006E006F0020006D006F006400750039
:108C80006C006500C0125523068A4300520045005F
:108C90004100540045000C0F1A1F040006009129E2
:108CA00010230B006524088A560041005200490039
:108CB000410042004C00450063250400000091295A
:108CC0000B000000508A4D004F00440055004C003E
:108CD00045002D0053004B00490050002D004C0072
:108CE00049004E0045000C0FD711080095250400DF
:108CF0001B251E00080097250B0017000B00E2152E
:108D000038130B009316058A5F0054005900500079
:108D100045000900AF25190018000F00D506510BBA
:108D200004000100E22919000400FFFFE2291800F5
:108D30000800B4250900A3258D050B00DB0C0356A4
:108D400064006D002B001A0004000400EF08740B8F
:108D5000370014000900CC2518000F0004000300A0
:108D6000EF0804000100E2290700C42512001700E3
:108D70000B00A72404A0440055004D0050008702BA
:108D80000D001400B30804001000AF2937001400D0
:108D9000BA0B04001000A929BB2581058105040038
:108DA0000200990BA125590B35000800F525070095
:108DB000E025120017000900F72512001700170020
:108DC000120087020C000B00B41802A62E005300FC
:108DD000BA0BEA06760508001E2604000100E22907
:108DE00037001400090013261300370004000100A7
:108DF000B629F806060907000C2612001700FE0C1B
:108E0000040020003C00730070000B0009001726CE
:108E1000FC25058A2E0042004100530045008702D0
:108E20000D00C1081800060987020C000B0020265F
:108E3000058A2E00460052004500450005020D003F
:108E4000A5030D00B629FD080B00000004A02100B9
:108E5000430053005000150024030C000B00E918D8
:108E600004A03F00430053005000150024030D00F0
:108E70001E00A518110073007400610063006B00F0
:108E80002000640065007000740068002000650028
:108E9000720072006F0072000B0000004E865800D6
:108EA00054003E004E0041004D0045002D00490099
:108EB0004E002D0056004F0043001900A2020C0086
:108EC000B80F76050800A52604005F0037001400DF
:108ED00018000D009A040C009A040D0018000800F8
:108EE0009E2618006B0FA2020D001E00080095269A
:108EF0000D009A040C000900842617009A040D0046
:108F00009A0F19001700120017000B001700B00687
:108F100007008026120017001700040000000B0055
:108F20000000058A3E004E0041004D0045007D03D3
:108F300018000800C4261A001A00752676050800D5
:108F4000BE2619001700190017000B0019001700A2
:108F5000B0060D000900B0261700040000000B0049
:108F60000000068A50003E004E0041004D004500C2
:108F70000400491F18000F000800E626A9292D0744
:108F8000E2290D001E000800E3262D07E229B006A5
:108F9000B0060900D226190017000B0019001700AF
:108FA0000B00000005A650003E004F00500053008B
:108FB0000400491F18000F0008000A27A9292D07DF
:108FC000E2290D001E00080003272D07E229B00644
:108FD000B0060900F226190017002D07E229B00695
:108FE0000D000B0019001700040000000B002F26D5
:108FF00003882E0049004400760508001D272D0730
:1090000004001F001C00A1250B00FE0C08007B00C3
:109010006E006F004E0061006D0065007D000B006A
:10902000851C038A5300450045000C0FD71118001A
:10903000080075271700BA0B18000D001800A202CF
:109040000C00180004000002BA0508004227D026D0
:1090500009004327AF26760508004A27740B14271A
:1090600009004B27FD08A2020D0004000002BA050A
:1090700008006F27A2020D0004000B001E0008006C
:109080007327A2020D00F026760508006F2717004F
:10909000590B0800652709007327B00618000D005A
:1090A000FD08B006590B0800342709007327B006E5
:1090B000590B0800342717000B00C0128A1705A6A9
:1090C00057004F00520044005300BA0B8C030D00B0
:1090D000B80F76050800C62704005F0037001400AB
:1090E00018000D009A040C009A040D0018000800E6
:1090F000BF279A0F18000D00040040001C00080054
:10910000A12717009A040D000D009A040C00090015
:109110008C2718000D00040000011C000800B02777
:1091200017009A040D000D009A040C0009008C270A
:109130001800740B142717009A040D000D009A04F0
:109140000C00590B08008C27170017000B001700A4
:10915000B006070088271200170017000B006A25C9
:1091600003A4560045005200040000040B00000058
:1091700002D268006900BA0BFE0C140050004400D3
:1091800052002D00310036002F00580054002000FE
:1091900046006F0072007400680020007600340002
:1091A0002E003000BA0BFE0C1F0064006500720038
:1091B00069007600650064002000660072006F00A0
:1091C0006D002000650046006F00720074006800AA
:1091D000200062007900200043002E0048002E008D
:1091E000540069006E006700BA0B0B000F2505B232
:1091F00045004D0050005400590004000080A503B4
:109200000C000400EA50C9030C00040000007D03B8
:10921000B0060C000400008066186A05B4240B0038
:109220005B25067C43004D004F00560045003E0084
:1092300018000800492814001A001300E22904004D
:109240000100B6291A001300E22904000100B62922
:109250000F0019000E0012000400FFFFE2290900B0
:10926000302817008D050B00BF24048A4D004F00E5
:1092700056004500A92917001900BA0508005A2808
:10928000C3070B0030280B002828048843004F0038
:109290004C00440004007FF9160004007FFE10001B
:1092A00004000200040080FE04003402C30704002E
:1092B000E2FE7D030C00040000007D03B0060C00FC
:1092C0007E13D3270400EA50C9030C006A05B424B6
:1092D000381304007FF91600291609006228472672
:1092E00023F03F007200780002000B009D02234231
:1092F00074007800210003000B000E2824A845000C
:109300005800490054000B000B003D26214221006B
:109310000C000B000000218040000D000B005C28B9
:109320002242430021000E000B00A72822804300A8
:1093300040000F000B00BF1B2342520050002100D1
:1093400010000B00B3282380520050004000110091
:109350000B00BA28227C52003E0012000B00C128EC
:1093600022805200400013000B00C60822A43E00D9
:10937000520014000B0028272380530050004000A7
:1093800015000B00D3282342530050002100160083
:109390000B00D12524A0440052004F0050001700BC
:1093A0000B00E12823A044005500500018000B00DA
:1093B000DA2824A0530057004100500019000B0088
:1093C000E71324A44F005600450052001A000B007A
:1093D0000000227830003C001B000B00DE1D2388BB
:1093E00041004E0044001C000B00F82822A44F004E
:1093F00052001D000B00211223A458004F00520000
:109400001E000B005824235655004D002B001F0052
:109410000B005D0823683C003C00340020000B007A
:10942000212923703C003C00380021000B00282932
:1094300023723C003C00390022000B000029227AF4
:1094400030003D0023000B000000225631002B00AD
:1094500024000B003C29225A31002D0025000B006E
:109460001907225632002B0026000B004829225AE9
:1094700032002D0027000B001E1723A84E004F00BE
:10948000540035000B00F02823845300550042009F
:1094900036000B005429268A4E0045004700410043
:1094A0005400450037000B002923238649004E0055
:1094B000430038000B00E9282386440045004300A0
:1094C00039000B000000249E5A00450052004F0056
:1094D0003A000B001A29225655002B003B000B00C6
:1094E0004E29225432002A003C000B000000015893
:1094F0002C003B071800B006A5030C000C000B0065
:10950000062903A641004200530018001B00080072
:10951000A22937000B00882904A03200440055001E
:1095200050001A001A000B005806015E2F005E065C
:10953000190017000B00F507015A2D0036000B002B
:109540000000017A3D001E000800C129040000004F
:109550000B000400FFFF0B002F29027C3C003E00A3
:10956000BB2935000B00CD28017C3E001900CA053F
:109570000B00C429027A3C003D00CE2935000B00C7
:10958000CB29027A3E003D00CA0535000B000007DA
:1095900001562B003B000B000000C1763B0004008D
:1095A0000B009129631610230B00000001743A0090
:1095B0000C0F1A1F6B160B00AD28025843002C002D
:1095C0003B071800B006A5030C000E000B006C2929
:1095D000099049004D0047002D0057004900440004
:1095E000540048000D000B00FF290AA849004D0057
:1095F00047002D004800450049004700480054003E
:10960000B0060D000B000C2A088249004D004700EF
:109610002D00440041005400410004000200E229F2
:109620000B001B2A844449004D00470022006804B7
:109630000C0004002200D20EA929190017006804AA
:109640000D000400070075061E000800402A410CAA
:10965000A9295F0C3B071400A929190012008105F4
:10966000C307A61617000B0095280A8A45004D006F
:10967000490054002D0049004D00410047004500BD
:109680001800363174040C001800443119005131AF
:109690001900180008006F2A190074040D00CE0C80
:1096A000BA0B190004000100B6290900612A8D05D2
:1096B000830C0B004C2A0386450053004300040032
:1096C0001B00510B0B00F429039243005300490087
:1096D000772AFE0C01005B000B0000000A604300CB
:1096E0004F004C004F0052003E004400310030005B
:1096F000300006003100310031003000320031000E
:1097000031003000320032003100300032003200CF
:1097100031003100310031003100300032003100C1
:1097200031003000320032003100300032003200AF
:10973000320031003100310031003100320031009F
:10974000310031003200320031003100320032008D
:109750003200310031003100310030003100310081
:109760003100300031003100310030003100310073
:109770003100300031003100300030003100300065
:109780003000300031003000300030003100300057
:109790003000300031003100300030003100300046
:1097A0003000300031003000300030003100300037
:1097B0003000300031003100300030003100300026
:1097C0003000300031003000300030003100300017
:1097D0003000300031003100300030003100300006
:1097E00030003000310030003000300031003000F7
:1097F00030003000310031003000300031003000E6
:1098000030003000310030003000300031003000D6
:1098100030003000310031003000300031003100C4
:1098200030003000310031003000300031003100B4
:1098300030003000310031003100300032003100A2
:10984000310030003200320031003000320032008E
:10985000320031003100310031003000320031007F
:10986000310030003200320031003000320032006E
:109870003100310030003000300030003000300066
:109880003000300030003000300030003000300058
:109890003000300030003000300030003000300048
:1098A0003000300030003000300030003000300038
:1098B0003000300030003000300030003000300028
:1098C0003000300030003000300030003000300018
:1098D00030003000320032003200320032003200FC
:1098E00032003200320032003200320032003200E8
:1098F000320032000000096043004F004C004F006E
:1099000052003E00440031003000060038003700AD
:1099100033003800310036003600380031003000A6
:10992000360038003100300039003200380038008D
:10993000330039003200370037003900320031007F
:109940003700390032003100300033003800380071
:10995000340030003200380038003000320032006D
:109960003800300032003200320034003800350058
:10997000300036003900340031003600390035003F
:109980003100360039003500310037003500310034
:10999000370032003500370034003200350038001F
:1099A000340032003200380034003300350031001A
:1099B00037003200350037003400320035003800FF
:1099C00034003200320038003400330035003100FA
:1099D00037003300350038003400330035003800DC
:1099E00034003300320038003500330035003100D8
:1099F00036003200350037003300320035003700C2
:109A000033003200310037003300320034003000C0
:109A100036003100340036003200310034003600A8
:109A2000320031003000360032003100380034009E
:109A30003900350038003300390035003800330074
:109A40003900350037003300390035003800370061
:109A50003300390031003700360039003100300062
:109A60003600390031003000300032003800370055
:109A70003300380031003600360038003100300045
:109A8000360038003100300039003200310031003A
:109A9000310031003100310031003100310031003E
:109AA000310031003100310031003100310031002E
:109AB000310031003100310031003100310031001E
:109AC000310031003100310031003100310031000E
:109AD00031003100310031003100310031003100FE
:109AE00031003100310031003100310035003500E6
:109AF00035003500340034003400340034003400C4
:109B000034003300330033003300330000000862B8
:109B100043004F004C004F0052003E004400310013
:109B200006003100340031003800370037003000C3
:109B30003800370033003000380030003300360082
:109B40003400370030003700340033003900320071
:109B50003400330035003200340032003500380064
:109B60003000370036003300300039003500340053
:109B7000300039003700340030003800370036003C
:109B80003200370030003700340033003900320033
:109B90003400330035003200340032003500380024
:109BA0003000310034003100380037003700300019
:109BB0003800370033003000380030003300360002
:109BC00034003200350032003900380039003200EC
:109BD00039003800350032003900320035003800D5
:109BE00035003200360033003000390030003400D8
:109BF00030003900370034003000330037003100C6
:109C000037003200300037003400330034003200B7
:109C100034003300350032003400370035003300A3
:109C20003500360034003100380037003200300093
:109C30003800370033003000380035003300310081
:109C40003900320030003700340033003400320075
:109C50003400330035003200340037003500330063
:109C60003500320036003300300039003000340057
:109C70003000390037003400300033003700310045
:109C80003700320035003200390038003900320028
:109C90003900380035003200390032003500380014
:109CA0003500360036003600360036003600360005
:109CB00036003600360036003600360036003600F4
:109CC00036003600360036003600360036003600E4
:109CD00036003600360036003600360036003600D4
:109CE00036003600360036003600360036003600C4
:109CF00036003600360036003600360036003600B4
:109D000036003500330032003000390037003600AD
:109D100034003300310030003800370035003400A3
:109D2000320000000680440049004700490054000A
:109D300040001900E2290F000B00000007884300D3
:109D40004F004C004F0052003E0044001800A82C69
:109D5000B12D190018009D2BB12D1900912AB12D9C
:109D60000B0004240342460047002100802AFE0C19
:109D70000500330038003B0035003B00BE2D510B81
:109D8000510B510B04006D00510B0B000A170342DD
:109D9000420047002100802AFE0C050034003800F4
:109DA0003B0035003B00BE2D510B510B510B040005
:109DB0006D00510B0B009829054641004E005300E1
:109DC00049002300610881089908A20B0B007B2A37
:109DD000066643004C0041004D0050003300040073
:109DE0000000DA0504000300E6050B00F32D02A8CD
:109DF00041005400802AFA2D04003B00510BFA2D3B
:109E000004004800510B0B009F13048A48004F00C8
:109E10004D004500802AFE0C010048000B005B2924
:109E20000BA453004100560045002D00430055008F
:109E3000520053004F005200802AFE0C01007300B4
:109E40000B00C7280EA452004500530054004F00D9
:109E5000520045002D0043005500520053004F00B2
:109E60005200802AFE0C010075000B00FF2D03A696
:109E700043004C005300802AFE0C020032004A00CE
:109E80000B004E2E078A43004C002D004C00490069
:109E90004E004500802AFE0C020032004B000B00F1
:109EA000592E069843004C002D0045004F004C00F1
:109EB000802AFE0C01004B000B00682E06A6430012
:109EC0004C002D0045004F005300802AFE0C01007D
:109ED0004A000B00752E099C4300550052005300A8
:109EE0004F0052002D004F004E00802AFE0C04004F
:109EF0003F003200350068000B00822E0A8C4300C0
:109F00005500520053004F0052002D004F004600F4
:109F10004600802AFE0C04003F00320035006C0031
:109F20000B00622906984E004F0052004D00410080
:109F30004C00830C0B00DE2D048842004F004C00C7
:109F40004400802AFE0C020031006D000B007329D2
:109F5000039A440049004D00802AFE0C02003200A2
:109F60006D000B00B32E059642004C0049004E00D8
:109F70004B00802AFE0C020035006D000B00822988
:109F8000079655004E0042004C0049004E004B0021
:109F9000802AFE0C0300320035006D000B00D72E26
:109FA000098A55004E004400450052004C0049000B
:109FB0004E004500802AFE0C020034006D000B00AC
:109FC000392E078A520045005600450052005300C2
:109FD0004500802AFE0C020037006D000B00CA2EDF
:109FE0000498420045004C004C0004000700510B4F
:109FF0000B001C2E0398480053004C001400040072
:10A00000040075061900040010007506E22912000C
:10A01000E2290B00112F02804800400004001000CC
:10A02000AF290B00272E02805300400004000400DB
:10A03000AF290400040068060B00891B02804C0055
:10A0400040000400040068060B002A2F059053000E
:10A05000450054002D004800190004001000680657
:10A060001900040010007506E2290B003D2F05A61B
:10A070005300450054002D00530014001800040044
:10A0800004006806190004001000AF290400100045
:10A090007506E2291200040004007506E2290B008F
:10A0A0004E2F05985300450054002D004C00190018
:10A0B00004000400AF29040004007506E2290B0027
:10A0C000A92E087E4E004500550054005200410064
:10A0D0004C003F00262F04000F00BB290B00222F4D
:10A0E000025648002B001800822F0800912F09000B
:10A0F0009A2F1800262F04000100E22904000C000A
:10A100006806442F0B00872F025A48002D001800C4
:10A11000822F0800A52F0900AE2F1800262F04005B
:10A120000B00E22904000C006806442F0B00682F86
:10A13000025653002B0018002E2F04000100E229C4
:10A14000072E552F0B00AF2F025A53002D00180079
:10A150002E2F04000100B629072E552F0B00352F96
:10A1600002564C002B001800392F04000100E22990
:10A17000072E6F2F0B00C72F025A4C002D0018001E
:10A18000392F04000100B629072E6F2F0B009B2FDB
:10A190000788480053004C005F005200450044000F
:10A1A000040000000400030004000100162F0B004F
:10A1B000DF2F0A8A480053004C005F004F00520016
:10A1C00041004E0047004500040001000400030068
:10A1D00004000100162F0B00F02F0AAE48005300B8
:10A1E0004C005F00590045004C004C004F005700E8
:10A1F000040002000400030004000100162F0B00FD
:10A2000004300A9C480053004C005F00590047008E
:10A210005200450045004E00040003000400030006
:10A2200004000100162F0B001830099C4800530051
:10A230004C005F0047005200450045004E000400FE
:10A2400004000400030004000100162F0B002C3052
:10A25000099C480053004C005F0047004300590030
:10A2600041004E000400050004000300040001004A
:10A27000162F0B003F30089C480053004C005F0035
:10A280004300590041004E00040006000400030092
:10A2900004000100162F0B005230098A48005300B9
:10A2A0004C005F0041005A00550052004500040078
:10A2B00007000400030004000100162F0B006430A7
:10A2C000088A480053004C005F0042004C005500D3
:10A2D0004500040008000400030004000100162FDC
:10A2E0000B0077300AA8480053004C005F0056006E
:10A2F00049004F004C0045005400040009000400D0
:10A30000030004000100162F0B0089300B82480067
:10A3100053004C005F004D004100470045004E00D7
:10A320005400410004000A0004000300040001007E
:10A33000162F0B009D30088A480053004C005F0028
:10A3400052004F005300450004000B0004000300BE
:10A3500004000100162F0B00000004B24700520059
:10A360004100590004000000DA0504000F00E60572
:10A37000040004005E061900140004000F00190018
:10A380001200162F0B007627058A57004800490057
:10A390005400450004000000CA300B00072F05964A
:10A3A00042004C00410043004B0004000F00CA3043
:10A3B0000B00D32F07A44C0049004700480054006D
:10A3C00045005200CB2F0B00BF2E06A444004100D5
:10A3D00052004B0045005200D72F0B00BB2F088ABC
:10A3E0005300410054005500520041005400450004
:10A3F000B32F0B00FC300A8A440045005300410093
:10A40000540055005200410054004500BF2F0B007E
:10A41000952E025843002C003B071800B006A503F8
:10A420000C000E000B00292A099049004D0047003E
:10A430002D00570049004400540048000D000B0057
:10A440002B310AA849004D0047002D004800450067
:10A450004900470048005400B0060D000B00383199
:10A46000088249004D0047002D004400410054007F
:10A47000410004000200E2290B00473184444900F6
:10A480004D004700220068040C0004002200D20E98
:10A49000A9291900170068040D00040007007506BB
:10A4A0001E0008006C31410CA9295F0C3B07140009
:10A4B000A929190012008105C307A61617000B0071
:10A4C000722A0A8A45004D00490054002D004900B7
:10A4D0004D004100470045001800363174040C005F
:10A4E00018004431190051311900180008009B313F
:10A4F000190074040D00CE0CBA0B19000400010001
:10A50000B62909008D318D05830C0B0020310B8A93
:10A51000430050003400330037002D0048004C0049
:10A5200049004E0045000400C4000B009E310B8A18
:10A53000430050003400330037002D0056004C001B
:10A5400049004E0045000400B3000B00AE310898EE
:10A55000430050003400330037002D0054004C00FD
:10A560000400DA000B00BE3108A4430050003400A0
:10A57000330037002D00540052000400BF000B00D0
:10A58000CB310898430050003400330037002D00D1
:10A5900042004C000400C0000B00D83108A4430066
:10A5A00050003400330037002D00420052000400F8
:10A5B000D9000B00E5310B9C430050003400330000
:10A5C00037002D00540044004F0057004E00040097
:10A5D000C2000B00F23109A04300500034003300E8
:10A5E00037002D005400550050000400C1000B003E
:10A5F00002320CA8430050003400330037002D0015
:10A600005400520049004700480054000400C300B1
:10A610000B0010320BA84300500034003300370009
:10A620002D0054004C004500460054000400B400C6
:10A630000B0021320BA643005000340033003700DA
:10A640002D00430052004F00530053000400C5008A
:10A650000B0000000A8A530049004E0051002D00F3
:10A660005400410042004C00450006000000C900B3
:10A6700092015B022403ED03B6047F05480611072F
:10A68000D907A2086A09330AFB0AC40B8C0C540DC3
:10A690001C0EE30EAB0F72103A110112C8128F1389
:10A6A00055141C15E215A8166E173318F918BE19A3
:10A6B000821A471B0B1CCF1C931D571E1A1FDD1F30
:10A6C0009F2061212322E522A62367242825E8254F
:10A6D000A82667272628E528A329612A1F2BDC2B1B
:10A6E000992C552D112ECC2E872F4130FB30B531B2
:10A6F0006E322633DF3396344D350436BA366F3733
:10A700002438D9388C39403AF23AA53B563C073DBB
:10A71000B83D683E173FC53F73402141CE417A4264
:10A720002543D0437A442445CD4575461C47C3474D
:10A7300069480F49B449584AFB4A9D4B3F4CE04C8D
:10A74000814D204EBF4E5D4FFB4F97503351CE5140
:10A75000685202539B533254C9546055F5558A567A
:10A760001D57B0574258D3586459F359825A0F5B5A
:10A770009C5B285CB35C3E5DC75D4F5ED75E5D5FF2
:10A78000E35F6860EB606E61F0617162F16270635B
:10A79000EE636C64E8646365DD655666CF664667A4
:10A7A000BC673268A66819698B69FD696D6ADC6AE5
:10A7B0004A6BB76B236C8E6CF86C616DC96D306E33
:10A7C000966EFB6E5E6FC16F22708370E270407197
:10A7D0009D71F9715472AE7207735E73B5730A742A
:10A7E0005F74B27404755575A575F37541768D76F1
:10A7F000D87622776B77B377FA773F788478C77803
:10A8000009794A798979C879057A417A7C7AB67A60
:10A81000EE7A267B5C7B917BC57BF87B297C597C1F
:10A82000887CB67CE37C0E7D397D627D897DB07D40
:10A83000D57DFA7D1D7E3E7E5F7E7E7E9C7EB97ECE
:10A84000D57EEF7E097F217F377F4D7F617F747FCB
:10A85000867F977FA67FB47FC17FCD7FD87FE17F42
:10A86000E97FF07FF57FF97FFD7FFE7F00000A8A98
:10A8700050004F00570032002D00540041004200AC
:10A880004C00450006000100020004000800100012
:10A8900020004000800000010002000400080010B9
:10A8A00000200040008000000B8A4C004F00470051
:10A8B000320049002D005400410042004C00450088
:10A8C0000600000000100020003000400050006032
:10A8D00000700080009000A000B000C000D000E038
:10A8E00000F000000B8A4C004F0047003200460089
:10A8F0002D005400410042004C00450006000000BD
:10A9000017002E0045005C00720089009F00B60011
:10A91000CC00E200F9000F0125013B015001660166
:10A920007C019201A701BD01D201E701FC011202E5
:10A9300027023C02510265027A028F02A302B8028A
:10A94000CC02E102F5020A031E03320346035A0356
:10A950006E0382039603A903BD03D103E403F80346
:10A960000B041E043204450458046B047E04910455
:10A97000A404B704CA04DC04EF0402051405270587
:10A9800039054B055E05700582059405A605B905D8
:10A99000CB05DC05EE050006120624063506470643
:10A9A00058066A067B068D069E06B006C106D206CC
:10A9B000E306F406050716072707380749075A076D
:10A9C0006B077B078C079D07AD07BE07CE07DF0728
:10A9D000EF07FF07100820083008400850086108FA
:10A9E000710881089008A008B008C008D008E008E5
:10A9F000EF08FF080F091E092E093D094D095C09E2
:10AA00006B097B098A099909A809B809C709D609F8
:10AA1000E509F409030A120A210A300A3E0A4D0A1E
:10AA20005C0A6B0A790A880A970AA50AB40AC20A5C
:10AA3000D10ADF0AEE0AFC0A0A0B190B270B350BA9
:10AA4000430B510B5F0B6E0B7C0B8A0B980BA60B09
:10AA5000B30BC10BCF0BDD0BEB0BF90B060C140C7E
:10AA6000220C2F0C3D0C4A0C580C660C730C800CFD
:10AA70008E0C9B0CA90CB60CC30CD00CDE0CEB0C92
:10AA8000F80C050D120D1F0D2D0D3A0D470D540D2F
:10AA9000600D6D0D7A0D870D940DA10DAE0DBA0DE3
:10AAA000C70DD40DE00DED0DFA0D060E130E1F0EA1
:10AAB0002C0E380E450E510E5E0E6A0E760E830E6B
:10AAC0008F0E9B0EA70EB40EC00ECC0ED80EE40E49
:10AAD000F00EFC0E090F150F210F2D0F380F440F2C
:10AAE000500F5C0F680F740F800F8B0F970FA30F21
:10AAF000AF0FBA0FC60FD20FDD0FE90FF40F001022
:10AB000000000B8A4C004F004700320044002D002B
:10AB10005400410042004C00450006001700170099
:10AB20001700170016001700160017001600160071
:10AB30001700160016001600150016001600160065
:10AB4000150016001500150015001600150015005B
:10AB50001500140015001500140015001400150050
:10AB60001400150014001400140014001400140044
:10AB70001400130014001400130014001300130039
:10AB8000140013001300130013001300130013002C
:10AB90001300120013001300120013001200120021
:10ABA0001300120012001200120013001200110014
:10ABB0001200120012001200110012001100120007
:10ABC00011001200110012001100110011001100FB
:10ABD00011001100110011001100110011001000EE
:10ABE00011001100100011001000110010001000E1
:10ABF00011001000100010001000110010001000D3
:10AC00000F00100010001000100010000F001000C6
:10AC100010000F0010000F0010000F000F001000B8
:10AC20000F000F000F0010000F000F000F000F00AB
:10AC30000F000F000F000F000E000F000F000F009D
:10AC40000E000F000F000E000F000E000F000E0090
:10AC50000F000E000E000F000E000E000E000E0082
:10AC60000E000F000E000E000E000E000D000E0074
:10AC70000E000E000E000E000D000E000E000D0066
:10AC80000E000D000E000E000D000D000E000D0058
:10AC90000E000D000D000D000E000D000D000D004A
:10ACA0000D000D000E000D000D000D000C000D003C
:10ACB0000D000D000D000D000D000C000D000D002D
:10ACC0000C000D000D000C000D000C000D000C0020
:10ACD0000D000C000D000C000C000D000C000C0011
:10ACE0000C000D000C000C000C000C000C000C0003
:10ACF0000D000C000C000C000B000C000C000C00F4
:10AD00000C000C000C000B000C000C000C000B00E5
:10AD10000C000C000B000C000B000C0000000B8A58
:10AD2000450058005000320046002D0054004100FC
:10AD300042004C004500060000100B1016102110B8
:10AD40002D10381043104E105A10651070107C10E2
:10AD5000871093109E10AA10B510C110CD10D810F6
:10AD6000E410F010FB10071113111F112B113711F4
:10AD700043114F115B11671173117F118B119711E3
:10AD8000A311B011BC11C811D511E111ED11FA11C7
:10AD9000061213121F122C123812451252125F1291
:10ADA0006B127812851292129F12AC12B812C51251
:10ADB000D312E012ED12FA120713141321132F13FA
:10ADC0003C1349135713641372137F138D139A1393
:10ADD000A813B513C313D113DF13EC13FA1308141C
:10ADE00016142414321440144E145C146A1478148B
:10ADF00087149514A314B114C014CE14DD14EB14ED
:10AE0000FA14081517152515341543155215601534
:10AE10006F157E158D159C15AB15BA15C915D8156E
:10AE2000E715F7150616151624163416431653168D
:10AE30006216721681169116A116B016C016D0169B
:10AE4000E016F016FF160F171F1730174017501790
:10AE50006017701780179117A117B117C217D21773
:10AE6000E317F41704181518261836184718581839
:10AE700069187A188B189C18AD18BE18CF18E018EE
:10AE8000F218031914192619371949195A196C1986
:10AE90007E198F19A119B319C519D619E819FA190C
:10AEA0000C1A1E1A311A431A551A671A7A1A8C1A72
:10AEB0009E1AB11AC31AD61AE91AFB1A0E1B211BC5
:10AEC000341B471B591B6C1B7F1B931BA61BB91BF9
:10AED000CC1BDF1BF31B061C1A1C2D1C411C541C15
:10AEE000681C7C1C8F1CA31CB71CCB1CDF1CF31C18
:10AEF000071D1B1D301D441D581D6C1D811D951DFA
:10AF0000AA1DBE1DD31DE81DFD1D111E261E3B1EC4
:10AF1000501E651E7A1E8F1EA51EBA1ECF1EE51E70
:10AF2000FA1E101F251F3B1F501F661F7C1F921FFC
:10AF3000A81FBE1FD41FEA1F002000000B8A450077
:10AF400058005000320044002D00540041004200DF
:10AF50004C00450006000B000B000B000C000B0022
:10AF60000B000B000C000B000B000C000B000C0086
:10AF70000B000C000B000C000C000B000C000C0074
:10AF80000B000C000C000C000C000C000C000C0062
:10AF90000C000C000C000C000C000C000C000D0050
:10AFA0000C000C000D000C000C000D000C000D003E
:10AFB0000C000D000C000D000D000D000C000D002C
:10AFC0000D000D000D000D000C000D000E000D0019
:10AFD0000D000D000D000D000D000E000D000D0008
:10AFE0000E000D000E000D000E000D000E000D00F5
:10AFF0000E000E000E000D000E000E000E000E00E2
:10B000000E000E000E000E000E000E000F000E00CF
:10B010000E000E000F000E000F000E000F000E00BD
:10B020000F000E000F000F000F000E000F000F00AA
:10B030000F000F000F000F000F000F000F00100097
:10B040000F000F000F0010000F0010000F00100085
:10B050000F00100010000F00100010001000100072
:10B060000F00100010001100100010001000100060
:10B07000100011001000100011001000110011004C
:10B08000100011001100100011001100110011003A
:10B090001100110011001100110011001200110027
:10B0A0001100120011001200110012001200110014
:10B0B0001200120012001100120012001200120001
:10B0C00013001200120012001300120012001300ED
:10B0D00012001300130012001300130013001300DA
:10B0E00012001300130014001300130013001300C8
:10B0F00014001300140013001400130014001400B3
:10B1000013001400140014001400140014001400A0
:10B11000150014001400140015001400150014008C
:10B120001500150015001400150015001500150078
:10B130001500150016001500150016001500160064
:10B140001500160015001600160016001600160051
:10B1500016001600160000000B8A41005400410042
:10B160004E0046002D005400410042004C004500B6
:10B1700006000000290051007A00A300CC00F40072
:10B180001D0146016F019701C001E90111023A0258
:10B1900062028B02B402DC0205032D0356037E0318
:10B1A000A703CF03F7032004480470049904C104E3
:10B1B000E9041105390561058905B105D9050106BF
:10B1C000290651067806A006C806EF0617073E07AF
:10B1D00066078D07B507DC0703082A0851087808B9
:10B1E0009F08C608ED0814093B0961098809AE09E2
:10B1F000D509FB09220A480A6E0A940ABA0AE00A2B
:10B20000060B2C0B510B770B9D0BC20BE70B0D0C98
:10B21000320C570C7C0CA10CC60CEB0C100D340D31
:10B22000590D7D0DA20DC60DEA0D0F0E330E560EF3
:10B230007A0E9E0EC20EE50E090F2C0F500F730FE3
:10B24000960FB90FDC0FFF0F211044106710891003
:10B25000AB10CE10F0101211341156117711991154
:10B26000BB11DC11FD111F12401261128212A312D8
:10B27000C312E41205132513451366138613A61390
:10B28000C613E61305142514441464148314A2147D
:10B29000C114E014FF141E153D155B157A159815A1
:10B2A000B715D515F31511162F164C166A168816F4
:10B2B000A516C216E016FD161A1737175417701781
:10B2C0008D17AA17C617E217FE171B183718531841
:10B2D0006E188A18A618C118DD18F81813192E1937
:10B2E000491964197F199A19B419CF19E919041A5F
:10B2F0001E1A381A521A6C1A861A9F1AB91AD31AB9
:10B30000EC1A051B1F1B381B511B6A1B831B9C1B44
:10B31000B41BCD1BE51BFE1B161C2E1C461C5E1C05
:10B32000761C8E1CA61CBE1CD51CED1C041D1B1DF2
:10B33000331D4A1D611D781D8E1DA51DBC1DD31D0D
:10B34000E91DFF1D161E2C1E421E581E6E1E841E59
:10B350009A1EB01EC51EDB1EF01E061F1B1F301FCF
:10B36000451F5A1F6F1F841F991FAE1FC31FD71F72
:10B37000EC1F002000000B8A4100540041004E00E9
:10B3800044002D005400410042004C0045000600DE
:10B390002900280029002900290028002900290067
:10B3A0002900280029002900280029002800290058
:10B3B0002900280029002800290028002900280049
:10B3C000280029002800280029002800280028003B
:10B3D000280028002800280028002800280028002D
:10B3E0002700280028002700280027002800270021
:10B3F0002800270027002700270027002700270014
:10B400002700270027002600270026002700260007
:10B4100027002600260026002600260026002600FB
:10B4200025002600260025002500260025002500F1
:10B4300025002500250025002500240025002400E6
:10B4400025002400240025002400230024002400DB
:10B4500024002300240023002400230023002300D1
:10B4600023002300220023002300220022002300C7
:10B4700022002200220022002100220022002100BE
:10B4800021002200210021002100210020002100B4
:10B4900021002000200021002000200020002000AA
:10B4A0001F0020001F0020001F001F001F001F00A2
:10B4B0001F001F001F001E001F001E001F001E0097
:10B4C0001E001E001E001D001E001E001D001D008F
:10B4D0001E001D001D001D001D001C001D001D0084
:10B4E0001C001C001C001D001C001C001B001C007C
:10B4F0001C001B001C001B001B001B001B001B0072
:10B500001B001B001A001B001A001B001A001A0067
:10B510001A001A001A0019001A001A00190019005E
:10B520001A00190019001900190019001800190053
:10B53000180019001800180018001800180018004A
:10B54000180018001700180017001700180017003F
:10B550001700170016001700170017001600160036
:10B56000170016001600160016001600160016002A
:10B570001500160015001600150015001500150021
:10B580001500150015001500150014001500140015
:10B5900000000580530049004E00510040004D322C
:10B5A0001900BC06E2290D000B00000005805000C8
:10B5B0004F005700320040005A331900BC06E22900
:10B5C0000D000B00000006804C004F0047003200C9
:10B5D0004900400078331900BC06E2290D000B0039
:10B5E000000006804C004F0047003200460040003B
:10B5F00096331900BC06E2290D000B0000000680FE
:10B600004C004F004700320044004000A5341900B0
:10B61000BC06E2290D000B00000006804500580022
:10B620005000320046004000B3351900BC06E22944
:10B630000D000B000000068045005800500032004D
:10B6400044004000C2361900BC06E2290D000B0080
:10B65000000006804100540041004E0046004000BA
:10B66000D0371900BC06E2290D000B00000006804F
:10B670004100540041004E0044004000DF381900F2
:10B68000BC06E2290D000B002316047C510031009A
:10B6900035003E001800E22914001B00370012009C
:10B6A000E2290B005C3A05A45100310035003E0050
:10B6B00052001900040000401F008105E229623A8F
:10B6C0000B00E72E058855002F004D004F00440069
:10B6D000140004000000120005060B00793A025E17
:10B6E00055002F00803A190017000B00863A035EC0
:10B6F00055002A002F00140033001200050619001F
:10B7000017000B00950607882A002F0052004F00F3
:10B7100055004E00440018009D29140090061900A1
:10B720009D291800E2291300BA0535000800B33A34
:10B7300004000100E229120017000B005531038CB0
:10B7400049002A0046007C06623A0B00E630078E6C
:10B75000420049004E003E004400450047000400FE
:10B760002D0004000020A33A0B001231079C440076
:10B77000450047003E00420049004E0004006801B9
:10B7800068060400002004002D00A33A0B00BE3A16
:10B7900009A6420049004E003E0044004500470013
:10B7A0002E00530004002D00750604000020A33A6B
:10B7B0000B00CD3A099C4400450047002E00530081
:10B7C0003E00420049004E00180004006801750662
:10B7D0001400190013006806190004002D007506F6
:10B7E000040000201900A33A120017000B000631D4
:10B7F000066C530054004500500031003600040030
:10B80000000014001800040008001C000800273B7A
:10B810001A0004000200AF291200E22914001800E7
:10B82000040004001C000800343B1A00040004005B
:10B83000AF291200E22914001800040002001C00C5
:10B840000800413B1A0004000800AF291200E22959
:10B8500014001800040001001C0008004E3B1A00F0
